S02200006D696E6965636F5F70617065726F67615F625F726F746F6E64692E7372656351
S31500000000200E0020B93100003D2F0000B531000060
S31500000010B5310000B5310000B5310000B531000042
S31500000020000000000000000000000000B5310000E4
S31500000030B531000000000000B53100005D1500007C
S31500000040352D0000000000000000000069280000B7
S31500000050F92200006922000085230000BD2300006C
S31500000060000000000000000000000000000000008A
S31500000070000000000000000000000000000000007A
S31500000080000000000000000000000000000000006A
S31500000090000000000000000000000000000000005A
S31500000400FFFFFFFFDFDEFFFFFCFF0F00FFFF0F0018
S31500000410FCFF0F00FFFF0F00FCFF0F00FFFF0F00A8
S31500000420FCFF0F20FFFF0F20FCFF7F40FFFF7F40F8
S31500000430FCFF0D40FFFF0D40FFFFFFFF10B540F230
S31500000440A804C2F20004237863B940F20003C0F2A4
S3150000045000032BB144F25050C0F2000000E000BF90
S315000004600123237010BDC04640F20003C0F2000312
S3150000047010B54BB140F2AC0144F25050C2F200014B
S31500000480C0F2000000E000BF10BDC04670B5040019
S31500000490150003F076FA2900200003F0A9FA01F00E
S315000004A090F80100200003F074FA01F08AF80100C8
S315000004B0200003F076FA70BD70B504000500A03583
S315000004C000F09EFB200000F0E7FB50B9200000F092
S315000004D08EFC200000F004FD200000F0BFFB20B1E0
S315000004E070BD200000F01AFDF6E75823E25A5301CA
S315000004F09B1A99008918C90005222800FFF7C6FF34
S3150000050001F05FF80100280003F03FFAE8E770B554
S315000005100400060084360500A03500F0A2FC200089
S3150000052000F0FCFC5423E35C33B901F04AF8010007
S31500000530280003F036FA70BD01F043F801003000E0
S3150000054003F02FFAF1E770B50400050084350600C4
S31500000550A03600F086FC01F034F80100280003F014
S31500000560CDF90100200000F0F1FB01F02AF80100AE
S31500000570280003F00EFA01F024F80100280003F029
S3150000058010FA01F01EF80100300003F002FA01F043
S3150000059018F80100300003F004FA200000F0BEFC59
S315000005A070BD70B50C000D008435012814D00228EA
S315000005B017D010B10120404270BD080000F04AFA81
S315000005C0A0B92000FFF778FF00F0FBFF010028002C
S315000005D003F0DBF90320EFE70800FFF7B4FF002084
S315000005E0EAE70800FFF7AFFF0120E5E701204042F8
S315000005F0E2E7FFFF70B50C000D00A035082864D8AF
S315000006008000334B1B589F46012003E00800FFF78C
S315000006109AFF002070BD0800FFF779FF0420F9E774
S315000006205A23CA5A53019B1A9E00B618F6000800B0
S3150000063000F03DFC98B1072231002800FFF726FFA5
S3150000064000F0BFFF0100280003F09FF9200000F032
S31500000650EDFA200000F005FC01204042DAE7062210
S31500000660EAE7080000F0C3FB200000F039FC58233D
S31500000670E25A53019B1A99008918C90005222800DD
S31500000680FFF704FF00F09DFF0100280003F07DF94D
S3150000069001204042BEE7080000F0C6FB200000F043
S315000006A01FFC5823E25A53019B1A99008918C90066
S315000006B005222800FFF7EAFE00F083FF010028006C
S315000006C003F063F901204042A4E701204042A1E77C
S315000006D0883E000070B50C000D008435022816D047
S315000006E009D8012804D10800FFF72DFF002001E0FA
S315000006F00120404270BD032801D0082804D1200003
S31500000700FFF705FF0420F5E701204042F2E7080065
S3150000071000F004FC200000F0DAF9010002222800B3
S31500000720FFF7B4FE00F04DFF0100280003F02DF99D
S315000007302000FFF7C1FE0320DCE770B50C000D00BA
S315000007408435012837D0032803D0E8B10120404280
S3150000075070BD080000F0BBF9010002222800FFF777
S3150000076095FE5423E35C3BB100F02BFF010028000B
S3150000077003F017F90420EBE700F023FF010028003F
S3150000078003F003F90420E3E7080000F063F9B8B9C1
S315000007902000FFF791FE200000F099F901000222E7
S315000007A02800FFF773FE00F00CFF0100280003F09D
S315000007B0ECF80320CCE70800FFF7C5FE0020C7E7EA
S315000007C001204042C4E770B50C000D00843520B10D
S315000007D0042833D00120404270BD080000F03AF9E9
S315000007E000283DD15623E35AABB1200000F078FB38
S315000007F05623E25A53019B1A99008918C90002220E
S315000008002800FFF743FE00F0DCFE0100280003F09D
S31500000810BCF80220E0E72000FFF74EFE200000F0C3
S3150000082056F9010002222800FFF730FE00F0C9FE4B
S315000008300100280003F0A9F80320CDE78A8C5301B4
S315000008409B1A99008918C90002222800FFF71EFE8C
S3150000085000F0B7FE0100280003F0A3F80420BBE770
S3150000086001204042B8E770B504000E00100062682F
S3150000087053009B189B002268D3589847051E01DA3F
S31500000880002070BD626853009B189B002268944646
S3150000089063449B680BB13000984765602368680025
S315000008A04519AD005D196B680BB130009847012002
S315000008B0E7E710B5027D0800BC30FFF7D4FF10BD96
S315000008C070B5040043F6AC63C0F20003BC2283504B
S315000008D0C0230022C25040F6B305C0F200058430A2
S315000008E000232A00002103F038F82000A03000235E
S315000008F02A00002103F031F870BD10B5040000F0A5
S3150000090060FE010020008430220003F04EF800F063
S3150000091058FE01002000A030220003F046F8002017
S3150000092010BD030040F2413290420CD940F2CB6236
S3150000093090420BD89620584340F28B3390FBF3F04D
S31500000940933800B270470A204042FBE78C20F9E753
S3150000095010B504007823C35C03B910BD00F031FE66
S31500000960E067FAE710B5040038B1C422002103F0AD
S3150000097010F92000FFF7A4FF10BD43F6E863C0F2AC
S31500000980000344F24C12C0F2000243F6F860C0F2D3
S315000009900000142102F097FA10B510B1FFF7ADFF71
S315000009A010BD43F6E863C0F2000344F23C12C0F205
S315000009B0000243F6F860C0F200001C2102F083FA40
S315000009C010B538B14423C05A4008012358400123CA
S315000009D0184010BD43F6E863C0F2000344F21C124F
S315000009E0C0F2000243F6F860C0F20000232102F0D4
S315000009F06AFA10B538B14423C05A40090123584059
S31500000A000123184010BD43F6E863C0F2000344F228
S31500000A10EC02C0F2000243F6F860C0F200002921A1
S31500000A2002F051FA10B530B14423C05A01234340B5
S31500000A300120184010BD43F6E863C0F2000344F2FB
S31500000A40D402C0F2000243F6F860C0F200002F2183
S31500000A5002F039FA70B5050088B1FFF7B1FF431E01
S31500000A60984104002800FFF7C4FFB8B102200443F0
S31500000A702800FFF7D7FF98B10420204370BD43F646
S31500000A80E863C0F2000344F2C002C0F2000243F67B
S31500000A90F860C0F20000352102F015FA0020E6E702
S31500000AA00020EAE710B50100BC300022FFF7DBFEAC
S31500000AB010BD10B50100BC300322FFF7D4FE10BDF7
S31500000AC010B50100BC300122FFF7CDFE10BD10B5F8
S31500000AD050B14623C35CB3B95C33C25A53019B1A67
S31500000AE098008018C0000FE043F6E863C0F20003E8
S31500000AF044F2A002C0F2000243F6F860C0F2000021
S31500000B004B2102F0E0F9002010BD10B520B13623CC
S31500000B10C35C83B1008F10BD43F6E863C0F20003E7
S31500000B2044F28C02C0F2000243F6F860C0F2000004
S31500000B30672102F0C8F97823C35C012B03D0022B8E
S31500000B4003D11020E7E72020E5E70020E3E710B512
S31500000B50030040B13622825CA2B97822805C98B14B
S31500000B600832985C10E043F6E863C0F2000344F2F2
S31500000B707002C0F2000243F6F860C0F20000802165
S31500000B8002F0A1F93A22805C10BD10B5030028B12D
S31500000B903622805C08B10532985C10BD43F6E863E6
S31500000BA0C0F2000344F25402C0F2000243F6F860B9
S31500000BB0C0F200008C2102F086F910B50400100086
S31500000BC01CB189B1012914D010BD43F6E863C0F207
S31500000BD0000344F23802C0F2000243F6F860C0F2A5
S31500000BE00000962102F06FF9A287FFF79AFEE087D0
S31500000BF0EAE74023E252FFF794FE4223E052E3E79E
S31500000C0010B520B14623C05C4342584110BD43F69F
S31500000C101073C0F2000344F21002C0F2000243F661
S31500000C20F860C0F20000FA2102F04DF910B528B1C3
S31500000C304623C05C02384342584110BD43F6107348
S31500000C40C0F2000343F6F872C0F2000243F6F86001
S31500000C50C0F2000040F2001102F035F910B538B1CB
S31500000C605C23C35AA3B15A23C35A9BB1002010E098
S31500000C7043F61073C0F2000343F6E072C0F20002BE
S31500000C8043F6F860C0F2000040F2061102F01BF9CC
S31500000C90002010BD0120FCE710B520B15C23C05A2E
S31500000CA04342584110BD43F61073C0F2000343F6A9
S31500000CB0CC72C0F2000243F6F860C0F2000040F2C7
S31500000CC00C1102F000F910B520B1C023C3588BB93E
S31500000CD0002010BD43F6E863C0F2000343F6B0728D
S31500000CE0C0F2000243F6F860C0F2000040F21211B2
S31500000CF002F0E9F88430040000F063FC01002000F3
S31500000D0002F008FE40F2E833B0FBF3F080B2E0E711
S31500000D1010B528B1C38D9BB1012B14D0002010BD96
S31500000D2043F6E863C0F2000343F69072C0F2000295
S31500000D3043F6F860C0F2000040F2251102F0C3F855
S31500000D403E23C05EEBE74223C05EE8E710B540B144
S31500000D5040F2E833B1FBF3F183689C46614481605D
S31500000D6010BD43F61073C0F2000343F67872C0F26A
S31500000D70000243F6F860C0F2000040F24A1102F0A9
S31500000D80A2F810B540B140F2E833B1FBF3F1C36805
S31500000D909C466144C16010BD43F61073C0F2000367
S31500000DA043F65C72C0F2000243F6F860C0F200003F
S31500000DB040F2501102F087F810B540B140F2E83326
S31500000DC0B1FBF3F103699C466144016110BD43F632
S31500000DD01073C0F2000343F63C72C0F2000243F601
S31500000DE0F860C0F2000040F2561102F06CF810B53F
S31500000DF0040048B1FFF7ACFD78230122E2541A3B08
S31500000E00E25C2233E25410BD43F6E863C0F200030D
S31500000E1044F29C12C0F2000243F6F860C0F20000F1
S31500000E2040F28F1102F04FF810B5040048B1FFF7F9
S31500000E308FFD78230222E2541A3BE25C2233E2540D
S31500000E4010BD43F6E863C0F2000344F28812C0F214
S31500000E50000243F6F860C0F2000040F2971102F07B
S31500000E6032F870B5040038B17823C35CA3B9002109
S31500000E702000FFF786FF70BD43F6E863C0F200036B
S31500000E8044F27812C0F2000243F6F860C0F20000A5
S31500000E9040F29F1102F017F8C56F00F092FB411B5C
S31500000EA003D478230022E254E2E7291AF9E710B5C1
S31500000EB030B17823C05C013843425841C0B210BDFE
S31500000EC043F6E863C0F2000344F25812C0F200028F
S31500000ED043F6F860C0F2000040F2AC1101F0F3FFF7
S31500000EE010B5040030B17023C35C9BB1702301229E
S31500000EF0E25410BD43F6E863C0F2000344F20C125C
S31500000F00C0F2000243F6F860C0F2000040F2B911E8
S31500000F1001F0D9FF00F055FB6067E7E770B5040004
S31500000F2038B17023C35CA3B900212000FFF744FF4A
S31500000F3070BD43F6E863C0F2000344F22802C0F233
S31500000F40000243F6F860C0F2000040F2C21101F060
S31500000F50BAFF456F00F035FB411BE6D5291AE4E7D9
S31500000F6010B50400FFF7FEFC200000F06AF800F060
S31500000F700DFF10BD70B50400FFF70EFD200000F058
S31500000F803CFF200000F09CF840F2C403C2F20003CC
S31500000F901D68F535FF3500F014FB2D1A002D00DD18
S31500000FA070BD022000F03BF9020000212000FFF78F
S31500000FB004FE012000F033F9020001212000FFF7B2
S31500000FC0FCFD00F097F94423E05200F0FAFA40F2F3
S31500000FD0C403C2F200031860E2E710B540F2C8028B
S31500000FE0C2F20002928802B910BD1800FFF761FD37
S31500000FF0FAE770B50500002409E00121A140294067
S315000010004942C90F200000F028FA0134E4B2052C49
S31500001010F3D970BD10B540F2C803C2F20003588878
S31500001020FFF7E7FF10BD10B540F2C804C2F2000496
S315000010302178002000F0CAF96178012000F0C6F995
S3150000104010BDF0B583B0010043F65133C0F2000382
S3150000105043F65D52C0F2000240F2D005C2F200052E
S31500001060280002F034FB41F22707C0F2000740F2E5
S31500001070C804C2F20004002600963B0001222100AB
S31500001080280002F03FFB611C00963B00012228006D
S3150000109002F038FB41F21503C0F20003A11C0096D2
S315000010A00222280002F02EFB40F6DB73C0F200039A
S315000010B0211D00960222280002F024FB03B0F0BD99
S315000010C070B50500FFF743FD40F2C804C2F2000404
S315000010D020702800FFF759FD60702800FFF715FD06
S315000010E060802800FFF7B6FCA08000F06AFA0100D5
S315000010F040F2D000C2F2000002F06BFB70BD10B5EA
S3150000110044F23C31C0F2000140F2E440C2F2000079
S3150000111001F0FBFCA0B944F26031C0F2000140F2DC
S31500001120E440C2F2000001F0D3FDC0B9002001F096
S315000011307EFF40F2E440C2F2000001F0DEFB10BD8B
S3150000114044F2B013C0F2000344F2E812C0F2000207
S3150000115044F2C410C0F20000132101F0B4FE44F2C0
S31500001160B013C0F2000344F2E812C0F2000244F2E7
S31500001170C410C0F20000162101F0A5FE10B584B01F
S3150000118040F24813C2F200031C68F534FF3400F045
S3150000119018FA241A002C01DD04B010BD44F2D8134D
S315000011A0C0F200031A8869460A809A788A7001AAF2
S315000011B0043313CB13C2002413E0A20001ABD258B0
S315000011C040F21C13C2F200031B885B00D2186B4668
S315000011D0195740F2E440C2F2000001F093FB0134DB
S315000011E0E4B2022CE9D940F21C11C2F200010B88CC
S315000011F001330A2293FBF2F08200121852009B1A66
S315000012000B8040F2E440C2F2000001F076FB00F0F1
S31500001210D8F940F24813C2F200031860BCE730B5B3
S3150000122085B001AA44F2D813C0F20003043332CBCE
S3150000123032C20023002106E0820001AC12595C0094
S31500001240A25A89180133092BF6D90A20B1FBF0F00E
S3150000125080B205B030BD704710B540F24C10C2F2F6
S31500001260000002F0C7FB10BD70B586B040F2D41383
S31500001270C2F200031C68053400F0A3F9241A002CFE
S3150000128001DD06B070BD02AA44F2F813C0F20003F5
S3150000129013CB13C21B8813800024002600E0013400
S315000012A0062C17D801236A46D37144F23033C0F2B4
S315000012B000039A689569620002A9515A18686B463C
S315000012C0DA1DA8476B46DB79002BE8D10133A34032
S315000012D01E43E4E740F24C10C2F200000522310042
S315000012E002F0C9FB00F06DF940F2D413C2F200031C
S315000012F01860C6E740F24C13C2F200031879704733
S3150000130010B540F2D813C2F200031B7833B340F293
S31500001310DC13C2F200031C68323400F052F9241ABE
S31500001320002C00DD10BD44F23033C0F200039A6891
S31500001330D4691868002240F20041A04740F2D81351
S31500001340C2F200031A7851424A411A7000F039F984
S3150000135040F2DC13C2F200031860E3E740F2DC134C
S31500001360C2F200031C6840F2D07C644400F029F904
S31500001370241A002CD6DC44F23033C0F200039A68FB
S31500001380D4691868012240F20041A04740F2D81300
S31500001390C2F200031A7851424A411A7000F011F95C
S315000013A040F2DC13C2F200031860BBE710B544F24A
S315000013B07431C0F2000140F20854C2F20004200069
S315000013C001F0FEF9200001F0E1F910BD642900D911
S315000013D0642110B1012808D070476423591A40F2DD
S315000013E0E013C2F200031980F6E76423591A40F2AB
S315000013F0E213C2F200031980EEE7F8B540F2E415F5
S31500001400C2F200052A880132642392FBF3F14B43B2
S31500001410D31A9BB22B8044F23032C0F20002976896
S31500001420166840F2E012C2F200021288002421007F
S315000014309A426141CAB20E213000FB699847FF69A2
S3150000144040F2E213C2F200031A882B889A426441E2
S31500001450E2B20F213000B847F8BDF0B585B001AC57
S3150000146044F20823C0F200032200E0CBE0C244F2BB
S315000014703033C0F200039A68D5694A1E9141CAB258
S315000014804000015B1868A84705B0F0BD10B544F2EE
S315000014909C33C0F200039A6812685968186890472E
S315000014A010BD70B504000A0044F29C33C0F200037C
S315000014B099688D6818682100A84770BD10B540F27C
S315000014C0EC23C2F200031B680C00994200D91C00F1
S315000014D040F2EC11C2F20001220002F051FB2000A2
S315000014E010BD40F2EC23C2F2000300221A607047DE
S315000014F010B504000379012B02D0042B04D010BDD3
S31500001500C046C046C046FAE740F2EC23C2F20003EA
S315000015101B68FE2BF3D800F054F840F2E813C2F231
S315000015200003186040F2EC23C2F200031A68207A26
S3150000153040F2EC11C2F20001885401321A60DEE773
S3150000154010B540F2E813C2F200031C68241800F03C
S3150000155038F8201A431E1843C00F10BD40F2F0237E
S31500001560C2F200031A6801321A60704740F224631F
S31500001570C2F200031B6840F2E832B3FBF2F3013B10
S3150000158080225204934213D24EF21002CEF200028F
S3150000159053604EF60051CEF200010B6A1B021B0A85
S315000015A0C020000603430B620023936007331360D9
S315000015B04EF60052CEF20002136A1B021B0A136299
S315000015C0704740F2F023C2F200031868704771B109
S315000015D040F20013994206D840F21833C2F20003D3
S315000015E0436000207047002343600220FAE700238F
S315000015F043600020F6E700207047FFFF10B5140097
S31500001600006A4B78022B29D009D8A3B1012B04D14B
S315000016100B78012B19D001231370002010BD032B6A
S31500001620FBD10B78012BF8D14B880F2BF5D89B00FB
S31500001630814AD3589F460B78013B012B02D90123DF
S315000016401370EAE700231370E7E74B88112B02D8E3
S3150000165000231370E1E702231370DEE70B78012BFA
S315000016603DD0022BD9D14B880D2B35D89B00734A20
S31500001670D3589F4600236380CFE701236380CCE7DE
S315000016804423C35A6380C8E7838F6380C5E7C38F4B
S315000016906380C2E74023C35A6380BEE74223C35A2E
S315000016A06380BAE700236380B7E700236380B4E76B
S315000016B0C023C35A6380B0E74623C35C6380ACE7AC
S315000016C0FFF726FB6080A8E7FFF7FDFA6080A4E736
S315000016D0FFF7C0F96080A0E7002353809DE74B88A1
S315000016E00F2B4BD89B00564AD3589F463623C35CD4
S315000016F0638092E7038F63808FE73A23C35C3B22C4
S31500001700825C12021343638087E74823C35C6380CD
S3150000171083E74A23C35A63807FE74C23C35A638017
S315000017207BE75623C35A638077E75423C35C5A1E6C
S3150000173093414E22825C1AB10222134363806CE706
S315000017400022FAE75C23C35A638066E76023C35A24
S31500001750638062E76223C35A63805EE76423C35AE9
S3150000176063805AE75823C35A638056E75A23C35AFD
S31500001770638052E75E23C35A63804EE7002363808B
S315000017804BE78B88022B07D0032B08D0012B00D008
S3150000179043E7FFF787F940E7FFF78BF93DE7FFF7E8
S315000017A08FF93AE78B885A1E93413622835434E7E1
S315000017B08B88038731E70A793A23C2548B881B0A40
S315000017C03B22835429E70A794823C25425E7042398
S315000017D0CA5E4A23C25220E78A884C23C2521CE7BB
S315000017E08A885623C25218E78A8801231A4054244D
S315000017F002558A88520813404E2283540DE78A8880
S315000018005C23C25209E78A886023C25205E78A88A8
S315000018106223C25201E78A886423C252FDE68A889F
S315000018205823C252F9E68A885A23C252F5E68A88B4
S315000018305E23C252F1E6C046144200005442000044
S315000018408C420000016000234360836083818373C0
S31500001850C3730020704770B504000D0011B1817B81
S315000018604D19ADB22900200023689847022800D000
S3150000187025B900236360A360A38170BDE37B626822
S3150000188094466344A360A581F7E710B50A000021DA
S31500001890FFF7E1FF10BDFFFF30B505000C0000218A
S315000018A04FF6FF700CE04008013BDBB233B1C207D4
S315000018B0F9D54008064A504080B2F5E7013189B2B1
S315000018C0A14203D26B5C58400823EFE730BDC04607
S315000018D001A0FFFF70B504AC20CC247885600473AA
S315000018E0016042600022026210301900FFF7AAFF71
S315000018F070BD70B504000E001500436803B198472B
S3150000190020001030226A0221FFF7A5FF40B980218E
S3150000191049420E43A3691E70A3695D70002070BD25
S315000019200820FCE7F0B5D6464F464646C0B584B01B
S3150000193005000E00052B39D1032949D03FD80129CE
S315000019404BD0022942D140F2010940F2D071082061
S31500001950947853781B021C43A0461779D3781B0250
S315000019601F433BB29A46002F3CD0B9423AD380235C
S315000019705B02DB1B9C423BDC01AB187000225A70F9
S315000019805A809A809E710024BC4242D24346E31894
S3150000199001A94B8003AA28002B68984770BB03ABAC
S315000019A01A78002A30D10134A4B2EDE70322FFF7FA
S315000019B0A0FF04B0E0BCBA46B146A846F0BD042973
S315000019C004D140F200097D210220C1E70C20F0E796
S315000019D040F200097D210120BAE7894640F2D07124
S315000019E00420B5E7032231002800FFF782FFE0E775
S315000019F0022231002800FFF77CFFDAE704223100DB
S31500001A002800FFF776FFD4E731002800FFF771FFC3
S31500001A10CFE74B4673B1FC1DE410E4B2A11C2800CD
S31500001A2010302A6AFFF717FF48B9AB691E70AB6919
S31500001A305C700EE05346DCB26400E4B2EEE70820C8
S31500001A40B7E7831CAA699446634400221A700130E2
S31500001A50C0B2A042F5D301AB02225A7000240FE0B7
S31500001A60AB69023303AA528812B3E208072020406A
S31500001A70012181400800995C014399540134A4B2C4
S31500001A80BC421ED24346E31801A94B8003AA280094
S31500001A902B6898474B46002BE2D163000233AA69B4
S31500001AA09446634403AA5288110A19705A70E5E7EE
S31500001AB0E2080721214001208840995C814399541E
S31500001AC0DCE7002075E7F0B5DE4657464E4645464C
S31500001AD0E0B587B0070088461500052B22D90F29E7
S31500001AE024D040F2010A7B21AE786A7812021643AE
S31500001AF032B2934600962879EC782402044322B247
S31500001B0001926A7912B1063B9A4214D003224146E9
S31500001B103800FFF7EEFE07B0F0BCBB46B246A9465A
S31500001B20A046F0BD0322FFF7E4FEF4E740F2040A04
S31500001B3040F2B071D8E73CB1A14205D35346042B1D
S31500001B4008D063009A4208D0032241463800FFF7C6
S31500001B50D0FEE0E7E31DDB10F4E780235B021B1BEE
S31500001B60009A9A420BDC03AB52461A7001225A7055
S31500001B7000225A809A8042469A7100261AE0022272
S31500001B8041463800FFF7B5FEC5E7F308EB189B7929
S31500001B900722324013411A000123134003A98B8008
S31500001BA005AA38003B689847A8B905AB1A78C2B9A8
S31500001BB00136B6B2A64219D2009BF31803AA538087
S31500001BC05346042BE1D073000633EB185A781B7882
S31500001BD01B021343E2E7042241463800FFF789FE61
S31500001BE099E741463800FFF784FE94E703AB0322EA
S31500001BF05A7040F2000914E04B46DB08EB189B795B
S31500001C00072249460A4013411A000123134003A93B
S31500001C108B8005AA38003B6898474B4601339BB238
S31500001C209946A1450FD2009B4B4403AA53805346C5
S31500001C30042BE1D04B465B000633EB185A781B7831
S31500001C401B021343E3E7380010303A6A0521FFF719
S31500001C5002FE78B9BB6942461A70BB69009A160A39
S31500001C605E705A469A70BB69240ADC70019A1A7132
S31500001C70002050E708204EE7F8B50E00130009785B
S31500001C80002401E00134A4B2057BA5420AD9E5008F
S31500001C908268521987687D5D8D42F3D1546832009F
S31500001CA0A04702E00122FFF724FEF8BDF0B5DE46AC
S31500001CB057464E46C0B582B00700019114001D007C
S31500001CC0002640F20009191F89B2FC291DD8167892
S31500001CD0023B9B4699B21000FFF7DEFD5B46E21819
S31500001CE0E35C527812021343984210D1631C9A4661
S31500001CF0033DABB2994600235BB99EB1019BB3424B
S31500001D0010D001202C23184306E00123F4E7082312
S31500001D10F2E79B000120184302B0E0BCBB46B24686
S31500001D20A946F0BD3C0010340323BB77023BFB778A
S31500001D304B46DAB251463800FFF79EFF830723B9B8
S31500001D4003069B0E73B9013300E00023002BE3D09A
S31500001D50B98BC9B146B178690B1F9BB2FC2B09D967
S31500001D600420D9E70023F1E7396A2000FFF78DFD4B
S31500001D700020D1E7019B03700239441889B2FFF7AE
S31500001D808BFD2070000A60700020C5E710B582B098
S31500001D9041F2CF53C0F2000341F2F752C0F2000203
S31500001DA041F2FD51C0F2000140F2F420C2F20000FF
S31500001DB00324019440F20004C2F200040094FFF7E9
S31500001DC089FD830723B90006800E28B9013300E098
S31500001DD000231BB102B010BD0023FAE744F2CC2366
S31500001DE0C0F2000344F21C32C0F2000244F2FC20AE
S31500001DF0C0F200004B2101F066F830B5C1B0050015
S31500001E0000230093FB22002101A801F0C2FEFF215E
S31500001E106846FFF753FB040008B941B030BD0A20FD
S31500001E20FFF78EFB0028F8D040F2F420C2F2000043
S31500001E300562E3B26A460121FFF738FF830723B93B
S31500001E400006800E70B9013300E0002363B140F252
S31500001E50F423C2F200035869998BFFF722FBFFF7C0
S31500001E6040FBDAE70023F1E7FFF73BFBD5E710B5C8
S31500001E70FFF77CFBFFF7F0F9FFF798FAFFF73FF95A
S31500001E80FFF704FB40F21840C2F20000FFF768F8C3
S31500001E9040F21840C2F20000FFF76CF8FFF730FA84
S31500001EA0FFF7E2F9FFF76AF930BFF1E710B530B98D
S31500001EB04CF20003C4F27E039022012199540228B9
S31500001EC000D010BD44F2DC31C0F2000140F2DC402B
S31500001ED0C2F2000000F0C0FBF3E710B5FFF7C7FF42
S31500001EE0002010BD416182610020704710B5036A71
S31500001EF09B787B242340046AA37083789B079B0FFF
S31500001F00D21A0261CB18C360026A937880246442B5
S31500001F102343DBB29370827803231340022B04D051
S31500001F20036A0A78DA70002010BD0988026A024B3B
S31500001F300B439BB2D381F6E700FEFFFF4162C2620C
S31500001F4083620020704701235B424B600B600020D8
S31500001F50704710B503008A070DD5006A82787B2486
S31500001F602240827000221A610020CA0702D5002290
S31500001F709A61002010BD0620F7E783690B600023F5
S31500001F8083610020704710B58B7843704A789207BA
S31500001F900378920F0324A34313430370CB7883740F
S31500001FA0C3795C22934309780A401343C37110BD79
S31500001FB010B50B7813B9234B026A93828B781B01F9
S31500001FC0CA78D20013434A78032A03D0002A2CD0B9
S31500001FD0F22202E03D321343B232DBB2046A2370CE
S31500001FE0D2B2036A9A71C9690B7B5B000222134065
S31500001FF0026A53734A78D201FF2313408C78640136
S315000020002022224013430022046A22720A78023AEE
S31500002010D2B2012A0ED8FF22046A62700A78022A16
S3150000202005D0026ADBB2D37110BDE222D5E70E32CB
S315000020301343F6E7DBB2026AD3714968006AFFF719
S31500002040A2FFF1E700F8FFFF70B50400026A93787B
S315000020507B251D400B20034093700023E360206A1C
S31500002060FFF791FF236A9D70002070BDF0B585B023
S3150000207004009446806AC8B16B460600A4CEA4C389
S315000020801D0033682B60E3691B780360816063463B
S315000020900371E36AC360636A9847A26A22B16B461A
S315000020A013CB13C21B68136005B0F0BD6846EAE7A0
S315000020B010B5040000234360026A9370C3690520CB
S315000020C0185600F0B4FFE3690B20185600F0AFFF76
S315000020D0E3690720185600F0AAFFE369092018569D
S315000020E000F0A5FFEFF31080012383F3108846F676
S315000020F0FC73C4F204035A68E1690C78802109066E
S31500002100E1400A435A605B6880F31088002010BDE6
S3150000211070B506000D001400100000F088FF2000C6
S3150000212000F02EFF32002900200000F04AFF70BDAB
S3150000213070B505000C000B228A56897AFFF7E8FF76
S315000021400522A25621792800FFF7E2FF0722A256B0
S31500002150A1792800FFF7DCFF0922A256217A280080
S31500002160FFF7D6FF70BDF8B504000D000B7843F6F7
S31500002170000CC0F2002C63445B0103620023037071
S31500002180C1614A6942628A69C262836283780322B4
S3150000219093430122134383704B782BB98378032230
S315000021A0934302221343837029002000FFF7C0FFE8
S315000021B0EFF31086012080F3108846F6FC73C4F214
S315000021C004035A682F7880210906F9408A435A6029
S315000021D05B6886F310880023226A9370226A137163
S315000021E0226A5372226A9372226AD372226A5383D4
S315000021F02A7840F20F23D340184202D04023226AA5
S31500002200D3740623226A137729002000FFF7D0FE35
S315000022100023E36023616361A361ED692E78E369BE
S315000022200520185600F0FBFEE3690B20185600F057
S31500002230F6FEE3690720185600F0F1FEE36909206F
S31500002240185600F0ECFE0323334070221343DBB232
S31500002250226A93706B89238144F65513C5F2433382
S3150000226063600020F8BDFFFF10B5EFF30384E405BB
S31500002270E40D103C64B2200000F082FE40F2985358
S31500002280C2F20003A400E058C3691B6993B1036955
S315000022907BB9026A93787F210B4004210B43DBB2A2
S315000022A093700023C360436A1BB180220021FFF7AD
S315000022B0DDFE10BD0369002BE9D0827803231340AD
S315000022C0022B0ED0C3681B78026AD37083789B07F3
S315000022D09B0F0269D21A0261C26894466344C360C6
S315000022E0D5E7C3681A88034B13439BB2026AD381AE
S315000022F0ECE7C04600FEFFFF10B582B0EFF30384A3
S31500002300E405E40D103C64B2200000F039FE40F212
S315000023109853C2F20003A400E458A27803231340A2
S31500002320022B0DD0236A5B790193A3697BB9636A9B
S3150000233023B1042201992000FFF798FE02B010BDD8
S31500002340236A1B8A40F2FF1213400193EDE7A2783D
S315000023509207920F01A9606901F012FCA3789B070E
S315000023609B0F6269D2186261A269D31AA361002B1E
S31500002370E4D1636A002BE1D0012200212000FFF79F
S3150000238075FEDBE710B5EFF30384E405E40D103CBE
S3150000239064B240F29853C2F20003A200D058026A17
S315000023A093787B210B409370436A1BB10222002174
S315000023B0FFF75CFE200000F0E3FD10BD70B5EFF303
S315000023C00384E405E40D103C64B240F29853C2F273
S315000023D00003A200D058827803231340022B1AD0A0
S315000023E0036A5979C9B2036A1D7938222A40ED0673
S315000023F005D51D7FED0702D440252A43D2B21D79AB
S315000024003826B5431D71436A0BB1FFF72FFE200036
S3150000241000F0B6FD70BD036A1B8A40F2FF11194039
S31500002420E1E7002303600020704710B50B0AFF2088
S31500002430084040F60004C4F2040419010918890092
S315000024400B599B07DB0F1370002010BD090A4901C9
S3150000245040F2000CC4F2040C61444B681380002067
S315000024607047180010409343090A490140F2000CD6
S31500002470C4F2040C61441B0403438B6000207047C4
S31500002480FF200840012383409BB26AB91A0000234B
S31500002490090A490140F2000CC4F2040C614412041A
S315000024A013438B60002070470022F1E710B510003F
S315000024B0090A490140F2000CC4F2040C61440A689E
S315000024C01C000440834322439A430A60002010BD47
S315000024D0090A490140F2000CC4F2040C61444B683D
S315000024E01B0C1380002070470B0A5B0140F2000CA6
S315000024F0C4F2040C63445868000CFF231940FE3BE9
S315000025008B4099B203408B4203D000231370002006
S31500002510704701231370FAE7180010409343090A25
S31500002520490140F2000CC4F2040C61441B0403434D
S31500002530CB6000207047000A400140F2000CC4F254
S31500002540040C604401238B40C168012A04D09943DE
S315000025501B040B43C36070471A0491430B43F9E70E
S3150000256010B5FF23080098431940FFF7E4FF002049
S3150000257010BDFFFF30B5CB030FD5020AFF2505407E
S3150000258040F60004C4F2040413015B199B001D59B4
S31500002590084A15401D510A401A51030AFF220240FB
S315000025A040F60004C4F204041801801880000151AA
S315000025B030BDC046FFFFFEFF70B50500EFF310818A
S315000025C0012383F3108840F29453C2F200031B6880
S315000025D03BB940F60053C4F204030022DA704032DD
S315000025E0DA7040F29453C2F200031A6801321A609C
S315000025F081F31088002409E0E3006A689446634486
S3150000260019689888FFF7B6FF0134A4B22B88A34255
S31500002610F2D8EFF31082012383F3108840F294532B
S31500002620C2F200031B6833B140F29453C2F20003B6
S3150000263019680139196040F29453C2F200031B680D
S315000026403BB940F60053C4F204030021D97080312F
S31500002650D97082F3108870BD10B545F25423C5F2C7
S315000026604F0303600800FFF7A7FF002010BD10B559
S315000026700800FFF7A1FF002010BD10B508001100EB
S31500002680EFF31082012383F3108840F29453C2F2D1
S3150000269000031B683BB940F60053C4F20403002450
S315000026A0DC704034DC7040F29454C2F200042368BB
S315000026B00133236082F31088FFF75CFFEFF310828B
S315000026C0012383F31088236813B12168013921603F
S315000026D040F29453C2F200031B683BB940F6005324
S315000026E0C4F204030021D9708031D97082F31088B6
S315000026F0002010BD037B5BB181680C310A78D207DC
S31500002700D20F0B789B07DB0F9A42FAD10020704755
S3150000271081680831F2E770B5037B8BB183680C33AF
S31500002720C869047822000579C6780720304054B974
S31500002730097AA1B102224A40D2B21201002105E073
S3150000274083680833ECE7502C0BD0097A02431D71DD
S3150000275000209871D2B25A70C9B2997070BD00212A
S31500002760F4E70021F2E7016143681A7C40F258530E
S31500002770C2F200039200D1500139037B13B1836882
S3150000278019607047836889B21980FAE770B504004A
S31500002790FFF7B0FF050048B9237B4BB1A6680C369E
S315000027A063681B78012B06D0F1233370280070BDB7
S315000027B0A6680836F4E721692000FFF7D4FFF3E79F
S315000027C0F8B5CE46474680B505000E0041600027A5
S315000027D007730A7C120244F20003C4F20803D318FA
S315000027E0836044F2080CC4F2080C6244EFF3108CC8
S315000027F0012484F3108846F6FC73C4F20403D968F6
S315000028008946307C804603204146401A844049462A
S31500002810A143D960DB688CF31088177013789B0787
S31500002820FCD40023937031002800FFF774FF716811
S315000028302800FFF798FF1220305600280FDA736938
S315000028406B61B369EB610023AB6144F25473C0F270
S3150000285041032B600020C0BCB946B046F8BD717C70
S315000028602A0000F0F5FBEAE7F0B585B0EFF3038444
S31500002870E405E40D103C64B2200000F081FB40F258
S315000028809853C2F20003A400E458237B43B3A5681F
S315000028900C352A78D2B2130061680978012922D052
S315000028A06269C2B1A269944622B301AA6146C1C94E
S315000028B0C1C29B0602D5002362461371E3696246D4
S315000028C01360604663699847A36913B101AA13CAE6
S315000028D013C32B78DBB20F2213402B7005B0F0BD6B
S315000028E0A5680835D5E7F4232B70E53B9A4313001A
S315000028F02A70D5E701AA9446DBE70368828A1A8024
S3150000290000207047036810314900CB5A138000201D
S3150000291070474EF20003C4F201031A6A0723190036
S315000029201140120E1A4040F22463C2F200031B68E3
S315000029309340CB4040F2E832B3FBF2F241F28833E7
S31500002940534344F24022C0F20F02B3FBF2F30133C9
S31500002950062B00D807230360704730B583B0050007
S315000029600C000023019301A8FFF7D3FF23686268D8
S315000029701343802189051A000A400B4209D0019AA7
S31500002980D2B2DE2128684254A268920012D440F2E4
S3150000299000125B0012D5019BDBB2DF21286843548D
S315000029A040F200231343A168490006D540F20223F2
S315000029B01A4303E040F20112EBE71A002B6892B2C9
S315000029C05A8203B030BD70B588B004000E00C569E8
S315000029D0A5B120222900684601F0D2F82022310054
S315000029E0280001F0CDF82800A3699847E06918B1DE
S315000029F02022694601F0C4F808B070BD0D00F2E768
S31500002A00F8B5DE4657464E464546E0B505004C69E4
S31500002A108B785B0340F240221343A078002858D1FC
S31500002A20413AFF3A1A433F2855D040F20023134358
S31500002A306279920702D540F2004213432279002AB6
S31500002A404BD0802213439BB2AB82A278120243F68C
S31500002A5000771740E0783F22024017430E79F603CD
S31500002A6062785201164322789446EFF3108940F2B9
S31500002A70010B8BF3108846F6FC72C4F20402D06890
S31500002A80804609888A4610215046091A58468840C9
S31500002A9041468143D160D26889F3108847F6FF52D8
S31500002AA013402A681380BFB22B681F82B6B22B6808
S31500002AB0DE812B6862461A7363799A0713D42A68F3
S31500002AC061798A23D154F0BCBB46B246A946A046DA
S31500002AD0F8BD0022A6E70023A9E73F28B3D148F2B4
S31500002AE000021343AFE703221343DBB28A222968AD
S31500002AF08B540121012000F0ECF9E0E710B5002825
S31500002B0000DA10BD00F0A4FAFBE7F8B504000D00EA
S31500002B104E694160CB6883610B6903620027C76118
S31500002B200B885B024CF2000CC4F2050C6344036094
S31500002B30FFF766FF697A062028562200FFF7DEFFB8
S31500002B40A97A072028562200FFF7D8FF717A0720B6
S31500002B5030562200FFF7D2FFB17A08203056220005
S31500002B60FFF7CCFF276144F24343C5F24123A3603C
S31500002B700020F8BDF8B5DE4657464E464546E0B558
S31500002B8004000D00504B0E681E4042685269924682
S31500002B904A681A4089680B40B1B20068818091B2D8
S31500002BA02068818299B220680181310C2068C18039
S31500002BB0120C2168CA821B0C22685381290020004E
S31500002BC0FFF7CBFEEB68002B00D178E01A891105E0
S31500002BD03FD590212068425258890C312768785297
S31500002BE098890231276878521968894688B28446DE
S31500002BF094202768614639524946080C334988466D
S31500002C00084040F2960C21686746C8534946490F6A
S31500002C100320014040F2920C2768604639545968F7
S31500002C208B4688B2814640F2980C20686746494632
S31500002C30C1535946090C47460F4040F29A0821688D
S31500002C4040460F525946490F973801409030276841
S31500002C503954198989050DD5997CD87C0143A6205C
S31500002C6027683954D889A82127687852198AAA234F
S31500002C702068C15290232168CA522A8A103B2168D3
S31500002C80CA5253461B797BB127683D881F239D4353
S31500002C90BEB1300000F00AFFC0B22D1A1F35ABB22C
S31500002CA03B80A28A1343A38244F24343C5F24123E5
S31500002CB0E360F0BCBB46B246A946A046F8BD00227A
S31500002CC0D8E72020E9E7C046FFFFFF9FFF9FFFFFF1
S31500002CD070B504000D00FFF74DFF2B68236100203F
S31500002CE070BD30B589B00400EFF30383DB05DB0D5F
S31500002CF0103B5BB240F29852C2F200029B009D5814
S31500002D00EFF30380C005C00D103840B200F038F96B
S31500002D106B469C706B681B886A461380002313728F
S31500002D202B6A0193AB691BB169462800FFF74BFE7E
S31500002D3009B030BD10B50020FFF7D3FF10BD4EF22D
S31500002D400003C4F20103A0229B5CDBB2834223D0C2
S31500002D504EF20003C4F201036A3A9B5C3BB94EF2A1
S31500002D600003C4F201033C229B5CDB07F7D54EF25D
S31500002D700003C4F20103A0229B5CDB06F7D44EF2EB
S31500002D800003C4F2010398544EF20003C4F2010397
S31500002D90A0229B5CDB06F7D470474EF20003C4F218
S31500002DA0010340F280420121995470474EF200031C
S31500002DB0C4F201032622995C1A6A120E07231340F5
S31500002DC040F29002C2F2000289008A58DA4040F2CC
S31500002DD02463C2F200031A60704710B540F29003F4
S31500002DE0C2F2000349F20002C0F2D0321A6041F288
S31500002DF00022C0F27A025A6048F200029A6042F259
S31500002E000042C0F2F402DA6000221A61FFF7CEFF38
S31500002E1010BD10B54EF20003C4F2010340F20012D9
S31500002E20C0F200121A62262200219954FFF7BEFF53
S31500002E3010BDFFFF70B54EF20004C4F2010440F26B
S31500002E40FE331A4AE2524CF20003C4F27E03002516
S31500002E5043F6C8729D54FFF7C0FF40F21343E55492
S31500002E60A2230922E254FFF798FF0020FFF767FF2D
S31500002E703623E5544EF20003C4F201033C229B5C68
S31500002E80DB07F7D5FFF7C5FF4EF20003C4F20103D7
S31500002E9040F2FE32064999524CF20003C4F27E0318
S31500002EA043F6C8720121995470BDC04603A5FFFFC1
S31500002EB000A5FFFF44F20003C4F204032822002108
S31500002EC099547047704700BEFEE701380028FCD1D0
S31500002ED0704770B541430D0040F22463C2F200030F
S31500002EE01C684CF60023C3F69A33B3FBF4F440F2A5
S31500002EF0E83200230800002100F0F6FD31B9B0FBEE
S31500002F00F4F0800808B1FFF7E0FF70BDA000B5FB44
S31500002F10F0F040F2E8320023002100F0E5FD002940
S31500002F20F0D001204042EEE710B540F26053C2F205
S31500002F3000038200D35803B1984710BD70B546F21E
S31500002F400003C4F2000340F220129A5A40F24011E4
S31500002F505D5A1540002401E00134E4B20C2C07D878
S31500002F602B00E340DB07F7D52000FFF7DDFFF3E793
S31500002F7046F20003C4F2000340F230129D5270BDC7
S31500002F8046F20003C4F20003C0308000C258024972
S31500002F900A40C250C3587047FFFFFEFF10B5040039
S31500002FA0FFF7EEFFBFF35F8F1F2222406409012364
S31500002FB093404EF20012CEF200026034A400A350F9
S31500002FC010BDF0B5C64600B5904683084EF2001710
S31500002FD0CEF20007C0339B00DE5903250540ED0005
S31500002FE0FF242200AA40964389010C40AC4034439A
S31500002FF0DC5140F29853C2F20003800042461A5058
S3150000300080BCB846F0BD1F22024040090123934010
S315000030104EF20012CEF2000280008350704710B5C7
S315000030200400FFF7BBFF2000FFF7EDFF10BD1F22D6
S3150000303002404009012393404EF20012CEF20002F4
S31500003040203080008350BFF34F8FBFF36F8F7047E0
S3150000305010B50400FFF7B5FF2000FFF7E0FF10BD35
S31500003060002300E001331F2B0FD844F2D042C0F2F8
S315000030700002D25C002AF5D046F20001C4F200013B
S315000030801800C03080004250ECE7704730B5EFF3CF
S315000030901081012383F3108840F21863C2F2000303
S315000030A04200D35A9BB243B140F21862C2F2000208
S315000030B04400A35A013B9BB2A35240F21863C2F2EA
S315000030C000034200D35A9BB293B94EF20004C4F2F5
S315000030D0010440F2FE35635B44F24852C0F200023E
S315000030E04000825AD24392B20348034313406353CB
S315000030F081F3108830BDC04600A5FFFF70B5EFF321
S315000031001081012383F3108840F21863C2F2000392
S315000031104200D35A9BB28BB94EF20002C4F20102AE
S3150000312040F2FE35535B44F24854C0F200044600B8
S31500003130345B1C43074B23439BB2535340F2186244
S31500003140C2F200024000835A01339BB2835281F3DC
S31500003150108870BD00A5FFFF10B5030040F2206285
S31500003160C2F200021268A2B140F22062C2F200026C
S315000031701068033303229343C31840F62022C2F299
S31500003180000293420FD840F22062C2F2000213609E
S3150000319010BD40F22062C2F2000240F23861C2F273
S315000031A000011160E0E700F0CDFC0C230360012074
S315000031B04042EDE700BE704710B500F041F8FEF75B
S315000031C08CFEFEE730B583B06B46DC1D0023237012
S315000031D023780120FFF792FFEFF31081012080F39F
S315000031E0108846F6FC73C4F204039A68134D2A400D
S315000031F09A609A6881F3108840F60002C4F20402CD
S315000032001168C907C90F21701168C907C90F217054
S315000032101268D207D20F2270EFF3108180F3108864
S3150000322098688022520502439A609B6881F3108851
S315000032300120FFF72BFF03B030BDC046FFFFFFEFB5
S3150000324070B540F20004C0F200044EF60053CEF210
S3150000325000039C600020FEF729FEFFF7EBFDFFF759
S31500003260B1FF0120FEF722FE40F60053C4F2000330
S3150000327000229A80274A1A802268274951189960A5
S31500003280DA6046F20002C4F2000240F2201141F276
S315000032900000505201229A8040F23862C2F20002C7
S315000032A040F2A800C2F20000121A002100F071FCE0
S315000032B040F29002C2F2000240F20000C2F20000A8
S315000032C0121A44F25451C0F2000100F059FC40F2C7
S315000032D08C05C2F2000540F28803C2F20003ED1A23
S315000032E0AD10002407E040F28803C2F20003A200FA
S315000032F0D35898470134AC42F5DBFFF757FDFFF78B
S31500003300D9FD0220FEF7D2FDFFF7AAFE0020FFF747
S31500003310D9FD70BD00A5FFFF00FCFFFF70B50400DE
S315000033200D001600002301E001339BB2A08A9842EB
S3150000333007D9980022698058A842F5D13380002029
S3150000334070BDE18A88420CD0A38A3380E28A934218
S315000033501DD09B002269D550A38A0133A382002089
S31500003360EEE7E36A6BB14FF6FF7291420BD0013183
S3150000337089002069984740B12061E38A0133E382DE
S31500003380E2E70320DCE70320DAE70220D8E70020A3
S31500003390D6E770B504000D001600002301E00133E6
S315000033A09BB2A08B984207D99800A2698058A84280
S315000033B0F5D13380002070BDE18B88420CD0A38B01
S315000033C03380E28B93421DD09B00A269D550A38B1C
S315000033D00133A3830020EEE7E36A6BB14FF6FF7279
S315000033E091420BD001318900A069984740B1A06194
S315000033F0E38B0133E383E2E70320DCE70320DAE72C
S315000034000220D8E70020D6E700991A6A4B005B181D
S315000034109B00D31802229A72704702690368090159
S315000034205B185B899B00985843F20943C0F200037E
S31500003430C01A43425841C0B27047F0B583B003008A
S315000034401400090102689446614422899200806949
S3150000345086580A89032A0CD8081DE588AD001F691D
S31500003460ED599B6A09680096A8470023A37203B02A
S31500003470F0BD4868F1E7F0B5C64600B58AB004006D
S315000034800D0016001F008388C088834213D1E36AAB
S31500003490002B00D10DE14FF6FF72904200D10AE1F8
S315000034A00130010120689847002800D105E120601D
S315000034B0E3880133E38026226A440023138039001F
S315000034C02000FFF72BFF18B10AB080BCB846F0BD4C
S315000034D009AA0023138010992000FFF75AFF00283D
S315000034E0F2D105AB0595119A06921E8126226A44F1
S315000034F012885A8109AA12889A81032E01D806AB2E
S315000035001193119B002B00D1D9E03200290018003D
S3150000351000F036FBA388E1888B422CD0A5880423D3
S31500003520E65EE3889D420BD02A0123689C466244EE
S3150000353005AB83CB83C21B681360A3880133A380CA
S31500003540129B002B00D182E0360123689C4666441C
S3150000355029002000FFF761FF10BB0023A2899A42D1
S3150000356000D879E09A00A168525812998A4219D077
S3150000357001339BB2F2E7E36A002B00D1A1E04FF6DC
S31500003580FF72914200D19EE00131090120689847FF
S31500003590002800D199E02060E3880133E380BDE78D
S315000035A0E8B291E71FB2A38CE18C8B4214D1E26A98
S315000035B0002A00D177E04FF6FF73994200D174E0FC
S315000035C001314B0059188900206A904700286ED0B7
S315000035D02062E38C0133E3842422A35E984601AA89
S315000035E00023138043F20941C0F200012000FFF7D7
S315000035F095FE002800D067E76B469A1D00231380CE
S3150000360041462000FFF7C5FE002800D05CE702AB6C
S31500003610002202929F807189D980B18919819A729C
S3150000362001AB1B8873816B4606331B88B381A28C62
S31500003630E38C9A420BD053009B189B00226A944657
S31500003640634402AA43CA43C3A38C0133A38434232D
S315000036500122E254E8B237E7E1898A420DD0A38914
S315000036600C22A75EE28993429DD09B00A268129924
S31500003670D150A3890133A38195E7E36A6BB14FF675
S31500003680FF7291420BD001318900A068984740B182
S31500003690A060E3890133E381E1E7032014E7032017
S315000036A012E7022010E703200EE703200CE70220B2
S315000036B00AE7032008E7032006E7022004E70220C2
S315000036C002E7032000E70320FEE60220FCE6AAB19B
S315000036D0B3B1C2620363002303608380C3800361C6
S315000036E08382C38283618383C38383608381C3812F
S315000036F003628384C3848162002070470120FCE753
S315000037000120FAE7F0B585B005000F0014001E0091
S31500003710032A11D911000020EB6A984770B10023E3
S31500003720029301900A9B009333002200390028007F
S31500003730FFF7A1FE05B0F0BD0020F0E70220F9E793
S31500003740F0B5DE4657464646C0B584B00400039140
S315000037508388994231DA00292FDB0E0103689D190F
S315000037602B899846032B2ED82F1DAB899B00A26967
S31500003770D3589A4689B22000FFF74FFE28BBA36AAA
S315000037806A899200216952589346296852460092E6
S3150000379042463800D8473423E35C4BB1A388039AEA
S315000037A09A420ADA2568AD192B89032B0FD82F1DEB
S315000037B02A892968380000F0E3F904B0E0BCBB466A
S315000037C0B246A846F0BD6F68CFE72300D8E76F681A
S315000037D0EEE7F8B5DE4657464E464546E0B50600E6
S315000037E08A4640F2000912E06B689B462CE021B243
S315000037F03000FFF7A5FF1FB94B4601339BB2994630
S315000038003423F35C63B33423F35C002B4ED03423B0
S315000038100022F25400240AE0013B937253461360DF
S315000038202DE03423F35C002BEDD10134A4B2B38830
S31500003830A342E8D9250133689C4665442B899846FE
S31500003840032BD1D82B1D9B4621003000FFF7E5FD49
S31500003850070042465946286800F084F90028C6D178
S31500003860002FE2D0AB899B00B2699B585A00D21850
S315000038709200336A9C466244937A022BCCD0937AA8
S31500003880012BCED193889B00B168CB5811688C462A
S31500003890634451465B1A002BC3DC21003000FFF75E
S315000038A0CCFD4B4601339BB29946BAE74846F0BC7D
S315000038B0BB46B246A946A046F8BD00230360836016
S315000038C04360013303737047037B13B10160002328
S315000038D003737047037B43B90133037302688B1A82
S315000038E004D442689446634443607047531AF8E729
S315000038F0002343600160704781607047037B3BB9DA
S3150000390043680268881A01D418187047501AFBE7F2
S315000039104068FAE710B50400FFF7F0FFA36883429A
S3150000392001D9181A10BD0020FCE70300027B5AB922
S3150000393080685A6890420ED9821A18688018401A10
S31500003940411E0843C00F05E04268836800209A4282
S315000039504041C0B270470120FCE770B504000D007D
S3150000396002614361037E022293430376DBB2013A8E
S3150000397093430376FFF7A1FF29002000FFF7BCFF62
S3150000398070BD10B5FFF7B8FF10BD10B5FFF79CFF6F
S3150000399010BD10B5037E012293430376FFF7A8FFFF
S315000039A010BD10B5FFF796FF10BD70B504000E00F0
S315000039B01500FFF7BAFF78B1237EDB0716D4237E06
S315000039C0012213432376236913B129002000984767
S315000039D0237E9B0701D4012070BD237E01229343E1
S315000039E0237631002000FFF783FFF4E70020F3E79A
S315000039F0416170470023436004E09A1C9200002155
S31500003A00115001331F2BF8DD002303607047F0B51A
S31500003A10040003B901334D424D41EDB2266837002B
S31500003A20D74001203840854205D00232920000235B
S31500003A3013510020F0BD901C80000059A0B1931CCA
S31500003A409B0001381851931C9B001B598BB9012010
S31500003A509040636883434D1EA94191400B436360C8
S31500003A60864331432160E5E7013B901C800003510A
S31500003A70E9E70020DEE7F0B5C64600B580460F0050
S31500003A801600002400250AE03B00E340012119400E
S31500003A90330022004046FFF7BAFF054301341F2CCE
S31500003AA0F2D9280080BCB846F0BDFFFF1C210123D7
S31500003AB01B04984201D3000C10391B0A984201D30B
S31500003AC0000A08391B09984201D30009043902A2E9
S31500003AD0105C40187047C046040302020101010150
S31500003AE00000000000000000F0B54FF6FF75CE465E
S31500003AF0474699462B0015400E0029000340140C3A
S31500003B0080B50700000C59434543634360435B1986
S31500003B100C0CE4188C46A54203D980235B02984618
S31500003B204044230C61461B1820044FF6FF740C40DA
S31500003B30494679437243C91800198918C0BCB94669
S31500003B40B046F0BD014B18687047C04624000020FF
S31500003B5010B5034B0100186800F024F810BDC046EC
S31500003B602400002030B500240139A24201D10020F2
S31500003B7005E0035D01340D5DAB42F6D0581B30BD48
S31500003B80002310B59A4200D110BDCC5CC454013359
S31500003B90F8E703008218934200D170471970013389
S31500003BA0F9E7FFFF70B5050079B10C1F2368002BFC
S31500003BB000DAE418280000F0EBF81C4A13682BB969
S31500003BC063601460280000F0EBF870BDA34208D9CA
S31500003BD0216860188342F3D118685B684118216038
S31500003BE0EEE71A005B680BB1A342FAD911685018C8
S31500003BF0A0420BD120680918501811608342E1D108
S31500003C0018685B68411811605360DBE7A04202D96F
S31500003C100C232B60D6E721686018834203D118680D
S31500003C205B684118216063605460CBE7280600207A
S31500003C3070B50E4E0D003168040011B900F098F809
S31500003C4030602900200000F093F8431C0AD00323BB
S31500003C50C51C9D43A84207D0291A200000F088F809
S31500003C60431C01D101256D42280070BD2C060020A1
S31500003C70F7B50322CB1C9343083306001F000C2B19
S31500003C8032D20C27B94231D8334D300000F080F8DB
S31500003C902B681C00002C2ED139003000FFF7C8FF1E
S31500003CA00400431C1ED12C682500002D4AD1236830
S31500003CB02900E3183000019300F05AF8019B834273
S31500003CC043D123680337FF1A03239F4308370C2F7A
S31500003CD000D20C2739003000FFF7AAFF431C34D06E
S31500003CE02368DF19276013E0002BCBDA0C230025AD
S31500003CF033602800FEBD2268D11B20D40B2917D9BA
S31500003D00E2192760A34211D12A60636811605360EB
S31500003D103000250000F044F807220B35231D95439B
S31500003D20EA1A9D42E5D05B1BA350E2E75A60ECE736
S31500003D306268A34201D12A60EAE75A60E8E72300F5
S31500003D406468A7E72C006D68AFE70C23300033608A
S31500003D5000F026F8CDE7C0462806002010B5034B34
S31500003D600A000100186800F023F810BD24000020A6
S31500003D70002370B5054D040008002B60FFF7ECF931
S31500003D80431C02D12B6803B1236070BD30060020AE
S31500003D9010B5024800F03AF810BDC04634060020BF
S31500003DA010B5024800F033F810BDC04634060020B6
S31500003DB0F7B507000E00140029B91100FFF758FFE8
S31500003DC005002800FEBD1AB9FFF7ECFE2500F8E74E
S31500003DD000F01EF80190844203D835004308A34240
S31500003DE0EFD321003800FFF743FF05000028E8D095
S31500003DF0019B22009C4200D91A0031002800FFF7DF
S31500003E00BFFE31003800FFF7CDFEDAE77047704796
S31500003E100B1F1B68181F002B01DA0B58C0187047C0
S31500003E204275696C7420776974682052656E657393
S31500003E30617320416476616E63656420466C6578C3
S31500003E4069626C6520536F66747761726520506194
S31500003E50636B6167652076657273696F6E20352EB8
S31500003E60342E3000352E342E3000000000000405BC
S31500003E70F8B5C046F8BC08BC9E467047F8B5C046C3
S31500003E80F8BC08BC9E467047CA0600000C06000037
S31500003E900806000016060000CA06000020060000FC
S31500003EA0620600009606000016060000C70700001E
S31500003EB000000000000000003B07000000000000BA
S31500003EC000000000D5060000000000000000000011
S31500003ED0F50500000000000000000000A30500003A
S31500003EE000000000000000006D6F64656C20213D3D
S31500003EF0204E554C4C0000002E2E2F7372632F6DF2
S31500003F006F64656C2F6D6F64656C2E6300FFFFFF39
S31500003F10706D6F64656C20213D204E554C4C000041
S31500003F2069203D3D2050574F46465F534552494113
S31500003F304C495A45445F53495A4500FF6D6F6465C5
S31500003F406C5F6164645F76656E74696C6174696FD9
S31500003F506E5F74696D655F6D7300FFFF6D6F6465FD
S31500003F606C5F6164645F726F746174696F6E5F74B5
S31500003F70696D655F6D7300FF6D6F64656C5F61648D
S31500003F80645F776F726B5F74696D655F6D7300FF59
S31500003F906D6F64656C5F6765745F64656661756C9B
S31500003FA0745F74656D706572617475726500FFFF8C
S31500003FB06D6F64656C5F6765745F72656D61696E70
S31500003FC0696E675F7365636F6E6473006D6F6465BA
S31500003FD06C5F6369636C6F5F6665726D6F00FFFF90
S31500003FE06D6F64656C5F6369636C6F5F636F6E743E
S31500003FF0696E756F00FFFFFF6D6F64656C5F6973B7
S315000040005F737465705F756E666F6C64696E67006A
S315000040106D6F64656C5F68656174696E675F656E18
S3150000402061626C656400FFFF6D6F64656C5F66615D
S315000040306E5F6F666600FFFF6D6F64656C5F75701F
S31500004040646174655F74656D7065726174757265BF
S3150000405000FFFFFF6D6F64656C5F6765745F707767
S315000040606D325F70657263656E7461676500FFFF30
S315000040706D6F64656C5F6765745F70776D315F70D7
S31500004080657263656E7461676500FFFF6D6F6465D9
S315000040906C5F6765745F72656C61795F6D617000F6
S315000040A06D6F64656C5F6765745F737465705F647C
S315000040B075726174696F6E5F7365636F6E647300AA
S315000040C06D6F64656C5F6765745F616C61726D735B
S315000040D000FFFFFF6D6F64656C5F69735F706F72E1
S315000040E074686F6C655F6F70656E00FF6D6F6465F9
S315000040F06C5F69735F66696C7465725F616C61722F
S315000041006D5F61637469766500FFFFFF6D6F6465BF
S315000041106C5F66616E5F6F6E00FFFFFF6D6F6465BB
S315000041206C5F69735F656D657267656E63795F6104
S315000041306C61726D5F616374697665006D6F64654D
S315000041406C5F6D616E61676500FFFFFF6D6F646593
S315000041506C5F696E697400FF6D6F64656C5F69738F
S315000041605F6472756D5F72756E6E696E675F666F9E
S31500004170727761726400FFFF6D6F64656C5F6472D5
S31500004180756D5F73746F70006D6F64656C5F6472DC
S31500004190756D5F6261636B77617264006D6F6465F4
S315000041A06C5F6472756D5F666F727761726400FF33
S315000041B04653505F53554343455353203D3D20726C
S315000041C0657400002E2E2F7372632F6273702F6139
S315000041D064632E6300FFFFFF060708000801002046
S315000041E020010020340100206273705F6164635F08
S315000041F0696E697400FFFFFF0301020101010001FE
S31500004200000501050205FFFF04010501060107017E
S315000042100D010C0182170000A4170000B017000062
S31500004220B6170000C6170000CE170000D81700000A
S31500004230E0170000E81700001E180000261800000E
S315000042402E180000FE170000061800000E180000C9
S3150000425016180000741600007A160000801600007A
S31500004260881600008E160000941600009C160000AA
S31500004270A4160000AA160000B0160000B81600002A
S31500004280C0160000C8160000D01600007C170000FB
S31500004290EC160000F4160000FA1600000A170000DB
S315000042A0121700001A170000221700002A17000034
S315000042B0641700006C170000741700004417000014
S315000042C04C170000541700005C1700006D6F646205
S315000042D0757349734F6B2865727229202626202232
S315000042E06D6F64627573536C617665496E69742887
S315000042F029206661696C6564212200002E2E2F73C9
S3150000430072632F61646170746572732F6D6F64627E
S3150000431075735F7365727665722E63006D6F646286
S3150000432075735F7365727665725F696E697400FF97
S31500004330DC040020DC4300001445000000000000FF
S31500004340000F00DF0003FF0057120000000000000E
S315000043505443000000013F3F000000DFDFFFFFFF86
S31500004360C001000000000000000000000000000086
S3150000437000000018000000004001000000000000DE
S31500004380A000000000010300FB1300000000000075
S3150000439094430000000000010000000128050020F1
S315000043A0A8430000F04400000202000000040205D9
S315000043B0020602070000000000000000F1140000E1
S315000043C000000000C843000000010000200000209B
S315000043D00F00FFFF00000000FFFF00001D000000AF
S315000043E0E84300000000000000000000000000009C
S315000043F000000000010000000000000002000000B4
S31500004400000000000300000000000000040000009F
S31500004410040000000A000000008000000B000000FD
S31500004420008000000C000000008000000D0000006D
S31500004430040000000E000000040000000F00000051
S315000044400000000000010000000000000101000063
S31500004450000000000201000000000000030100004F
S315000044600400000004010000040000000501000033
S31500004470040000000601000004000000070100001F
S315000044800000010008010000040000000C0100000B
S31500004490040000000D010000000001000003000000
S315000044A000000104010300000000010402030000F3
S315000044B004000000000400000000000000050000E9
S315000044C000000000010500000000000002050000D9
S315000044D0070000111D1B1C19000000000000000051
S315000044E000000000000000000000000000000000C6
S315000044F067210000E51E0000ED1E000049200000B7
S31500004500471F0000531F00003D1F0000B1200000A0
S315000045107B1F000059260000232400006F260000A0
S315000045207B260000E9240000612500002B24000002
S3150000453081240000AD240000D124000019250000CC
S315000045404D24000063240000010002000800100052
S309000045500000000061
S3150000455403000000251900000400000025190000CE
S3150000456410000000C71A0000000000000000000050
S3150000457408001600280000200000000000000000CB
S315000045840000000000000000000000000000000021
S315000045940000000000000000000000000000000011
S315000045A40000000000000000000000000000000001
S315000045B400000000000000000000000000000000F1
S315000045C400000000000000000000000000000000E1
S315000045D40000000000000000690400003D04000023
S31501010018FFFFFFFFFFFFFFFFFFFFFFFFFFFFFFFFE0
S31101010028FFFFFFFFFFFFFFFFFFFFFFFFD0
S705000031B910
