S02200006D696E6965636F5F70617065726F67615F625F726F746F6E64692E7372656351
S31500000000F810002051510000D54E00004D5100005F
S315000000104D5100004D5100004D5100004D51000062
S315000000200000000000000000000000004D5100002C
S315000000304D510000000000004D5100000D2A000047
S31500000040CD4C000000000000000000000000000091
S31500000050253B0000993A0000B13B0000E93B000057
S31500000060493F000000000000000000000000000002
S31500000070000000000000000000000000000000007A
S31500000080000000000000000000000000000000006A
S31500000090000000000000000000000000000000005A
S315000000A0000000000000000000000000000000004A
S31500000400FFFFFFFFDFDEFFFFFCFF0F00FFFF0F0018
S31500000410FCFF0F00FFFF0F00FCFF0F00FFFF0F00A8
S31500000420FCFF0F20FFFF0F20FCFF7F40FFFF7F40F8
S31500000430FCFF0D40FFFF0D40FFFFFFFF40F27C0079
S3150000044040F27C03C2F20000C2F2000310B5834200
S3150000045005D040F20003C0F2000303B1984710BD77
S3150000046040F27C0040F27C03C2F20000C2F20003BC
S315000004701B1A9A10D90F8918491010B529B140F2E4
S315000004800003C0F2000303B1984710BD10B540F257
S315000004909004C2F20004237873B9FFF7CFFF40F24D
S315000004A00003C0F200032BB147F2D800C0F20000EF
S315000004B000E000BF0123237010BDC04640F20003D8
S315000004C0C0F2000310B54BB140F2940147F2D800D8
S315000004D0C2F20001C0F2000000E000BFFFF7C0FF5B
S315000004E010BDC04630B50500100000220CE0030A1E
S315000004F0AC5C6340000280B246F2F424C0F2000411
S315000005005B001B5B584001328A42F0D330BD10B508
S31500000510F030040002F097FA0100200005F017FA07
S3150000052010BD70B50400150005F0F8F9656102F01C
S315000005308AFA0100200005F002FA02F084FA0100AE
S31500000540200005F004FA70BDF8B504000600B836C0
S315000005500500D4350700F03701F02EF9200000F031
S3150000056045FC7023E35C33B902F06DFA0100280004
S3150000057005F0EDF9F8BD02F066FA0100300005F06D
S31500000580E6F97423E35A002BEED05901C91A890003
S31500000590C918C90002223800FFF7C3FF02F053FA58
S315000005A00100380005F0C7F9DEE770B50400050064
S315000005B0D43500F070FF50B1200000F010FC200090
S315000005C001F0C8F8200000F07DFF20B170BD2000CA
S315000005D000F00CFCF3E77823E35A5901C91A8900A5
S315000005E0C918C90007222800FFF79BFF02F02BFA63
S315000005F00100280005F09FF9E8E770B5050001F055
S31500000600FDFB040010B10024200070BD280001F09D
S3150000061005FC0028F8D10124F6E770B50C000D00A2
S31500000620B83502281BD003281ED0F8B9CB8B03BBE4
S315000006304033CB5C03BB080001F092FB2000FFF7C0
S31500000640B4FF2000FFF7D9FF08B903200DE002F040
S31500000650FAF90100280005F06EF9032005E008000C
S3150000066001F09DFB002000E0012070BD012040420A
S31500000670FBE701204042F8E701204042F5E770B56C
S3150000068004000500B8352800FFF74BFF2000FFF7F0
S31500000690B4FF00B970BD02F0D6F90100280005F0DC
S315000006A04AF9F7E770B50C000D00D4350E00B836E0
S315000006B00A2800D98CE08000494B1B589F46012030
S315000006C003E0080001F06BFB002070BD0420FCE78E
S315000006D00800FFF792FF20B12000B83005F0D8F8E7
S315000006E088B92000FFF789FFA0B1E38B002B72D0F9
S315000006F0200000F055FC002870D03E23E35C022B5E
S3150000070015D00420E1E702F09EF90100300005F063
S3150000071012F9EAE72000B83005F0BAF80028E4D16B
S3150000072002F091F90100300005F011F9DDE7200033
S3150000073001F035FB0020C8E77A23CB5A5E01F61A92
S31500000740B600F618F600080001F05DF880B109223F
S3150000075031002800FFF7E5FE200001F02DF802F039
S3150000076072F90100280005F0E6F801204042ACE7E6
S315000007700822EDE7080000F0EDFF7823E35A59015F
S31500000780C91A8900C918C90007222800FFF7C9FE3F
S3150000079002F059F90100280005F0CDF80120404289
S315000007A093E7080000F0EFFF7823E35A5901C91ACE
S315000007B08900C918C90007222800FFF7B2FE02F017
S315000007C042F90100280005F0B6F8012040427CE716
S315000007D00120404279E70120404276E7042074E791
S315000007E0F464000070B50C000D00B835052816D06D
S315000007F00BD8002839D0022804D1080001F0CFFA1E
S31500000800002070BD01204042FBE70A2804D1CB8BB3
S31500000810002B4AD00420F4E701204042F1E708000B
S3150000082000F00EFC40B17023E35C73B92000FFF7C3
S31500000830E4FE90B90420E4E7200000F0E8FB0100A4
S3150000084003222800FFF76DFEEDE702F0FCF8010039
S31500000850280005F07CF80420D3E702F0F4F8010044
S31500000860280005F068F80420CBE7CB8B03BB4033A8
S31500000870CB5C03BB080000F0E3FB40B13E23E35C26
S31500000880022B0DD02000FFF790FE0320B9E72000D1
S3150000089000F0BDFB010003222000FFF7F0FEEDE7AC
S315000008A01333FF330122E254ECE701204042A8E76C
S315000008B001204042A5E701204042A2E710B50C0006
S315000008C00A2835D880001F4B1B589F46012031E06F
S315000008D0080001F064FA00202CE002F0B4F840F2BF
S315000008E01813E050200000F0ABFB38B1200000F0F8
S315000008F0BAFD2000FFF759FE03201BE0200000F0A0
S3150000090086FB010003222000FFF7B9FEEEE7CB8B42
S315000009109BB1080000F044FB90B13E23E35C022B40
S3150000092001D0042006E0200001F039FA002001E0A1
S315000009300120404210BD0420FCE701204042F9E7B7
S315000009400420F7E72065000010B50C0030B101283F
S3150000095036D1080001F004FA042010BDCB8B93BBFE
S315000009604033CB5C93BB080001F0FAF940F2141354
S315000009700022E254A23BE35A43B14EF660215943AA
S3150000098004322000FFF77BFE0220E6E702F05BF868
S3150000099040F21813E0502000FFF707FE200000F099
S315000009A04FFB20B1200000F05EFD0320D5E72000BC
S315000009B000F02DFB010003222000FFF760FEF1E7A7
S315000009C001204042C9E701204042C6E701204042DB
S315000009D0C3E770B504000500B8350600D43600F04C
S315000009E0EBFE02F030F80100280004F053FF01008E
S315000009F0200000F02AFE02F026F80100280004F08C
S31500000A009EFF02F020F80100280004F0A0FF02F08B
S31500000A101AF80100300004F092FF02F014F8010009
S31500000A20300004F094FF200000F0E0F90023A42237
S31500000A30A3546D3AA35470BD10B5FFF7CAFF10BD9D
S31500000A4070B504000E0010002168626853009B1800
S31500000A509B00CB5831009847051E01DA002070BD77
S31500000A60226861684B005B189B00D3189B680BB12A
S31500000A7030009847656022686B005B199B00D318AD
S31500000A805B680BB1300098470120E8E710B5027D9E
S31500000A9008000D30FF30FFF7D3FF10BD70B504001E
S31500000AA046F24C53C0F2000340F20C12835040F25F
S31500000AB010130022C25040F68D25C0F20005B83052
S31500000AC000232A00002104F015FF2600D436002357
S31500000AD02A000021300004F00DFF0121300004F04F
S31500000AE021FF2000F03000232A00002104F002FF3D
S31500000AF070BD70B50D00B830040001F0A4FF010010
S31500000B00200004F024FF6901491B89004919C90026
S31500000B10200004F003FF237B33B101F094FF0100B2
S31500000B20200004F00CFF70BD01F08DFF01002000D5
S31500000B3004F001FFF7E710B50400FFF7DAFF200025
S31500000B400D30FF3001222100FFF77AFF10BD10B5EE
S31500000B5001000D30FF300A22FFF772FF10BD10B5FD
S31500000B60040001F070FF01002000B830220004F0FC
S31500000B70F2FE01F068FF01002000D430220004F0EC
S31500000B80EAFE01F060FF01002000F030220004F0D0
S31500000B90E2FE2000FFF7DBFF002010BDF8B540F2B3
S31500000BA01013C358033B012B00D9F8BDB83004001D
S31500000BB04D016D1AAD006D18ED0001F044FF010006
S31500000BC0200004F073FE0600200004F07AFEB54211
S31500000BD00DD2731B834205D2AE1B3118200004F0E0
S31500000BE09DFEE2E70021200004F098FEDDE7A91B48
S31500000BF00918200004F092FED7E770B50D0040F208
S31500000C001013C358033B012B00D970BDB830040044
S31500000C1004F057FE6901491B89004919C9000918E2
S31500000C20200004F07BFEF0E710B50400A4230122A7
S31500000C30C25401F008FF9423E05010BD70B50C00BB
S31500000C40012819D0022819D1080000F0C8FC0500B7
S31500000C50200000F0AFFC8423E35AC31A9D4201DA58
S31500000C6001200AE0A4230122E25401F0ECFE9823BD
S31500000C70E0500120404200E0002070BD01204042CB
S31500000C80FBE770B50C00022805D0032814D0012814
S31500000C9018D1002015E0080000F0A1FC0500200096
S31500000CA000F088FC8223E35AC3189D4201DD02202E
S31500000CB007E00120404204E039230122CA54012002
S31500000CC0404270BD01204042FBE770B50C0020B1E8
S31500000CD0022812D00120404215E0080000F07FFCF7
S31500000CE00500200000F066FC8223E35AC3189D42EB
S31500000CF001DC012007E0022005E001F0A4FE9823B4
S31500000D00E0500120404270BD70B504009423C558E0
S31500000D1001F099FE411B03D4200000F0E4FC70BDF5
S31500000D20291AF9E710B5040001F08DFE9423E0506E
S31500000D3001F089FE9823E0502000FFF708FF10BD60
S31500000D4070B504000E0010002168626853009B18FD
S31500000D509B00CB5831009847051E01DA002070BD74
S31500000D60226861684B005B189B00D3189B680BB127
S31500000D7030009847656022686B005B199B00D318AA
S31500000D805B680BB1300098470120E8E746F28853CC
S31500000D90C0F200039C228350A0230022C250704759
S31500000DA070B5040006009C36022201003000FFF7F1
S31500000DB0C7FF9823E558343BE25A53019B1A9B0020
S31500000DC09B18DB00ED1801F03EFE2D1A002D00DD0C
S31500000DD070BD032221003000FFF7B2FFF8E710B51F
S31500000DE001009C300022FFF7ABFF10BD10B50100DB
S31500000DF09C300122FFF7A4FF10BD030040F24132F0
S31500000E0090420CD940F2CB6290420BD896205843C0
S31500000E1040F28B3390FBF3F0933800B270470A2010
S31500000E204042FBE78C20F9E75223C05A513B8B40E6
S31500000E3003405842C00F012A00D07047013BD80F2B
S31500000E40FBE70023052B08D81A002432520082182B
S31500000E50928922B901339BB2F4E700207047012042
S31500000E60FCE710B5030040B14022825CAAB9B0226B
S31500000E70805CA0B1343A985C11E046F2AC53C0F203
S31500000E80000346F61C12C0F2000246F2BC50C0F245
S31500000E90000040F2E42103F0E2FF4522805C10BD31
S31500000EA010B50400B023C35C03B910BD01F0CBFD3F
S31500000EB0B423E050F9E710B5C46A40F2D07C64442C
S31500000EC001F0C1FD201A431E1843C00F10BD10B516
S31500000ED0040088B140F21C12002105F04FF952239C
S31500000EE04622E2521033143AE2522000FFF74EFF38
S31500000EF02000FFF7D3FD10BD46F2AC53C0F200034D
S31500000F0046F67C22C0F2000246F2BC50C0F2000057
S31500000F10172103F0A4FF10B528B18E23C25C04216B
S31500000F20FFF782FF10BD46F2AC53C0F2000346F64F
S31500000F302422C0F2000246F2BC50C0F20000932107
S31500000F4003F08DFF10B528B18D23C25C0221FFF797
S31500000F506BFF10BD46F2AC53C0F2000346F6042206
S31500000F60C0F2000246F2BC50C0F20000992103F024
S31500000F7076FF10B528B18F23C25C0621FFF754FF18
S31500000F8010BD46F2AC53C0F2000346F6E412C0F2BE
S31500000F90000246F2BC50C0F200009F2103F05FFF42
S31500000FA010B528B18C23C25C0121FFF73DFF10BDAF
S31500000FB046F2AC53C0F2000346F6CC12C0F2000271
S31500000FC046F2BC50C0F20000A52103F048FF10B560
S31500000FD001000D30FF300022FFF732FD10BD10B5C5
S31500000FE001000D30FF300522FFF72AFD10BD10B5B8
S31500000FF001000D30FF300322FFF722FD10BD10B5B2
S3150000100001000D30FF300222FFF71AFD10BD10B5AA
S3150000101038B17623C35A5801C01A8000C018C000E0
S3150000102010BD46F2AC53C0F2000346F69412C0F26D
S31500001030000246F2BC50C0F20000D52103F00FFFBB
S3150000104010B540B17623C05A0A4B9C4660444342D1
S315000010505841C0B210BD46F2AC53C0F2000346F68A
S315000010607C12C0F2000246F2BC50C0F20000DB2146
S3150000107003F0F5FE0100FFFF10B540F21013C35850
S31500001080012B01D8002010BDB830040001F0DBFCB4
S315000010900100200004F00AFC40F2E833B0FBF3F054
S315000010A0F1E710B530B140F21013C058431E984115
S315000010B0C0B210BD46F2AC53C0F2000346F6681249
S315000010C0C0F2000246F2BC50C0F20000EB2103F071
S315000010D0C6FE10B5040020B1FFF7EDFE88B1002072
S315000010E010BD46F2AC53C0F2000346F63412C0F20D
S315000010F0000246F2BC50C0F2000040F23E1103F07E
S31500001100AEFE2000FFF7ADFEEAE7F0B5C64600B535
S3150000111004000E0010001D0006AB00229B5E9846E0
S3150000112007AB1F88002C2ED04623E35A83423AD0C1
S315000011304623E052FFF761FE4823E052473B4A222E
S31500001140A25AAA4207D04A23E5522800FFF755FEC5
S315000011504C23E0524B3B5222A25AB24225D14E2298
S31500001160A25E424503D04E234246E2524D3B5022F8
S31500001170A25ABA422DD05023E7522000FFF7E7FCCF
S3150000118080BCB846F0BD46F2AC53C0F2000346F64A
S31500001190CC02C0F2000246F2BC50C0F2000040F29F
S315000011A0531103F05CFE0023C9E72000FFF7F8FEA9
S315000011B005005223E6522000FFF7F2FE38B10DB1CA
S315000011C00123CCE701F03FFC20620123C7E701239E
S315000011D0C5E7002BD4D0D0E7F8B505000E0010B156
S315000011E0002400221AE046F2AC53C0F2000346F691
S315000011F0B402C0F2000246F2BC50C0F2000040F257
S315000012007F1103F02CFE3119130024335B00EB1819
S315000012109B89180A08704B7002340132052AF2D9EC
S315000012202800FFF729FF82B2331929880F0A1F7099
S315000012305970A31CF31869880F0A1F705970231D73
S31500001240F31869680F0E1F700F0C5F700F0A9F70FE
S31500001250D97023000833F318A9680F0E1F700F0CFE
S315000012605F700F0A9F70D97023000C33F318E9687A
S315000012700F0E1F700F0C5F700F0A9F70D97023003E
S315000012801033F31829690F0E1F700F0C5F700F0AC9
S315000012909F70D97023001433F31869690F0E1F70FD
S315000012A00F0C5F700F0A9F70D97023001833F31864
S315000012B0120A1A70587023001A33F3186A8F110A2B
S315000012C019705A7023001C33F318AA8F110A19706B
S315000012D05A7023001E3340F21012AA5CF25420000A
S315000012E01F300C2C00D1F8BD46F2D453C0F20003D7
S315000012F046F6B402C0F2000246F2BC50C0F200004C
S3150000130040F2941103F0ABFD70B50E0010B100224F
S3150000131000241BE046F2AC53C0F2000346F69C02E2
S31500001320C0F2000246F2BC50C0F2000040F29A1130
S3150000133003F095FDB3185D781B781B021D4323004F
S3150000134024335B00C3189D8102320134052CF1D988
S31500001350B1184B78097809020B430380931CF318E4
S3150000136059781B781B020B434380111D7118CB78EB
S315000013708C78240223434C782404234309780906F5
S315000013800B434360110008317118CB788C78240226
S3150000139023434C7824042343097809060B438360CE
S315000013A011000C317118CB788C78240223434C78C9
S315000013B024042343097809060B43C3601100103146
S315000013C07118CB788C78240223434C782404234369
S315000013D0097809060B430361110014317118CB78A3
S315000013E08C78240223434C78240423430978090685
S315000013F00B43436113001833F31859781B781B020B
S31500001400194313001A33F3185C781B781B02234325
S31500001410438713001C33F3185C781B781B022343A5
S31500001420838713001E33F55C1F321400052D03D885
S315000014302A23EB40DB0703D42B2C04D1200070BDFC
S31500001440FFF779FBF8E746F2D453C0F2000346F6FD
S315000014509C02C0F2000246F2BC50C0F2000040F20C
S31500001460BA1103F0FCFC10B528B154300C2200214F
S3150000147004F084FE10BD46F2AC53C0F2000346F6FB
S315000014808802C0F2000246F2BC50C0F2000040F2F0
S31500001490C01103F0E4FC10B520B13E23C05C43420A
S315000014A0584110BD46F2AC53C0F2000346F6700236
S315000014B0C0F2000246F2BC50C0F2000040F2C61173
S315000014C003F0CDFC10B538B17623C35AA3B19323EC
S315000014D0C35C9BB1002010E046F2AC53C0F200039F
S315000014E046F65802C0F2000246F2BC50C0F20000B6
S315000014F040F2D21103F0B3FC002010BD0120FCE73E
S3150000150010B5040048B1FFF79BFD18BB40F210135D
S31500001510E358012B11D8002010BD46F2AC53C0F29F
S31500001520000346F63C02C0F2000246F2BC50C0F28E
S31500001530000040F2DE1103F092FCB83401F083FAA9
S315000015400100200004F0A6F940F2E833B0FBF3F006
S3150000155080B2E1E74FF6FF70DEE710B5040048B150
S31500001560FFF76EFD18BB40F21013E358012B11D89C
S31500001570002010BD46F2AC53C0F2000346F620022E
S31500001580C0F2000246F2BC50C0F2000040F2F41174
S3150000159003F065FCB83401F056FA0100200004F0AF
S315000015A085F940F2E833B0FBF3F080B2E1E74FF69D
S315000015B0FF70DEE710B510B17E23C05A10BD46F2AB
S315000015C0AC53C0F2000346F60C02C0F2000246F22B
S315000015D0BC50C0F2000040F20A2103F040FC10B5F6
S315000015E050B16823C35A012B16D0022B17D0002BFB
S315000015F029D14833C05E10BD46F2AC53C0F2000399
S3150000160046F2EC72C0F2000246F2BC50C0F2000094
S3150000161040F2102103F023FC4C23C05EEBE74E237F
S31500001620C25E642392FBF3F14B43D31A01201BB233
S31500001630312B00DC0020C0B2642392FBF3F292B29D
S31500001640801800B2D7E70020D5E710B538B1836817
S3150000165040F2E832B1FBF2F15B18836010BD46F24E
S31500001660AC53C0F2000346F2D472C0F2000246F256
S31500001670BC50C0F2000040F2252103F0F0FB10B58B
S3150000168038B1C36840F2E832B1FBF2F15B18C360CF
S3150000169010BD46F2AC53C0F2000346F2B872C0F277
S315000016A0000246F2BC50C0F2000040F22B2103F0CB
S315000016B0D6FB10B538B1036940F2E832B1FBF2F15E
S315000016C05B18036110BD46F2AC53C0F2000346F24C
S315000016D09872C0F2000246F2BC50C0F2000040F21E
S315000016E0312103F0BCFB10B538B1436940F2E83252
S315000016F0B1FBF2F15B18436110BD46F2AC53C0F288
S31500001700000346F27C72C0F2000246F2BC50C0F200
S31500001710000040F2372103F0A2FB10B5040048B1E7
S31500001720FFF75DFF6223E25E0123904200DC0023A7
S31500001730180010BD46F2AC53C0F2000346F25C72CC
S31500001740C0F2000246F2BC50C0F2000040F23D2159
S3150000175003F085FB10B5040028B1FFF7A1FBB02309
S315000017600122E25410BD46F2AC53C0F2000346F229
S315000017704872C0F2000246F2BC50C0F2000040F2CD
S315000017805A2103F06CFB10B5040028B1FFF788FB63
S31500001790B0230222E25410BD46F2AC53C0F200035D
S315000017A046F23472C0F2000246F2BC50C0F20000AB
S315000017B040F2612103F053FB70B5040038B1B02349
S315000017C0C35CA3B900212000FFF759FF70BD46F2A4
S315000017D0AC53C0F2000346F22472C0F2000246F295
S315000017E0BC50C0F2000040F2682103F038FBB4237D
S315000017F0C55801F028F9411B03D4B0230022E25456
S31500001800E1E7291AF9E710B530B1B023C05C013819
S3150000181043425841C0B210BD46F2AC53C0F2000379
S3150000182046F20472C0F2000246F2BC50C0F200005A
S3150000183040F2752103F013FB10B548B140F21013C6
S31500001840C358032B16D0012B12D00020C0B210BDF6
S3150000185046F2AC53C0F2000346F2EC62C0F200025C
S3150000186046F2BC50C0F2000040F2B42103F0F7FA91
S315000018700120EBE70120E9E770B50500FFF7DCFF83
S31500001880040070B13E23EB5C012B25D9022B26D137
S31500001890AE33EB5C013B012B01D900241DE0012492
S315000018A01BE02800FFF77CFB18B9C046C046C046BF
S315000018B013E02A6A8A23E95A4B015B1A9B005B18DC
S315000018C0DB00D51801F0BFF82D1A002DEDDDC0465E
S315000018D0C046C046012400E00124200070BD00245B
S315000018E0FBE7F8B5040038B16A23C35C002B5BD173
S315000018F0037F83B90020F8BD46F2AC53C0F2000363
S3150000190046F6B412C0F2000246F2BC50C0F2000025
S31500001910AB2103F0A4FAFFF7AFFF98BB0026F6B29F
S315000019202000FFF73DFB431E9841C7B22000FFF79A
S3150000193009FB431E984145003D432000FFF719FB74
S31500001940431E984180000543F60035433823E35C87
S315000019505A1E93411B011D432000FFF7DEFEC317ED
S315000019601B1ADB0F5B011D433923E35C5A1E9341AF
S315000019709B011D432000FFF7CEFA431E9841C0018C
S315000019802843B8E7656A6623E25A53019B1A9B000F
S315000019909B18DB00ED1801F056F82D1A002D01DD1D
S315000019A00026BCE70126BAE70020A4E710B504002C
S315000019B080B16A23C35CE3B10023C3832000FFF731
S315000019C0EFFA18B9E38B01229343E3832000FFF774
S315000019D0BEF810BD46F2AC53C0F2000346F64422F0
S315000019E0C0F2000246F2BC50C0F20000822103F0B1
S315000019F036FAFFF776FFE38B0343E383DEE710B5A2
S31500001A0048B10023C38300223833C2540133C25481
S31500001A10FFF7CCFF10BD46F2AC53C0F2000346F60A
S31500001A205822C0F2000246F2BC50C0F200007921F2
S31500001A3003F015FA70B5040050B1FFF73CFA002820
S31500001A4000D07DE04023E55C8DB10233E55A78E0B5
S31500001A5046F2AC53C0F2000346F65412C0F200023E
S31500001A6046F2BC50C0F20000F12103F0F8F9602301
S31500001A70E35C012B30D0022B34D033B9E38B012247
S31500001A809343002B1ADD0125EDB29023E35C13B9D5
S31500001A906B425D41EDB205B120252000FFF7ECFE5B
S31500001AA010B104231D43ADB2B023E35C012B34D047
S31500001AB0022B35D102231D43ADB231E02000FFF7E2
S31500001AC0F0FA28B92000FFF7BCF918B90025DBE7C2
S31500001AD00125D9E70125D7E7E58B01239D436D4213
S31500001AE0ED0FD2E72000FFF75BFA0028CDD1E38B9C
S31500001AF001229343002B02DD0125EDB2C5E720004C
S31500001B00FFF7CFFA28B92000FFF79BF918B900258F
S31500001B10F3E70125F1E70125EFE701231D43ADB208
S31500001B20A023E358012B07D03623E35C012B08D111
S31500001B3010231D43ADB204E008231D43ADB2F3E705
S31500001B400025280070BD10B528B14023C35C93B1B1
S31500001B504423C05C10BD46F2AC53C0F2000346F607
S31500001B60E402C0F2000246F2BC50C0F2000040F2AD
S31500001B70F02103F074F9FFF77FFE0028EAD0642015
S31500001B80E8E710B5040020B1FFF795F988B1002009
S31500001B9010BD46F2AC53C0F2000346F6FC02C0F29A
S31500001BA0000246F2BC50C0F2000040F2481103F0B9
S31500001BB056F92000FFF7C7FFEAE770B504000028D2
S31500001BC03ED0FFF7EDF82000FEF7C9FF6823E35A81
S31500001BD0022B44D02000FFF72FFE002859D03623D1
S31500001BE0E35C012B00D17DE0022B00D196E053B9D6
S31500001BF08633E35A012B03D15133E35A1B0651D4E2
S31500001C0000F021FFA0622000FFF736FE050002006B
S31500001C10A823E35C13B1002800D190E013B9002A91
S31500001C2000D098E0A823E5542000FFF725FE18B160
S31500001C305223E35A1B0702D500F005FF606270BD10
S31500001C4046F2AC53C0F2000346F66C22C0F2000224
S31500001C5046F2BC50C0F20000242103F000F94E33D6
S31500001C60E35A6422B3FBF2F31C32A25A93420CD815
S31500001C70256B42F2107C654400F0E5FE2D1A002D1E
S31500001C80A8DC37230122E254A4E700F0DCFE20633F
S31500001C90A0E700F0D8FE206300F0D5FEA062002386
S31500001CA0A3869CE7A56A40F2D07C654400F0CBFE93
S31500001CB02D1A002DA7DCA38E8822A25A93420BD39D
S31500001CC038230122E2540023A38636330232E2543B
S31500001CD000F0B9FEA06296E70133A38636230122FF
S31500001CE0E254F5E75223E35A1B0610D5A56A40F6DF
S31500001CF0B83C654400F0A7FE2D1A002D00DD82E7F2
S31500001D0000F0A1FEA06236230222E2547BE73623CE
S31500001D100022E25400F097FEA06274E7A56A41F241
S31500001D20883C654400F08FFE2D1A002D00DD6AE721
S31500001D3000F089FEA06236230022E25463E7AC235A
S31500001D40E65800F080FE811B03D42000FFF7B1FCAB
S31500001D5068E7311AF9E700F076FEAC23E05061E758
S31500001D6010B5040020B18623C35A012B10D010BD34
S31500001D7046F2AC53C0F2000346F2D862C0F200024B
S31500001D8046F2BC50C0F2000040F2BB2103F067F8F7
S31500001D9000F059FEA06236230122E254E7E770B54F
S31500001DA00400A8B140F21413C35C0BB303880133DB
S31500001DB0038040F21813E55800F045FE431B1BD480
S31500001DC040F2E832B3FBF2F3A268D318A36070BD09
S31500001DD046F2AC53C0F2000346F2C462C0F20002FF
S31500001DE046F2BC50C0F2000040F2C42103F037F8BE
S31500001DF0438801334380DCE72B1AE1E703006822BE
S31500001E00825A022A08D19032805C30B15B3A985CE3
S31500001E1043425841C0B200E00020704703009122BF
S31500001E20805C20B11332985C43425841C0B270477F
S31500001E3010B58CB00400FFF74AF82B22002101A848
S31500001E4004F09CF92B2101A800F061FC30B92000B8
S31500001E5000F0D5F801F098FB0CB010BD01A92000E8
S31500001E60FFF752FAF3E770B584B00500FFF7A5FE59
S31500001E70280001F0B8FB280000F0A4F800F04EFAA4
S31500001E8068B940F2AC03C2F200031C68F534FF34B3
S31500001E9000F0D9FD241A002C05DD04B070BD280021
S31500001EA0FFF784FDEDE700236A469381D3810E3365
S31500001EB06B44190003A800F0DBFD00F08CFA040067
S31500001EC0022000F081F90600012000F07DF90300F0
S31500001ED06A46D28901926A460C21525E009232000D
S31500001EE021002800FFF711F900240BE0E0B200F012
S31500001EF0EFF9230024335B00EB189A8912189A81B4
S31500001F000134A4B2052CF1D900F0F0F900F09BFDE4
S31500001F1040F2AC03C2F200031860BEE710B58CB005
S31500001F20040000F090FD40F2E833B0FBF3F3606884
S31500001F30C01860602B22002101A804F01FF901A936
S31500001F402000FFF749F92B2101A800F095FB0CB002
S31500001F5010BD10B5587F00F054F910BD10B540F211
S31500001F60B002C2F20002928802B910BD1800FFF753
S31500001F7036F8FAE710B540F2B004C2F20004217850
S31500001F80002000F01AFC6178012000F016FC10BD5C
S31500001F9070B50500002409E00121A140294049420D
S31500001FA0C90F200000F038FC0134E4B2062CF3D946
S31500001FB070BD10B540F2B003C2F200035888FFF7B7
S31500001FC0E7FF10BD70B50500FFF7DBFD40F2B0047A
S31500001FD0C2F2000420702800FFF77BF8607028002A
S31500001FE0FFF728FD6080EB8BA38000F02CFD01003D
S31500001FF040F2B800C2F2000003F0B9FB70BDF0B5C4
S31500002000C64600B582B0060045F6A973C0F20003C5
S3150000201046F22112C0F2000240F2B804C2F20004F5
S315000020200100200003F021FB41F67578C0F200089C
S3150000203040F2B005C2F20005002700974346012290
S315000020402900200003F02CFB691C0097434601225F
S31500002050200003F025FB41F6B373C0F20003A91C70
S3150000206000970222200003F01BFB41F65D73C0F2CD
S315000020700003291D00970222200003F011FB310006
S315000020801D3141F65373C0F2000300970122200070
S3150000209003F006FB3000FFF795FF6888FFF778FF2F
S315000020A002B080BCB846F0BD10B546F67061C0F20D
S315000020B0000140F28060C2F2000002F0DCFCA0B930
S315000020C046F65C61C0F2000140F28060C2F2000098
S315000020D002F0CAFDC0B9002002F075FF40F2806030
S315000020E0C2F2000002F0BFFB10BD46F2F053C0F290
S315000020F0000346F68822C0F2000246F20460C0F2EF
S315000021000000132102F0ABFE46F2F053C0F20003CA
S3150000211046F68822C0F2000246F20460C0F20000D1
S31500002120162102F09CFE30B585B040F2F003C2F2F3
S3150000213000031C68F534FF3400F085FC241A002CDB
S3150000214001DD05B030BD46F69823C0F200031A88BB
S3150000215069460A809A788A7001AA043331CB31C263
S31500002160002413E06B461957A20001ABD25840F287
S315000021703013C2F200031B885B00D21840F2806065
S31500002180C2F2000002F074FB0134E4B2022CE9D979
S3150000219040F23011C2F200010B8801330A2093FB92
S315000021A0F0F08200121852009B1A0B8040F28060F9
S315000021B0C2F2000002F057FB00F045FC40F2F003CB
S315000021C0C2F200031860BCE770B584B001AA46F6F7
S315000021D09823C0F20003043370CB70C200230021A1
S315000021E006E0820001AC12595C00A25A891801333C
S315000021F0092BF6D90A23B1FBF3F080B204B070BD07
S31500002200704770B5040040F23810C2F20000002298
S31500002210002103F024FC46F6FC53C0F200039A6842
S31500002220D569186863425C41E2B20A21A84770BDCD
S3150000223010B540F23810C2F200000022002103F06F
S315000022400EFC0020FFF7DDFF10BD70B584B040F234
S315000022503413C2F200031C68023400F0F4FB241AA3
S31500002260002C01DD04B070BD01AA46F6A823C0F219
S31500002270000331CB31C20024002600E00134052CD6
S3150000228016D800236A46D37046F6FC53C0F2000304
S315000022909A6895691868630001AA995A6B46DA1C10
S315000022A0A8476B46DB78012BE8D1A3401E43E5E740
S315000022B040F23810C2F200000522310003F0DEFBC6
S315000022C000F0C1FB40F23413C2F200031860C9E704
S315000022D01F2808D840F23813C2F2000322308000CB
S315000022E0C05880B2704701204042FAE700230AE056
S315000022F040F23812C2F20002190022318900002091
S3150000230088500133DBB2052BF2D9704710B540F285
S315000023104820C2F2000003F047FB10BD40F2442300
S31500002320C2F200031B780420984280414042704765
S3150000233070B586B040F24023C2F200031C68053433
S3150000234000F081FB241A002C01DD06B070BD02AA44
S3150000235046F6B423C0F2000331CB31C21B681360CA
S315000023600024002500E00134072C17D801236A4613
S31500002370D37146F6FC53C0F200039A689669186852
S31500002380630002AA995A6B46DA1DB0476B46DB79A1
S31500002390002BE8D10133A3401D43E4E740F2482077
S315000023A0C2F200000522290003F03FFB40F244235D
S315000023B0C2F200031B78042B05D840F24422C2F275
S315000023C000020133137000F03EFB40F24023C2F2DC
S315000023D000031860B9E740F24823C2F200031879F7
S315000023E0704710B540F2D423C2F200031B7833B312
S315000023F040F2D023C2F200031C68323400F023FB03
S31500002400241A002C00DD10BD46F6FC53C0F2000372
S315000024109A68D4691868002240F20041A04740F249
S31500002420D423C2F200031A7851424A411A7000F0CE
S315000024300AFB40F2D023C2F200031860E3E740F241
S31500002440D023C2F200031C6840F2D07C644400F042
S31500002450FAFA241A002CD6DC46F6FC53C0F2000326
S315000024609A68D4691868012240F20041A04740F2F8
S31500002470D423C2F200031A7851424A411A7000F07E
S31500002480E2FA40F2D023C2F200031860BBE710B5AF
S31500002490810240F2000CC4F2100C614440F2C460A8
S315000024A0C2F20000012202F094F900B910BD46F212
S315000024B01863C0F2000346F6EC22C0F2000246F2B0
S315000024C02C60C0F20000872102F0C9FCF8B5CE46A8
S315000024D0474680B58046002401235B429946002585
S315000024E00BE0002342461360023B99464846C0BCB7
S315000024F0B946B046F8BD0134A4B27F2C23D8A0015A
S3150000250040F2000CC4F2100C6044C37882781202C8
S31500002510134342781204134307783F061F433F23B1
S31500002520C35C3E22865C36021E4300223E21FDF736
S31500002530D9FFB042DFD17B1CD3D0BD42DBD823B25A
S3150000254099463D00D7E7013543461D60CEE710B5F5
S3150000255040F2E423C2F200031A682AB140F2E023F3
S31500002560C2F200031868904710BD10B540F2E02390
S31500002570C2F20003196040F2E423C2F200031860BD
S3150000258046F6F061C0F2000140F2C460C2F20000FB
S3150000259002F054F900282CD140F2D820C2F20000F3
S315000025A0FFF794FF020040F2DE23C2F20003188018
S315000025B0831C2DD001324CD00130C217520E801828
S315000025C07F2303409B1A40F2DC22C2F200021380F2
S315000025D01A0748D046F60861C0F2000140F240648E
S315000025E0C2F20004200001F074FC200001F0A5FCFA
S315000025F010BD46F21863C0F2000346F6F822C0F298
S31500002600000246F22C60C0F200002A2102F027FCEC
S315000026100021C4F2100140F2C460C2F200000A3286
S3150000262002F0D7F830B940F2DC23C2F200030022F0
S315000026301A80CFE746F21863C0F2000346F6F82286
S31500002640C0F2000246F22C60C0F20000302102F017
S3150000265006FC0020FFF71BFF40F2DC23C2F200035A
S3150000266000221A80B6E7DA170F201040C0180011B2
S3150000267080B2FFF70CFFADE730B591B005000C0056
S315000026803B2935D840220021684603F077FD40F209
S31500002690D823C2F200031B681A0E69460A701A0C88
S315000026A04A701A0A8A70CB702200290001A803F02A
S315000026B071FC00223E216846FDF714FF020A3E2304
S315000026C06946CA540133C85440F2DC23C2F20003FF
S315000026D01A88920140F2000CC4F2100C624440F2D7
S315000026E0C460C2F20000402302F046F811B030BDCB
S315000026F046F24463C0F2000346F6D822C0F2000256
S3150000270046F22C60C0F20000472102F0A8FB10B58B
S315000027100A0040F2DE23C2F2000300215B5E002BBA
S315000027201ADB9BB29B010421C4F2100159183B2A03
S3150000273003D803F02FFC012010BD46F24463C0F21B
S31500002740000346F6C422C0F2000246F22C60C0F234
S3150000275000005B2102F083FB0020EDE710B584B09A
S3150000276046F69461C0F2000140F2A460C2F2000095
S3150000277001F000FE90B940F2A464C2F20004200009
S3150000278001F012FC01A9200001F0E2FC039A40F2DC
S31500002790E823C2F200031A6004B010BD46F21863C3
S315000027A0C0F2000346F61C32C0F2000246F2606038
S315000027B0C0F200000F2102F052FB10B5642900D9C7
S315000027C0642143425841C4B240F2E823C2F20003F6
S315000027D018686422521AD317002103F0E3F9642221
S315000027E0002303F0BFF9010040F2A460C2F200002A
S315000027F0220001F035FC00B910BD46F21863C0F2A4
S31500002800000346F60C32C0F2000246F26060C0F2E7
S315000028100000282102F023FBF0B585B00A006946C6
S3150000282046F62C33C0F200030C00E0CBE0C41B8854
S31500002830238046F6FC53C0F200039C68E4691D68D9
S315000028404000415A531E9A41D2B22800A04705B013
S31500002850F0BD10B546F61C63C0F200039A68126814
S3150000286018685968904710BD70B504000A0046F60E
S315000028701C63C0F2000399688D6818682100A84798
S3150000288070BD10B540F2F033C2F200031B680C00B5
S31500002890994200D91C0040F2F021C2F20001220048
S315000028A003F078FB200010BD40F2F033C2F20003C3
S315000028B000221A60704710B504000379012B1DD061
S315000028C0042B1ED140F2F033C2F200031B68FE2B2C
S315000028D017D800F0B8F840F2EC23C2F200031860F3
S315000028E040F2F033C2F200031A68207A40F2F02177
S315000028F0C2F20001885401321A6002E0C046C046A6
S31500002900C04610BD10B540F2EC23C2F200031C68AD
S31500002910241800F098F8201A431E1843C00F10BD63
S31500002920F0B5CE46474680B583B00700002440F296
S3150000293000080CE0F369002240F20B1128009847CA
S3150000294001210A2002F091FA40F2010CE0444346CC
S31500002950072B2DD846F6FC53C0F200039E68F26999
S3150000296091461D68FA0940F209112800C847F36923
S31500002970012240F20B112800984701210A2002F09B
S3150000298074FA01236A46D371B369073240F20A1119
S31500002990280098476B46DB79013B5A4253411C435A
S315000029A04346072BC6D06400E4B27F00FFB2C1E7FE
S315000029B046F6FC53C0F200039A68D56918680022EF
S315000029C040F20911A847200003B0C0BCB946B04682
S315000029D0F0BD013880235B04984215D24EF21002F6
S315000029E0CEF2000250604EF60051CEF200010B6AA4
S315000029F01B021B0AC020000603430B6200239360E0
S31500002A0007331360002070470120FCE740F2F433DF
S31500002A10C2F200031A6801321A60704710B540F21C
S31500002A20C073C2F20003186840F2E833B0FBF3F05B
S31500002A30FFF7CFFF4EF60052CEF20002136A1B02DA
S31500002A401B0A136210BD40F2F433C2F20003186889
S31500002A50704703004118002007E01A78424046F606
S31500002A603C30C0F20000805C01338B42F5D37047E6
S31500002A70F0B5C64600B582B00600884646F6FC5359
S31500002A80C0F200039D68EC691F68002240F2033122
S31500002A903800A04701210A2002F0E7F9002409E0E6
S31500002AA00020FFF73DFF6B46185501210A2002F072
S31500002AB0DCF90134042CF3DDEB69012240F2033129
S31500002AC03800984704216846FFF7C3FF6B461B7919
S31500002AD0984211D16B461A785B7812021343338001
S31500002AE06B469A78DB781202134342461380002025
S31500002AF002B080BCB846F0BDC046C046C046012004
S31500002B004042F5E730B542B1CC08035D07221140DB
S31500002B10063A8A401343035530BDCC08055D0722AB
S31500002B200A4001239340DB435BB22B400355F3E796
S31500002B30830723B90006800E20B9013000E000208B
S31500002B40C0B270470020FBE771B140F20013994212
S31500002B5006D840F2F833C2F2000343600020704703
S31500002B60002343600220FAE7002343600020F6E7D3
S31500002B7000207047F8B51400056A4B78022B2AD05E
S31500002B8009D8ABB1012B04D10B78012B1AD0012344
S31500002B9013700020F8BD032BFBD10B78012BF8D165
S31500002BA02B774B881D2BF4D89B00BF4AD3589F46E2
S31500002BB00B78013B012B02D901231370E9E70023AF
S31500002BC01370E6E74B881D2B02D800231370E0E74D
S31500002BD002231370DDE70B78012B00D1C5E0022B31
S31500002BE0D7D14A88292A00D9BCE09300AF49CB58EF
S31500002BF09F4600236380CCE782236380C9E741F6C2
S31500002C0003436380C5E740F2E9736380C1E72800A8
S31500002C10FEF712FEB0B12800FEF70CFFC70801232D
S31500002C201F402800FFF7FAF8431E984146003E432E
S31500002C302800FFF7E3F803005A1E93419B001E434A
S31500002C406680A6E72800FEF7F5FEC30801221340BA
S31500002C5063809EE75223EB5A63809AE72800FEF7CB
S31500002C60E9FE608095E72800FEF78BFF608090E71D
S31500002C702800FEF72EFA60808BE74623EB5A638026
S31500002C8087E74823EB5A638083E74A23EB5A63803E
S31500002C907FE74C23EB5A63807BE74E23EB5A638036
S31500002CA077E75023EB5A638073E70023638070E76E
S31500002CB0002363806DE7130013335B00EB189B89D9
S31500002CC0638066E740F21013EB5A638061E72800E1
S31500002CD0FEF785FC60805CE72800FEF711FC60804B
S31500002CE057E72800FEF739FC608052E7EB8B6380DC
S31500002CF04FE7002363804CE72B88638049E7002376
S31500002D00638046E76B88638043E76D68FFF79BFE49
S31500002D1040F2E833B0FBF3F02D182D0C658038E750
S31500002D206D68FFF790FE40F2E833B0FBF3F02D1824
S31500002D3065802EE76B8963802BE72B89638028E704
S31500002D40EB89638025E7AB89638022E76B8A638022
S31500002D501FE72B8A63801CE7EB8A638019E7AB8A3F
S31500002D60638016E70023638013E74B881A2B00D98C
S31500002D70A8E09B004E4AD3589F464023EB5C6380F5
S31500002D8007E74223EB5A638003E74423EB5C4522C3
S31500002D90AA5C120213436380FBE66B7F6380F8E64E
S31500002DA06023EB5C6380F4E66223EB5A6380F0E613
S31500002DB06423EB5A6380ECE66623EB5A6380E8E60D
S31500002DC06823EB5A6380E4E68623EB5A6380E0E6E9
S31500002DD08823EB5A6380DCE68A23EB5A6380D8E6C5
S31500002DE07223EB5A6380D4E67423EB5A6380D0E6F1
S31500002DF07023EB5C5A1E93416A22AA5C511E8A41DB
S31500002E00520013438D22AA5C511E8A41920013433D
S31500002E108E22AA5C511E8A41D20013438F22AA5CDD
S31500002E20511E8A41120113438C22AA5C511E8A410B
S31500002E30520113439022AA5C511E8A419201134308
S31500002E409322AA5C511E8A41D20113439122AA5CA5
S31500002E50511E8A411202134363809AE67623EB5A87
S31500002E60638096E69223EB5C638092E67E23EB5AC0
S31500002E7063808EE68023EB5A63808AE68423EB5ACE
S31500002E80638086E68223EB5A638082E66B8F6380DB
S31500002E907FE6AB8F63807CE67823EB5A638078E627
S31500002EA07A23EB5A638074E63C6C0000B46C000035
S31500002EB05C6D00007C23EB5A63806AE63E23EB5C84
S31500002EC0638066E60023538063E68B88072B00D970
S31500002ED05FE69B00664AD3589F462800FEF777F8C0
S31500002EE057E62800FEF77BF853E62800FEF77FF842
S31500002EF04FE62800FEF783F84BE62800FEF77FFD35
S31500002F0047E62800FEF7AFFA43E600232B806B80E6
S31500002F103FE689882800FDF770FE3AE68988280092
S31500002F20FDF73CFE35E68B885A1E93414022AB5492
S31500002F302FE68A884223EA522BE60A794423EA548A
S31500002F408B881B0A4522AB5423E68B885A1E934175
S31500002F506B771EE60A796023EA541AE60423CA5EF2
S31500002F606223EA5215E68A886423EA5211E68A88C1
S31500002F706623EA520DE68A886823EA5209E68A88B9
S31500002F808623EA5205E68A888823EA5201E68A8879
S31500002F908A23EA52FDE58A887223EA52F9E58A888D
S31500002FA07423EA52F5E58A8801231A4070202A54D0
S31500002FB08A8852081A4006382A548A8892081A4083
S31500002FC023302A548A88D2081A4001302A548A8823
S31500002FD012091A4001302A548A8852091A400338C5
S31500002FE02A548A8892091A4004302A548A88D209B7
S31500002FF01A4003302A548A88120A13409122AB548D
S31500003000C7E58A887623EA52C3E58A889223EA547A
S31500003010BFE57E23EA5A8B889A4200D1B9E57E2223
S31500003020AB52A4230022EA54B3E58A888023EA52ED
S31500003030AFE58A888423EA52ABE58A888223EA527E
S31500003040A7E58B886B87A4E58B88AB87A1E58A8883
S315000030507823EA529DE58A887A23EA5299E58A8896
S315000030607C23EA5295E50A793E23EA5491E5C04667
S31500003070C86D000001600023436083608381837311
S31500003080C3730020704770B504000D0011B1837B37
S315000030905D18ADB22368290020009847022800D0A9
S315000030A025B900236360A360A38170BD6368E27BDA
S315000030B09B18A360A581F8E710B50A000021FFF769
S315000030C0E2FF10BD30B5050000244FF6FF700CE09E
S315000030D04008013BDBB233B1C207F9D54008064AC6
S315000030E0504080B2F5E70134A4B28C4203D22B5D86
S315000030F058400823EFE730BD01A0FFFF70B504ACD0
S3150000310020CC24788560047301604260002202624C
S3150000311010301900FFF7AEFF70BD70B504000E0049
S315000031201500436803B19847226A20001030022137
S31500003130FFF7A9FF40B9A26980235B4233431370AE
S31500003140A3695D70002070BD0820FCE7F0B5D64687
S315000031504F464646C0B584B005000F00052B0CD17E
S3150000316003291CD012D8012949D0022915D140F2D1
S31500003170010A40F2D071082015E00322FFF7CDFFC7
S3150000318004B0E0BCBA46B146A846F0BD042904D155
S3150000319040F2000A7D21022005E00C20F0E740F213
S315000031A0000A7D210120947853781B022343984618
S315000031B01379D67836021E4333B2994626B3B14206
S315000031C022D380235B029B1B984523DC01AB18703E
S315000031D000225A705A809A809F710024B4422AD2E3
S315000031E04346E31801A94B802B6803AA2800984799
S315000031F0B0B903AB1A78CAB90134A4B2EEE78A466D
S3150000320040F2D0710420CEE7032239002800FFF7F0
S3150000321084FFB5E7022239002800FFF77EFFAFE7FB
S31500003220042239002800FFF778FFA9E739002800B3
S31500003230FFF773FFA4E7534673B1F41DE410E4B23D
S31500003240A11C2A6A28001030FFF71DFF48B9AB6998
S315000032501F70AB695C700DE04B46DCB26400E4B2F3
S31500003260EEE708208CE7AB69821C9B1800221A70D7
S315000032700130C0B2A042F6D301AB02225A7000243C
S315000032800BE0A86903AB5A88531E9A41D2B20230AA
S315000032902100FFF737FC0134A4B2B44214D24346EE
S315000032A0E31801A94B802B6803AA280098475346C8
S315000032B0002BE6D1AB69620002329B1803AA528842
S315000032C0110A19705A70E6E7002059E7F0B5DE4694
S315000032D057464E464546E0B587B007008846150076
S315000032E0052B22D90F2924D040F201097B21A87889
S315000032F06E783602064332B2924600962879EC780A
S315000033002402044322B20192687910B1063B984226
S3150000331014D0032241463800FFF7FFFE07B0F0BC89
S31500003320BB46B246A946A046F0BD0322FFF7F5FE0E
S31500003330F4E740F2040940F2B071D8E73CB1A1428B
S3150000334005D34B46042B08D06300984208D00322CD
S3150000335041463800FFF7E1FEE0E7E31DDB10F4E746
S3150000336080235B021B1B009A9A420FDC03AB4A4682
S315000033701A700121597000215980998042469A712C
S315000033800026AB464D46009B994619E0022241466F
S315000033903800FFF7C2FEC1E7F3085B449A790723BA
S315000033A033401A410123134003A98B803B6805AAC9
S315000033B038009847A0B905AB1A78BAB90136B6B243
S315000033C0A64218D24B46F31803AA5380042DE3D025
S315000033D0730006335B445A781B781B021343E3E7FA
S315000033E0042241463800FFF798FE97E74146380029
S315000033F0FFF793FE92E7A9465D4603AB032159709A
S3150000340040F2000B5E46AB464D46009B99460FE0E8
S31500003410F3085B449A79072333401A41012313408A
S3150000342003A98B803B6805AA380098470136B6B2D7
S31500003430A6420DD24B46F31803AA5380042DE7D0BB
S31500003440730006335B445A781B781B021343E7E785
S315000034503A6A380010300521FFF715FE78B9BB69C6
S3150000346042461A70BB69009A160A5E7052469A70F6
S31500003470BB69240ADC70019A1A7100204EE7082005
S315000034804CE7F8B50F0013000978002401E0013479
S31500003490A4B2057BA54209D98668E5007219755D57
S315000034A08D42F4D154683A00A04702E00122FFF7AA
S315000034B034FEF8BDF0B5DE4657464E46C0B582B07E
S315000034C00700019114001D00002640F20009043B8C
S315000034D09BB2FC2B1ED81678AB1E9B4699B21000E9
S315000034E0FFF7F0FD5B46E3185A46A25C5B781B02C9
S315000034F01343984210D1631C9A46033DABB29946DA
S3150000350000235BB99EB1019BB34210D001202C234E
S31500003510184306E00123F4E70823F2E79B000120A5
S31500003520184302B0E0BCBB46B246A946F0BD032331
S31500003530BB77023BFB774B46DAB251463800FFF7C2
S31500003540A0FF0400FFF7F4FA48B1B98BD1B146B138
S3150000355078690B1F9BB2FC2B0AD90420E1E72000F7
S31500003560DFE7396A38001030FFF7A6FD0020D8E7FC
S31500003570019B03700239441889B2FFF7A3FD20703E
S31500003580000A60700020CCE710B582B042F64933DD
S31500003590C0F2000342F67132C0F2000242F6753103
S315000035A0C0F2000140F2F840C2F200000324019488
S315000035B040F20004C2F200040094FFF79FFDFFF7FB
S315000035C0B7FA08B102B010BD46F27463C0F2000348
S315000035D046F6E852C0F2000246F2A460C0F20000CD
S315000035E09D2101F03CFC30B5C1B00500FF22002151
S315000035F0684602F0C3FDFF216846FFF742F9040062
S3150000360008B941B030BD0A20FFF77CF90028F8D090
S3150000361040F2F840C2F200000562E3B26A460121B8
S31500003620FFF748FFFFF784FA68B140F2F843C2F2A9
S3150000363000035869998BFFF717F9FFF735F9FFF77C
S3150000364002FAE862DDE7FFF72FF9DAE710B582B094
S31500003650FFF7E4F9FEF75AFEFFF780F8FEF724FDC0
S31500003660FFF7F7F8FEF7E4FD40F21C54C2F200043F
S3150000367041F61D70C0F200002100FEF776FF200023
S31500003680FEF7D6FB03E0C046C046C04630BF40F258
S315000036901C50C2F20000FEF7E6FBFEF7A2FEFEF7A4
S315000036A047FEFEF740FDFEF7D0FD01236A46D371C3
S315000036B046F6FC53C0F200039A68946918686B4694
S315000036C0DA1D40F20621A0476B46DB79002BDDD1DF
S315000036D0D9E710B538B94CF20003C4F27E03902244
S315000036E00121995410BD0228FCD146F60471C0F29E
S315000036F0000140F23860C2F2000000F0CCFBF1E7B6
S3150000370010B5FFF7A3FF002010BD416182610020C4
S315000037107047FFFF30B5046AA3787B252B40A37062
S3150000372083789B079B0FD21A0261CB18C360026A8B
S315000037309378802464422343DBB293708278032318
S315000037401340022B04D0036A0A78DA70002030BDD9
S315000037500988026A024B0B439BB2D381F6E7C04647
S3150000376000FEFFFF4162C2628362002070470123B0
S315000037705B424B600B600020704710B503008A0760
S315000037800DD5006A82787B242240827000221A615D
S315000037900020C90702D500229A61002010BD06202C
S315000037A0F7E783690B60002383610020704710B53B
S315000037B08B7843704A7892070378920F0324A343C9
S315000037C013430370CB788374C3795C2293430978DF
S315000037D00A401343C37110BD10B50B7813B9036AC1
S315000037E0224A9A828B781B01CA78D20013434A7800
S315000037F0032A03D0002A2CD0F22202E03D321343E2
S31500003800B232046ADBB22370046AD2B2A271C96909
S315000038100B7B5B00026A0224234053734A78D20171
S31500003820FF2313408C786401202222401343026A4E
S31500003830002414720A78023AD2B2012A0ED8026A19
S31500003840FF3454700A78022A05D0026ADBB2D371BB
S3150000385010BDE222D5E70E321343F6E7026ADBB269
S31500003860D3714968006AFFF7A2FFF1E700F8FFFF8E
S3150000387070B50400026A93787B251D400B20034037
S3150000388093700023E360206AFFF791FF236A9D701F
S31500003890002070BDF0B5C64600B584B0040094465D
S315000038A0806AD8B16B460600A4CEA4C31D00336857
S315000038B02B60E3691B780360816063460371E36AEA
S315000038C0C360636A9847A26A22B16B4631CB31C2A4
S315000038D01B68136004B080BCB846F0BD6846E8E7D4
S315000038E010B5040000234360026A9370C369052083
S315000038F0185601F068FBE3690B20185601F063FBCC
S31500003900E3690720185601F05EFBE36909201856A3
S3150000391001F059FBEFF31080012383F3108846F67C
S31500003920FC73C4F204035A68E1690C788021090625
S31500003930E1400A435A605B6880F31088002010BD9E
S3150000394070B506000D001400100001F03CFB2000CD
S3150000395001F0E2FA32002900200001F0FEFA70BD03
S3150000396070B505000C00897A0B22A256FFF7E8FF16
S3150000397021790522A2562800FFF7E2FFA179072246
S31500003980A2562800FFF7DCFF217A0922A25628005A
S31500003990FFF7D6FF70BDF8B504000D000B7843F6AF
S315000039A0000CC0F2002C63445B0103620023037029
S315000039B0C1614A6942628A69C2628362837803226C
S315000039C093430122134383704B782BB983780322E8
S315000039D0934302221343837029002000FFF7C0FFA0
S315000039E0EFF31086012080F3108846F6FC73C4F2CC
S315000039F004035A682F7880210906F9408A435A60E1
S31500003A005B6886F31088226A00239370226A13711A
S31500003A10226A5372226A9372226AD372226A53838B
S31500003A202A7840F20F23D340184202D0236A40225C
S31500003A30DA74236A06221A7729002000FFF7CCFEE3
S31500003A400023E36023616361A361ED692E78E36976
S31500003A500520185601F0AFFAE3690B20185601F05D
S31500003A60AAFAE3690720185601F0A5FAE3690920C6
S31500003A70185601F0A0FA0323334070221343DBB239
S31500003A80226A93706B89238144F65513C5F243333A
S31500003A9063600020F8BDFFFF10B5EFF30384E40573
S31500003AA0E40D103C64B2200001F036FA40F23473A3
S31500003AB0C2F20003A400E058C3691B6993B103690D
S31500003AC07BB9026A93787F210B4004210B43DBB25A
S31500003AD093700023C360436A1BB180220021FFF765
S31500003AE0D9FE10BD0369002BE9D082780323134069
S31500003AF0022B0DD0C268036A1278DA7002698378E5
S31500003B009B079B0FD21A0261C268D318C360D6E71F
S31500003B10C3681988026A024B0B439BB2D381EDE757
S31500003B2000FEFFFF10B582B0EFF30384E405E40D59
S31500003B30103C64B2200001F0EFF940F23473C2F297
S31500003B400003A400E458A27803231340022B0DD0EF
S31500003B50236A5B790193A3697BB9636A23B10199EF
S31500003B6004222000FFF796FE02B010BD236A1B8ACE
S31500003B7040F2FF1213400193EDE76069A2789207C5
S31500003B80920F01A902F006FA6269A3789B079B0FC0
S31500003B90D2186261A269D31AA361002BE4D1636AC9
S31500003BA0002BE1D0012200212000FFF773FEDBE7A6
S31500003BB010B5EFF30384E405E40D103C64B240F263
S31500003BC03473C2F20003A200D058026A93787B21B4
S31500003BD00B409370436A1BB102220021FFF75AFE85
S31500003BE0200001F099F910BD70B5EFF30384E405E8
S31500003BF0E40D103C64B240F23473C2F20003A2003A
S31500003C00D058827803231340022B1AD0036A5979BD
S31500003C10C9B2036A1D7938222A40ED0605D51D7FF3
S31500003C20ED0702D440252A43D2B21D793826B54382
S31500003C301D71436A0BB1FFF72DFE200001F06CF9F0
S31500003C4070BD036A198A40F2FF131940E1E7EFF3EA
S31500003C501081012383F3108840F23073C2F200030F
S31500003C601B683BB940F60053C4F204030022DA7025
S31500003C704032DA7040F23073C2F200031A68013241
S31500003C801A6081F310887047EFF31082012383F3E3
S31500003C90108840F23073C2F200031B6833B140F261
S31500003CA03073C2F2000319680139196040F23073AB
S31500003CB0C2F200031B683BB940F60053C4F204038A
S31500003CC00021D9708031D97082F3108870470023A3
S31500003CD003600020704710B50B0AFF20084040F62D
S31500003CE00004C4F204041901091889000B599B0742
S31500003CF0DB0F1370002010BD090A490140F2000CC9
S31500003D00C4F2040C61444B6813800020704718000D
S31500003D101040D24312B21A40090A490140F2000C7F
S31500003D20C4F2040C614412041043886000207047FA
S31500003D30FF200840012383409BB26AB91A00002382
S31500003D40090A490140F2000CC4F2040C6144120451
S31500003D5013438B60002070470022F1E710B5100076
S31500003D60090A490140F2000CC4F2040C61440A68D5
S31500003D701C000440834322439A430A60002010BD7E
S31500003D80090A490140F2000CC4F2040C61444B6874
S31500003D901B0C1380002070470B0A5B0140F2000CDD
S31500003DA0C4F2040C63445868000CFF231940FE3B20
S31500003DB08B4099B203408B4203D00023137000203E
S31500003DC0704701231370FAE718001040D24312B26D
S31500003DD01A40090A490140F2000CC4F2040C61447D
S31500003DE012041043C86000207047000A400140F2E8
S31500003DF0000CC4F2040C604401238B40C168012A04
S31500003E0004D099431B040B43C36070471A049143C3
S31500003E100B43F9E710B5FF23080098431940FFF755
S31500003E20E4FF002010BDFFFF30B50300CA030FD525
S31500003E30020AFF24044040F60000C4F20400120106
S31500003E40121992001558084C254015500C40145074
S31500003E50180AFF22134040F60002C4F204020001D1
S31500003E60C0188000815030BDFFFFFEFF70B5050011
S31500003E70FFF7EDFE002408E06B68E2009B189888C7
S31500003E801968FFF7D1FF0134A4B22B88A342F3D8F7
S31500003E90FFF7FAFE70BD10B545F25423C5F24F0385
S31500003EA003600800FFF7E2FF002010BD10B5080010
S31500003EB0FFF7DCFF002010BD70B50C001500FFF702
S31500003EC0C6FE29002000FFF7AFFFFFF7DDFE00204A
S31500003ED070BD70B504000223CB56037146F2000292
S31500003EE0C4F20002C0339B009D58002098508B6896
S31500003EF0A360CB68E3600E7866719055087900017F
S31500003F00C0B24B79DB01DBB20343C8780343935558
S31500003F100423E356C0339B009D50042020560028FE
S31500003F2006DA44F25533C0F249032360002070BD1F
S31500003F304978220001F011F8F3E710B5007940B294
S31500003F4001F039F8002010BD70B582B0EFF303849C
S31500003F50E405E40D103C64B240F23473C2F200038F
S31500003F60A200D5586A7946F20003C4F200039B5CAE
S31500003F709B079B0F032B0BD10126AB682BB16A79EC
S31500003F800192EA680092684698474EB902B070BD41
S31500003F90200000F0C1FF0DB10026EEE70026F4E791
S31500003FA0200000F0B9FFF1E78368C2685A6000207C
S31500003FB07047416001230374C3681B0701D00023C7
S31500003FC003740B7C40F2807CC0F2400C63441B02FD
S31500003FD083604B6943618B69C361002383617047CA
S31500003FE0826880231B06136182685361826893612D
S31500003FF0826800235362826893627047F0B58668D0
S31500004000B56E01354F424F410024A94264413C43FD
S315000040101CB3DB0713D4746BE406E40E43681B7809
S31500004020032B10D91023234058424341DBB201B978
S3150000403013B18D420ED86BB1022353600FE0746B3F
S31500004040E402E40EEAE70C232340043B58424341D2
S31500004050DBB2ECE70323536001E001391160F0BDE8
S31500004060F0B5C64600B582B00600884614000327A0
S31500004070174001235B4200930023019313006A4615
S31500004080FFF7BCFFB068056B019989B923072CD4EB
S315000040900223A2072BD5009A94461A0012329200E8
S315000040A0821860465060B26813339B00D31858607C
S315000040B0630605D5B268106C8023DB0303431364E3
S315000040C0012F03D0134B2B400D041D43022C17D098
S315000040D027B1114B2B40019D2D061D43B3681D636F
S315000040E0002002B080BCB846F0BD0423D1E7DB193E
S315000040F0009A944612339A00821863465360D7E7B3
S315000041000029E5D001236A4641463000FFF776FFD5
S31500004110DEE7C046FFFFFCFFFFFFFFFC10B583682C
S31500004120DB6A5B015B0F5B00DBB24EF20002C4F29E
S315000041300102116A072214000C40090E0A4040F2DF
S31500004140C071C2F2000108689040E040D84010BD3E
S3150000415010B50C0083685B6E01338B60FFF7DEFFE2
S31500004160606001232370002010BD8B010A011343F8
S3150000417040F2001213430278022A04D0032A05D023
S3150000418031B1092000E00920184370470320FBE7FE
S315000041900620F9E74368DB6930229A5CD20703D52B
S315000041A09A6A8168013ACA6430229A5C920703D5FA
S315000041B0DB6A8268013B1365704710B5002800DA98
S315000041C010BD00F011FFFBE7F0B5C64600B582B0A2
S315000041D004000D00CE69EFF31081012383F31088EC
S315000041E046F6FC73C4F20403DB682A7C032A00D972
S315000041F0A9E0212252421A4046F6FC73C4F2040397
S31500004200DA60DB6881F31088A3684AF200521A600C
S31500004210A2680023D362A268D363A26893642B7A50
S315000042205B081B066F68013F2A78032A00D18DE0E0
S31500004230A268D3622000FFF7D3FEA368B269DA61F1
S31500004240A368F2691A62A3689F66A3685F66B36B88
S31500004250984601235B420093002301932B781BB9F8
S315000042606B685B08013B00932B78012B00D971E04A
S31500004270A268009B5365A26893652A78032A03D92E
S31500004280A268D365A2681366019B1F041B061F4321
S31500004290B36B93B9337833B171782800FFF765FFB4
S315000042A0434603439846B3783BB1F1782800FFF7BD
S315000042B05CFF00044346034398462000FFF76AFF6D
S315000042C0A26800239363A16888228B50B36B4BB915
S315000042D02033F35C5B03424613432122B25C520750
S315000042E01A4390463023F35C002B3AD1AA22D2031C
S315000042F0A3681A642B78012B36D0A36842465A630A
S31500004300A26803233B431363A368012217431F6379
S31500004310A368E268DA6012202856697C2200FFF75B
S315000043204CFF2223F15C0233F0562200FFF745FFD3
S315000043302323F15C0233F0562200FFF73EFF02B062
S3150000434080BCB846F0BD4122524254E78022520258
S3150000435013436DE7E96800236A462000FFF74EFE27
S3150000436086E7A022D203C3E7A2680023D364A2682B
S315000043701365C2E770B504000D000A7C0123934063
S31500004380C360FFF716FE29002000FFF71DFF45F268
S315000043905403C0F247032360002070BDC26844F294
S315000043A03F2CC0F20F0C624444F24023C0F20F03CC
S315000043B0B2FBF3F3C36048F63F21C0F2F7118A421D
S315000043C003D9DA0701D50133C360836844F23F2C71
S315000043D0C0F20F0C634444F24022C0F20F02B3FB5A
S315000043E0F2F3836040F283525A4340F2060CB2FB6A
S315000043F0FCF2026140F276325A43B2FBFCF24261B1
S3150000440058225A43B2FBFCF2826146F6B822C0F249
S3150000441005025A43B2FBFCF2C2615A01D21A92005B
S31500004420D21891018A1A9201B2FBFCF202624EF690
S315000044306852C0F222025A43B2FBFCF242624CF2CC
S315000044400003C4F27E0343F6C072002199547047FC
S3150000445010B540F2000CCBF6F05C61440C0C4CF24B
S315000044600003C4F27E0340F210129C5289B2083A4D
S3150000447099520178283299501C3A8121995410BDDD
S3150000448030B5091801394CF20003C4F27E0340F23C
S31500004490041400251D55050C0C341D5380B2083C30
S315000044A018530C0C40F220101C5089B208381952CF
S315000044B0D2B240F214115A5430BD41438B0803293D
S315000044C002D9013B002BFCD1704710B504004EF217
S315000044D00003C4F201031B6A1B0E0721194040F2B8
S315000044E0C073C2F200031B681A008A40CA40C26049
S315000044F040F6FF01C0F23D018A4211D844F2402144
S31500004500C0F20F018A420BD048F28041C0F21E0170
S315000045108A4205D04CF2C061C0F22D018A4223D1F5
S315000045204EF20002C4F20102116A090E07220A4085
S315000045309340D340A3602000FFF730FF4CF2000306
S31500004540C4F27E0390229B5C012B01D1002010BD9A
S315000045504CF20003C4F27E0301219954A16806209F
S31500004560FFF7ABFF0020F2E740F2F610EFE74CF260
S315000045700003C4F27E0340F28012A5219950803ACE
S315000045809854C143C9B2995498549B5CDBB2834298
S3150000459000D07047C046FCE710B504004CF200039B
S315000045A0C4F27E0343F6B07206499952816806202A
S315000045B0FFF783FF1020FFF7DAFFA1680320FFF75C
S315000045C07CFF10BD80AAFFFF10B582B0040044F640
S315000045D0003301930820FFF7CAFFA1681020FFF7F8
S315000045E06CFF4CF20003C4F27E0343F6B0720B4933
S315000045F0995202E0019B013B01934CF20003C4F285
S315000046007E0343F6B0729B5A9BB223B1019B002BEB
S31500004610F0D1142000E0002002B010BD00AAFFFF78
S3150000462010B5040034230022C2544CF20003C4F235
S315000046307E0343F6B0729B5A9BB26BB14CF20003F9
S31500004640C4F27E0340F224120121995000219950B0
S315000046502000FFF7B9FF10BDFFF79EFFEEE710B58C
S3150000466082B0019002E0019B013B01934CF20003F2
S31500004670C4F27E0340F22C129B585B0605D4019BC4
S31500004680002BF0D1142002B010BD4CF20003C4F28E
S315000046907E03183A995C7F2421409954002199544D
S315000046A001904CF20003C4F27E0340F22C129B5898
S315000046B05B0605D5019B2BB1019B013B0193F0E7FE
S315000046C00020E0E71420DEE7F8B505000800170033
S315000046D01E00FFF7C4FF040014280CD04CF20003A0
S315000046E0C4F27E0340F2F0129B583C001C401F426D
S315000046F005D12000F8BD2800FFF792FFF9E7280052
S31500004700FFF78EFF3400F4E710B504004169182363
S315000047101222FFF7D9FF48B9A36A0133A362E16AFF
S315000047200131E162206B0138206300B910BD180029
S31500004730FFF78EFE0820F9E770B50500C2628162B8
S315000047400363FFF729FF4CF20003C4F27E0340F235
S31500004750041200219954E96AA86AFFF779FE280035
S31500004760FFF7D2FF04000828F9D008B1200070BD79
S315000047702800FFF729FFF9E770B534240025055511
S31500004780FFF7DAFF70BDF8B504000D0017001E0034
S31500004790FFF702FF0023CBF6F053E818A062276369
S315000047A0310079438422FFF76BFE63681B7813B1EF
S315000047B000252800F8BD216A79431933112220000B
S315000047C0FFF782FF05000028F3D12000FFF7FCFE6B
S315000047D0EFE710B534230024C454890A890240F255
S315000047E00043FFF7D0FF10BD70B50400FFF7D4FEFD
S315000047F0E3681F2B13D9203B5B081F333F2213406E
S315000048004CF20002C4F27E0240F2D81011583F2545
S31500004810A9430B4313502000FFF7D6FE70BD013BA2
S315000048201F2213404CF20002C4F27E0240F2D8105E
S3150000483011583F25A9430B431350ECE710B504006C
S31500004840416034230022C254FFF73FFE00B110BD81
S315000048502000FFF7C9FF0028F9D144F24E53C4F6F1
S3150000486050732360F3E70368828A1A80002070473A
S31500004870036810314900CB5A1380002070474EF26E
S315000048800003C4F201031A6A072319001140120E2D
S31500004890134040F2C072C2F2000212689A40CA4047
S315000048A040F2E833B2FBF3F241F28833534344F269
S315000048B04022C0F20F02B3FBF2F30133062B00D8FD
S315000048C007230360704730B583B005000C00002352
S315000048D0019301A8FFF7D3FF236862681343802181
S315000048E089051A000A400B4209D02868019AD2B2FB
S315000048F0DE214254A268920012D440F200125B00FC
S3150000490012D52868019BDBB2DF21435440F2002315
S315000049101343A168490006D540F202231A4303E077
S3150000492040F20112EBE71A002B6892B25A8203B0EA
S3150000493030BD70B588B004000E00C569A5B120224F
S315000049402900684601F026FB20223100280001F0EC
S3150000495021FBA36928009847E06918B1202269461F
S3150000496001F018FB08B070BD0D00F2E7F8B5DE46A1
S3150000497057464E464546E0B505004C698B785B03C5
S3150000498040F240221343A078002858D1413AFF3A1A
S315000049901A433F2855D040F2002313436279920709
S315000049A002D540F2004213432279002A4BD08022DE
S315000049B013439BB2AB82A278120243F600771740EC
S315000049C0E0783F22024017430E79F60362785201DF
S315000049D0164322789446EFF3108940F2010B8BF3CD
S315000049E0108846F6FC72C4F20402D0688046098834
S315000049F08A4610215046091A584688404146814346
S31500004A00D160D26889F31088296847F6FF521340AF
S31500004A100B802A68BFB217822A68B6B2D6812B6885
S31500004A2062461A7363799A0713D42A6861798A23CE
S31500004A30D154F0BCBB46B246A946A046F8BD0022FA
S31500004A40A6E70023A9E73F28B3D148F200021343A3
S31500004A50AFE7296803221343DBB28A228B54012174
S31500004A60012000F002FAE0E710B5002800DA10BDD8
S31500004A7000F0BAFAFBE7F8B504000D004E69416094
S31500004A80CB6883610B6903620027C7610B885B02F1
S31500004A904CF2000CC4F2050C63440360FFF766FF9A
S31500004AA006202856697A2200FFF7DEFF07202856DF
S31500004AB0A97A2200FFF7D8FF07203056717A220024
S31500004AC0FFF7D2FF08203056B17A2200FFF7CCFF5D
S31500004AD0276144F24343C5F24123A3600020F8BD99
S31500004AE0F0B5DE4657464E464546E0B583B004006F
S31500004AF00D000E685A490E4043685B699B466A681A
S31500004B000A40AB680B400168B0B28880216890B259
S31500004B108882216898B208812168300CC880216893
S31500004B20120CCA8222681B0C538129002000FFF751
S31500004B30CAFEEB68002B00D18EE01A89110552D50A
S31500004B40206890214252206859898C469C216746EC
S31500004B504752206899898C469E21674647521968B4
S31500004B608A462068844688B2804694206746414635
S31500004B7039525146080C216889463A498846084008
S31500004B8040F2960C49466746C8535146490F20687D
S31500004B9081460320014040F2920C4F46604639544C
S31500004BA0596820688146019169468888824640F2A4
S31500004BB0980C484667465146C1530199090C8C46E4
S31500004BC021688946474661460F4040F29A084946A1
S31500004BD040460F520199490F206884460320084039
S31500004BE0932167467854198989050FD5997CD87C15
S31500004BF027680143A62039542068D9898C46A82104
S31500004C00674647522168188AAA23C852216890230A
S31500004C10CA522268298A103BD1525B461B797BB166
S31500004C2027683D881F239D43C6B1300000F07CFFF6
S31500004C30C0B22D1A1F35ABB23B80A28A1343A382A2
S31500004C4044F24343C5F24123E36003B0F0BCBB46E4
S31500004C50B246A946A046F0BD0022D7E72020E8E7E5
S31500004C60FFFFFF9FFF9FFFFF70B504000D00FFF7DA
S31500004C7037FF2B682361002070BD30B589B0040072
S31500004C80EFF30383DB05DB0D103B5BB240F23472BE
S31500004C90C2F200029B009D58EFF30380C005C00DD1
S31500004CA0103840B200F038F96B469C706B681B8870
S31500004CB06A461380002313722B6A0193AB691BB1FA
S31500004CC069462800FFF735FE09B030BD10B5002053
S31500004CD0FFF7D3FF10BD4EF20003C4F20103A0227A
S31500004CE09B5CDBB2834223D04EF20003C4F2010385
S31500004CF06A3A9B5C3BB94EF20003C4F201033C22C4
S31500004D009B5CDB07F7D54EF20003C4F20103A02239
S31500004D109B5CDB06F7D44EF20003C4F20103985401
S31500004D204EF20003C4F20103A0229B5CDB06F7D41B
S31500004D3070474EF20003C4F2010340F280420121A3
S31500004D40995470474EF20003C4F201032622995C7F
S31500004D501A6A120E0723134040F27C02C2F20002C6
S31500004D6089008A58DA4040F2C073C2F200031A6022
S31500004D70704710B540F27C03C2F2000349F200020C
S31500004D80C0F2D0321A6041F20022C0F27A025A60B2
S31500004D9048F200029A6042F20042C0F2F402DA607F
S31500004DA000221A61FFF7CEFF10BD10B54EF20003C8
S31500004DB0C4F2010340F20012C0F200121A62262267
S31500004DC000219954FFF7BEFF10BDFFFF70B54EF2EC
S31500004DD00004C4F2010440F2FE331A4AE2524CF2D5
S31500004DE00003C4F27E03002543F6C8729D54FFF704
S31500004DF0C0FF40F21343E554A2230922E254FFF711
S31500004E0098FF0020FFF767FF3623E5544EF20003B4
S31500004E10C4F201033C229B5CDB07F7D5FFF7C5FF15
S31500004E204EF20003C4F2010340F2FE3206499952E3
S31500004E304CF20003C4F27E0343F6C8720121995472
S31500004E4070BDC04603A5FFFF00A5FFFF44F20003A7
S31500004E50C4F204032822002199547047704700BE0B
S31500004E60FEE701380028FCD1704770B541430D00BC
S31500004E7040F2C073C2F200031C684CF60023C3F66E
S31500004E809A33B3FBF4F440F2E83200230800002121
S31500004E9000F088FE31B9B0FBF4F0800808B1FFF7E6
S31500004EA0E0FF70BDA000B5FBF0F040F2E832002351
S31500004EB0002100F077FE0029F0D001204042EEE705
S31500004EC010B540F2FC63C2F200038200D35803B16E
S31500004ED0984710BD70B546F20003C4F2000340F2D5
S31500004EE020129A5A40F240115D5A1540002401E002
S31500004EF00134E4B20C2C07D82B00E340DB07F7D5CE
S31500004F002000FFF7DDFFF3E746F20003C4F20003DB
S31500004F1040F230129D5270BD46F20003C4F2000307
S31500004F20C0308000C25802490A40C250C358704778
S31500004F30FFFFFEFF10B50400FFF7EEFFBFF35F8F24
S31500004F401F2222406409012393404EF20012CEF242
S31500004F5000026034A400A35010BDF0B5C64600B5EB
S31500004F60904683084EF20017CEF20007C0339B002E
S31500004F70DE5903250540ED00FF242200AA40964392
S31500004F8089010C40AC402643DE5140F23473C2F234
S31500004F900003800042461A5080BCB846F0BD1F226E
S31500004FA002404009012393404EF20012CEF2000265
S31500004FB080008350704710B50400FFF7BBFF200048
S31500004FC0FFF7EDFF10BD1F22024040090123934069
S31500004FD04EF20012CEF20002203080008350BFF362
S31500004FE04F8FBFF36F8F704710B50400FFF7B5FF03
S31500004FF02000FFF7E0FF10BD002300E001331F2B68
S315000050000FD847F25802C0F20002D25C002AF5D04F
S3150000501046F20001C4F200011800C0308000425080
S31500005020ECE7704730B5EFF31081012383F3108866
S3150000503040F2B473C2F200034200D35A9BB243B1AA
S3150000504040F2B472C2F200024400A35A013B9BB282
S31500005050A35240F2B473C2F200034200D35A9BB289
S3150000506093B94EF20004C4F2010440F2FE35635BCC
S3150000507047F2D002C0F200024000825AD24392B2F6
S31500005080034803431340635381F3108830BDC04681
S3150000509000A5FFFF70B5EFF31081012383F310889D
S315000050A040F2B473C2F200034200D35A9BB28BB9EA
S315000050B04EF20002C4F2010240F2FE35545B47F2A2
S315000050C0D003C0F200034600F35A1C43074B2343A8
S315000050D09BB2535340F2B472C2F200024000835AAC
S315000050E001339BB2835281F3108870BD00A5FFFF88
S315000050F010B5030040F2BC72C2F200021268A2B1FF
S3150000510040F2BC72C2F200021068033303229343DA
S31500005110C31840F6F842C2F2000293420FD840F29A
S31500005120BC72C2F20002136010BD40F2BC72C2F241
S31500005130000240F61011C2F200011160E0E701F032
S3150000514009F80C23036001204042EDE700BE7047DA
S3150000515010B500F041F8FEF7D3FAFEE730B583B09C
S315000051606B46DC1D0023237023780120FFF792FF96
S31500005170EFF31081012080F3108846F6FC73C4F229
S3150000518004039A68134D2A409A609A6881F310883E
S3150000519040F60002C4F204021168C907C90F217063
S315000051A01168C907C90F21701268D207D20F227081
S315000051B0EFF3108180F3108898688022520502432D
S315000051C09A609B6881F310880120FFF72BFF03B0DC
S315000051D030BDC046FFFFFFEF70B540F20004C0F2DD
S315000051E000044EF60053CEF200039C600020FEF74A
S315000051F070FAFFF7EBFDFFF7B1FF0120FEF769FA42
S3150000520040F60053C4F2000300229A80274A1A800F
S315000052102268274951189960DA6046F20002C4F202
S31500005220000240F2201141F20000505201229A8001
S3150000523040F60C12C2F2000240F29000C2F20000E8
S31500005240121A002100F09AFF40F27C02C2F200021C
S3150000525040F20000C2F20000121A47F2DC01C0F26E
S31500005260000100F097FE40F27805C2F2000540F218
S315000052707403C2F20003ED1AAD10002407E040F2F9
S315000052807403C2F20003A200D35898470134AC421B
S31500005290F5DBFFF757FDFFF7D9FD0220FEF719FAF8
S315000052A0FFF7AAFE0020FFF7D9FD70BD00A5FFFF9E
S315000052B000FCFFFF70B504000D001600002301E09E
S315000052C001339BB2A08A984207D920699A001058E8
S315000052D0A842F5D13380002070BDE18A88420CD007
S315000052E0A38A3380E28A93421DD022699B00D5505F
S315000052F0A38A0133A3820020EEE7E36A6BB14FF67F
S31500005300FF7291420BD0206901318900984740B164
S315000053102061E38A0133E382E2E70320DCE703202E
S31500005320DAE70220D8E70020D6E770B504000D00C2
S315000053301600002301E001339BB2A08B984207D9E7
S31500005340A0699A001058A842F5D13380002070BD9C
S31500005350E18B88420CD0A38B3380E28B93421DD025
S31500005360A2699B00D550A38B0133A3830020EEE7EF
S31500005370E36A6BB14FF6FF7291420BD0A06901311F
S315000053808900984740B1A061E38B0133E383E2E7EC
S315000053900320DCE70320DAE70220D8E70020D6E77F
S315000053A000991A6A4B005B189B00D31802229A7266
S315000053B070470269036809015B185B899B0098586E
S315000053C045F2A133C0F20003C01A43425841C0B2AD
S315000053D07047F0B583B00300140002680901511844
S315000053E080692289920086580A89032A0CD8081DEA
S315000053F01F69E588AD00ED599B6A09680096A847C4
S315000054000023A37203B0F0BD4868F1E7F0B5C646C5
S3150000541000B58CB00400019117001D008388C68872
S31500005420B34213D1C36A002B00D110E14FF6FF72CD
S31500005430964200D10DE100680136310198470028F7
S3150000544000D108E12060E3880133E380262202AB25
S315000054509C4662440023138029002000FFF72AFFA0
S3150000546018B10CB080BCB846F0BD0BAA002313805F
S3150000547012992000FFF759FF0028F2D107AB019AD5
S315000054800792139A08921F81262202A98C4662442B
S3150000549012885A810BAA12889A81032F37D9139B37
S315000054A0002B00D1D9E03A000199139800F072FD63
S315000054B0A388E1888B422DD0A5880423E15EE3888A
S315000054C09D420AD022682B01D21807ABC1CBC1C2BC
S315000054D01B681360A3880133A380149B002B00D1A3
S315000054E083E026680901761829002000FFF761FF8E
S315000054F028BB0023A2899A4200D87BE0A2689900C3
S315000055008A5814998A421CD001339BB2F2E708AB41
S315000055101393C8E7E36A002B00D1A0E04FF6FF72B1
S31500005520914200D19DE02068013109019847002889
S3150000553000D198E02060E3880133E380BCE7E8B25D
S315000055408FE71FB2A28CE38C9A4214D1E26A002A3A
S3150000555000D176E04FF6FF718B4200D173E0206AEE
S3150000556001335900C9188900904700286DD0206280
S31500005570E38C0133E3842422A35E984603AA002326
S31500005580138045F2A131C0F200012000FFF792FE20
S31500005590002800D065E702AB9A1D00231380414620
S315000055A02000FFF7C2FE002800D05AE704AB002215
S315000055B004929F807189D980B18919819A7203AB4F
S315000055C01B88738102AB06331B88B381A18CE38CE5
S315000055D099420AD0236A4A00521892009B1804AADC
S315000055E0C1CAC1C3A38C0133A38434230122E2546C
S315000055F0E8B236E7E1898A420DD0A3890C22A75E7C
S31500005600E28993429ED0A2689B001499D150A38947
S315000056100133A38196E7E36A6BB14FF6FF729142BD
S315000056200BD0A06801318900984740B1A060E3899A
S315000056300133E381E1E7032013E7032011E70220AA
S315000056400FE703200DE703200BE7022009E70320FD
S3150000565007E7032005E7022003E7022001E703200E
S31500005660FFE60320FDE60220FBE6AAB1B3B1C26263
S315000056700363002303608380C38003618382C38244
S3150000568083618383C38383608381C381036283844D
S31500005690C3848162002070470120FCE70120FAE7FD
S315000056A0F0B585B006000F0014001D00032A11D9BD
S315000056B0C36A11000020984770B10023029301903D
S315000056C00A9B00932B00220039003000FFF79EFE54
S315000056D005B0F0BD0020F0E70220F9E7F0B5DE46A0
S315000056E057464646C0B584B0040003918388994264
S315000056F031DA00292FDB05680E01AD192B89984692
S31500005700032B2ED82F1DA269AB899B00D3589A462E
S3150000571089B22000FFF74DFE28BBA36A21696A897A
S3150000572092005258934629685246009242463800E3
S31500005730D8473423E35C4BB1A388039A9A420ADA2A
S315000057402568AD192B89032B0FD82F1D2A892968A7
S31500005750380000F01FFC04B0E0BCBB46B246A846C9
S31500005760F0BD6F68CFE72300D8E76F68EEE7F8B5BE
S31500005770DE4657464E464546E0B506008A4640F2A6
S31500005780000912E06B689B462BE021B23000FFF760
S31500005790A5FF1FB94B4601339BB299463423F35CF0
S315000057A05BB33423F35C002B4BD034230022F2543A
S315000057B000240AE0013B9372534613602BE0342326
S315000057C0F35C002BEDD10134A4B2B388A342E8D92F
S315000057D035682301ED182B899846032BD2D82B1D4B
S315000057E09B4621003000FFF7E4FD0700286842468B
S315000057F0594600F0B5FC0028C7D1002FE3D0326A25
S31500005800B169AB899B0059584B005B189B00D218B5
S31500005810937A022BCED0937A012BD0D11368B0683D
S315000058209188890041585B1851465B1A002BC6DCEB
S3150000583021003000FFF7CDFD4B4601339BB2994660
S31500005840BDE74846F0BCBB46B246A946A046F8BDF1
