S02200006D696E6965636F5F70617065726F67615F625F726F746F6E64692E7372656351
S31500000000A0040020310B0000190A00002D0B00008F
S315000000102D0B00002D0B00002D0B00002D0B0000FA
S315000000200000000000000000000000002D0B000092
S315000000302D0B0000000000002D0B00000505000040
S31500000040FFFFFFFFFFFFFFFFFFFFFFFFFFFFFFFFBA
S31500000050FFFFFFFFFFFFFFFFFFFFFFFFFFFFFFFFAA
S31500000060FFFFFFFFFFFFFFFFFFFFFFFFFFFFFFFF9A
S31500000070FFFFFFFFFFFFFFFFFFFFFFFFFFFFFFFF8A
S31500000400FFFFFFFFDFCEFFFFFCFF0F00FFFF0F0028
S31500000410FCFF0F00FFFF0F00FCFF0F00FFFF0F00A8
S31500000420FCFF0F20FFFF0F20FCFF7F40FFFF7F40F8
S31500000430FCFF0D40FFFF0D40FFFFFFFF10B540F230
S315000004402004C2F20004237863B940F20003C0F22C
S3150000045000032BB140F69850C0F2000000E000BF48
S315000004600123237010BDC04640F20003C0F2000312
S3150000047010B54BB140F2240140F69850C2F200018B
S31500000480C0F2000000E000BF10BDC04670B540F2EB
S315000004903C0440F24006C2F200042378C2F2000691
S315000004A0356882B03BB100F061F832352D1A002D67
S315000004B01EDD02B070BD40F2D07C654400F056F8F7
S315000004C02D1A002DF5DC40F60C53C0F200031A6815
S315000004D09B6801920122DB6940F20041019898472E
S315000004E023785A425341237000F040F83060E0E729
S315000004F040F60C53C0F200031A689B680192DB6950
S315000005000022E9E740F24403C2F200031A6801320E
S315000005101A60704740F29C0340F2E832C2F20003D0
S315000005201B68B3FBF2F38022013B5204934213D2C1
S315000005304EF210024EF60051C020CEF20002536079
S31500000540CEF200010B6A00061B021B0A03430B6274
S3150000055000239360073313604EF60052CEF200027A
S31500000560136A1B021B0A13627047C04640F244031B
S31500000570C2F200031868704710B5FFF7CBFFFFF70C
S3150000058085FF30BFFBE7C04610B538B94CF2000313
S3150000059090220121C4F27E03995410BD0228FCD199
S315000005A040F6185140F24800C0F20001C2F20000C5
S315000005B000F022F9F1E7C04610B5FFF7DDFF002095
S315000005C010BDC0460023036000207047FF2010B511
S315000005D040F600040B0A084019010918C4F2040485
S315000005E089000B5900209B07DB0F137010BDC04616
S315000005F00023C4F204039C46090A490161444B687E
S31500000600002013807047C0460020C4F204008446D0
S315000006101800090A9043000413404901034361444A
S3150000062000208B607047C046FF20012308408340AE
S3150000063052B91B040022C4F204029446090A490175
S31500000640614400208B6070474FF6FF721340F1E75C
S315000006500020C4F204008446180010B5090A4901B6
S3150000066061440C681040204393439843086000207F
S3150000067010BDC0460023C4F204039C46090A490182
S3150000068061444B6800201B0C138070470020C4F2A5
S31500000690040084460B0A5B0163445868FF23194033
S315000006A0FE3B8B40000C99B203405B1A59424B410A
S315000006B0002013707047C0460020C4F20400844630
S315000006C01800090A9043000413404901034361449A
S315000006D00020CB607047C0460023C4F204039C464A
S315000006E0FF23080A400119406044FE3B8B40C16865
S315000006F0012A05D099431B040B43C36000207047B1
S315000007001A0491430B43F8E7F0B5DE4657464E46CA
S315000007104546E0B583B0EFF31082012383F31088DA
S3150000072040F29003C2F2000301931B6833B940F60E
S315000007300051C4F20401CB704033CB7001990B68B1
S3150000074001330B6082F310880388002293B3802361
S3150000075040F600045B029C46264B40F2FF09984691
S31500000760C4F204040AE04B461F400B01DB199B0050
S315000007701E510132038892B293421BD94368D100BD
S315000007809A46634651448F880E68390A1E42EAD05B
S315000007904B461F400B01D91989000D598B4641461E
S315000007A00D4029005D4629514546354029005D46E4
S315000007B02951DBE7EFF31082012383F31088019BB5
S315000007C01B681BB101990B68013B0B60019B1B6801
S315000007D033B940F60051C4F20401CB708033CB70BC
S315000007E082F3108803B0F0BCBB46B246A946A046C9
S315000007F0F0BDC046FFFFFEFF45F2542310B5C5F21B
S315000008004F0303600800FFF77FFF002010BDC046BE
S3150000081010B50800FFF778FF002010BDF0B5EFF324
S315000008201084012383F3108840F29003C2F2000380
S31500000830186830B940F60055C4F20405E870403037
S31500000840E87018680130186084F31088D00321D44A
S31500000850FF24080A0C40010140F600000919C4F201
S31500000860040089000A50EFF31082012181F31088F9
S31500000870196811B11968013919601B6833B940F656
S315000008800051C4F20401CB708033CB7082F3108820
S315000008900020F0BDFF2440F60005080A0C400101C7
S315000008A00819C4F2040580004759034E3740164024
S315000008B047514651D0E7C046FFFFFEFF4EF2000308
S315000008C0262240F20801C4F20103985C1B6A8000EC
S315000008D0C2F2000141585B015B0F40F29C02D94015
S315000008E0C2F20002116070474EF2000340F2FE327F
S315000008F04249C4F2010330B599524CF2000200217C
S3150000090043F6C870C4F27E02115440F2080046F65F
S315000009100042C2F20000C0F2DC22026041F2002274
S31500000920C0F27A02426048F20002826042F200425D
S31500000930C0F2F402C260262201619D5C1A6AAD0013
S3150000094045595201520F40F29C04D54040F21342E1
S31500000950C2F2000425609954A2220931995440F24A
S31500000960804208399954A0229A5CCAB136229A5C10
S315000009701AB93B315A5CD207FCD54EF20002A021CF
S31500000980C4F20102535CDB06DD0F002BFADB555483
S315000009904EF20002A021C4F20102535CDB06FCD435
S315000009A04EF2000200213623C4F20102D1543C313A
S315000009B0535CDB07FCD501213123D1544FF6C473B8
S315000009C0C4F27E03197040F2001300251362DA3B6D
S315000009D0D554D55C136AAD0040595B015B0FD84016
S315000009E040F2FE3320600648D0524CF2000343F634
S315000009F0C872C4F27E03995430BDC04603A5FFFFFA
S31500000A0000A5FFFF44F2000328220021C4F20403DC
S31500000A10995470477047C046F8B546F2000340F255
S31500000A20201240F2500500240127C4F200039E5A0A
S31500000A3020329B5AC2F200051E403300E340E0B26A
S31500000A401F4202D02B6803B1984701340435102C9D
S31500000A50F3D146F2000340F23012C4F200039E5274
S31500000A60F8BDC04646F200000023C4F2000040F67E
S31500000A707052C0F200029A1812781AB11900C031E9
S31500000A8089000A500133202BF1D1704770B5EFF37E
S31500000A901081012383F3108840F294034000C2F2D0
S31500000AA000031A5A1AB11A5A013A92B21A521B5A2A
S31500000AB083B94EF2000240F2FE3540F69054C4F27D
S31500000AC00102565B054BC0F20004205A33438343B0
S31500000AD09BB2535381F3108870BDC04600A5FFFF3B
S31500000AE070B5EFF31081012383F3108840F294026E
S31500000AF04000C2F20002135A83B94EF2000440F6D7
S31500000B00905540F2FE36C4F20104C0F20005A35B24
S31500000B102D5A2B434AF200552B43A353135A013344
S31500000B209BB2135281F3108870BDC04600BE704759
S31500000B3010B500F003F8FFF73FFDFEE7F0B54EF6FF
S31500000B40005340F20005CEF20003C0F2000583B068
S31500000B509D600020FFF718FDFFF7C6FE6B460027D5
S31500000B60DC1D277001202378FFF7BAFFEFF3108111
S31500000B70012686F3108846F6FC73C4F204039A68CD
S31500000B803C4802409A609A6881F3108840F600015A
S31500000B90C4F204010A68D207D20F22700A68D2078B
S31500000BA0D20F22700A68D207D20F2270EFF310819B
S31500000BB086F3108880229868520502439A609B68E3
S31500000BC081F310880120FFF761FF0120FFF7DCFCAD
S31500000BD040F60053284AC4F200039F801A802A6810
S31500000BE0264941F2000051189960DA6046F2000287
S31500000BF040F22011C4F20002505240F2A00240F22C
S31500000C002000C2F20002C2F200009E800021121AE9
S31500000C1000F03FF840F2000040F2080240F69C5116
S31500000C20C2F20000C2F20002121AC0F2000100F085
S31500000C3027F840F2000540F20403C2F20005C2F2B2
S31500000C4000035B1B9E10002B05DD002408CD01343C
S31500000C509847A642FADCFFF731FEFFF7D3FE0220E3
S31500000C60FFF792FCFFF7FEFE0020FFF7D3FE03B06E
S31500000C70F0BDC046FFFFFFEF00A5FFFF00FCFFFF32
S31500000C80002310B59A4200D110BDCC5CC454013388
S31500000C90F8E703008218934200D1704719700133B8
S31500000CA0F9E7FFFF4275696C742077697468205212
S31500000CB0656E6573617320416476616E6365642059
S31500000CC0466C657869626C6520536F6674776172ED
S31500000CD065205061636B6167652076657273696F25
S31500000CE06E20352E332E3000352E332E3000000088
S31500000CF000000305F8B5C046F8BC08BC9E46704720
S31500000D00F8B5C046F8BC08BC9E46704748000020AF
S31500000D10180D00003C0D000003000000240D00002B
S31500000D2000000000000001000801000000000100B2
S31500000D30000300000400000000040000F9070000A2
S31500000D40C5050000110800001D0800008D06000002
S31500000D50D9060000CD050000290600005106000056
S31500000D6075060000B9060000F1050000090600003E
S31500000D70000000000000000000000000000000006D
S31500000D80000000000000000000000000000000005D
S31100000D9001000200080010000000000036
S30D00000D9C690400003D0400009B
S31501010018FFFFFFFFFFFFFFFFFFFFFFFFFFFFFFFFE0
S31101010028FFFFFFFFFFFFFFFFFFFFFFFFD0
S70500000B31BE
