S02200006D696E6965636F5F70617065726F67615F625F726F746F6E64692E7372656351
S315000000004010002091530000155100008D53000050
S315000000108D5300008D5300008D5300008D5300005A
S315000000200000000000000000000000008D530000EA
S315000000308D530000000000008D530000AD2200002B
S315000000400D4F000000000000EB490000000000001A
S315000000505D3B0000CD3A0000E93B0000213C00007A
S31500000060673F0000000000000000000000000000E4
S31500000070000000000000000000000000000000007A
S31500000080000000000000000000000000000000006A
S31500000090000000000000000000000000000000005A
S315000000A0000000000000000000000000000000004A
S31500000400FFFFFFFFDFDEFFFFFCFF0F00FFFF0F0018
S31500000410FCFF0F00FFFF0F00FCFF0F00FFFF0F00A8
S31500000420FCFF0F20FFFF0F20FCFF7F40FFFF7F40F8
S31500000430FCFF0D40FFFF0D40FFFFFFFF10B540F230
S31500000440A804C2F20004237863B940F20003C0F2A4
S3150000045000032BB147F2B820C0F2000000E000BF55
S315000004600123237010BDC04640F20003C0F2000312
S3150000047010B54BB140F2AC0147F2B820C2F2000110
S31500000480C0F2000000E000BF10BDC04630B5050058
S31500000490100000240CE0030A2A5D5340000280B2DB
S315000004A046F23C52C0F200025B009A5A50400134B8
S315000004B08C42F0D330BD70B504000600AC360500A2
S315000004C0C83500F0DFFE200000F034FB6623E35C55
S315000004D033B901F01EFF0100280005F050FB70BD86
S315000004E001F017FF0100300005F049FBF1E770B598
S315000004F00400150005F033FB2900200005F06CFB15
S3150000050001F007FF0100200005F031FB01F001FFBB
S315000005100100200005F033FB70BD70B50400050036
S31500000520C83500F05EFD58B1200000F0FCFA20004E
S3150000053000F08CFD40B1200000F06AFD40B170BDB6
S31500000540200000F0F7FAF2E7200000F061FEF2E783
S315000005507023E25A53019B1A99008918C900062292
S315000005602800FFF7C4FF01F0D4FE0100280005F0C3
S31500000570FAFAE4E710B50C00AC34022812D00328CE
S3150000058012D010B10120404210BDCB8B73B90800C8
S31500000590FFF7C3FF01F0BDFE0100200005F0E3FAFE
S315000005A00320F1E70020EFE70120EDE701204042BC
S315000005B0EAE7FFFF70B50C000D00C835092800D921
S315000005C066E08000344B1B589F46002070BD01201A
S315000005D0FCE70420FAE7CB8B0BB10420F6E70120F9
S315000005E04042F3E77223CA5A53019B1A9E00B6187B
S315000005F0F600080000F06DFE80B1082231002800E8
S31500000600FFF775FF01F085FE0100280005F0ABFA43
S31500000610200001F06EF918B10020D7E70722EDE7B8
S31500000620EC22A35A0133A352200000F02BFE012036
S315000006304042CBE7080000F0EBFD7023E25A53017D
S315000006409B1A99008918C90006222800FFF74FFF58
S3150000065001F05FFE0100280005F085FA0120404206
S31500000660B4E7080000F0F1FD7023E25A53019B1A2B
S3150000067099008918C90006222800FFF738FF01F003
S3150000068048FE0100280005F06EFA012040429DE771
S31500000690012040429AE7C0463C67000070B50C0056
S315000006A00D00AC3504282BD00FD802282AD00328F9
S315000006B008D1080000F028FB80B12000FFF72DFFCD
S315000006C0032020E0012040421DE0092803D1CB8B06
S315000006D09BB1042017E00120404214E0200000F006
S315000006E0FCFA010003222800FFF701FF01F011FECA
S315000006F00100280005F037FADFE70120404202E05A
S31500000700042000E0002070BD70B50C000D00AC3573
S31500000710042810D005D800282DD002285DD100204D
S3150000072070BD092804D1CB8B002B53D00420F7E7EA
S3150000073001204042F4E7080000F0E6FA50B16623D3
S31500000740E35C83B101F0E5FD0100280005F017FA2E
S315000007500420E5E7200000F0C0FA0100032228008B
S31500000760FFF7C5FEEBE701F0D4FD0100280005F018
S31500000770FAF90420D4E7CB8B93BB0800FFF7CDFE34
S31500000780200000F0C1FA20B16E23E15A81B903209E
S31500000790C6E7200000F0A1FA010003222800FFF7B7
S315000007A0A6FE01F0B6FD0100280005F0DCF9EBE736
S315000007B04EF66023594303222800FFF798FE01F006
S315000007C0A8FD0100280005F0CEF9200000F05AFD32
S315000007D00220A5E701204042A2E7012040429FE710
S315000007E0012040429CE770B504000500AC350600C8
S315000007F0C83600F047FD01F08CFD0100280005F029
S315000008006BF90100200000F0B0FC01F082FD010050
S31500000810280005F0ACF901F07CFD0100280005F088
S31500000820AEF901F076FD0100300005F0A0F901F007
S3150000083070FD0100300005F0A2F9200000F07AF901
S31500000840EC230022E25270BD10B5FFF7CCFF10BDBD
S3150000085070B50C000D00AC3558B101283FD1862388
S31500000860CB5C0BB904203CE0080001F023F804201F
S3150000087037E0CB8B002B35D18633CB5C9BB9682315
S31500000880E25AA2B153019B1A99008918C9000322A2
S315000008902800FFF72CFE01F03CFD0100280005F0C2
S315000008A062F902201DE0080001F004F8E7E72000E5
S315000008B0FFF733FE200000F027FA08B1032010E00E
S315000008C0200000F00AFA010003222800FFF70FFEBD
S315000008D001F01FFD0100280005F045F9EEE70120B3
S315000008E0404270BD01204042FBE770B504000E0097
S315000008F01000626853009B189B002268D3589847E3
S31500000900051E01DA002070BD626853009B189B002B
S315000009102268944663449B680BB130009847656033
S31500000920236868004519AD005D196B680BB130008E
S3150000093098470120E7E710B5027D0800E430FFF78D
S31500000940D4FF10BD70B5040046F26473C0F2000314
S31500000950E4228350E8230022C25040F63715C0F245
S315000009600005AC3000232A00002105F0E4F8200041
S31500000970C83000232A00002105F0DDF870BD10B54F
S31500000980040001F0C6FC01002000AC30220005F096
S31500000990FAF801F0BEFC01002000C830220005F084
S315000009A0F2F8002010BD70B50D00AC30040001F067
S315000009B0B0FC0100200005F0E2F86901491B89003E
S315000009C04919C900200005F0CAF8237B33B101F0AC
S315000009D0A0FC0100200005F0CAF870BD01F099FCEA
S315000009E00100200005F0BFF8F7E710B50400FFF797
S315000009F0DAFF2000E43001222100FFF776FF10BD68
S31500000A0010B50100E4300922FFF76FFF10BD70B585
S31500000A100C00012810D0022810D1080000F06EFB4F
S31500000A200500200000F055FB7C23E35AC31A9D42C3
S31500000A3007DB0120404203E0002001E001204042A4
S31500000A4070BD0120FCE770B50C00012812D0022809
S31500000A5012D1080000F052FB0500200000F039FB1F
S31500000A607A23E35AC018854201DD022006E0012000
S31500000A70404203E0002001E00120404270BD70B515
S31500000A800C0078B9080000F039FB0500200000F0E2
S31500000A9020FB7A23E35AC018854201DC012070BD91
S31500000AA00220FCE701204042F9E710B5040001F0FE
S31500000AB030FC9023E05010BD70B504000E0010000D
S31500000AC0626853009B189B002268D3589847051EFE
S31500000AD001DA002070BD626853009B189B002268F3
S31500000AE0944663449B680BB1300098476560236861
S31500000AF068004519AD005D196B680BB13000984769
S31500000B000120E7E746F2A073C0F200039422835067
S31500000B1098230022C250704710B50100943002227B
S31500000B20FFF7CAFF10BD10B5010094300022FFF791
S31500000B30C3FF10BD10B5010094300122FFF7BCFFC2
S31500000B4010BD030040F2413290420CD940F2CB6214
S31500000B5090420BD89620584340F28B3390FBF3F02B
S31500000B60933800B270470A204042FBE78C20F9E731
S31500000B7010B5030040B13622825CAAB9A022805C7F
S31500000B80A0B10832985C11E046F2C473C0F20003CB
S31500000B9046F6B012C0F2000246F2D470C0F200006F
S31500000BA040F2B02104F07BFA3B22805C10BD10B508
S31500000BB00400A023C35C03B910BD01F0AAFBA42363
S31500000BC0E050F9E710B5040080B1F022002105F0ED
S31500000BD03AFB48234622E2521033143AE2522000EE
S31500000BE0FFF790FF2000FFF7ADFE10BD46F2C4737D
S31500000BF0C0F2000346F60832C0F2000246F2D47094
S31500000C00C0F20000192104F04AFA10B538B14823A1
S31500000C10C05A8008012358400123184010BD46F2EF
S31500000C20C473C0F2000346F6B022C0F2000246F2D8
S31500000C30D470C0F200007C2104F031FA10B538B14E
S31500000C404823C05A8009012358400123184010BD8B
S31500000C5046F2C473C0F2000346F69022C0F20002C8
S31500000C6046F2D470C0F20000822104F018FA10B5E2
S31500000C7050B14823C25C463B13408A22825C92B143
S31500000C805A425341D8B210BD46F2C473C0F20003B3
S31500000C9046F67822C0F2000246F2D470C0F2000096
S31500000CA0882104F0FCF9013B5A425341D8B2EAE7E5
S31500000CB010B50100E4300022FFF717FE10BD10B595
S31500000CC00100E4300422FFF710FE10BD10B501004C
S31500000CD0E4300222FFF709FE10BD10B528B16A23E1
S31500000CE0C35A4EF66020584310BD46F2C473C0F294
S31500000CF0000346F64022C0F2000246F2D470C0F26B
S31500000D000000B02104F0CBF910B540B16A23C05AF7
S31500000D100A4B9C46604443425841C0B210BD46F25D
S31500000D20C473C0F2000346F62822C0F2000246F25F
S31500000D30D470C0F20000B62104F0B1F90100FFFF43
S31500000D4010B5E823C358012B01D8002010BDAC30E4
S31500000D50040001F0DEFA0100200004F0C9FE40F2B2
S31500000D60E833B0FBF3F0F1E710B528B1E823C0583B
S31500000D70431E9841C0B210BD46F2C473C0F20003D0
S31500000D8046F61422C0F2000246F2D470C0F2000009
S31500000D90C62104F084F9F0B5C64600B504000E007D
S31500000DA010001D0006AB00229B5E984607AB1F880D
S31500000DB0002C2ED0A38F83423BD0A087FFF7C1FE25
S31500000DC0E08701234022A25AAA4207D04023E552D7
S31500000DD02800FFF7B6FE4223E052413B4822A25AC2
S31500000DE0B24202D04823E652473B4422A25E424525
S31500000DF003D044234246E252433B4622A25ABA4219
S31500000E0019D04623E7522000FFF7FAFD80BCB8460A
S31500000E10F0BD46F2C473C0F2000346F67812C0F283
S31500000E20000246F2D470C0F2000040F2261104F02F
S31500000E3036F90023C6E7002BE8D0E4E7F8B506004C
S31500000E400F0070B14C780B781B021C43881C0022E3
S31500000E502B21FFF71BFBA04200D0A7E002220024B3
S31500000E601BE046F2C473C0F2000346F64812C0F215
S31500000E70000246F2D470C0F2000040F2691104F09C
S31500000E800EF9BB185D781B781B021D432300203327
S31500000E905B00F3185D8102320134052CF1D9B918D3
S31500000EA04B78097809020B433380931CFB18597859
S31500000EB01B781B020B437380111D7918CB78887839
S31500000EC000020343487800040343097809060B43EC
S31500000ED07360110008317918CB78887800020343D3
S31500000EE0487800040343097809060B43B3601100F0
S31500000EF00C317918CB7888780002034348780004CF
S31500000F000343097809060B43F36011001031791881
S31500000F10CB788878000203434878000403430978B5
S31500000F2009060B433361110014317918CB788878A0
S31500000F3000020343487800040343097809060B437B
S31500000F40736113001833FB185878197809020143A6
S31500000F5013001A33FB1858781B781B020343338699
S31500000F6013001C33FB1858781B781B020343738647
S31500000F7013001E33FB5C1F3214001BB92D2C05D148
S31500000F802000F8BD3000FFF730FDF7E746F2EC73BE
S31500000F90C0F2000346F64812C0F2000246F2D470D0
S31500000FA0C0F2000040F2881104F079F801204042B6
S31500000FB0E7E710B528B14A300C22002105F043F9C5
S31500000FC010BD46F2C473C0F2000346F63412C0F2F6
S31500000FD0000246F2D470C0F2000040F28E1104F016
S31500000FE05EF810B520B13423C05C4342584110BDB1
S31500000FF046F2C473C0F2000346F61C12C0F20002A9
S3150000100046F2D470C0F2000040F2A61104F047F890
S3150000101010B538B16A23C35AA3B17223C35A9BB120
S31500001020002010E046F2C473C0F2000346F6041234
S31500001030C0F2000246F2D470C0F2000040F2B211D3
S3150000104004F02DF8002010BD0120FCE710B520B1FA
S315000010506A23C05A4342584110BD46F2C473C0F2D7
S31500001060000346F6F002C0F2000246F2D470C0F267
S31500001070000040F2B81104F012F810B5040040B1B7
S31500001080FFF742FE10BBE823E358012B11D80020DE
S3150000109010BD46F2C473C0F2000346F6D402C0F295
S315000010A0000246F2D470C0F2000040F2BE1103F016
S315000010B0F6FFAC3401F02DF90100200004F018FD14
S315000010C040F2E833B0FBF3F080B2E1E74FF6FF7091
S315000010D0DEE710B510B17623C05A10BD46F2C473D0
S315000010E0C0F2000346F6A802C0F2000246F2D4702F
S315000010F0C0F2000040F2D41103F0D1FF10B540B1A8
S315000011005E23C35A012B17D0022B18D08BB10020B7
S3150000111010BD46F2C473C0F2000346F68802C0F260
S31500001120000246F2D470C0F2000040F2DA1103F079
S31500001130B6FF3E23C05EEBE74223C05EE8E74423EA
S31500001140C35E0A2293FBF2F18A00521852009A1AE1
S31500001150012012B2042A00DC0020C2B20A2093FB4E
S31500001160F0F080B2801800B2D2E710B540B140F27C
S31500001170E833B1FBF3F183689C466144816010BD9E
S3150000118046F2C473C0F2000346F67002C0F20002D3
S3150000119046F2D470C0F2000040F2F61103F07FFF71
S315000011A010B540B140F2E833B1FBF3F1C3689C4699
S315000011B06144C16010BD46F2C473C0F2000346F636
S315000011C05402C0F2000246F2D470C0F2000040F2AF
S315000011D0FC1103F064FF10B5040048B1FFF78EFF61
S315000011E05823E25E0123904200DC0023180010BD64
S315000011F046F2C473C0F2000346F63402C0F200029F
S3150000120046F2D470C0F2000040F20E2103F047FF10
S3150000121010B5040048B1FFF7CAFCA0230122E2542E
S315000012202C3BE25C3433E25410BD46F2C473C0F288
S31500001230000346F65832C0F2000246F2D470C0F2FD
S31500001240000040F2372103F02AFF10B5040048B130
S31500001250FFF7ADFCA0230222E2542C3BE25C3433C0
S31500001260E25410BD46F2C473C0F2000346F644329F
S31500001270C0F2000246F2D470C0F2000040F23F21F4
S3150000128003F00DFF70B5040038B1A023C35CA3B909
S3150000129000212000FFF784FF70BD46F2C473C0F240
S315000012A0000346F63432C0F2000246F2D470C0F2B1
S315000012B0000040F2472103F0F2FEA423C55801F0D6
S315000012C028F8411B03D4A0230022E254E1E7291A9F
S315000012D0F9E710B530B1A023C05C0138434258414C
S315000012E0C0B210BD46F2C473C0F2000346F6143213
S315000012F0C0F2000246F2D470C0F2000040F254215F
S3150000130003F0CDFE10B540B1E823C358032B16D029
S31500001310012B12D00020C0B210BD46F2C473C0F239
S31500001320000346F6BC02C0F2000246F2D470C0F2D8
S31500001330000040F29A2103F0B2FE0120EBE7012003
S31500001340E9E7F0B5C64600B506000D0010B1022467
S3150000135000221AE046F2C473C0F2000346F6601299
S31500001360C0F2000246F2D470C0F2000040F24B1107
S3150000137003F095FE2919130020335B00F3185B89EF
S31500001380180A08704B7002340132052AF2D930006F
S31500001390FFF7D6FC070083B298463000FFF7B2FF8E
S315000013A02B193288110A19705A70A31CEB1872880F
S315000013B0110A19705A70231DEB187268110E1970F4
S315000013C0110C5970110A9970DA7023000833EB1862
S315000013D0B268110E1970110C5970110A9970DA70F1
S315000013E023000C33EB18F268110E1970110C5970AA
S315000013F0110A9970DA7023001033EB183269110E56
S315000014001970110C5970110A9970DA70230014338F
S31500001410EB187269110E1970110C5970110A997036
S31500001420DA7023001833EB184246120A1A705F70FE
S3150000143023001A33EB18328E110A19705A702300E2
S315000014401C33EB18728E110A19705A7023001E3362
S31500001450E85426001F36A81C21001D310022FFF784
S3150000146015F8030A2B7068702D2E03D1300080BC4E
S31500001470B846F0BD46F2EC73C0F2000346F66012C1
S31500001480C0F2000246F2D470C0F2000040F26311CE
S3150000149003F005FE70B50500FFF734FF040070B1D8
S315000014A03423EB5C012B1ED9022B1FD19E33EB5C40
S315000014B0013B012B01D9002416E0012414E0280089
S315000014C0FFF7D5FB80B1296A8823E85A4201121A30
S315000014D093001B18DD004D1900F01BFF281A002889
S315000014E002DD012400E00124200070BD0024FBE79A
S315000014F070B5040020B16023C35C83B1002070BDC9
S3150000150046F2C473C0F2000346F66022C0F200023F
S3150000151046F2D470C0F200008F2103F0C0FDFFF741
S31500001520B9FF18BB0026F6B22000FFF7A0FB431E4A
S31500001530984105002000FFF768FB50B302200543E1
S315000015402000FFF77BFB30B3042005432EB30820B1
S3150000155028432F23E35C13B3102505432000FFF730
S315000015603AFE00281DDD20202843C8E75C23E15A07
S315000015704A01521A93005B18DD00636A9C46654473
S3150000158000F0C7FE281A002801DD0026CBE7012659
S31500001590C9E70020D3E70020D7E70020D8E70025D9
S315000015A0DBE70020E0E770B50400B0B1FFF75FFBB2
S315000015B006002000FFF79CFFE58B0543ADB2E583EF
S315000015C02000FFF754FB10B901239D43E58320005B
S315000015D0FFF74DFB00B17EB170BD46F2C473C0F299
S315000015E0000346F6D022C0F2000246F2D470C0F2E2
S315000015F000006B2103F053FD00F08BFE2062EBE749
S3150000160010B538B10023C38300222F33C254FFF72D
S31500001610CAFF10BD46F2C473C0F2000346F6E422C8
S31500001620C0F2000246F2D470C0F20000632103F05B
S3150000163036FD70B5040028B13623C05C88B1258F0D
S31500001640280070BD46F2C473C0F2000346F60022BD
S31500001650C0F2000246F2D470C0F20000CC2103F0C2
S315000016601EFD5623E35C012B2FD0022B32D003B391
S315000016708B23E35C13B143425841C0B270BB0025D3
S315000016802000FFF707FF10B104231D43ADB2A023CE
S31500001690E35C012B24D0022B26D09823E358012BA0
S315000016A026D02E23E35C012BCAD110231D43ADB2F5
S315000016B0C6E7E38B13B10120C0B2D9E72000FFF7DC
S315000016C053FB0028F8D00120F6E7E08B431E984133
S315000016D0C0B2CDE72000FFF747FBC9E72025CFE7DB
S315000016E001231D43ADB2D8E702231D43ADB2D4E7B3
S315000016F008231D43ADB2D4E710B528B13623C35C29
S3150000170093B13A23C05C10BD46F2C473C0F2000325
S3150000171046F6C812C0F2000246F2D470C0F20000CB
S3150000172040F2BC2103F0BBFCFFF7B4FE0028EAD070
S315000017306420E8E710B528B18E23C35C93B1FFF7A8
S31500001740DBFF10BD46F2C473C0F2000346F6E0129A
S31500001750C0F2000246F2D470C0F2000040F211114D
S3150000176003F09DFCFFF704FAEBE710B528B18E23D2
S31500001770C35C93B1FFF7FCF910BD46F2C473C0F227
S31500001780000346F69012C0F2000246F2D470C0F290
S31500001790000040F21B1103F082FCFFF7ADFFEBE700
S315000017A070B50400E0B1FFF7B7F92000FFF7E7F8DE
S315000017B02000FFF7A7FD10B32E23E35C012B4DD0CD
S315000017C0022B00D165E003B32000FFF763FE18B1DA
S315000017D04823E35A1B0702D500F09BFD606270BDEB
S315000017E046F2C473C0F2000346F6F822C0F20002C5
S315000017F046F2D470C0F20000262103F050FC00F03F
S3150000180088FDA0620023A385D6E78233E35A012B25
S3150000181003D14733E35A1B0603D400F07AFDA062D6
S31500001820D2E7A56A40F2D07C654400F072FD2D1A1D
S31500001830002DC9DCA38D8422A25A93420BD32F23F9
S315000018400122E2540023A38500F063FDA0622E234B
S315000018500122E254B8E70133A385F5E74823E35AAA
S315000018601B060FD5A56A40F6B83C654400F051FD4D
S315000018702D1A002DA8DC00F04CFDA0622E230222BA
S31500001880E254A1E72E230022E25400F042FDA062BA
S315000018909AE7A56A41F2883C654400F03AFD2D1AA4
S315000018A0002D00DD90E700F034FDA0622E2300221B
S315000018B0E25489E710B5040020B18223C35A012BF4
S315000018C010D010BD46F2C473C0F2000346F62002E3
S315000018D0C0F2000246F2D470C0F2000040F2A1212C
S315000018E003F0DDFB00F015FDA0622E230122E25479
S315000018F0E7E710B540B16C23C35AABB1EC22825A6C
S31500001900934214D9002010E046F2C473C0F20003DB
S3150000191046F60802C0F2000246F2D470C0F2000099
S3150000192040F2AA2103F0BBFB0020C0B210BD01208B
S31500001930FBE710B582B00400FFF744F900230193DA
S315000019406A46911C0B8001A800F069FB20B16B462A
S3150000195002331B882D2B06D0200000F0CEF801F0B4
S31500001960CFF902B010BD01992000FFF767FAF3E73F
S3150000197070B584B00500FFF713FF280001F0F7F9F2
S31500001980280000F09DF800F04AFA68B940F2C40356
S31500001990C2F200031C68F534FF3400F0BAFC241AC6
S315000019A0002C05DD04B070BD2800FFF7FCFDEDE757
S315000019B000236A469381D3810E336B44190003A832
S315000019C000F0BCFC00F088FA0400022000F07AF96E
S315000019D00600012000F076F903006A46D2890192DA
S315000019E06A460C21525E0092320021002800FFF761
S315000019F0D2F900240BE0E0B200F0E8F9230020332E
S31500001A005B00EB185A89801858810134A4B2052C62
S31500001A10F1D900F0E9F900F07CFC40F2C403C2F20F
S31500001A2000031860BEE710B58CB0040000230093D5
S31500001A302922002101A804F006FC69462000FFF7D0
S31500001A4080FC2D21684600F0CFFA0CB010BD10B511
S31500001A50187F00F054F910BD10B540F2C802C2F26A
S31500001A600002928802B910BD1800FFF728F9FAE7BC
S31500001A7010B540F2C804C2F200042178002000F03C
S31500001A800DFB6178012000F009FB10BD70B5050063
S31500001A90002409E00121A14029404942C90F200044
S31500001AA000F02BFB0134E4B2062CF3D970BD10B55F
S31500001AB040F2C803C2F200035888FFF7E7FF10BDE3
S31500001AC070B50500FFF751FE40F2C804C2F20004EB
S31500001AD020702800FFF72EFE60702800FFF7A9FD92
S31500001AE06080EB8BA38000F014FC010040F2D00074
S31500001AF0C2F2000003F059FF70BDF0B5C64600B54E
S31500001B0082B0060046F20523C0F2000346F21142F7
S31500001B10C0F2000240F2D004C2F20004010020002C
S31500001B2003F0C1FE41F67128C0F2000840F2C80574
S31500001B30C2F2000500270097434601222900200033
S31500001B4003F0CCFE691C009743460122200003F0F7
S31500001B50C5FE41F6AF23C0F20003A91C009702227E
S31500001B60200003F0BBFE41F65923C0F20003291DF5
S31500001B7000970222200003F0B1FE31001C3141F62D
S31500001B804F23C0F2000300970122200003F0A6FEB7
S31500001B903000FFF795FF6888FFF778FF02B080BC3A
S31500001BA0B846F0BD10B546F63071C0F2000140F2FD
S31500001BB03460C2F2000003F093F8A0B946F65471FF
S31500001BC0C0F2000140F23460C2F2000003F06CF98A
S31500001BD0C0B9002003F017FB40F23460C2F20000E7
S31500001BE002F076FF10BD46F66C33C0F2000346F6EF
S31500001BF0A432C0F2000246F68030C0F20000132183
S31500001C0003F04DFA46F66C33C0F2000346F6A432F2
S31500001C10C0F2000246F68030C0F20000162103F042
S31500001C203EFA10B584B040F24813C2F200031C68B5
S31500001C30F534FF3400F06DFB241A002C01DD04B0EE
S31500001C4010BD46F69433C0F200031A8869460A802E
S31500001C509A788A7001AA043313CB13C2002413E0C6
S31500001C60A20001ABD25840F21C13C2F200031B883B
S31500001C705B00D2186B46195740F23460C2F200007E
S31500001C8002F02BFF0134E4B2022CE9D940F21C1118
S31500001C90C2F200010B8801330A2293FBF2F08200A4
S31500001CA0121852009B1A0B8040F23460C2F20000F8
S31500001CB002F00EFF00F02DFB40F24813C2F20003C3
S31500001CC01860BCE730B585B001AA46F69433C0F279
S31500001CD00003043332CB32C20023002106E0820027
S31500001CE001AC12595C00A25A89180133092BF6D9A6
S31500001CF00A20B1FBF0F080B205B030BD704770B578
S31500001D00040040F24C10C2F200000022002103F051
S31500001D10C0FF46F62473C0F200039A68D569624292
S31500001D205441E2B218680A21A84770BD10B540F2C6
S31500001D304C10C2F200000022002103F0AAFF00208E
S31500001D40FFF7DDFF10BD70B584B040F25423C2F238
S31500001D5000031C68023400F0DCFA241A002C01DDB2
S31500001D6004B070BD01AA46F6B433C0F2000313CB2B
S31500001D7013C20024002600E00134052C16D80023E7
S31500001D806A46D37046F62473C0F200039A689569D2
S31500001D90620001A9515A18686B46DA1CA8476B46BF
S31500001DA0DB78012BE8D1A3401E43E5E740F24C1057
S31500001DB0C2F200000522310003F07AFF00F0A9FA12
S31500001DC040F25423C2F200031860C9E71F2808D85E
S31500001DD040F24C13C2F2000322308000C05880B299
S31500001DE0704701204042FAE7012301E00133DBB2EC
S31500001DF0052B0BD81F2BF9D840F24C12C2F2000269
S31500001E0019002231890000208850EFE7704710B58D
S31500001E1040F25820C2F2000003F0E0FE10BD40F28E
S31500001E20E023C2F200031B7804209842804140421E
S31500001E30704770B586B040F2E423C2F200031C6816
S31500001E40053400F066FA241A002C01DD06B070BDD8
S31500001E5002AA46F6C033C0F2000313CB13C21B68B6
S31500001E6013600024002500E00134072C17D8012355
S31500001E706A46D37146F62473C0F200039A689669DF
S31500001E80620002A9515A18686B46DA1DB0476B46C4
S31500001E90DB79002BE8D10133A3401D43E4E740F290
S31500001EA05820C2F200000522290003F0D8FE40F2B5
S31500001EB0E023C2F200031B78042B05D840F2E0228F
S31500001EC0C2F200020133137000F023FA40F2E42359
S31500001ED0C2F200031860B9E740F25823C2F20003C9
S31500001EE01879704710B540F2E823C2F200031B7858
S31500001EF033B340F2EC23C2F200031C68323400F024
S31500001F0008FA241A002C00DD10BD46F62473C0F230
S31500001F1000039A68D4691868002240F20041A0477D
S31500001F2040F2E823C2F200031A7851424A411A707D
S31500001F3000F0EFF940F2EC23C2F200031860E3E789
S31500001F4040F2EC23C2F200031C6840F2D07C6444E9
S31500001F5000F0DFF9241A002CD6DC46F62473C0F212
S31500001F6000039A68D4691868012240F20041A0472C
S31500001F7040F2E823C2F200031A7851424A411A702D
S31500001F8000F0C7F940F2EC23C2F200031860BBE789
S31500001F9010B540F2F423C2F20003196040F2F023B8
S31500001FA0C2F20003186047F22401C0F2000140F2B9
S31500001FB0E060C2F2000001F0FDF930B940F21C60A9
S31500001FC0C2F2000001F0C8FF10BD46F6D033C0F2E1
S31500001FD0000346F61042C0F2000246F6E430C0F2B4
S31500001FE000001A2103F05BF810B502000B0040F266
S31500001FF0E060C2F20000002101F080FA00B910BDD5
S3150000200046F6D033C0F2000346F6FC32C0F20002B8
S3150000201046F6E430C0F20000232103F040F810B584
S3150000202002000B0040F2E060C2F20000002100F066
S315000020301FFF08B9013010BD0020FCE7704710B53E
S3150000204084B046F68871C0F2000140F29060C2F298
S31500002050000002F09BF990B940F29064C2F20004CD
S31500002060200001F0AEFF01A9200002F07DF8039ADE
S3150000207040F2F823C2F200031A6004B010BD46F61F
S31500002080D033C0F2000346F64842C0F2000246F6DC
S315000020902440C0F200000F2103F001F810B56429B6
S315000020A000D9642143425841C4B240F2F823C2F237
S315000020B0000318686422521AD317002103F092FE17
S315000020C06422002303F06EFE010040F29060C2F22B
S315000020D00000220001F0D2FF00B910BD46F6D03351
S315000020E0C0F2000346F63842C0F2000246F624402B
S315000020F0C0F20000282102F0D2FFF0B585B06C4690
S3150000210046F65843C0F200032200E0CBE0C21B882B
S31500002110138046F62473C0F200039A68D5694A1EF6
S315000021209141CAB24000015B1868A84705B0F0BDEE
S3150000213010B546F6E473C0F200039A68126859684F
S315000021401868904710BD70B504000A0046F6E4739F
S31500002150C0F2000399688D6818682100A84770BD11
S3150000216010B540F20043C2F200031B680C0099420E
S3150000217000D91C0040F20031C2F20001220004F036
S3150000218059F8200010BD40F20043C2F200030022BD
S315000021901A60704710B504000379012B02D0042B96
S315000021A004D010BDC046C046C046FAE740F2004320
S315000021B0C2F200031B68FE2BF3D800F0AAF840F227
S315000021C0FC23C2F20003186040F20043C2F200038F
S315000021D01A68207A40F20031C2F2000188540132B6
S315000021E01A60DEE710B540F2FC23C2F200031C6859
S315000021F0241800F08EF8201A431E1843C00F10BD95
S31500002200F0B5C64600B582B00700002440F20008CB
S315000022100CE0F369012240F20B11280098470121D6
S315000022200A2002F042FF40F2010CE0444346072B2D
S315000022302CD846F62473C0F200039E681D68FA097E
S3150000224040F209112800F3699847002240F20B1169
S315000022502800F369984701210A2002F026FF01238E
S315000022606A46D371073240F20A112800B3699847CB
S315000022706B46DB79013B5A4253411C434346072BCD
S31500002280C7D06400E4B27F00FFB2C2E746F624730B
S31500002290C0F200039A68D5691868002240F2091155
S315000022A0A847200002B080BCB846F0BD40F2044307
S315000022B0C2F200031A6801321A60704740F64403FE
S315000022C0C2F200031B6840F2E832B3FBF2F3013BB3
S315000022D080225204934213D24EF21002CEF2000232
S315000022E053604EF60051CEF200010B6A1B021B0A28
S315000022F0C020000603430B6200239360073313607C
S315000023004EF60052CEF20002136A1B021B0A13623B
S31500002310704740F20443C2F2000318687047030096
S315000023204118002007E01A78424046F66840C0F29D
S315000023300000805C01338B42F5D37047F0B5C6468A
S3150000234000B582B00600884646F62473C0F2000344
S315000023509D681F68002240F203313800EB699847F8
S3150000236001210A2002F0A1FE002409E00020FFF767
S3150000237047FF6B46185501210A2002F096FE0134EC
S31500002380042CF3DDEB69012240F203313800984753
S3150000239004216846FFF7C3FF6B461B7998420BD1B1
S315000023A06B465B7833806B46DB78424613800020B1
S315000023B002B080BCB846F0BDC046C046C04601204B
S315000023C04042F5E771B140F20013994206D840F257
S315000023D02C43C2F200034360002070470023436091
S315000023E00220FAE7002343600020F6E7002070474A
S315000023F010B51400006A4B78022B29D009D8A3B176
S31500002400012B04D10B78012B19D001231370002066
S3150000241010BD032BFBD10B78012BF8D14B881D2B5C
S31500002420F5D89B00AF4AD3589F460B78013B012B4A
S3150000243002D901231370EAE700231370E7E74B88FC
S315000024401D2B02D800231370E1E702231370DEE789
S315000024500B78012B46D0022BD9D14A88142A3ED8B4
S315000024609300A149CB589F4600236380CFE7012301
S315000024706380CCE74823C35A6380C8E7838F6380B1
S31500002480C5E7C38F6380C2E74023C35A6380BEE7B4
S315000024904223C35A6380BAE74423C35A6380B6E72C
S315000024A04623C35A6380B2E700236380AFE7002365
S315000024B06380ACE715325200821853896380A6E721
S315000024C0E823C35A6380A2E7FEF718FE60809EE702
S315000024D0FEF7D3FD60809AE7C38B638097E70023FE
S315000024E0638094E74B881C2B00D9AAE09B007F4AA7
S315000024F0D3589F463623C35C638088E7038F638087
S3150000250085E73A23C35C3B22825C12021343638055
S315000025107DE7037F63807AE75623C35C638076E7B3
S315000025205823C35A638072E75A23C35A63806EE7FF
S315000025305C23C35A63806AE75E23C35A638066E7F7
S315000025408223C35A638062E78423C35A63805EE7AB
S315000025508823C35A63805AE76823C35A638056E7C1
S315000025606623C35C5A1E93416022825C0AB3022230
S3150000257013438622825CF2B1042213438A22825CD0
S31500002580DAB1082213438B22825CC2B110221343B4
S315000025908E22825CAAB1202213438D22825C92B1E4
S315000025A0402213438C22825C7AB1802213436380DB
S315000025B02DE70022DCE70022DFE70022E2E7002227
S315000025C0E5E70022E8E70022EBE70022EEE76A23D0
S315000025D0C35A63801BE78023C35A638017E76E23C1
S315000025E0C35A638013E76C23C35A63800FE77623CD
S315000025F0C35A63800BE77823C35A638007E77C23BB
S31500002600C35A638003E77A23C35A6380FFE67E23B7
S31500002610C35A6380FBE6038E6380F8E6438E6380CD
S31500002620F5E67023C35A6380F1E67223C35A6380CA
S31500002630EDE67423C35A6380E9E63423C35C638002
S31500002640E5E600235380E2E68B88052B00D9DEE61B
S315000026509B00274AD3589F46FEF72AFBD7E6FEF78C
S315000026602EFBD4E6FEF732FBD1E6FEF7C9FFCEE637
S31500002670FEF79FFCCBE68B885A1E93413622835485
S31500002680C5E68B880387C2E60A793A23C2548B884B
S315000026901B0A3B228354BAE68B885A1E9341037762
S315000026A0B5E60A795623C254B1E60423CA5E582316
S315000026B0C252ACE68A885A23C252A8E68A885C23AC
S315000026C0C252A4E68A885E23C252A0E68A88822382
S315000026D0C2529CE68A888423C25298E68A88882356
S315000026E0C25294E6686D0000E06D0000346E000092
S315000026F0A86E00008A886823C25288E68A88012369
S315000027001A40662402558A8852081A40063C025529
S315000027108A8892081A40263402558A88D2081A40B6
S31500002720043402558A8812091A40013402558A88EF
S3150000273052091A40023402558A88920913408C22A3
S31500002740835464E68A886A23C25260E68A888023B4
S31500002750C2525CE68A886E23C25258E68A886C2387
S31500002760C25254E68A887623C25250E68A88782373
S31500002770C2524CE68A887C23C25248E68A887A236B
S31500002780C25244E68A887E23C25240E68B8803867C
S315000027903DE68B8843863AE68A887023C25236E63F
S315000027A08A887223C25232E68A887423C2522EE67F
S315000027B00A793423C2542AE6016000234360836009
S315000027C083818373C3730020704770B504000D00C6
S315000027D011B1817B4D19ADB22900200023689847BD
S315000027E0022800D025B900236360A360A38170BDD1
S315000027F0E37B626894466344A360A581F7E710B55E
S315000028000A000021FFF7E1FF10BDFFFF30B505000C
S315000028100C0000214FF6FF700CE04008013BDBB2D4
S3150000282033B1C207F9D54008064A504080B2F5E7F1
S31500002830013189B2A14203D26B5C58400823EFE70D
S3150000284030BDC04601A0FFFF70B504AC20CC247893
S315000028508560047301604260002202621030190034
S31500002860FFF7AAFF70BD70B504000E00150043689F
S3150000287003B1984720001030226A0221FFF7A5FF16
S3150000288040B9802149420E43A3691E70A3695D7059
S31500002890002070BD0820FCE7F0B5D6464F464646F8
S315000028A0C0B584B005000E00052B39D1032949D0E7
S315000028B03FD801294BD0022942D140F2010940F20A
S315000028C0D0710820947853781B021C43A0461779D0
S315000028D0D3781B021F433BB29A46002F3CD0B94225
S315000028E03AD380235B02DB1B9C423BDC01AB1870B6
S315000028F000225A705A809A809E710024BC4242D2AD
S315000029004346E31801A94B8003AA28002B68984781
S3150000291070BB03AB1A78002A30D10134A4B2EDE7BC
S315000029200322FFF7A0FF04B0E0BCBA46B146A846B2
S31500002930F0BD042904D140F200097D210220C1E73F
S315000029400C20F0E740F200097D210120BAE7894614
S3150000295040F2D0710420B5E7032231002800FFF7CA
S3150000296082FFE0E7022231002800FFF77CFFDAE76A
S31500002970042231002800FFF776FFD4E73100280053
S31500002980FFF771FFCFE74B4673B1FC1DE410E4B2CD
S31500002990A11C280010302A6AFFF717FF48B9AB6957
S315000029A01E70AB695C700EE05346DCB26400E4B2A4
S315000029B0EEE70820B7E7831CAA6994466344002221
S315000029C01A700130C0B2A042F5D301AB02225A7090
S315000029D000240FE0AB69023303AA528812B3E2085F
S315000029E007202040012181400800995C0143995449
S315000029F00134A4B2BC421ED24346E31801A94B805F
S31500002A0003AA28002B6898474B46002BE2D16300A7
S31500002A100233AA699446634403AA5288110A1970BC
S31500002A205A70E5E7E2080721214001208840995CB9
S31500002A3081439954DCE7002075E7F0B5DE4657463A
S31500002A404E464546E0B587B0070088461500052B7B
S31500002A5022D90F2924D040F2010A7B21AE786A7868
S31500002A601202164332B2934600962879EC78240275
S31500002A70044322B201926A7912B1063B9A4214D0FB
S31500002A80032241463800FFF7EEFE07B0F0BCBB4616
S31500002A90B246A946A046F0BD0322FFF7E4FEF4E7DE
S31500002AA040F2040A40F2B071D8E73CB1A14205D326
S31500002AB05346042B08D063009A4208D003224146AD
S31500002AC03800FFF7D0FEE0E7E31DDB10F4E78023D4
S31500002AD05B021B1B009A9A420BDC03AB52461A7030
S31500002AE001225A7000225A809A8042469A71002624
S31500002AF01AE0022241463800FFF7B5FEC5E7F308A3
S31500002B00EB189B790722324013411A000123134028
S31500002B1003A98B8005AA38003B689847A8B905AB7E
S31500002B201A78C2B90136B6B2A64219D2009BF3187A
S31500002B3003AA53805346042BE1D073000633EB18E7
S31500002B405A781B781B021343E2E7042241463800F9
S31500002B50FFF789FE99E741463800FFF784FE94E7C0
S31500002B6003AB03225A7040F2000914E04B46DB081F
S31500002B70EB189B79072249460A4013411A000123A4
S31500002B80134003A98B8005AA38003B6898474B463B
S31500002B9001339BB29946A1450FD2009B4B4403AA31
S31500002BA053805346042BE1D04B465B000633EB18AB
S31500002BB05A781B781B021343E3E7380010303A6A51
S31500002BC00521FFF702FE78B9BB6942461A70BB6958
S31500002BD0009A160A5E705A469A70BB69240ADC701F
S31500002BE0019A1A71002050E708204EE7F8B50E004A
S31500002BF013000978002401E00134A4B2057BA54244
S31500002C000AD9E5008268521987687D5D8D42F3D145
S31500002C1054683200A04702E00122FFF724FEF8BD07
S31500002C20F0B5DE4657464E46C0B582B00700019164
S31500002C3014001D00002640F20009191F89B2FC2964
S31500002C401DD81678023B9B4699B21000FFF7DEFDB1
S31500002C505B46E218E35C527812021343984210D1A5
S31500002C60631C9A46033DABB2994600235BB99EB1FD
S31500002C70019BB34210D001202C23184306E0012308
S31500002C80F4E70823F2E79B000120184302B0E0BCFA
S31500002C90BB46B246A946F0BD3C0010340323BB77C1
S31500002CA0023BFB774B46DAB251463800FFF79EFFF0
S31500002CB0830723B903069B0E73B9013300E0002393
S31500002CC0002BE3D0B98BC9B146B178690B1F9BB213
S31500002CD0FC2B09D90420D9E70023F1E7396A200043
S31500002CE0FFF78DFD0020D1E7019B037002394418E0
S31500002CF089B2FFF78BFD2070000A60700020C5E7DF
S31500002D0010B582B042F2C533C0F2000342F2ED3292
S31500002D10C0F2000242F2F131C0F2000140F2084076
S31500002D20C2F200000324019440F20004C2F200043F
S31500002D300094FFF789FD830723B90006800E28B9A2
S31500002D40013300E000231BB102B010BD0023FAE7F7
S31500002D5046F6C063C0F2000346F61072C0F20002E7
S31500002D6046F6F060C0F20000602102F098F930B536
S31500002D70C1B0050000230093FB22002101A803F047
S31500002D8062FAFF216846FFF7EBF9040008B941B083
S31500002D9030BD0A20FFF726FA0028F8D040F2084096
S31500002DA0C2F200000562E3B26A460121FFF738FF6E
S31500002DB0830723B90006800E70B9013300E00023B3
S31500002DC063B140F20843C2F200035869998BFFF7DA
S31500002DD0BAF9FFF7D8F9DAE70023F1E7FFF7D3F9F5
S31500002DE0D5E710B5FFF76AFAFFF711F8FFF727F9ED
S31500002DF0FEF7D8FEFFF79CF9FEF798FF40F22C5439
S31500002E00C2F2000441F62720C0F200002100FFF7BD
S31500002E10BFF82000FEF78DFD40F22C50C2F20000F4
S31500002E20FEF7A6FDFFF75EF8FFF703F8FEF7F9FEDB
S31500002E30FEF789FF30BFEFE710B530B94CF200035B
S31500002E40C4F27E03902201219954022800D010BDBD
S31500002E5047F24C01C0F2000140F22C60C2F20000C1
S31500002E6001F02CF8F3E710B5FFF7BBFF002010BD0B
S31500002E7010B5846964694900095B39B1C468601892
S31500002E80615A196004301060002010BD2220FCE752
S31500002E9070B582B004009423C05888B16B46020016
S31500002EA060CA60C3030024C924C39023E35898472B
S31500002EB09423E35813B16A4603CA03C302B070BD34
S31500002EC00800F2E741B1436813B14368022B03D10E
S31500002ED004234360033B83607047020006E000233F
S31500002EE053674B69506F4100CB5A3BB9536F01335F
S31500002EF05367916908698342F3D9F0E7704710B5C3
S31500002F000A238360036C013303648423C3589A68DD
S31500002F10546801004031C26818680823A04710BDF4
S31500002F20436843B98368012B02D001230B7004E088
S31500002F3000230B7001E043680B7000207047F0B56A
S31500002F4083B006001D00002383778433C358986836
S31500002F50C46818686B460733A047070028BB0400FF
S31500002F6044F23F22C0F20F02944207D8B27F2AB938
S31500002F700121012002F099F80134F1E75823F35CAE
S31500002F802B7044F24023C0F20F039C4210D058230A
S31500002F90F35C022B09D05823F35C032B05D058238E
S31500002FA0F25C0133F25440F2F417380003B0F0BD7E
S31500002FB01427FAE7F0B583B004000E006B46022230
S31500002FC0DA71C3681D000835863282589B18436142
S31500002FD0002028E06B460733042229002000FFF773
S31500002FE0AEFF60BB6B4607331B78022B25D08823C8
S31500002FF0E258A169CB680A335B00D21A2B889A4241
S315000030001AD35B190733032293435F884BF6AD62ED
S31500003010974216D149691A885200E768ED1B8D520E
S315000030201A88E2651D1D6369AB4206D9002ED1D10F
S31500003030A36EAB42DBD100E02120A566256103B07B
S31500003040F0BD2120F9E770B50500002383778433AE
S31500003050C358986884681868A0470600C0B9040079
S3150000306004E00121012002F020F8013444F23F235C
S31500003070C0F20F039C4202D8AB7F002BF1D044F282
S315000030804023C0F20F039C420BD05823EB5C0BB9D4
S31500003090300070BD5823EA5C0133EA5440F2F4165E
S315000030A0F6E71426F4E710B50AB1212010BD8823EF
S315000030B0C258920AFFF7C7FFF8E770B5050000206F
S315000030C0A87784302858846864680068A04706009A
S315000030D0F0B9040044F23F23C0F20F039C4207D824
S315000030E0AB7F2BB90121012001F0DFFF0134F1E7AD
S315000030F044F24023C0F20F039C420BD05823EB5CF2
S31500003100012B05D05823EA5C0133EA5440F2F41649
S31500003110300070BD1426FBE770B582B005000023B1
S31500003120C3600026002024E08633EA586B46073346
S3150000313021002800FFF703FFC8B96B4607331B7849
S31500003140032B14D1002221002800FFF7ACFF0EE06C
S315000031508823EA58920A21002800FFF774FF06E048
S31500003160EC6004E0002221002800FFF79CFF50BB22
S315000031700136AB695A68B24225D91C688823EB58D8
S315000031807343E4186B460733082221002800FFF733
S31500003190D6FEC0B96B4607331B78022BC4D0E28833
S315000031A04BF6AD639A42DDD1E9680029D8D0236891
S315000031B00A689342CCD98823EA58920A2800FFF776
S315000031C042FFEC60D3E7EB684BB9AC692368A268B1
S315000031D0944663448822AA589B1AEB6008B102B051
S315000031E070BD00232B6446330649E952290040315D
S315000031F02368A0681B189A1A08232800FFF75DFFAA
S31500003200EDE7C046ADBEFFFF70B50400836958699F
S315000032101A6901325200002103F015F80023A37742
S315000032204FF6FF73E3652000FFF776FF21280FD0E6
S3150000323068B9002500232377637701212000FFF773
S31500003240B9FE212803D010B925B90123A36070BDAA
S315000032500125EFE72120FAE710B50400436EC360AD
S31500003260836958691A6901325200002102F0EBFFA6
S3150000327000212000FFF79EFE10BD70B50400806996
S31500003280490043695B5A626E94466344E3671B8850
S315000032900B33032293437D32A35040692369E568CB
S315000032A05B1B4352A25823699C4662448823E35819
S315000032B0E1688C4663449A4201D8002070BD200024
S315000032C0FFF7CAFF03236360023BA360F6E7F8B586
S315000032D004000E004368032B20D08023C5581F2D01
S315000032E000D9202527001F372A00E16F380002F099
S315000032F0A1FFA6608423E3589A68566818682B00D5
S3150000330022693900B04723695B192361E36F5B19B2
S31500003310E3678023E258551BE550F8BD0020FCE723
S31500003320F0B5C64600B582B004000E001100019348
S31500003330022343600666022E0AD00021A0690369B3
S315000033408B4205D340694D00285A08B90131F5E78B
S31500003350E2688823E05813189846A5692B68AF6879
S31500003360DF19474500D043466266E360C0186061D6
S315000033702869884217D3083323614FF6FF730B4041
S3150000338023676367022E08D02000FFF776FF68B92F
S3150000339006212000FFF79BFF08E0089B019A20000A
S315000033A000F084F802E02000FFF7A9FD02B080BC1F
S315000033B0B846F0BD70B582B0040081610B6A18682A
S315000033C08423E0508B684A68B3FBF2F38822A3504B
S315000033D00023403AA3520232A352E3642364063A1E
S315000033E0A352314A462562530A3501267642665370
S315000033F002356253023563530235625390228D695A
S31500003400A550C9690832A150043AA35083681B68C5
S31500003410416800689847050010B1280002B070BDE9
S315000034200023A3602000FFF7EFFE0500212807D048
S3150000343075B38423E3589A68526918689047ECE795
S3150000344000230093002200212000FFF769FF0500FA
S315000034500028EDD1060004E00121012001F025FE3F
S31500003460013644F63F33C0F24C039E4202D8A368AD
S31500003470012BF1D144F64033C0F24C039E4205D0F5
S315000034806368042BD4D140F2F415D2E71425D0E7B3
S31500003490E3681B6823640023636044F24553C5F266
S315000034A056232360B9E7C046ADBEFFFF70B582B0B4
S315000034B016000269D4180B340325AC434569AC42A7
S315000034C015D85024015348214352C368D11A4A23C0
S315000034D0C152483B8360C6648233C35899684C68BE
S315000034E00100483118680423A04702B070BD00935C
S315000034F033000A000221FFF713FFF6E770B5050057
S31500003500FFF7D4FF040001002800FFF7DBFC2000D2
S3150000351070BD10B50400FFF7E0FC0100236F834285
S3150000352008D02000FFF7A9FE48B906212000FFF7C2
S31500003530CEFE04E02369A3672000FFF7E0FC10BD80
S31500003540F0B5C64600B584B0027844685823E25404
S31500003550A368BBB15823E35C012B16D05823E35C68
S31500003560002B00D0C2E063600133A360002120007D
S31500003570FFF7A8FCA368012B00D1D0E004B080BC03
S31500003580B846F0BD0133A377F8E7A3680A2B00D944
S31500003590C3E09B006B4AD3589F4623691D1D2561D6
S315000035A0E66C31004823E25A13000320A0600700AE
S315000035B0174010420AD10322A2608422A2589068C2
S315000035C0466810682A00B0470100D0E7032A05D9EB
S315000035D003239A4313000422A260EEE723008C33F0
S315000035E0042200219846180002F02DFE3A00310010
S315000035F0404602F01FFE0323A36041460133DCE789
S315000036004823E75A453B3E009E43A36025008C3580
S3150000361004220021280002F016FEE36C9919032209
S315000036203A40280002F006FE2369F218226184233C
S31500003630E35899684E68186804232900B0470100CA
S3150000364095E74823E35A9A0710D023690433236188
S315000036500523A3607F33E3589A68556821005031EB
S31500003660186804232269A847010080E72269944666
S3150000367063442361ECE75023E35AE365226904328D
S315000036802261A26952695B004A21615AD15261687E
S3150000369021B90123A3602369A36668E72000FFF729
S315000036A038FF010063E78023E3582BB10621200091
S315000036B0FFF70DFE01005AE72000FFF72AFF010081
S315000036C055E78823E258E3689B1863610023237754
S315000036D0A36F23610B23A3607933E35899688D6840
S315000036E0920A1868616EA847010040E76368022BDA
S315000036F009D000215823E25C0133E254553B636054
S31500003700033BA36033E7A3680B2B01D10021F1E74C
S315000037102000FFF7A1FD0100ECE7002127E78F332A
S31500003720E358002B00D129E702A92000FFF7F8FB98
S315000037309823E3580193039302A92000FFF7A8FBFF
S315000037401CE7C046C07100004161826100207047DD
S3150000375010B5036A9B787B242340046AA3708378A0
S315000037609B079B0FD21A0261CB18C360026A93783B
S31500003770802464422343DBB2937082780323134090
S31500003780022B04D0036A0A78DA70002010BD09887B
S31500003790026A024B0B439BB2D381F6E700FEFFFFA2
S315000037A04162C26283620020704701235B424B6024
S315000037B00B600020704710B503008A070DD5006A1C
S315000037C082787B242240827000221A610020CA0778
S315000037D002D500229A61002010BD0620F7E7836912
S315000037E00B60002383610020704710B58B7843700F
S315000037F04A7892070378920F0324A3431343037076
S31500003800CB788374C3795C22934309780A401343C7
S31500003810C37110BD10B50B7813B9234B026A93829E
S315000038208B781B01CA78D20013434A78032A03D047
S31500003830002A2CD0F22202E03D321343B232DBB230
S31500003840046A2370D2B2036A9A71C9690B7B5B0062
S3150000385002221340026A53734A78D201FF231340AF
S315000038608C7864012022224013430022046A2272CB
S315000038700A78023AD2B2012A0ED8FF22046A62708E
S315000038800A78022A05D0026ADBB2D37110BDE222A1
S31500003890D5E70E321343F6E7DBB2026AD371496805
S315000038A0006AFFF7A2FFF1E700F8FFFF70B504001A
S315000038B0026A93787B251D400B20034093700023FA
S315000038C0E360206AFFF791FF236A9D70002070BDB8
S315000038D0F0B585B004009446806AC8B16B46060010
S315000038E0A4CEA4C31D0033682B60E3691B78036074
S315000038F0816063460371E36AC360636A9847A26A9C
S3150000390022B16B4613CB13C21B68136005B0F0BD22
S315000039106846EAE710B5040000234360026A937024
S31500003920C3690520185601F06EFCE3690B20185692
S3150000393001F069FCE3690720185601F064FCE369AD
S315000039400920185601F05FFCEFF31080012383F382
S31500003950108846F6FC73C4F204035A68E1690C78D1
S3150000396080210906E1400A435A605B6880F31088AB
S31500003970002010BD70B506000D001400100001F007
S3150000398042FC200001F0E8FB32002900200001F093
S3150000399004FC70BD70B505000C000B228A56897AAE
S315000039A0FFF7E8FF0522A25621792800FFF7E2FF7C
S315000039B00722A256A1792800FFF7DCFF0922A256AA
S315000039C0217A2800FFF7D6FF70BDF8B504000D0078
S315000039D00B7843F6000CC0F2002C63445B010362D3
S315000039E000230370C1614A6942628A69C2628362C6
S315000039F08378032293430122134383704B782BB9B8
S31500003A008378032293430222134383702900200004
S31500003A10FFF7C0FFEFF31086012080F3108846F60B
S31500003A20FC73C4F204035A682F7880210906F94012
S31500003A308A435A605B6886F310880023226A937073
S31500003A40226A1371226A5372226A9372226AD372AD
S31500003A50226A53832A7840F20F23D340184202D0B9
S31500003A604023226AD3740623226A13772900200092
S31500003A70FFF7D0FE0023E36023616361A361ED6974
S31500003A802E78E3690520185601F0B5FBE3690B2093
S31500003A90185601F0B0FBE3690720185601F0ABFB9E
S31500003AA0E3690920185601F0A6FB03233340702270
S31500003AB01343DBB2226A93706B89238144F6551354
S31500003AC0C5F2433363600020F8BDFFFF10B5EFF386
S31500003AD00384E405E40D103C64B2200001F03CFBD5
S31500003AE040F2B873C2F20003A400E058C3691B6930
S31500003AF093B103697BB9026A93787F210B40042155
S31500003B000B43DBB293700023C360436A1BB1802270
S31500003B100021FFF7DDFE10BD0369002BE9D0827896
S31500003B2003231340022B0ED0C3681B78026AD3709E
S31500003B3083789B079B0F0269D21A0261C26894467A
S31500003B406344C360D5E7C3681A88034B13439BB22B
S31500003B50026AD381ECE7C04600FEFFFF10B582B0D3
S31500003B60EFF30384E405E40D103C64B2200001F099
S31500003B70F3FA40F2B873C2F20003A400E458A27844
S31500003B8003231340022B0DD0236A5B790193A369AB
S31500003B907BB9636A23B1042201992000FFF798FEDE
S31500003BA002B010BD236A1B8A40F2FF121340019334
S31500003BB0EDE7A2789207920F01A9606902F03AFB3D
S31500003BC0A3789B079B0F6269D2186261A269D31A18
S31500003BD0A361002BE4D1636A002BE1D0012200210E
S31500003BE02000FFF775FEDBE710B5EFF30384E4056D
S31500003BF0E40D103C64B240F2B873C2F20003A200B6
S31500003C00D058026A93787B210B409370436A1BB1AC
S31500003C1002220021FFF75CFE200001F09DFA10BD94
S31500003C2070B5EFF30384E405E40D103C64B240F292
S31500003C30B873C2F20003A200D0588278032313405F
S31500003C40022B1AD0036A5979C9B2036A1D79382240
S31500003C502A40ED0605D51D7FED0702D440252A43EF
S31500003C60D2B21D793826B5431D71436A0BB1FFF7F1
S31500003C702FFE200001F070FA70BD036A1B8A40F225
S31500003C80FF111940E1E7002303600020704710B5DB
S31500003C900B0AFF20084040F60004C4F20404190190
S31500003CA0091889000B599B07DB0F1370002010BD04
S31500003CB0090A490140F2000CC4F2040C61444B6845
S31500003CC0138000207047180010409343090A4901E9
S31500003CD040F2000CC4F2040C61441B0403438B60E5
S31500003CE000207047FF200840012383409BB26AB939
S31500003CF01A000023090A490140F2000CC4F2040C20
S31500003D006144120413438B60002070470022F1E7E0
S31500003D1010B51000090A490140F2000CC4F2040C67
S31500003D2061440A681C000440834322439A430A60A4
S31500003D30002010BD090A490140F2000CC4F2040C2F
S31500003D4061444B681B0C1380002070470B0A5B0113
S31500003D5040F2000CC4F2040C63445868000CFF23C4
S31500003D601940FE3B8B4099B203408B4203D000239F
S31500003D7013700020704701231370FAE718001040F3
S31500003D809343090A490140F2000CC4F2040C614451
S31500003D901B040343CB6000207047000A400140F239
S31500003DA0000CC4F2040C604401238B40C168012A54
S31500003DB004D099431B040B43C36070471A04914314
S31500003DC00B43F9E710B5FF23080098431940FFF7A6
S31500003DD0E4FF002010BDFFFF30B5CB030FD5020A6C
S31500003DE0FF25054040F60004C4F2040413015B19E4
S31500003DF09B001D59084A15401D510A401A51030AD5
S31500003E00FF22024040F60004C4F2040418018018A0
S31500003E108000015130BDC046FFFFFEFF70B50500B2
S31500003E20EFF31081012383F3108840F2B473C2F2DA
S31500003E3000031B683BB940F60053C4F2040300229A
S31500003E40DA704032DA7040F2B473C2F200031A68D4
S31500003E5001321A6081F31088002409E0E3006A68E1
S31500003E609446634419689888FFF7B6FF0134A4B2F4
S31500003E702B88A342F2D8EFF31082012383F3108834
S31500003E8040F2B473C2F200031B6833B140F2B4735C
S31500003E90C2F2000319680139196040F2B473C2F224
S31500003EA000031B683BB940F60053C4F2040300212B
S31500003EB0D9708031D97082F3108870BD10B545F283
S31500003EC05423C5F24F0303600800FFF7A7FF002045
S31500003ED010BD10B50800FFF7A1FF002010BD10B5FA
S31500003EE008001100EFF31082012383F3108840F2DB
S31500003EF0B473C2F200031B683BB940F60053C4F228
S31500003F0004030024DC704034DC7040F2B474C2F266
S31500003F10000423680133236082F31088FFF75CFFF7
S31500003F20EFF31082012383F31088236813B121680D
S31500003F300139216040F2B473C2F200031B683BB939
S31500003F4040F60053C4F204030021D9708031D970C1
S31500003F5082F31088002010BD10B5007940B201F040
S31500003F604AF9002010BD70B582B0EFF30384E40572
S31500003F70E40D103C64B240F2B873C2F20003A20032
S31500003F80D5586A7946F20003C4F200039B5C9B078E
S31500003F909B0F032B0CD101263DB1AB682BB16A797F
S31500003FA00192EA6800926846984736B902B070BD39
S31500003FB0200001F0D1F80026EEE7200001F0CCF851
S31500003FC0F4E78368C2685A600020704741600123A5
S31500003FD00374C3681B0701D0002303740B7C40F2F3
S31500003FE0807CC0F2400C63441B0283604B694361D2
S31500003FF08B69C361002383617047826880231B0637
S3150000400013618268536182689361826800235362F8
S31500004010826893627047F0B58668B56E01354F4287
S315000040204F410024A94264413C431CB3DB0713D42F
S31500004030736BDB06DC0E43681B78032B10D9102349
S31500004040234058424341DBB201B913B18D420ED829
S315000040506BB1022353600FE0736BDB02DC0EEAE701
S315000040600C232340043B58424341DBB2ECE70323D5
S31500004070536001E001391160F0BDFFFFF0B5C6469F
S3150000408000B582B0060088461400032717400123B6
S315000040905B4200930023019313006A46FFF7BBFFC0
S315000040A0B068056B019989B923072CD40223A207AE
S315000040B02BD51A00123292008018009A42601333F0
S315000040C09B00B26894466344009A5A60630605D51D
S315000040D0B268106C8023DB0303431364012F03D003
S315000040E0124B1D400B041D43022C15D027B1104B5B
S315000040F01D40019B1B061D43B3681D63002002B0D3
S3150000410080BCB846F0BD0423D1E7DB1912339B000F
S31500004110C318009A5A60D9E70029E7D001236A46F6
S3150000412041463000FFF777FFE0E7C046FFFFFCFFA0
S31500004130FFFFFFFC10B58368DB6A5B015B0F5B006A
S31500004140DBB24EF20002C4F20102116A0722140029
S315000041500C40090E0A4040F64401C2F2000108680C
S315000041609040E040D84010BD10B50C0083685B6EEF
S3150000417001338B60FFF7DEFF6060012323700020B0
S3150000418010BD8B010A01134340F20012134302785B
S31500004190022A04D0032A05D031B1092000E0092003
S315000041A0184370470320FBE70620F9E74368DB69FD
S315000041B030229A5CD20703D581689A6A013ACA64AA
S315000041C030229A5C920703D5DB6A8268013B13654D
S315000041D0704710B5002800DA10BD01F025F8FBE79E
S315000041E0F0B5C64600B582B004000D00CE69EFF307
S315000041F01081012383F3108846F6FC73C4F204038E
S31500004200DB682A7C032A00D9A9E0212252421A40FF
S3150000421046F6FC73C4F20403DA60DB6881F31088A7
S31500004220A3684AF200521A60A2680023D362A26809
S31500004230D363A26893642B7A5B081B066A68571ED1
S315000042402A78032A00D18DE0A268D3622000FFF706
S31500004250D4FEA368B269DA61A368F2691A62A36838
S315000042609F66A3685F66B36B984601235B42009323
S31500004270002301932B781BB96B685B08013B009305
S315000042802B78012B00D971E0A268009B5365A268C8
S3150000429093652A78032A03D9A268D365A2681366B0
S315000042A0019B1F041B061F43B36B93B9337833B1CD
S315000042B071782800FFF765FF434603439846B378B5
S315000042C03BB1F1782800FFF75CFF00044346034347
S315000042D098462000FFF76AFFA268002393638822AE
S315000042E0A1688B50B36B4BB92033F35C5B0342463A
S315000042F013432122B25C52071A4390463023F35CE3
S31500004300002B3AD1AA22D203A3681A642B78012B78
S3150000431036D0A36842465A63A26803233B4313631D
S31500004320A368012217431F63A368E268DA60697C09
S31500004330122028562200FFF74CFF2223F15C02339D
S31500004340F0562200FFF745FF2323F15C0233F056B7
S315000043502200FFF73EFF02B080BCB846F0BD412206
S31500004360524254E78022520213436DE700236A4605
S31500004370E9682000FFF74FFE86E7A022D203C3E7D5
S31500004380A2680023D364A2681365C2E770B504006F
S315000043900D000A7C01239340C360FFF717FE290036
S315000043A02000FFF71DFF45F25403C0F247032360C8
S315000043B0002070BD4CF20003C4F27E0343F6B072D7
S315000043C09A5A81231A4203D100230B7000207047AA
S315000043D001230B70FAE70620704706207047062077
S315000043E07047062070470620704747F26423C0F2E4
S315000043F000030A0003CB03C247F26C23C0F200039A
S3150000440003CB03C20020704706207047C36844F2FE
S315000044103F2CC0F20F0C634444F24022C0F20F025C
S31500004420B3FBF2F3C360202B03D9DA0701D50133BE
S31500004430C360836844F23F2CC0F20F0C634444F21D
S315000044404022C0F20F02B3FBF2F3836040F28352C4
S315000044505A4340F2060CB2FBFCF2026140F276329D
S315000044605A43B2FBFCF2426158225A43B2FBFCF2B9
S31500004470826146F6B822C0F205025A43B2FBFCF24C
S31500004480C2615A01D21A9200D21891018A1A920177
S31500004490B2FBFCF202624EF66852C0F222025A43A6
S315000044A0B2FBFCF242624CF20003C4F27E0343F616
S315000044B0C07200219954704710B540F2000CCBF63B
S315000044C0F05C61440C0C4CF20003C4F27E0340F233
S315000044D010129C5289B2083A9952017828329950A2
S315000044E01C3A8121995410BD30B5091801394CF296
S315000044F00003C4F27E0340F2041400251D55050C8A
S315000045000C341D5380B2083C18530C0C40F220109A
S315000045101C5089B208381952D2B240F214115A54BA
S3150000452030BD41438B08032902D9013B002BFCD146
S31500004530704710B504004EF20003C4F201031B6A73
S315000045401B0E0721194040F64403C2F200031B6804
S315000045501A008A40CA40C26040F6FF01C0F23D011F
S315000045608A4211D844F24021C0F20F018A420BD090
S3150000457048F28041C0F21E018A4205D04CF2C06169
S31500004580C0F22D018A4223D14EF20002C4F201028A
S31500004590116A090E07220A409340D340A360200007
S315000045A0FFF734FF4CF20003C4F27E0390229B5CBB
S315000045B0012B01D1002010BD4CF20003C4F27E0392
S315000045C001219954A1680620FFF7ABFF0020F2E70E
S315000045D040F2F610EFE74CF20003C4F27E0340F21D
S315000045E08012A5219950803A9854C143C9B2995472
S315000045F098549B5CDBB2834200D07047C046FCE710
S3150000460010B582B0040044F6003301930820FFF78A
S31500004610E2FFA1681020FFF784FF4CF20003C4F20A
S315000046207E0343F6B0720B49995202E0019B013BAF
S3150000463001934CF20003C4F27E0343F6B0729B5A18
S315000046409BB223B1019B002BF0D1142000E0002087
S3150000465002B010BD00AAFFFF10B582B0019002E0C3
S31500004660019B013B01934CF20003C4F27E0340F22E
S315000046702C129B585B0605D4019B002BF0D114200D
S3150000468002B010BD4CF20003C4F27E03183A995CE6
S315000046907F24214099540021995401904CF2000343
S315000046A0C4F27E0340F22C129B585B0605D5019B93
S315000046B02BB1019B013B0193F0E70020E0E71420BA
S315000046C0DEE7FFFF10B504004CF20003C4F27E03E0
S315000046D043F6B0720A49995281680620FFF721FF16
S315000046E01020FFF778FFA1680320FFF71AFF636821
S315000046F01A7802B910BD1120185600F07CFDF9E7B2
S3150000470080AAFFFF70B50400FFF7DCFFE3681F2BEC
S3150000471013D9203B5B081F333F2213404CF20002A3
S31500004720C4F27E0240F2D81011583F25A9430B432C
S3150000473013502000FFF764FF70BD013B1F2213409A
S315000047404CF20002C4F27E0240F2D81011583F2506
S31500004750A9430B431350ECE710B504000B0041606E
S315000047600A783AB934230022E2542000FFF7E1FE2A
S3150000477038B110BD097C11201856220000F054FDF6
S31500004780F0E72000FFF7BEFF0028F2D144F24E53B7
S31500004790C4F650732360ECE710B50400FFF7C9FEBA
S315000047A000B110BD2000FFF7ADFFFAE710B5040019
S315000047B034230022C2544CF20003C4F27E0343F6B3
S315000047C0B0729B5A9BB26BB14CF20003C4F27E03EB
S315000047D040F2241201219950002199502000FFF740
S315000047E00FFF10BDFFF76EFFEEE7F8B505000800F6
S315000047F017001E00FFF730FF040014280CD04CF2FF
S315000048000003C4F27E0340F2F0129B583C001C40A9
S315000048101F4205D12000F8BD2800FFF7C7FFF9E7C2
S315000048202800FFF7C3FF3400F4E710B5040018238F
S3150000483012224169FFF7D9FF48B9A36A0133A3627F
S31500004840E26A511CE162226B501E206300B910BD62
S315000048501800FFF731FE0820F9E710B5FFF7A6FFAD
S31500004860002010BD70B50500C26281620363436813
S315000048701B7813B134230122C2542800FFF722FF0C
S315000048804CF20003C4F27E0340F204120021995454
S31500004890E96AA86AFFF710FE6B681B7853B928000F
S315000048A0FFF7C3FF04000828F9D020B92800FFF756
S315000048B0A7FE00E00024200070BD70B5342400255A
S315000048C00555FFF7CFFF70BDF8B504000D001700C2
S315000048D01E00FFF7F7FE0023CBF6F053E818A062A0
S315000048E02763310079438422FFF7FEFD63681B7856
S315000048F013B100252800F8BD216A79431933112226
S315000049002000FFF772FF05000028F3D12000FFF713
S3150000491077FEEFE710B534230024C454890A8902D0
S3150000492043681B7813B134230234C45440F2004365
S31500004930FFF7CAFF10BDF8B504000D0016001F00F2
S31500004940FFF7C0FE0023CBF6F053E81883223100B0
S31500004950FFF7CAFD63681B7823B102233B7000256D
S315000049602800F8BDA169714340F2F8131022200017
S31500004970FFF73BFF05000028F2D14CF20003C4F21A
S315000049807E0340F228129B581B0705D501233B7076
S315000049902000FFF735FEE3E700233B70F8E770B52C
S315000049A004003420002525546068007810B13420B6
S315000049B0033525542000FFF7BEFF050008B108287F
S315000049C001D1280070BD2000FFF7F0FEF9E710B511
S315000049D0002303604368112018560300213301D1D8
S315000049E0002010BD00F00FFCFAE710B582B0EFF31F
S315000049F00384E405E40D103C64B2200000F0ACFB37
S31500004A0040F2B873C2F20003A400E4583423E35C16
S31500004A10012B1BD0022B2FD040F2F8131022A169D4
S31500004A202000FFF7E2FE002839D14CF20003C4F261
S31500004A307E0340F228129B581B0737D402236A468E
S31500004A4013700123002B35D102B010BD2000FFF7F3
S31500004A50ECFE08B1082805D1236B5BB901336A4621
S31500004A601370EFE72000FFF7A1FE07236A461370D5
S31500004A70063BE7E70023E5E717331122216A20000A
S31500004A80FFF7B3FE20B900236A4613700123D9E766
S31500004A902000FFF78BFE07236A461370F6E7200017
S31500004AA0FFF784FE07236A461370CAE703236A46A4
S31500004AB01370C6E72000FFF7A3FD63685A68002A53
S31500004AC0C2D0DB68019363685B6868469847BBE7BA
S31500004AD00368828A1A8000207047036810314900F3
S31500004AE0CB5A1380002070474EF20003C4F2010334
S31500004AF01A6A072319001140120E1A4040F64403A1
S31500004B00C2F200031B689340CB4040F2E832B3FB8D
S31500004B10F2F241F28833534344F24022C0F20F02CC
S31500004B20B3FBF2F30133062B00D80723036070476B
S31500004B3030B583B005000C000023019301A8FFF7F0
S31500004B40D3FF236862681343802189051A000A404F
S31500004B500B4209D0019AD2B2DE2128684254A268DB
S31500004B60920012D440F200125B0012D5019BDBB218
S31500004B70DF212868435440F200231343A16849000B
S31500004B8006D540F202231A4303E040F20112EBE796
S31500004B901A002B6892B25A8203B030BD70B588B045
S31500004BA004000E00C569A5B120222900684601F05F
S31500004BB041FB20223100280001F03CFB2800A369BC
S31500004BC09847E06918B12022694601F033FB08B026
S31500004BD070BD0D00F2E7F8B5DE4657464E4645462F
S31500004BE0E0B505004C698B785B0340F24022134325
S31500004BF0A078002858D1413AFF3A1A433F2855D0A9
S31500004C0040F2002313436279920702D540F2004234
S31500004C1013432279002A4BD0802213439BB2AB82E6
S31500004C20A278120243F600771740E0783F2202404E
S31500004C3017430E79F603627852011643227894469A
S31500004C40EFF3108940F2010B8BF3108846F6FC72E5
S31500004C50C4F20402D068804609888A46102150466C
S31500004C60091A5846884041468143D160D26889F383
S31500004C70108847F6FF5213402A681380BFB22B688C
S31500004C801F82B6B22B68DE812B6862461A7363797F
S31500004C909A0713D42A6861798A23D154F0BCBB469B
S31500004CA0B246A946A046F8BD0022A6E70023A9E71A
S31500004CB03F28B3D148F200021343AFE70322134360
S31500004CC0DBB28A2229688B540121012000F0EDF91C
S31500004CD0E0E710B5002800DA10BD00F0A5FAFBE702
S31500004CE0F8B504000D004E694160CB6883610B691D
S31500004CF003620027C7610B885B024CF2000CC4F20A
S31500004D00050C63440360FFF766FF697A06202856A0
S31500004D102200FFF7DEFFA97A072028562200FFF7B8
S31500004D20D8FF717A072030562200FFF7D2FFB17AFA
S31500004D30082030562200FFF7CCFF276144F2434398
S31500004D40C5F24123A3600020F8BDFFFFF8B5DE469B
S31500004D5057464E464546E0B504000D00504B0E68DA
S31500004D601E404268526992464A681A4089680B405A
S31500004D70B1B20068818091B22068818299B22068C0
S31500004D800181310C2068C180120C2168CA821B0C7B
S31500004D902268538129002000FFF7CAFEEB68002B2A
S31500004DA000D178E01A8911053FD59021206842523A
S31500004DB058890C31276878529889023127687852C9
S31500004DC01968894688B28446942027686146395214
S31500004DD04946080C33498846084040F2960C21683B
S31500004DE06746C8534946490F0320014040F2920CDA
S31500004DF027686046395459688B4688B2814640F226
S31500004E00980C206867464946C1535946090C4746DF
S31500004E100F4040F29A08216840460F525946490F02
S31500004E2097380140903027683954198989050DD57E
S31500004E30997CD87C0143A62027683954D889A821B3
S31500004E4027687852198AAA232068C15290232168BC
S31500004E50CA522A8A103B2168CA5253461B797BB133
S31500004E6027683D881F239D43BEB1300000F07CFFBC
S31500004E70C0B22D1A1F35ABB23B80A28A1343A38260
S31500004E8044F24343C5F24123E360F0BCBB46B2465D
S31500004E90A946A046F8BD0022D8E72020E9E7C0468B
S31500004EA0FFFFFF9FFF9FFFFF70B504000D00FFF798
S31500004EB04DFF2B682361002070BD30B589B004001A
S31500004EC0EFF30383DB05DB0D103B5BB240F2B872F8
S31500004ED0C2F200029B009D58EFF30380C005C00D8F
S31500004EE0103840B200F038F96B469C706B681B882E
S31500004EF06A461380002313722B6A0193AB691BB1B8
S31500004F0069462800FFF74AFE09B030BD10B50020FB
S31500004F10FFF7D3FF10BD4EF20003C4F20103A02237
S31500004F209B5CDBB2834223D04EF20003C4F2010342
S31500004F306A3A9B5C3BB94EF20003C4F201033C2281
S31500004F409B5CDB07F7D54EF20003C4F20103A022F7
S31500004F509B5CDB06F7D44EF20003C4F201039854BF
S31500004F604EF20003C4F20103A0229B5CDB06F7D4D9
S31500004F7070474EF20003C4F2010340F28042012161
S31500004F80995470474EF20003C4F201032622995C3D
S31500004F901A6A120E0723134040F29002C2F2000270
S31500004FA089008A58DA4040F64403C2F200031A60C8
S31500004FB0704710B540F29003C2F2000349F20002B6
S31500004FC0C0F2D0321A6041F20022C0F27A025A6070
S31500004FD048F200029A6042F20042C0F2F402DA603D
S31500004FE000221A61FFF7CEFF10BD10B54EF2000386
S31500004FF0C4F2010340F20012C0F200121A62262225
S3150000500000219954FFF7BEFF10BDFFFF70B54EF2A9
S315000050100004C4F2010440F2FE331A4AE2524CF292
S315000050200003C4F27E03002543F6C8729D54FFF7C1
S31500005030C0FF40F21343E554A2230922E254FFF7CE
S3150000504098FF0020FFF767FF3623E5544EF2000372
S31500005050C4F201033C229B5CDB07F7D5FFF7C5FFD3
S315000050604EF20003C4F2010340F2FE3206499952A1
S315000050704CF20003C4F27E0343F6C8720121995430
S3150000508070BDC04603A5FFFF00A5FFFF44F2000365
S31500005090C4F204032822002199547047704700BEC9
S315000050A0FEE701380028FCD1704770B541430D007A
S315000050B040F64403C2F200031C684CF60023C3F614
S315000050C09A33B3FBF4F440F2E832002308000021DF
S315000050D000F088FE31B9B0FBF4F0800808B1FFF7A4
S315000050E0E0FF70BDA000B5FBF0F040F2E83200230F
S315000050F0002100F077FE0029F0D001204042EEE7C3
S3150000510010B540F28073C2F200038200D35803B197
S31500005110984710BD70B546F20003C4F2000340F292
S3150000512020129A5A40F240115D5A1540002401E0BF
S315000051300134E4B20C2C07D82B00E340DB07F7D58B
S315000051402000FFF7DDFFF3E746F20003C4F2000399
S3150000515040F230129D5270BD46F20003C4F20003C5
S31500005160C0308000C25802490A40C250C358704736
S31500005170FFFFFEFF10B50400FFF7EEFFBFF35F8FE2
S315000051801F2222406409012393404EF20012CEF200
S3150000519000026034A400A35010BDF0B5C64600B5A9
S315000051A0904683084EF20017CEF20007C0339B00EC
S315000051B0DE5903250540ED00FF242200AA40964350
S315000051C089010C40AC403443DC5140F2B873C2F262
S315000051D00003800042461A5080BCB846F0BD1F222C
S315000051E002404009012393404EF20012CEF2000223
S315000051F080008350704710B50400FFF7BBFF200006
S31500005200FFF7EDFF10BD1F22024040090123934026
S315000052104EF20012CEF20002203080008350BFF31F
S315000052204F8FBFF36F8F704710B50400FFF7B5FFC0
S315000052302000FFF7E0FF10BD002300E001331F2B25
S315000052400FD847F2A012C0F20002D25C002AF5D0B5
S3150000525046F20001C4F200011800C030800042503E
S31500005260ECE7704730B5EFF31081012383F3108824
S3150000527040F63803C2F200034200D35A9BB243B150
S3150000528040F63802C2F200024400A35A013B9BB228
S31500005290A35240F63803C2F200034200D35A9BB22F
S315000052A093B94EF20004C4F2010440F2FE35635B8A
S315000052B047F2B022C0F200024000825AD24392B2B4
S315000052C0034803431340635381F3108830BDC0463F
S315000052D000A5FFFF70B5EFF31081012383F310885B
S315000052E040F63803C2F200034200D35A9BB28BB990
S315000052F04EF20002C4F2010240F2FE35535B47F261
S31500005300B024C0F200044600345B1C43074B234321
S315000053109BB2535340F63802C2F200024000835A51
S3150000532001339BB2835281F3108870BD00A5FFFF45
S3150000533010B5030040F64002C2F200021268A2B1A4
S3150000534040F64002C2F20002106803330322934380
S31500005350C31840F64042C2F2000293420FD840F60C
S315000053604002C2F20002136010BD40F64002C2F2D3
S31500005370000240F65801C2F200011160E0E700F0B9
S315000053803BFF0C23036001204042EDE700BE70475F
S3150000539010B500F041F8FDF766FDFEE730B583B0C5
S315000053A06B46DC1D0023237023780120FFF792FF54
S315000053B0EFF31081012080F3108846F6FC73C4F2E7
S315000053C004039A68134D2A409A609A6881F31088FC
S315000053D040F60002C4F204021168C907C90F217021
S315000053E01168C907C90F21701268D207D20F22703F
S315000053F0EFF3108180F310889868802252050243EB
S315000054009A609B6881F310880120FFF72BFF03B099
S3150000541030BDC046FFFFFFEF70B540F20004C0F29A
S3150000542000044EF60053CEF200039C600020FDF708
S3150000543003FDFFF7EBFDFFF7B1FF0120FDF7FCFCD5
S3150000544040F60053C4F2000300229A80274A1A80CD
S315000054502268274951189960DA6046F20002C4F2C0
S31500005460000240F2201141F20000505201229A80BF
S3150000547040F65802C2F2000240F2A800C2F2000052
S31500005480121A002100F0DFFE40F29002C2F2000282
S3150000549040F20000C2F20000121A47F2BC21C0F22C
S315000054A0000100F0C7FE40F28C05C2F2000540F292
S315000054B08803C2F20003ED1AAD10002407E040F2A3
S315000054C08803C2F20003A200D35898470134AC42C5
S315000054D0F5DBFFF757FDFFF7D9FD0220FDF7ACFC22
S315000054E0FFF7AAFE0020FFF7D9FD70BD00A5FFFF5C
S315000054F000FCFFFF70B504000D001600002301E05C
S3150000550001339BB2A08A984207D998002269805835
S31500005510A842F5D13380002070BDE18A88420CD0C4
S31500005520A38A3380E28A93421DD09B002269D5501C
S31500005530A38A0133A3820020EEE7E36A6BB14FF63C
S31500005540FF7291420BD0013189002069984740B122
S315000055502061E38A0133E382E2E70320DCE70320EC
S31500005560DAE70220D8E70020D6E770B504000D0080
S315000055701600002301E001339BB2A08B984207D9A5
S315000055809800A2698058A842F5D13380002070BDEA
S31500005590E18B88420CD0A38B3380E28B93421DD0E3
S315000055A09B00A269D550A38B0133A3830020EEE7AD
S315000055B0E36A6BB14FF6FF7291420BD0013189005D
S315000055C0A069984740B1A061E38B0133E383E2E72A
S315000055D00320DCE70320DAE70220D8E70020D6E73D
S315000055E000991A6A4B005B189B00D31802229A7224
S315000055F070470269036809015B185B899B0098582C
S3150000560045F2E153C0F20003C01A43425841C0B20A
S315000056107047F0B583B00300140009010268944690
S31500005620614422899200806986580A89032A0CD827
S31500005630081DE588AD001F69ED599B6A096800964B
S31500005640A8470023A37203B0F0BD4868F1E7F0B5A0
S31500005650C64600B58AB004000D0016001F008388F8
S31500005660C088834213D1E36A002B00D10DE14FF6C7
S31500005670FF72904200D10AE101300101206898478B
S31500005680002800D105E12060E3880133E38026226B
S315000056906A440023138039002000FFF72BFF18B15E
S315000056A00AB080BCB846F0BD09AA00231380109941
S315000056B02000FFF75AFF0028F2D105AB0595119A95
S315000056C006921E8126226A4412885A8109AA1288E5
S315000056D09A81032E01D806AB1193119B002B00D1A2
S315000056E0D9E032002900180000F0A4FDA388E18863
S315000056F08B422CD0A5880423E65EE3889D420BD01E
S315000057002A0123689C46624405AB83CB83C21B688F
S315000057101360A3880133A380129B002B00D182E083
S31500005720360123689C46664429002000FFF761FF86
S3150000573010BB0023A2899A4200D879E09A00A1689A
S31500005740525812998A4219D001339BB2F2E7E36AA2
S31500005750002B00D1A1E04FF6FF72914200D19EE0EE
S315000057600131090120689847002800D199E020609E
S31500005770E3880133E380BDE7E8B291E71FB2A38C6B
S31500005780E18C8B4214D1E26A002A00D177E04FF611
S31500005790FF73994200D174E001314B00591889001A
S315000057A0206A904700286ED02062E38C0133E384A0
S315000057B02422A35E984601AA0023138045F2E151F4
S315000057C0C0F200012000FFF795FE002800D067E731
S315000057D06B469A1D0023138041462000FFF7C5FE45
S315000057E0002800D05CE702AB002202929F807189FC
S315000057F0D980B18919819A7201AB1B8873816B4676
S3150000580006331B88B381A28CE38C9A420BD05300DB
S315000058109B189B00226A9446634402AA43CA43C368
S31500005820A38C0133A38434230122E254E8B237E780
S31500005830E1898A420DD0A3890C22A75EE2899342B0
S315000058409DD09B00A2681299D150A3890133A381F0
