S02200006D696E6965636F5F70617065726F67615F625F726F746F6E64692E7372656351
S3150000000088120020AD59000031570000A9590000A0
S31500000010A9590000A9590000A9590000A9590000D2
S31500000020000000000000000000000000A9590000C8
S31500000030A959000000000000A9590000F52600009B
S315000000402955000000000000555000000000000087
S31500000050094100007D40000095410000CD410000AF
S315000000602D45000000000000000000000000000018
S31500000070000000000000000000000000000000007A
S31500000080000000000000000000000000000000006A
S31500000090000000000000000000000000000000005A
S315000000A0000000000000000000000000000000004A
S31500000400FFFFFFFFDFDEFFFFFCFF0F00FFFF0F0018
S31500000410FCFF0F00FFFF0F00FCFF0F00FFFF0F00A8
S31500000420FCFF0F20FFFF0F20FCFF7F40FFFF7F40F8
S31500000430FCFF0D40FFFF0D40FFFFFFFF40F27C0079
S3150000044040F27C03C2F20000C2F2000310B5834200
S3150000045005D040F20003C0F2000303B1984710BD77
S3150000046040F27C0040F27C03C2F20000C2F20003BC
S315000004701B1A9A10D90F8918491010B529B140F2E4
S315000004800003C0F2000303B1984710BD10B540F257
S315000004909004C2F20004237873B9FFF7CFFF40F24D
S315000004A00003C0F200032BB147F63410C0F200007F
S315000004B000E000BF0123237010BDC04640F20003D8
S315000004C0C0F2000310B54BB140F2940147F6341068
S315000004D0C2F20001C0F2000000E000BFFFF7C0FF5B
S315000004E010BDC04630B50500100000220CE0030A1E
S315000004F0AC5C6340000280B246F63034C0F20004C1
S315000005005B001B5B584001328A42F0D330BD10B508
S31500000510EC30040002F00BF90100200005F043FE68
S3150000052010BD70B50400150005F024FE656102F0EB
S31500000530FEF80100200005F02EFE02F0F8F801009A
S31500000540200005F030FE70BDF0B5C64600B50400CB
S315000005500700B4370600D03640F2EC0880440500A8
S315000005600935FF3501F00CF8200000F026FC682361
S31500000570E35C73B902F0DBF80100300005F013FE0E
S3150000058002F0D5F80100280005F00DFE80BCB84643
S31500000590F0BD02F0CCF80100380005F004FE6C2333
S315000005A0E35A002BE6D05901C91A8900C918C900B7
S315000005B002224046FFF7B5FFDCE710B503003622FE
S315000005C0825C02B110BD0930FF305C329B5A590182
S315000005D0C91A8900C918C900523AFFF7A2FFF1E704
S315000005E070B504000600D03605000935FF3500F069
S315000005F032FE70B1200000F0D9FB200000F060FE52
S3150000060058B1200000F03EFE58B13623E35CD3B16A
S3150000061070BD200000F0D1FBEFE7200000F076FF70
S31500000620EFE77423E35A5901C91A8900C918C900AA
S3150000063006223000FFF775FF02F079F8010030005E
S3150000064005F0A5FDE1E702F072F80100280005F0CB
S315000006509EFDDDE710B5030008000C00B434022B44
S3150000066011D0032B13D0A3B94B8BABB93833CB5C6A
S31500000670ABB9FFF7B5FF02F05AF80100200005F00C
S3150000068086FD032004E001F0E2FA002000E00120EC
S3150000069010BD01204042FBE701204042F8E701205F
S315000006A04042F5E770B50C000D00D0350A2800D998
S315000006B081E08000494B1B589F4601207FE00800DF
S315000006C001F0C5FA00207AE04B8B002B00D177E0D1
S315000006D0080000F0F7FB002800D174E03623E35C45
S315000006E0022B00D171E0042069E07623CB5A5E012B
S315000006F0F61AB600F618F600080000F068FF98B182
S31500000700082231002800FFF70CFF02F010F8010064
S31500000710280005F03CFD200001F078FA30B12000F9
S3150000072001F095FA00204AE00722EAE740F22C128F
S31500000730A35A0133A352200000F022FF01204042B9
S315000007403DE0080000F0E2FE7423E35A5901C91A9D
S315000007508900C918C90006222800FFF7E2FE01F049
S31500000760E6FF0100280005F012FD0120404226E0C8
S31500000770080000F0E8FE7423E35A5901C91A8900FB
S31500000780C918C90006222800FFF7CBFE01F0CFFFEB
S315000007900100280005F0FBFC012040420FE0362353
S315000007A0CB5CA3B99C33CB58022B13D03023012248
S315000007B0CA54042003E00120404200E0042070BD3A
S315000007C001204042FBE70420F9E70020F7E701207B
S315000007D04042F4E701204042F1E7C046306D000098
S315000007E070B50C000D00B4350A2878D88000424B4D
S315000007F01B589F46080000F0ADFB50B16823E35C30
S3150000080083B101F094FF0100280005F0CCFC042020
S3150000081067E0200000F085FB010003222800FFF7B7
S3150000082080FEEBE701F083FF0100280005F0AFFC36
S31500000830042056E04B8B002B54D13833CB5C002B75
S3150000084053D10800FFF7B9FE200000F083FBC0B1CA
S315000008503623E35C022B23D07223E35A2BB34EF6E6
S315000008606021594303222800FFF75BFE01F05FFF7A
S315000008700100280005F08BFC200000F081FE02201C
S315000008802FE0200000F04DFB010003222800FFF7B7
S3150000089048FE01F04CFF0100280005F078FCD7E780
S315000008A02D33FF330122E254D6E72000FFF798FEEE
S315000008B0032016E0080001F0CAF9002011E04B8B76
S315000008C00BB104200DE0012040420AE09C23CB58E6
S315000008D0022B0DD030230122CA54042001E001204E
S315000008E0404270BD01204042FBE701204042F8E74C
S315000008F001204042F5E7C0465C6D000070B50C0073
S315000009000D00B4350A283DD88000214B1B589F4660
S31500000910042039E0080001F09AF9002034E001F0E3
S3150000092006FF40F23013E050200000F013FB50B1F8
S31500000930200000F078FC2000FFF73FFE2000FFF7C4
S315000009404FFE032020E0200000F0EBFA0100032216
S315000009502800FFF7E6FD01F0EAFE0100280005F099
S3150000096016FCE5E74B8B0BB104200DE0012040425D
S315000009700AE09C23CB58022B07D030230122CA540D
S31500000980042001E00120404270BD01204042FBE707
S31500000990886D0000F8B504000600B4360700D037AD
S315000009A005000935FF3500F0EBFD01F0C0FE010042
S315000009B0300005F09BFB0100200000F03FFD01F038
S315000009C0B6FE0100300005F0E6FB01F0B0FE0100C6
S315000009D0300005F0E8FB01F0AAFE0100380005F042
S315000009E0DAFB01F0A4FE0100380005F0DCFB01F0A3
S315000009F09EFE0100280005F0CEFB01F098FE0100E6
S31500000A00280005F0D0FB200000F0D7F940F22C13A7
S31500000A100022E252F8BD10B5FFF7BCFF10BD70B55D
S31500000A200C000D00B43530B1012849D1080001F0A1
S31500000A30CEF8042070BD4B8B002B44D13833CB5CF1
S31500000A40002B43D1080001F0C2F840F22E13002219
S31500000A50E254C43BE35A83B15901C91A8900C91843
S31500000A60C90003322800FFF75CFD01F060FE0100BB
S31500000A70280005F08CFB0220DCE701F058FE40F26E
S31500000A803013E0502000FFF798FD2000FFF7A8FD87
S31500000A90200000F05FFA20B1200000F0C4FB032024
S31500000AA0C8E7200000F03DFA010003222800FFF706
S31500000AB038FD01F03CFE0100280005F068FBEBE77D
S31500000AC001204042B6E701204042B3E70120404200
S31500000AD0B0E770B504000E0010002168626853008C
S31500000AE09B189B00CB5831009847051E01DA002061
S31500000AF070BD226861684B005B189B00D3189B6829
S31500000B000BB130009847656022686B005B199B004B
S31500000B10D3185B680BB1300098470120E8E710B5A1
S31500000B20027D08002530FF30FFF7D3FF10BD70B5FA
S31500000B30040046F6B453C0F2000340F22412835078
S31500000B4040F228130022C25040F61F35C0F20005BD
S31500000B50B43000232A00002105F0F8FA2600D0362A
S31500000B6000232A000021300005F0F0FA01213000B0
S31500000B7005F004FB2000EC3000232A00002105F0DC
S31500000B80E5FA20000930FF3000232A00002105F095
S31500000B90DDFA70BD10B5040001F0C9FD01002000AA
S31500000BA0B430220005F003FB01F0C1FD0100200076
S31500000BB0D030220005F0FBFA01F0B9FD010020005B
S31500000BC0EC30220005F0F3FA01F0B1FD010020003F
S31500000BD00930FF30220005F0EAFA002010BD70B59A
S31500000BE00D00B430040001F0A2FD0100200005F064
S31500000BF0DAFA6901491B89004919C900200005F084
S31500000C00B9FA237B33B101F092FD0100200005F013
S31500000C10C2FA70BD01F08BFD0100200005F0B7FAA5
S31500000C20F7E710B50400FFF7DAFF20002530FF30A4
S31500000C3001222100FFF74DFF10BD10B50100253040
S31500000C40FF300922FFF745FF10BD70B50D0040F2D9
S31500000C502813C358033B012B00D970BDB4300400E0
S31500000C6005F05BFA6901491B89004919C900091891
S31500000C70200005F07FFAF0E770B50C00012810D0CF
S31500000C80022810D1080000F0A1FB0500200000F0AA
S31500000C9088FB8023E35AC31A9D4207DB01204042AA
S31500000CA000E0002070BD01204042FBE70120F9E78B
S31500000CB070B50C00012812D0022812D1080000F0ED
S31500000CC085FB0500200000F06CFB7E23E35AC31869
S31500000CD09D4201DD022003E00120404200E00020A9
S31500000CE070BD01204042FBE770B50C0078B90800E2
S31500000CF000F06CFB0500200000F053FB7E23E35A56
S31500000D00C3189D4201DC012070BD0220FCE70120D2
S31500000D104042F9E710B5040001F009FD9423E050C4
S31500000D2010BD70B504009423C55801F000FD411BA9
S31500000D3003D4200000F0D0FB70BD291AF9E770B586
S31500000D4004000E0010002168626853009B189B0087
S31500000D50CB5831009847051E01DA002070BD226885
S31500000D6061684B005B189B00D3189B680BB1300081
S31500000D709847656022686B005B199B00D3185B6817
S31500000D800BB1300098470120E8E746F6F053C0F271
S31500000D900003982283509C230022C250704710B54E
S31500000DA0010098300222FFF7CAFF10BD10B50100FE
S31500000DB098300022FFF7C3FF10BD10B50100983030
S31500000DC00122FFF7BCFF10BD030040F24132904202
S31500000DD00CD940F2CB6290420BD89620584340F291
S31500000DE08B3390FBF3F0933800B270470A204042F1
S31500000DF0FBE78C20F9E74A23C05A493B8B40034066
S31500000E005842C00F012A00D07047013BD80FFBE7BC
S31500000E1010B5030040B13822825CAAB9A822805CD2
S31500000E20A0B10832985C11E046F61463C0F20003E4
S31500000E3047F25C12C0F2000246F62460C0F20000DF
S31500000E4040F2D52104F039FC3D22805C10BD10B57E
S31500000E500400A823C35C03B910BD01F068FCAC23F1
S31500000E60E050F9E710B5846A40F2D07C644401F0A2
S31500000E705EFC201A431E1843C00F10BD10B50400B7
S31500000E8088B140F23412002105F096FD4A2346222D
S31500000E90E2521033143AE2522000FFF776FF2000A8
S31500000EA0FFF745FE10BD46F61463C0F2000347F295
S31500000EB07422C0F2000246F62460C0F20000162139
S31500000EC004F0FBFB10B528B18A23C25C0121FFF7B1
S31500000ED092FF10BD46F61463C0F2000347F22422C7
S31500000EE0C0F2000246F62460C0F20000942104F02D
S31500000EF0E4FB10B501002530FF300022FFF7E9FDC5
S31500000F0010BD10B501002530FF300422FFF7E1FDCA
S31500000F1010BD10B501002530FF300222FFF7D9FDC4
S31500000F2010BD10B538B16E23C35A5801C01A8000DF
S31500000F30C018C00010BD46F61463C0F2000347F2A5
S31500000F40EC12C0F2000246F62460C0F20000BF2197
S31500000F5004F0B3FB10B540B16E23C05A0A4B9C4651
S31500000F60604443425841C0B210BD46F61463C0F215
S31500000F70000347F2D412C0F2000246F62460C0F223
S31500000F800000C52104F099FB0100FFFF10B540F2F7
S31500000F902813C358012B01D8002010BDB43004001B
S31500000FA001F0C5FB0100200005F0ACF840F2E83383
S31500000FB0B0FBF3F0F1E710B530B140F22813C0589A
S31500000FC0431E9841C0B210BD46F61463C0F200033A
S31500000FD047F2C012C0F2000246F62460C0F20000DA
S31500000FE0D52104F06AFBF0B5C64600B504000E0034
S31500000FF010001D0006AB00229B5E984607AB1F88BB
S31500001000002C2CD0E38F834239D0E087FFF7DCFE3B
S315000010104023E0523F3B4222A25AAA4207D0422333
S31500001020E5522800FFF7D0FE4423E052433B4A2214
S31500001030A25AB24225D14622A25E424503D0462399
S315000010404246E252453B4822A25ABA422DD0482394
S31500001050E7522000FFF7F1FD80BCB846F0BD46F62A
S315000010601463C0F2000347F22412C0F2000246F6EF
S315000010702460C0F2000040F23B1104F01EFB002386
S31500001080C9E72000FFF71EFF05004A23E6522000AD
S31500001090FFF718FF38B10DB10123CCE701F047FB8C
S315000010A0E0610123C7E70123C5E7002BD4D0D0E7D1
S315000010B0F8B506000F0070B14C780B781B021C4384
S315000010C0881C00222B21FFF70DFAA04200D0A7E0D2
S315000010D0022200241BE046F61463C0F2000347F226
S315000010E0F402C0F2000246F62460C0F2000040F2AC
S315000010F0851104F0E2FABB185D781B781B021D43CC
S31500001100230020335B00F3189D8102320134052C45
S31500001110F1D9B9184B78097809020B433380931C2F
S31500001120FB1859781B781B020B437380111D791825
S31500001130CB78887800020343487800040343097893
S3150000114009060B437360110008317918CB7888784B
S3150000115000020343487800040343097809060B4359
S31500001160B36011000C317918CB78887800020343FC
S31500001170487800040343097809060B43F36011001D
S3150000118010317918CB788878000203434878000438
S315000011900343097809060B433361110014317918AA
S315000011A0CB78887800020343487800040343097823
S315000011B009060B43736113001833FB1859781B7823
S315000011C01B02194313001A33FB1858781B781B02AD
S315000011D00343738613001C33FB1858781B781B02D5
S315000011E00343B38613001E33FB5C1F3214001BB986
S315000011F02D2C05D12000F8BD3000FFF712FDF7E7D2
S3150000120046F63C63C0F2000347F2F402C0F2000265
S3150000121046F62460C0F2000040F2A41104F04DFA34
S3150000122001204042E7E710B528B14C300C220021DE
S3150000123005F0C2FB10BD46F61463C0F2000347F288
S31500001240E002C0F2000246F62460C0F2000040F25E
S31500001250AA1104F032FA10B520B13623C05C43421D
S31500001260584110BD46F61463C0F2000347F2C802A7
S31500001270C0F2000246F62460C0F2000040F2B0114F
S3150000128004F01BFA10B538B16E23C35AA3B19023EC
S31500001290C35C9BB1002010E046F61463C0F2000365
S315000012A047F2B002C0F2000246F62460C0F2000027
S315000012B040F2BC1104F001FA002010BD0120FCE749
S315000012C010B520B16E23C05A4342584110BD46F6B0
S315000012D01463C0F2000347F29C02C0F2000246F615
S315000012E02460C0F2000040F2C21104F0E6F910B525
S315000012F0040048B1FFF72EFE18BB40F22813E3584E
S31500001300012B11D8002010BD46F61463C0F200036D
S3150000131047F28002C0F2000246F62460C0F20000E6
S3150000132040F2C81104F0C9F9B43401F000FA010022
S31500001330200004F0DBFE40F2E833B0FBF3F080B2AD
S31500001340E1E74FF6FF70DEE710B5040048B1FFF79E
S3150000135001FE18BB40F22813E358012B11D80020D8
S3150000136010BD46F61463C0F2000347F26402C0F2F1
S31500001370000246F62460C0F2000040F2DE1104F0DE
S315000013809CF9B43401F0D3F90100200004F0BAFE50
S3150000139040F2E833B0FBF3F080B2E1E74FF6FF70BE
S315000013A0DEE710B510B17A23C05A10BD46F61463B5
S315000013B0C0F2000347F25002C0F2000246F6246073
S315000013C0C0F2000040F2F41104F077F910B550B104
S315000013D06023C35A012B16D0022B17D0002B2BD11A
S315000013E04033C05E10BD46F61463C0F2000347F2F8
S315000013F03002C0F2000246F62460C0F2000040F25D
S31500001400FA1104F05AF94423C05EEBE74623C25EA4
S315000014100A2192FBF1F18B005B185B00D31A0120C5
S315000014201BB2042B00DC0020C0B20A2392FBF3F2AD
S3150000143092B2801800B2D5E70020D3E710B538B1D4
S31500001440836840F2E832B1FBF2F15B18836010BDAD
S3150000145046F61463C0F2000347F21802C0F2000217
S3150000146046F62460C0F2000040F2162104F025F989
S3150000147010B538B1C36840F2E832B1FBF2F15B183F
S31500001480C36010BD46F61463C0F2000346F6FC7254
S31500001490C0F2000246F62460C0F2000040F21C21B1
S315000014A004F00BF910B538B1036940F2E832B1FB2C
S315000014B0F2F15B18036110BD46F61463C0F2000337
S315000014C046F6DC72C0F2000246F62460C0F2000066
S315000014D040F2222104F0F1F810B538B1436940F228
S315000014E0E832B1FBF2F15B18436110BD46F61463B6
S315000014F0C0F2000346F6C072C0F2000246F624604F
S31500001500C0F2000040F2282104F0D7F810B504001C
S3150000151048B1FFF79CFCA8230122E254303BE25C71
S315000015203833E25410BD46F61463C0F2000346F6A3
S31500001530AC72C0F2000246F62460C0F2000040F22F
S31500001540572104F0BAF810B5040048B1FFF77FFC44
S31500001550A8230222E254303BE25C3833E25410BD49
S3150000156046F61463C0F2000346F69872C0F2000213
S3150000157046F62460C0F2000040F25F2104F09DF8B8
S3150000158070B5040038B1A823C35CA3B900212000BC
S31500001590FFF76EFF70BD46F61463C0F2000346F611
S315000015A08872C0F2000246F62460C0F2000040F2E3
S315000015B0672104F082F8AC23C55801F0B8F8411B46
S315000015C003D4A8230022E254E1E7291AF9E710B56B
S315000015D030B1A823C05C013843425841C0B210BDA7
S315000015E046F61463C0F2000346F66872C0F20002C3
S315000015F046F62460C0F2000040F2742104F05DF863
S3150000160010B548B140F22813C358032B16D0012B4E
S3150000161012D00020C0B210BD46F61463C0F200031B
S3150000162046F65072C0F2000246F62460C0F2000090
S3150000163040F2B32104F041F80120EBE70120E9E78D
S31500001640F0B5C64600B506000D0010B10224002212
S315000016501AE046F61463C0F2000347F20C12C0F219
S31500001660000246F62460C0F2000040F2671104F062
S3150000167024F82919130020335B00F3189B89180AF4
S3150000168008704B7002340132052AF2D93000FFF798
S315000016907DFC070083B298463000FFF7B1FF2B1997
S315000016A03288110A19705A70A31CEB187288110A35
S315000016B019705A70231DEB187268110E1970110CEF
S315000016C05970110A9970DA7023000833EB18B26862
S315000016D0110E1970110C5970110A9970DA702300E5
S315000016E00C33EB18F268110E1970110C5970110AAF
S315000016F09970DA7023001033EB183269110E1970E5
S31500001700110C5970110A9970DA7023001433EB1812
S315000017107269110E1970110C5970110A9970DA70EC
S3150000172023001833EB184246120A1A705F70230022
S315000017301A33EB18728E110A19705A7023001C3373
S31500001740EB18B28E110A19705A7023001E33E85432
S3150000175026001F36A81C21001D310022FEF7C2FEFE
S31500001760030A2B7068702D2E03D1300080BCB8465A
S31500001770F0BD46F63C63C0F2000347F20C12C0F21D
S31500001780000246F62460C0F2000040F27F1103F02A
S3150000179094FF70B50500FFF733FF040070B13623E0
S315000017A0EB5C012B25D9022B26D1A633EB5C013B42
S315000017B0012B01D900241DE001241BE02800FFF7BE
S315000017C081FB18B9C046C046C04613E0EA698823C3
S315000017D0E95A4B015B1A9B005B18DB00D51800F039
S315000017E0A6FF2D1A002DEDDDC046C046C0460124D9
S315000017F000E00124200070BD0024FBE710B50400C2
S3150000180030B16223C35C23BB037E83B9002010BDC5
S3150000181046F61463C0F2000347F20C22C0F200023F
S3150000182046F62460C0F200009A2103F046FFFFF757
S31500001830B0FF58B92000FFF745FB431E98413023FF
S31500001840E35C5A1E93419B011843E0E700F06FFFEB
S31500001850F0E70020DBE710B5040080B16223C35C2B
S31500001860E3B1002343832000FFF72CFB18B9638BF9
S315000018700122934363832000FFF7DFF910BD46F68C
S315000018801463C0F2000347F23C22C0F2000246F69F
S315000018902460C0F20000712103F00FFFFFF7AEFFD6
S315000018A0638B03436383DEE710B548B100234383AC
S315000018B000222F33C2540133C254FFF7CCFF10BDB0
S315000018C046F61463C0F2000347F25022C0F200024B
S315000018D046F62460C0F20000682103F0EEFE70B503
S315000018E0040040B1FFF7BEFA00285CD13823E05C63
S315000018F080B1658F58E046F61463C0F2000347F2E4
S31500001900AC12C0F2000246F62460C0F20000DB21F1
S3150000191003F0D3FE5823E35C012B26D0022B29D0FB
S315000019201BB9638BD3B10120C0B28E23E35C13B124
S3150000193043425841C0B208BB00252000FFF729FFEB
S3150000194010B104231D43ADB2A823E35C012B17D0CD
S31500001950022B18D102231D43ADB214E02000FFF77D
S315000019602AFB0028E0D00120DEE7608B431E984169
S31500001970C0B2DAE72000FFF71EFBD6E72025DCE73A
S3150000198001231D43ADB29C23E358012B07D02E2320
S31500001990E35C012B08D110231D43ADB204E00823FC
S315000019A01D43ADB2F3E70025280070BD10B528B180
S315000019B03823C35C93B13C23C05C10BD46F6146368
S315000019C0C0F2000347F27412C0F2000246F6246029
S315000019D0C0F2000040F2E12103F06FFEFFF7D9FEEE
S315000019E00028EAD06420E8E710B5040048B1FFF704
S315000019F039FAD0B99123E35C9BB12000FFF7D6FFFB
S31500001A0014E046F61463C0F2000347F28C12C0F2EB
S31500001A10000246F62460C0F2000040F2221103F0F4
S31500001A204CFE2000FFF7F4F900E0002010BD10B5D1
S31500001A30040048B1FFF716FAD0B99123E35C9BB1D5
S31500001A402000FFF7E5F914E046F61463C0F2000340
S31500001A5047F23C12C0F2000246F62460C0F20000D3
S31500001A6040F22E1103F029FE2000FFF79FFF00E051
S31500001A70002010BD70B50400002839D0FFF78FF99B
S31500001A802000FFF787F82000FFF7BAFD00283ED0B8
S31500001A902E23E35C012B5DD0022B00D175E053B9F8
S31500001AA08433E35A012B03D14933E35A1B0634D45A
S31500001AB000F03DFE60622000FFF76BFE05000200AD
S31500001AC0A023E35C13B1002800D16FE013B9002A0C
S31500001AD000D077E0A023E5542000FFF75AFE18B1A6
S31500001AE04A23E35A1B0702D500F021FE206270BD8F
S31500001AF046F61463C0F2000347F26422C0F2000205
S31500001B0046F62460C0F20000232103F0D6FD00F063
S31500001B100EFE60620023A385BAE7656A40F2D07CB8
S31500001B20654400F004FE2D1A002DC4DCA38D862228
S31500001B30A25A93420BD32F230122E2540023A385FA
S31500001B4000F0F5FD60622E230122E254B3E7013373
S31500001B50A385F5E74A23E35A1B060FD5656A40F6C7
S31500001B60B83C654400F0E3FD2D1A002DA3DC00F01F
S31500001B70DEFD60622E230222E2549CE72E23002221
S31500001B80E25400F0D4FD606295E7656A41F2883C54
S31500001B90654400F0CCFD2D1A002D00DD8BE700F02A
S31500001BA0C6FD60622E230022E25484E7A423E65891
S31500001BB000F0BDFD811B03D42000FFF773FC89E70D
S31500001BC0311AF9E700F0B3FDA423E05082E710B51F
S31500001BD0040020B18423C35A012B10D010BD46F651
S31500001BE01463C0F2000346F63C72C0F2000246F6E9
S31500001BF02460C0F2000040F2BA2103F05EFD00F05E
S31500001C0096FD60622E230122E254E7E710B548B143
S31500001C107023C35AB3B140F22C12825A934214D99C
S31500001C20002010E046F61463C0F2000346F6247264
S31500001C30C0F2000246F62460C0F2000040F2C32162
S31500001C4003F03BFD0020C0B210BD0120FBE770B5DC
S31500001C500400A8B140F22E13C35C0BB30388013312
S31500001C60038040F23013E55800F061FD431B1BD49E
S31500001C7040F2E832B3FBF2F3A268D318A36070BD5A
S31500001C8046F61463C0F2000346F61072C0F2000274
S31500001C9046F62460C0F2000040F2C92103F00DFDB3
S31500001CA0438801334380DCE72B1AE1E710B582B0A5
S31500001CB00400FFF7E3F800230093019301A96846A7
S31500001CC000F0AAFB10B1019B2D2B06D0200000F0DE
S31500001CD0D5F801F053FA02B010BD00992000FFF7C5
S31500001CE0E7F9F3E770B584B00500FFF7C3FE2800F7
S31500001CF001F073FA280000F0A4F800F04EFA68B973
S31500001D0040F2AC03C2F200031C68F534FF3400F065
S31500001D100EFD241A002C05DD04B070BD2800FFF767
S31500001D209AFDEDE700236A469381D3810E336B4417
S31500001D30190003A800F010FD00F08CFA0400022040
S31500001D4000F081F90600012000F07DF903006A46E3
S31500001D50D28901926A460C21525E0092320021001D
S31500001D602800FFF740F900240BE0E0B200F0EFF99D
S31500001D70230020335B00EB189A8912189A810134EC
S31500001D80A4B2052CF1D900F0F0F900F0D0FC40F235
S31500001D90AC03C2F200031860BEE710B58CB00400B5
S31500001DA000F0C5FC40F2E833B0FBF3F36068C018FE
S31500001DB060602D220021684604F0FEFD6946200081
S31500001DC0FFF73EFC2D21684600F00BFB0CB010BD62
S31500001DD010B5587E00F054F910BD10B540F2B002AF
S31500001DE0C2F20002928802B910BD1800FFF789F806
S31500001DF0FAE710B540F2B004C2F2000421780020E0
S31500001E0000F04FFB6178012000F04BFB10BD70B570
S31500001E100500002409E00121A14029404942C90FDB
S31500001E20200000F06DFB0134E4B2062CF3D970BD3E
S31500001E3010B540F2B003C2F200035888FFF7E7FF7F
S31500001E4010BD70B50500FFF7F2FD40F2B004C2F216
S31500001E50000420702800FFF7C7FD60702800FFF718
S31500001E603EFD60806B8BA38000F061FC010040F2B8
S31500001E70B800C2F2000004F0A8F870BDF0B5C6467E
S31500001E8000B582B0060046F2E573C0F2000346F6DE
S31500001E905D12C0F2000240F2B804C2F20004010072
S31500001EA0200004F010F841F6F358C0F2000840F2A2
S31500001EB0B005C2F20005002700974346012229001B
S31500001EC0200004F01BF8691C0097434601222000FD
S31500001ED004F014F841F63163C0F20003A91C009720
S31500001EE00222200004F00AF841F6DB53C0F2000398
S31500001EF0291D00970222200004F000F83100193154
S31500001F0041F6D153C0F2000300970122200003F0EE
S31500001F10F5FF3000FFF795FF6888FFF778FF02B0FE
S31500001F2080BCB846F0BD10B547F20061C0F20001B2
S31500001F3040F29060C2F2000003F0CAF9A0B947F27D
S31500001F40EC51C0F2000140F29060C2F2000003F0D2
S31500001F50B9FAC0B9002003F064FC40F29060C2F206
S31500001F60000003F0ADF810BD46F65863C0F200035A
S31500001F7047F28022C0F2000246F66C60C0F2000012
S31500001F80132103F09AFB46F65863C0F2000347F2AA
S31500001F908022C0F2000246F66C60C0F200001621F4
S31500001FA003F08BFB30B585B040F2F003C2F20003BC
S31500001FB01C68F534FF3400F0BAFB241A002C01DD4E
S31500001FC005B030BD47F29023C0F200031A88694677
S31500001FD00A809A788A7001AA043331CB31C2002470
S31500001FE013E06B461957A20001ABD25840F23013EA
S31500001FF0C2F200031B885B00D21840F29060C2F266
S31500002000000003F062F80134E4B2022CE9D940F290
S315000020103011C2F200010B8801330A2093FBF0F065
S315000020208200121852009B1A0B8040F29060C2F296
S31500002030000003F045F800F07AFB40F2F003C2F22C
S3150000204000031860BCE770B584B001AA47F290237C
S31500002050C0F20003043370CB70C20023002106E0F7
S31500002060820001AC12595C00A25A89180133092B6F
S31500002070F6D90A23B1FBF3F080B204B070BD704705
S3150000208070B5040040F23810C2F2000000220021B0
S3150000209004F007F947F28C53C0F200039A68D56939
S315000020A0186863425C41E2B20A21A84770BD10B5C8
S315000020B040F23810C2F200000022002104F0F1F8CC
S315000020C00020FFF7DDFF10BD70B584B040F2341379
S315000020D0C2F200031C68023400F029FB241A002C0B
S315000020E001DD04B070BD01AA47F2A023C0F20003CF
S315000020F031CB31C20024002600E00134052C16D86D
S3150000210000236A46D37047F28C53C0F200039A68E4
S3150000211095691868630001AA995A6B46DA1CA847A4
S315000021206B46DB78012BE8D1A3401E43E5E740F27E
S315000021303810C2F200000522310004F0C1F800F0A8
S31500002140F6FA40F23413C2F200031860C9E71F28FA
S3150000215008D840F23813C2F2000322308000C0587B
S3150000216080B2704701204042FAE700230AE040F2BD
S315000021703812C2F20002190022318900002088506C
S315000021800133DBB2052BF2D9704710B540F2482077
S31500002190C2F2000004F02DF810BD40F24423C2F252
S315000021A000031B780420984280414042704770B576
S315000021B086B040F24023C2F200031C68053400F0EA
S315000021C0B6FA241A002C01DD06B070BD02AA47F249
S315000021D0AC23C0F2000331CB31C21B68136000246C
S315000021E0002500E00134072C17D801236A46D37175
S315000021F047F28C53C0F200039A6896691868630028
S3150000220002AA995A6B46DA1DB0476B46DB79002B5A
S31500002210E8D10133A3401D43E4E740F24820C2F26F
S3150000222000000522290004F022F840F24423C2F2FD
S3150000223000031B78042B05D840F24422C2F20002A8
S315000022400133137000F073FA40F24023C2F2000328
S315000022501860B9E740F24823C2F2000318797047C4
S3150000226010B540F2D423C2F200031B7833B340F218
S31500002270D023C2F200031C68323400F058FA241A44
S31500002280002C00DD10BD47F28C53C0F200039A68A3
S31500002290D4691868002240F20041A04740F2D423D6
S315000022A0C2F200031A7851424A411A7000F03FFA0E
S315000022B040F2D023C2F200031860E3E740F2D023D5
S315000022C0C2F200031C6840F2D07C644400F02FFA8E
S315000022D0241A002CD6DC47F28C53C0F200039A680D
S315000022E0D4691868012240F20041A04740F2D42385
S315000022F0C2F200031A7851424A411A7000F017FAE6
S3150000230040F2D023C2F200031860BBE710B5C04606
S31500002310C046C04640F2DC23C2F200031A682AB166
S3150000232040F2D823C2F200031868904710BD10B5DA
S3150000233040F2D823C2F20003196040F2DC23C2F255
S315000023400003186047F28061C0F2000140F2D860D5
S31500002350C2F2000001F0C0FA40F2F413984210D025
S3150000236000282FD147F29851C0F2000140F2506484
S31500002370C2F20004200002F09EF8200002F0CFF81E
S3150000238010BD40F2D860C2F2000001F063FB50B904
S3150000239047F28061C0F2000140F2D860C2F200004C
S315000023A001F09AFADCE746F68063C0F2000347F2D2
S315000023B0D022C0F2000246F69460C0F20000582116
S315000023C003F07BF946F68063C0F2000347F2D022A1
S315000023D0C0F2000246F69460C0F200005B2103F0F2
S315000023E06CF910B502000B0040F2D860C2F2000092
S315000023F0002101F024FB00B910BD46F68063C0F24F
S31500002400000347F2BC22C0F2000246F69460C0F216
S315000024100000652103F051F910B502000B0040F2EF
S31500002420D860C2F20000002100F069FF08B901304F
S3150000243010BD0020FCE740F2D523C2F200030122C2
S315000024401A70704710B584B047F22461C0F20001DB
S3150000245040F2B460C2F2000002F07EFA90B940F297
S31500002460B464C2F20004200002F090F801A9200032
S3150000247002F060F9039A40F2E023C2F200031A6008
S3150000248004B010BD46F68063C0F2000347F2F422A2
S31500002490C0F2000246F6AC60C0F200000F2103F065
S315000024A00CF910B5642900D9642143425841C4B2DD
S315000024B040F2E023C2F2000318686422521AD317CE
S315000024C0002103F08DFF6422002303F069FF010061
S315000024D040F2B460C2F20000220002F0B3F800B984
S315000024E010BD46F68063C0F2000347F2E422C0F254
S315000024F0000246F6AC60C0F20000282103F0DDF8C9
S31500002500F0B585B00A00694647F20433C0F200030D
S315000025100C00E0CBE0C41B88238047F28C53C0F24A
S3150000252000039C68E4691D684000415A531E9A41A5
S31500002530D2B22800A04705B0F0BD10B547F2AC53A3
S31500002540C0F200039A68126818685968904710BD6F
S3150000255070B504000A0047F2AC53C0F20003996854
S315000025608D6818682100A84770BD10B540F2E833A1
S31500002570C2F200031B680C00994200D91C0040F20D
S31500002580E821C2F20001220004F022F9200010BD69
S3150000259040F2E833C2F2000300221A60704710B519
S315000025A004000379012B1DD0042B1ED140F2E83321
S315000025B0C2F200031B68FE2B17D800F0B8F840F2F1
S315000025C0E423C2F20003186040F2E833C2F20003CB
S315000025D01A68207A40F2E821C2F2000188540132DA
S315000025E01A6002E0C046C046C04610BD10B540F2B3
S315000025F0E423C2F200031C68241800F098F8201A9D
S31500002600431E1843C00F10BDF0B5CE46474680B5F1
S3150000261083B00700002440F200080CE0F3690122B1
S3150000262040F20B112800984701210A2003F04BF8CD
S3150000263040F2010CE0444346072B2DD847F28C5359
S31500002640C0F200039E68F26991461D68FA0940F2DD
S3150000265009112800C847F369002240F20B1128002F
S31500002660984701210A2003F02EF801236A46D37108
S31500002670B369073240F20A11280098476B46DB79A6
S31500002680013B5A4253411C434346072BC6D06400C4
S31500002690E4B27F00FFB2C1E747F28C53C0F20003F9
S315000026A09A68D5691868002240F20911A8472000E7
S315000026B003B0C0BCB946B046F0BD013880235B0408
S315000026C0984215D24EF21002CEF2000250604EF63B
S315000026D00051CEF200010B6A1B021B0AC020000645
S315000026E003430B6200239360073313600020704797
S315000026F00120FCE740F2EC33C2F200031A68013213
S315000027001A60704710B540F65013C2F200031868FD
S3150000271040F2E833B0FBF3F0FFF7CFFF4EF600527E
S31500002720CEF20002136A1B021B0A136210BD40F2AE
S31500002730EC33C2F20003186870470300411800200A
S3150000274007E01A78424047F21430C0F20000805C7D
S3150000275001338B42F5D37047F0B5C64600B582B05B
S315000027600600884647F28C53C0F200039D68EC6968
S315000027701F68002240F203313800A04701210A20D9
S3150000278002F0A1FF002409E00020FFF73DFF6B46A1
S31500002790185501210A2002F096FF0134042CF3DDBE
S315000027A0EB69012240F2033138009847042168465C
S315000027B0FFF7C3FF6B461B7998420BD16B465B78DC
S315000027C033806B46DB7842461380002002B080BC23
S315000027D0B846F0BDC046C046C04601204042F5E7B7
S315000027E030B542B1CC08035D07221140063A8A4053
S315000027F01343035530BDCC08055D07220A4001236B
S315000028009340DB435BB22B400355F3E7830723B9C1
S315000028100006800E20B9013000E00020C0B27047EB
S315000028200020FBE771B140F20013994206D840F24E
S31500002830F033C2F200034360002070470023436078
S315000028400220FAE7002343600020F6E700207047E5
S3150000285010B51400006A4B78022B2AD009D8ABB108
S31500002860012B04D10B78012B1AD001231370002001
S3150000287010BD032BFBD10B78012BF8D103764B88C7
S315000028801E2BF4D89B00BB4AD3589F460B78013BBE
S31500002890012B02D901231370E9E700231370E6E741
S315000028A04B881E2B02D800231370E0E70223137017
S315000028B0DDE70B78012B53D0022BD8D14A88162A94
S315000028C04BD89300AC49CB589F4600236380CEE794
S315000028D001236380CBE7FFF702F8C008012303401A
S315000028E06380C4E74A23C35A6380C0E7C38F63800B
S315000028F0BDE74023C35A6380B9E74223C35A6380C6
S31500002900B5E74423C35A6380B1E74623C35A6380BD
S31500002910ADE74823C35A6380A9E700236380A6E78F
S3150000292000236380A3E714325200821893896380E0
S315000029309DE740F22813C35A638098E7FEF746FDE9
S31500002940608094E7FEF7D3FC608090E7FEF7FCFC1E
S3150000295060808CE7438B638089E70023638086E78A
S315000029604B881C2B00D9AFE09B00844AD3589F4666
S315000029703823C35C63807AE7438F638077E73C2321
S31500002980C35C3D22825C1202134363806FE7437E81
S3150000299063806CE75823C35C638068E75A23C35A95
S315000029A0638064E75C23C35A638060E75E23C35A8F
S315000029B063805CE76023C35A638058E78423C35A65
S315000029C0638054E78623C35A638050E78823C35A3B
S315000029D063804CE76A23C35A638048E76C23C35A73
S315000029E0638044E76823C35C5A1E93416222825C7B
S315000029F0511E8A41520013438B22825C511E8A412A
S31500002A00920013438C22825C511E8A41D2001343EA
S31500002A108D22825C511E8A41120113438A22825CF6
S31500002A20511E8A41520113438E22825C511E8A41F5
S31500002A30920113439122825C511E8A41D2011343B3
S31500002A409022825C511E8A41120213438F22825CBD
S31500002A50511E8A4152021343638008E76E23C35A0C
S31500002A60638004E78223C35A638000E77223C35A54
S31500002A706380FCE67023C35A6380F8E67A23C35A60
S31500002A806380F4E67C23C35A6380F0E68023C35A4E
S31500002A906380ECE67E23C35A6380E8E6438E638058
S31500002AA0E5E6838E6380E2E67423C35A6380DEE63E
S31500002AB07623C35A6380DAE67823C35A6380D6E660
S31500002AC03623C35C6380D2E600235380CFE68B882F
S31500002AD0052B00D9CBE69B00294AD3589F46FEF723
S31500002AE008FAC4E6FEF70DFAC1E6FEF712FABEE6EC
S31500002AF0FEF7DAFEBBE6FEF796FBB8E68988FEF738
S31500002B00A4F8B4E68B885A1E934138228354AEE665
S31500002B108B884387ABE60A793C23C2548B881B0A11
S31500002B203D228354A3E68B885A1E934143769EE644
S31500002B300A795823C2549AE60423CA5E5A23C2521B
S31500002B4095E68A885C23C25291E68A885E23C25241
S31500002B508DE68A886023C25289E68A888423C25217
S31500002B6085E68A888623C25281E68A888823C252ED
S31500002B707DE6C0461474000090740000EC740000FA
S31500002B80607500008A886A23C25270E68A886C23C0
S31500002B90C2526CE68A8801231A40682402558A8844
S31500002BA052081A40063C02558A8892081A4029346F
S31500002BB002558A88D2081A40013402558A881209B9
S31500002BC01A40013402558A8852091A40033C0255BC
S31500002BD08A8892091A40043402558A88D2091A4012
S31500002BE0033402558A88120A1A40013C02558A8823
S31500002BF0520A13408F22835439E68A886E23C252C2
S31500002C0035E68A888223C25231E68A887223C25206
S31500002C102DE68A887023C25229E68A887A23C25210
S31500002C2025E68A887C23C25221E68A888023C252FE
S31500002C301DE68A887E23C25219E68B88438616E6ED
S31500002C408B88838613E68A887423C2520FE68A88A5
S31500002C507623C2520BE68A887823C25207E60A799F
S31500002C603623C25403E6C0460160002343608360F6
S31500002C7083818373C3730020704770B504000D0011
S31500002C8011B1837B5D18ADB22368290020009847F7
S31500002C90022800D025B900236360A360A38170BD1C
S31500002CA06368E27B9B18A360A581F8E710B50A006C
S31500002CB00021FFF7E2FF10BD30B5050000244FF6F6
S31500002CC0FF700CE04008013BDBB233B1C207F9D517
S31500002CD04008064A504080B2F5E70134A4B28C425F
S31500002CE003D22B5D58400823EFE730BD01A0FFFF5C
S31500002CF070B504AC20CC2478856004730160426012
S31500002D000022026210301900FFF7AEFF70BD70B5E9
S31500002D1004000E001500436803B19847226A20009C
S31500002D2010300221FFF7A9FF40B9A26980235B4258
S31500002D3033431370A3695D70002070BD0820FCE763
S31500002D40F0B5D6464F464646C0B584B005000F00DE
S31500002D50052B0CD103291CD012D8012949D00229F0
S31500002D6015D140F2010A40F2D071082015E0032285
S31500002D70FFF7CDFF04B0E0BCBA46B146A846F0BDA9
S31500002D80042904D140F2000A7D21022005E00C202E
S31500002D90F0E740F2000A7D210120947853781B0267
S31500002DA0234398461379D67836021E4333B29946A2
S31500002DB026B3B14222D380235B029B1B984523DCBA
S31500002DC001AB187000225A705A809A809F710024B5
S31500002DD0B4422AD24346E31801A94B802B6803AAC2
S31500002DE028009847B0B903AB1A78CAB90134A4B21F
S31500002DF0EEE78A4640F2D0710420CEE7032239007E
S31500002E002800FFF784FFB5E7022239002800FFF704
S31500002E107EFFAFE7042239002800FFF778FFA9E715
S31500002E2039002800FFF773FFA4E7534673B1F41D7A
S31500002E30E410E4B2A11C2A6A28001030FFF71DFF37
S31500002E4048B9AB691F70AB695C700DE04B46DCB2EC
S31500002E506400E4B2EEE708208CE7AB69821C9B189D
S31500002E6000221A700130C0B2A042F6D301AB022292
S31500002E705A7000240BE0A86903AB5A88531E9A4186
S31500002E80D2B202302100FFF7ABFC0134A4B2B44247
S31500002E9014D24346E31801A94B802B6803AA2800E5
S31500002EA098475346002BE6D1AB69620002329B1865
S31500002EB003AA5288110A19705A70E6E7002059E7EA
S31500002EC0F0B5DE4657464E464546E0B587B00700A4
S31500002ED088461500052B22D90F2924D040F2010976
S31500002EE07B21A8786E783602064332B29246009667
S31500002EF02879EC782402044322B20192687910B151
S31500002F00063B984214D0032241463800FFF7FFFEE5
S31500002F1007B0F0BCBB46B246A946A046F0BD0322A8
S31500002F20FFF7F5FEF4E740F2040940F2B071D8E786
S31500002F303CB1A14205D34B46042B08D0630098420E
S31500002F4008D0032241463800FFF7E1FEE0E7E31D23
S31500002F50DB10F4E780235B021B1B009A9A420FDC0E
S31500002F6003AB4A461A700121597000215980998095
S31500002F7042469A710026AB464D46009B994619E09B
S31500002F80022241463800FFF7C2FEC1E7F3085B4460
S31500002F909A79072333401A410123134003A98B80F2
S31500002FA03B6805AA38009847A0B905AB1A78BAB9A4
S31500002FB00136B6B2A64218D24B46F31803AA53807E
S31500002FC0042DE3D0730006335B445A781B781B024A
S31500002FD01343E3E7042241463800FFF798FE97E7DC
S31500002FE041463800FFF793FE92E7A9465D4603ABDC
S31500002FF00321597040F2000B5E46AB464D46009BDE
S3150000300099460FE0F3085B449A79072333401A4147
S315000030100123134003A98B803B6805AA3800984713
S315000030200136B6B2A6420DD24B46F31803AA538018
S31500003030042DE7D0730006335B445A781B781B02D5
S315000030401343E7E73A6A380010300521FFF715FE0B
S3150000305078B9BB6942461A70BB69009A160A5E7057
S3150000306052469A70BB69240ADC70019A1A710020D4
S315000030704EE708204CE7F8B50F0013000978002446
S3150000308001E00134A4B2057BA54209D98668E500B2
S315000030907219755D8D42F4D154683A00A04702E07A
S315000030A00122FFF734FEF8BDF0B5DE4657464E4620
S315000030B0C0B582B00700019114001D00002640F241
S315000030C00009043B9BB2FC2B1ED81678AB1E9B4610
S315000030D099B21000FFF7F0FD5B46E3185A46A25C72
S315000030E05B781B021343984210D1631C9A46033D3A
S315000030F0ABB2994600235BB99EB1019BB34210D097
S3150000310001202C23184306E00123F4E70823F2E705
S315000031109B000120184302B0E0BCBB46B246A9465C
S31500003120F0BD0323BB77023BFB774B46DAB2514631
S315000031303800FFF7A0FF0400FFF768FB48B1B98B22
S31500003140D1B146B178690B1F9BB2FC2B0AD904207A
S31500003150E1E72000DFE7396A38001030FFF7A6FD07
S315000031600020D8E7019B03700239441889B2FFF7A3
S31500003170A3FD2070000A60700020CCE710B582B075
S3150000318042F62503C0F2000342F64D02C0F20002E9
S3150000319042F65101C0F2000140F2F040C2F20000D6
S315000031A00324019440F20004C2F200040094FFF7E5
S315000031B09FFDFFF72BFB08B102B010BD46F6C063BA
S315000031C0C0F2000347F27852C0F2000246F6F06001
S315000031D0C0F20000642102F070FA30B5C1B00500FB
S315000031E0FF220021684603F0E7FBFF216846FFF750
S315000031F0BCF9040008B941B030BD0A20FFF7F6F962
S315000032000028F8D040F2F040C2F200000562E3B2B6
S315000032106A460121FFF748FFFFF7F8FA68B140F266
S31500003220F043C2F200035869998BFFF791F9FFF753
S31500003230AFF9FFF77CFAA862DDE7FFF7A9F9DAE74D
S3150000324010B582B0FFF75EFAFEF79FFFFFF7FAF8B8
S31500003250FEF769FEFFF771F9FEF729FF40F21454F5
S31500003260C2F2000441F69B50C0F200002100FFF7B5
S315000032705EF82000FEF71AFD03E0C046C046C046D1
S3150000328030BF40F21450C2F20000FEF72BFDFEF7ED
S31500003290E7FFFEF78CFFFEF785FEFEF715FF01231D
S315000032A06A46D37147F28C53C0F200039A68946958
S315000032B018686B46DA1D40F20621A0476B46DB799B
S315000032C0002BDDD1D9E710B538B94CF20003C4F2B2
S315000032D07E0390220121995410BD0228FCD147F2A9
S315000032E0C861C0F2000140F24860C2F2000001F07D
S315000032F0C4F8F1E710B5FFF7A3FF002010BD10B525
S31500003300846964694900095B39B1C4686018615A07
S31500003310196004301060002010BD2220FCE7F0B5D3
S3150000332083B0040040F27413C05898B16B46020093
S31500003330C0CAC0C3030024C924C340F27013E358B3
S31500003340984740F27413E35813B16A4611CA11C381
S3150000335003B0F0BD0800F0E741B1436813B143681C
S31500003360022B03D104234360033B836070470200B2
S315000033700AE040F254130020D0504B6940F2541139
S3150000338050584100CB5A4BB940F2541153580133AF
S315000033905350916908698342EFD9EAE7704710B53F
S315000033A003000A22826040F2201142580132425044
S315000033B040F26412825891684C68106819002131F5
S315000033C0FF31DA680823A04710BD436843B9836814
S315000033D0012B02D001230B7004E000230B7001E0E7
S315000033E043680B7000207047F0B583B006001D00DF
S315000033F0002383776533FF33C3589868C468186819
S315000034006B460733A047070048BB040044F23F223F
S31500003410C0F20F02944207D8B27F2AB901210120D7
S3150000342002F051F90134F1E740F23813F35C2B70E6
S3150000343044F24023C0F20F039C4213D040F23813EB
S31500003440F35C022B0BD040F23813F35C032B06D04F
S3150000345040F23813F25C0133F25440F2F4173800AC
S3150000346003B0F0BD1427FAE7F0B583B004000E00F0
S315000034706B460222DA71C3681D0008356732FF32D7
S3150000348082589B18436140F2000C2CE06B460733D0
S31500003490042229002000FFF7A7FF8446A0BB6B4645
S315000034A007331B78022B2BD040F26813E258A16930
S315000034B0CB680A335B00D21A2B889A421ED35B195B
S315000034C00733032293435F884BF6AD6297421ED1C2
S315000034D0E76848691A885200ED1B8552198840F240
S315000034E03C12A1501D1D6369AB4209D9002ECDD1F6
S315000034F040F24813E358AB42D6D101E040F2210C2A
S3150000350040F24813E5502561604603B0F0BD40F235
S31500003510210CF5E770B50500002383776533FF338B
S31500003520C358986884681868A0470600C8B904009C
S3150000353004E00121012002F0C6F8013444F23F23E1
S31500003540C0F20F039C4202D8AB7F002BF1D044F2AD
S315000035504023C0F20F039C420DD040F23813EB5CBF
S315000035600BB9300070BD40F23813EA5C0133EA54FF
S3150000357040F2F416F5E71426F3E710B50AB1212058
S3150000358010BD40F26813C258920AFFF7C3FFF7E76F
S3150000359070B505000020A8776530FF30285884688C
S315000035A064680068A047060000BB040044F23F239D
S315000035B0C0F20F039C4207D8AB7F2BB90121012033
S315000035C002F081F80134F1E744F24023C0F20F0320
S315000035D09C420DD040F23813EB5C012B06D040F232
S315000035E03813EA5C0133EA5440F2F416300070BD39
S315000035F01426FBE770B582B004000023C3600025E3
S31500003600002027E06733FF33E2586B46073331006B
S315000036102000FFF7E9FE002848D16B4607331B78E8
S31500003620032B15D1002231002000FFF7A6FF0FE083
S3150000363040F26813E258920A31002000FFF76AFF51
S3150000364006E0E66004E0002231002000FFF795FF67
S3150000365060BB0135A3695A68AA4227D91E6840F2A1
S315000036606813E3586B43F6186B460733082231009C
S315000036702000FFF7B9FEC8B96B4607331B78022B4B
S31500003680C0D0F2884BF6AD639A42DCD1E1680029DE
S31500003690D7D032680B689A42CAD940F26813E2580A
S315000036A0920A2000FFF736FFE660D1E7E3684BB9E0
S315000036B0A5692B68AA689B1840F26812A6589B1B3E
S315000036C0E36008B102B070BD40F220130022E25060
S315000036D00633074AE25221002131FF312A68AB68DE
S315000036E0D218921B08232000FFF752FFEAE7C046D4
S315000036F0ADBEFFFF70B50400836958691A690132CF
S315000037005200002103F058F90023A3773D33FF331D
S315000037104FF6FF72E2502000FFF76CFF21280FD012
S3150000372068B9002500232377637701212000FFF77E
S315000037309BFE212803D010B925B90123A36070BDD3
S315000037400125EFE72120FAE710B5040040F2441303
S31500003750C358C360836958691A690132520000214F
S3150000376003F02AF900212000FFF77EFE10BD70B598
S31500003770040040F24413C358826950694900405A14
S315000037801B1840F25C1023501B880B335A38FF3845
S3150000379083435E30FF3023502369E56852695B1B23
S315000037A0535222692358D218E36840F268116158CF
S315000037B05B189A4201D8002070BD2000FFF7C4FFB5
S315000037C003236360023BA360F6E7F0B5C64600B587
S315000037D004000E004368032B29D040F26013C5583D
S315000037E0FF2D01D940F2001540F21F08A04440F217
S315000037F05C17E1592A00404602F0EAFFA66040F253
S315000038006413E3589A685668186822692B00414683
S31500003810B04723695B192361E3595B19E35140F211
S315000038206012A3585B1BA35080BCB846F0BD0020B5
S31500003830FAE7F0B5C64600B582B004000E001100E6
S315000038400193022343603F33FF33C650022E0AD052
S315000038500021A06905698D4205D340694B00185ABD
S3150000386008B90131F5E7E26840F26813E058131829
S315000038709846A5692B68AF68DF19474500D04346CF
S3150000388040F24417E251E360C0186061286988423B
S315000038901AD3083323614FF6FF730B4040F25010E2
S315000038A0235004302350022E08D02000FFF75FFF7C
S315000038B068B906212000FFF788FF08E0089B019AF7
S315000038C0200000F08DF802E02000FFF768FD02B04E
S315000038D080BCB846F0BDFFFF70B582B004008161C0
S315000038E00B6A1D6840F26413C5508B684A68B3FBC7
S315000038F0F2F340F2681283500023403A83520232B8
S315000039008352023283500C3A835004328352334A34
S3150000391040F2261022520A30012676422652023002
S3150000392022520230235202302252886940F270122B
S31500003930A050C9690832A150043AA350AB681B686D
S31500003940286869689847050010B1280002B070BD64
S315000039500023A3602000FFF7CDFE0500212808D034
S315000039607DB340F26413E3589A6852691868904729
S31500003970EBE700230093002200212000FFF759FF08
S3150000398005000028EDD1060004E00121012001F028
S315000039909AFE013644F63F33C0F24C039E4202D8EB
S315000039A0A368012BF1D144F64033C0F24C039E428A
S315000039B005D06368042BD3D140F2F415D1E7142562
S315000039C0CFE7E3681A6840F22013E25000236360F1
S315000039D044F24553C5F256232360B6E7ADBEFFFF5A
S315000039E070B582B0040015000269D0180B300326AA
S315000039F0B0436669B0421AD840F23010215240F204
S31500003A0028116352E368D31A023163520223A3607A
S31500003A102B33FF33E5503833E35899684D681868FF
S31500003A2021002931FF310423A84702B070BD00935D
S31500003A302B000A0002212000FFF7FBFEF5E770B518
S31500003A400500FFF7CDFF040001002800FFF784FC06
S31500003A50200070BD30B583B005000023009300221E
S31500003A600021FFF7E6FE040001002800FFF774FCC2
S31500003A70200003B030BD10B50400FFF778FC01004C
S31500003A8040F25013E358834208D02000FFF76FFE40
S31500003A9058B906212000FFF798FE06E0226940F299
S31500003AA05813E2502000FFF77AFC10BDF0B5C64669
S31500003AB000B582B00278446840F23813E254A36835
S31500003AC0CBB140F23813E35C012B17D040F2381328
S31500003AD0E35C002B00D0DBE063600133A3600021D0
S31500003AE02000FFF739FCA368012B00D1EBE002B000
S31500003AF080BCB846F0BD0133A377F8E7A3680A2B6C
S31500003B0000D9DEE09B00794AD3589F4625690435E3
S31500003B10256140F22C13E6583100043BE25A1300AB
S31500003B200320A0600700174010420BD10322A260B9
S31500003B3040F26412A2589068466810682A00B0479E
S31500003B400100CDE7032A05D903239A431300042273
S31500003B50A260EDE723006D33FF330422002198466F
S31500003B60180002F029FF3A003100404602F030FE0C
S31500003B700323A36041460133DAE740F22813E75AEC
S31500003B80263BFF3B3E009E43A36025006D35FF3577
S31500003B9004220021280002F00FFF40F22C13E15806
S31500003BA0891903223A40280002F012FE226992196E
S31500003BB0226140F26413E35899684E68186804233A
S31500003BC02900B04701008BE740F22813E35A9A0711
S31500003BD012D02369043323610523A3606033FF33C6
S31500003BE0E3589A685568186821003131FF31226917
S31500003BF00423A847010073E72269D3182361EBE782
S31500003C0040F23013E35A40F23C12A35022690432C8
S31500003C102261A26952695B0040F22A11615AD152AF
S31500003C20616831B90123A36022694833FF33E2504A
S31500003C3056E72000FFF71FFF010051E740F260132F
S31500003C40E3582BB106212000FFF7BFFD010047E72F
S31500003C502000FFF710FF010042E7E36840F2681218
S31500003C60A2589B186361002323775933FF33E35827
S31500003C7023610B23A3605A33FF33E35899688D6899
S31500003C801868920A40F24413E158A847010027E752
S31500003C906368022B0BD0002140F23813E25C01333B
S31500003CA0E254363BFF3B6360033BA36018E7A3681F
S31500003CB00B2B01D10021EFE72000FFF745FD0100A6
S31500003CC0EAE700210CE77033FF33E358002B00D1FD
S31500003CD00DE769462000FFF778FB40F27813E358BA
S31500003CE0019369462000FFF71AFB00E73C780000C5
S31500003CF0416182610020704730B5046AA3787B2554
S31500003D002B40A37083789B079B0FD21A0261CB18B6
S31500003D10C360026A9378802464422343DBB29370C3
S31500003D20827803231340022B04D0036A0A78DA70E0
S31500003D30002030BD0988026A024B0B439BB2D38137
S31500003D40F6E7C04600FEFFFF4162C26283620020C2
S31500003D50704701235B424B600B600020704710B533
S31500003D6003008A070DD5006A82787B242240827080
S31500003D7000221A610020C90702D500229A6100209C
S31500003D8010BD0620F7E783690B60002383610020DE
S31500003D90704710B58B7843704A7892070378920F74
S31500003DA00324A34313430370CB788374C3795C2243
S31500003DB0934309780A401343C37110BD10B50B78BD
S31500003DC013B9036A224A9A828B781B01CA78D200F9
S31500003DD013434A78032A03D0002A2CD0F22202E0A9
S31500003DE03D321343B232046ADBB22370046AD2B2A4
S31500003DF0A271C9690B7B5B00026A022423405373DC
S31500003E004A78D201FF2313408C7864012022224095
S31500003E101343026A002414720A78023AD2B2012AC3
S31500003E200ED8026AFF3454700A78022A05D0026A54
S31500003E30DBB2D37110BDE222D5E70E321343F6E7AB
S31500003E40026ADBB2D3714968006AFFF7A2FFF1E7A5
S31500003E5000F8FFFF70B50400026A93787B251D40C9
S31500003E600B20034093700023E360206AFFF791FF65
S31500003E70236A9D70002070BDF0B5C64600B584B0BB
S31500003E8004009446806AD8B16B460600A4CEA4C34B
S31500003E901D0033682B60E3691B780360816063460D
S31500003EA00371E36AC360636A9847A26A22B16B46EC
S31500003EB031CB31C21B68136004B080BCB846F0BD7C
S31500003EC06846E8E710B5040000234360026A937071
S31500003ED0C3690520185601F0A4FCE3690B201856A7
S31500003EE001F09FFCE3690720185601F09AFCE3698C
S31500003EF00920185601F095FCEFF31080012383F397
S31500003F00108846F6FC73C4F204035A68E1690C781B
S31500003F1080210906E1400A435A605B6880F31088F5
S31500003F20002010BD70B506000D001400100001F051
S31500003F3078FC200001F01EFC32002900200001F070
S31500003F403AFC70BD70B505000C00897A0B22A256AA
S31500003F50FFF7E8FF21790522A2562800FFF7E2FFC6
S31500003F60A1790722A2562800FFF7DCFF217A092251
S31500003F70A2562800FFF7D6FF70BDF8B504000D0065
S31500003F800B7843F6000CC0F2002C63445B0103621D
S31500003F9000230370C1614A6942628A69C262836210
S31500003FA08378032293430122134383704B782BB902
S31500003FB0837803229343022213438370290020004F
S31500003FC0FFF7C0FFEFF31086012080F3108846F656
S31500003FD0FC73C4F204035A682F7880210906F9405D
S31500003FE08A435A605B6886F31088226A00239370BE
S31500003FF0226A1371226A5372226A9372226AD372F8
S31500004000226A53832A7840F20F23D340184202D003
S31500004010236A4022DA74236A06221A7729002000CE
S31500004020FFF7CCFE0023E36023616361A361ED69C2
S315000040302E78E3690520185601F0EBFBE3690B20A7
S31500004040185601F0E6FBE3690720185601F0E1FB7C
S31500004050E3690920185601F0DCFB03233340702284
S315000040601343DBB2226A93706B89238144F655139E
S31500004070C5F2433363600020F8BDFFFF10B5EFF3D0
S315000040800384E405E40D103C64B2200001F072FBE9
S3150000409040F6C403C2F20003A400E058C3691B69DA
S315000040A093B103697BB9026A93787F210B4004219F
S315000040B00B43DBB293700023C360436A1BB18022BB
S315000040C00021FFF7D9FE10BD0369002BE9D08278E5
S315000040D003231340022B0DD0C268036A1278DA70EC
S315000040E0026983789B079B0FD21A0261C268D318B4
S315000040F0C360D6E7C3681988026A024B0B439BB2BA
S31500004100D381EDE700FEFFFF10B582B0EFF3038425
S31500004110E405E40D103C64B2200001F02BFB40F6F0
S31500004120C403C2F20003A400E458A2780323134098
S31500004130022B0DD0236A5B790193A3697BB9636A6D
S3150000414023B1019904222000FFF796FE02B010BDAC
S31500004150236A1B8A40F2FF1213400193EDE7606960
S31500004160A2789207920F01A902F032FB6269A37846
S315000041709B079B0FD2186261A269D31AA361002B19
S31500004180E4D1636A002BE1D0012200212000FFF771
S3150000419073FEDBE710B5EFF30384E405E40D103C92
S315000041A064B240F6C403C2F20003A200D058026A09
S315000041B093787B210B409370436A1BB10222002146
S315000041C0FFF75AFE200001F0D5FA10BD70B5EFF3E7
S315000041D00384E405E40D103C64B240F6C403C2F265
S315000041E00003A200D058827803231340022B1AD072
S315000041F0036A5979C9B2036A1D7938222A40ED0645
S3150000420005D51D7FED0702D440252A43D2B21D797C
S315000042103826B5431D71436A0BB1FFF72DFE20000A
S3150000422001F0A8FA70BD036A198A40F2FF1319401B
S31500004230E1E7EFF31081012383F3108840F6C00312
S31500004240C2F200031B683BB940F60053C4F20403F4
S315000042500022DA704032DA7040F6C003C2F2000380
S315000042601A6801321A6081F310887047EFF31082E2
S31500004270012383F3108840F6C003C2F200031B68D3
S3150000428033B140F6C003C2F2000319680139196060
S3150000429040F6C003C2F200031B683BB940F6005368
S315000042A0C4F204030021D9708031D97082F31088DA
S315000042B07047002303600020704710B50B0AFF20EB
S315000042C0084040F60004C4F20404190109188900E4
S315000042D00B599B07DB0F1370002010BD090A49011B
S315000042E040F2000CC4F2040C61444B6813800020B9
S315000042F0704718001040D24312B21A40090A490109
S3150000430040F2000CC4F2040C6144120410438860AD
S3150000431000207047FF200840012383409BB26AB902
S315000043201A000023090A490140F2000CC4F2040CE9
S315000043306144120413438B60002070470022F1E7AA
S3150000434010B51000090A490140F2000CC4F2040C31
S3150000435061440A681C000440834322439A430A606E
S31500004360002010BD090A490140F2000CC4F2040CF9
S3150000437061444B681B0C1380002070470B0A5B01DD
S3150000438040F2000CC4F2040C63445868000CFF238E
S315000043901940FE3B8B4099B203408B4203D0002369
S315000043A013700020704701231370FAE718001040BD
S315000043B0D24312B21A40090A490140F2000CC4F273
S315000043C0040C614412041043C86000207047000AC0
S315000043D0400140F2000CC4F2040C604401238B40FF
S315000043E0C168012A04D099431B040B43C36070477C
S315000043F01A0491430B43F9E710B5FF2308009843CD
S315000044001940FFF7E4FF002010BDFFFF30B50300A1
S31500004410CA030FD5020AFF24044040F60000C4F286
S3150000442004001201121992001558084C2540155027
S315000044300C401450180AFF22134040F60002C4F242
S3150000444004020001C0188000815030BDFFFFFEFF4E
S3150000445070B50500FFF7EDFE002408E06B68E2008A
S315000044609B1898881968FFF7D1FF0134A4B22B88EE
S31500004470A342F3D8FFF7FAFE70BD10B545F25423F8
S31500004480C5F24F0303600800FFF7E2FF002010BDEE
S3150000449010B50800FFF7DCFF002010BD70B50C005A
S315000044A01500FFF7C6FE29002000FFF7AFFFFFF754
S315000044B0DDFE002070BD70B504000223CB560371EB
S315000044C046F20002C4F20002C0339B009D58002051
S315000044D098508B68A360CB68E3600E786671905540
S315000044E008790001C0B24B79DB01DBB20343C8781F
S315000044F0034393550423E356C0339B009D50042089
S315000045002056002806DA44F25533C0F249032360E8
S31500004510002070BD4978220001F04DF9F3E710B58F
S31500004520007940B201F075F9002010BD70B582B077
S31500004530EFF30384E405E40D103C64B240F6C403D3
S31500004540C2F20003A200D5586A7946F20003C4F20B
S3150000455000039B5C9B079B0F032B0BD10126AB68CB
S315000045602BB16A790192EA680092684698474EB97B
S3150000457002B070BD200001F0FDF80DB10026EEE797
S315000045800026F4E7200001F0F5F8F1E78368C26839
S315000045905A6000207047416001230374C3681B07FB
S315000045A001D0002303740B7C40F2807CC0F2400CE7
S315000045B063441B0283604B6943618B69C3610023BB
S315000045C083617047826880231B061361826853618A
S315000045D0826893618268002353628268936270479F
S315000045E0F0B58668B56E01354F424F410024A942A9
S315000045F064413C431CB3DB0713D4746BE406E40E3E
S3150000460043681B78032B10D910232340584243419B
S31500004610DBB201B913B18D420ED86BB102235360E0
S315000046200FE0746BE402E40EEAE70C232340043B3C
S3150000463058424341DBB2ECE70323536001E0013902
S315000046401160F0BDF0B5C64600B582B006008846DA
S3150000465014000327174001235B42009300230193B4
S3150000466013006A46FFF7BCFFB068056B019989B96C
S3150000467023072CD40223A2072BD5009A94461A00AE
S3150000468012329200821860465060B26813339B0063
S31500004690D3185860630605D5B268106C8023DB0317
S315000046A003431364012F03D0134B2B400D041D430A
S315000046B0022C17D027B1114B2B40019D2D061D430F
S315000046C0B3681D63002002B080BCB846F0BD042369
S315000046D0D1E7DB19009A944612339A008218634692
S315000046E05360D7E70029E5D001236A4641463000EA
S315000046F0FFF776FFDEE7C046FFFFFCFFFFFFFFFC8C
S3150000470010B58368DB6A5B015B0F5B00DBB24EF2C0
S315000047100002C4F20102116A072214000C40090EBD
S315000047200A4040F65011C2F2000108689040E0408D
S31500004730D84010BD10B50C0083685B6E01338B60EA
S31500004740FFF7DEFF606001232370002010BD8B01A0
S315000047500A01134340F2001213430278022A04D0DE
S31500004760032A05D031B1092000E00920184370471B
S315000047700320FBE70620F9E74368DB6930229A5CF1
S31500004780D20703D59A6A8168013ACA6430229A5CD4
S31500004790920703D5DB6A8268013B1365704710B543
S315000047A0002800DA10BD01F04DF8FBE7F0B5C6466B
S315000047B000B582B004000D00CE69EFF3108101232D
S315000047C083F3108846F6FC73C4F20403DB682A7C84
S315000047D0032A00D9A9E0212252421A4046F6FC7368
S315000047E0C4F20403DA60DB6881F31088A3684AF236
S315000047F000521A60A2680023D362A268D363A2683B
S3150000480093642B7A5B081B066F68013F2A78032A9C
S3150000481000D18DE0A268D3622000FFF7D3FEA36823
S31500004820B269DA61A368F2691A62A3689F66A3682F
S315000048305F66B36B984601235B42009300230193A6
S315000048402B781BB96B685B08013B00932B78012B17
S3150000485000D971E0A268009B5365A26893652A7827
S31500004860032A03D9A268D365A2681366019B1F04B5
S315000048701B061F43B36B93B9337833B171782800A5
S31500004880FFF765FF434603439846B3783BB1F1789B
S315000048902800FFF75CFF00044346034398462000C8
S315000048A0FFF76AFFA26800239363A16888228B50F2
S315000048B0B36B4BB92033F35C5B03424613432122AF
S315000048C0B25C52071A4390463023F35C002B3AD170
S315000048D0AA22D203A3681A642B78012B36D0A368C8
S315000048E042465A63A26803233B431363A36801222B
S315000048F017431F63A368E268DA6012202856697CB2
S315000049002200FFF74CFF2223F15C0233F05622000F
S31500004910FFF745FF2323F15C0233F0562200FFF731
S315000049203EFF02B080BCB846F0BD4122524254E779
S315000049308022520213436DE7E96800236A4620008D
S31500004940FFF74EFE86E7A022D203C3E7A268002344
S31500004950D364A2681365C2E770B504000D000A7C33
S3150000496001239340C360FFF716FE29002000FFF7DE
S315000049701DFF45F25403C0F247032360002070BDBB
S315000049804CF20003C4F27E0343F6B0729A5A8123B6
S315000049901A4203D100230B700020704701230B70CD
S315000049A0FAE7062070470620704706207047062063
S315000049B070470620704710B547F6D803C0F20003CB
S315000049C00A0011CB11C247F6C003C0F2000311CB97
S315000049D011C2002010BD06207047C26844F23F2C69
S315000049E0C0F20F0C624444F24023C0F20F03B2FB44
S315000049F0F3F3C36048F63F21C0F2F7118A4203D9A8
S31500004A00DA0701D50133C360836844F23F2CC0F254
S31500004A100F0C634444F24022C0F20F02B3FBF2F3E0
S31500004A20836040F283525A4340F2060CB2FBFCF21A
S31500004A30026140F276325A43B2FBFCF242615822DE
S31500004A405A43B2FBFCF2826146F6B822C0F2050276
S31500004A505A43B2FBFCF2C2615A01D21A9200D21832
S31500004A6091018A1A9201B2FBFCF202624EF668527A
S31500004A70C0F222025A43B2FBFCF242624CF200033D
S31500004A80C4F27E0343F6C07200219954704710B5F4
S31500004A9040F2000CCBF6F05C61440C0C4CF20003C7
S31500004AA0C4F27E0340F210129C5289B2083A99521F
S31500004AB00178283299501C3A8121995410BD30B59D
S31500004AC0091801394CF20003C4F27E0340F20414C3
S31500004AD000251D55050C0C341D5380B2083C185397
S31500004AE00C0C40F220101C5089B208381952D2B270
S31500004AF040F214115A5430BD41438B08032902D9A0
S31500004B00013B002BFCD1704710B504004EF20003A8
S31500004B10C4F201031B6A1B0E0721194040F650130D
S31500004B20C2F200031B681A008A40CA40C26040F6FF
S31500004B30FF01C0F23D018A4211D844F24021C0F281
S31500004B400F018A420BD048F28041C0F21E018A4210
S31500004B5005D04CF2C061C0F22D018A4223D14EF23B
S31500004B600002C4F20102116A090E07220A409340AC
S31500004B70D340A3602000FFF730FF4CF20003C4F2DD
S31500004B807E0390229B5C012B01D1002010BD4CF2CC
S31500004B900003C4F27E0301219954A1680620FFF7A1
S31500004BA0ABFF0020F2E740F2F610EFE74CF200030D
S31500004BB0C4F27E0340F28012A5219950803A98549F
S31500004BC0C143C9B2995498549B5CDBB2834200D06E
S31500004BD07047C046FCE7FFFF10B582B0040044F6FC
S31500004BE0003301930820FFF7E1FFA1681020FFF7CB
S31500004BF083FF4CF20003C4F27E0343F6B0720B4906
S31500004C00995202E0019B013B01934CF20003C4F26E
S31500004C107E0343F6B0729B5A9BB223B1019B002BD5
S31500004C20F0D1142000E0002002B010BD00AAFFFF62
S31500004C3010B582B0019002E0019B013B01934CF25A
S31500004C400003C4F27E0340F22C129B585B0605D487
S31500004C50019B002BF0D1142002B010BD4CF20003D2
S31500004C60C4F27E03183A995C7F24214099540021AE
S31500004C70995401904CF20003C4F27E0340F22C12C8
S31500004C809B585B0605D5019B2BB1019B013B01930C
S31500004C90F0E70020E0E71420DEE7FFFF10B5040090
S31500004CA04CF20003C4F27E0343F6B0720A499952ED
S31500004CB081680620FFF720FF1020FFF777FFA16825
S31500004CC00320FFF719FF63681A7802B910BD112097
S31500004CD0185600F09EFDF9E780AAFFFF70B50400A4
S31500004CE0FFF7DCFFE3681F2B13D9203B5B081F335C
S31500004CF03F2213404CF20002C4F27E0240F2D8106A
S31500004D0011583F25A9430B4313502000FFF764FFBA
S31500004D1070BD013B1F2213404CF20002C4F27E021A
S31500004D2040F2D81011583F25A9430B431350ECE726
S31500004D3010B5040041600B783BB934230022E254DD
S31500004D402000FFF7E1FE38B110BD11200856097C9E
S31500004D50220000F077FDF0E72000FFF7BFFF0028F4
S31500004D60F2D144F24E53C4F650732360ECE710B50B
S31500004D700400FFF7C9FE00B110BD2000FFF7AEFF2B
S31500004D80FAE710B5040034230022C2544CF20003A3
S31500004D90C4F27E0343F6B0729B5A9BB26BB14CF2DF
S31500004DA00003C4F27E0340F224120121995000212F
S31500004DB099502000FFF710FF10BDFFF76FFFEEE7D9
S31500004DC0F8B50500080017001E00FFF731FF0400C4
S31500004DD014280CD04CF20003C4F27E0340F2F01209
S31500004DE09B583C001C401F4205D12000F8BD2800FE
S31500004DF0FFF7C7FFF9E72800FFF7C3FF3400F4E722
S31500004E0010B50400416918231222FFF7D9FF48B9EB
S31500004E10A36A0133A362E16A0131E162206B0138C2
S31500004E20206300B910BD1800FFF731FE0820F9E72E
S31500004E3010B5FFF7A6FF002010BD70B504000D00E9
S31500004E40FFF7DEFF08B1082805D1236B53B90133FC
S31500004E502B70012007E02000FFF793FF07232B703C
S31500004E60012000E0002070BD70B504000D00016A4D
S31500004E7019231122FFF7A4FF18B900232B70012074
S31500004E8070BD2000FFF77DFF07232B70F7E770B595
S31500004E9004000D00816940F2F8131022FFF790FF1D
S31500004EA060B94CF20003C4F27E0340F228129B580C
S31500004EB01B0709D402232B70012070BD2000FFF7C9
S31500004EC060FF07232B70F7E703232B70F4E770B519
S31500004ED00500C2628162036343681B7813B1342301
S31500004EE00122C2542800FFF7D9FE4CF20003C4F297
S31500004EF07E0340F2041200219954E96AA86AFFF77A
S31500004F00C6FD6B681B7853B92800FFF779FF0400CC
S31500004F100828F9D020B92800FFF75EFE00E000243B
S31500004F20200070BD70B5342400250555FFF7CFFF6E
S31500004F3070BDF8B504000D0017001E00FFF7AEFEA9
S31500004F400023CBF6F053E818A062276331007943BB
S31500004F508422FFF7B4FD63681B7813B1002528008F
S31500004F60F8BD216A7943193311222000FFF728FF83
S31500004F7005000028F3D12000FFF72EFEEFE710B55D
S31500004F8034230024C454890A890243681B7813B168
S31500004F9034230234C45440F20043FFF7CAFF10BD65
S31500004FA0F8B504000D0016001F00FFF777FE00237A
S31500004FB0CBF6F053E81883223100FFF780FD6368D3
S31500004FC01B7823B102233B7000252800F8BDA16998
S31500004FD0714340F2F81310222000FFF7F1FE05009E
S31500004FE00028F2D14CF20003C4F27E0340F22812EC
S31500004FF09B581B0705D501233B702000FFF7ECFDEE
S31500005000E3E700233B70F8E770B504003420002581
S3150000501025546068007810B13420033525542000EB
S31500005020FFF7BEFF050008B1082801D1280070BDB2
S315000050302000FFF7A6FEF9E710B5002303604368DA
S31500005040112018560300213301D1002010BD00F0B5
S31500005050E8FBFAE710B582B0EFF30384E405E40D4C
S31500005060103C64B2200000F085FB40F6C403C2F297
S315000050700003A400E4583423E35C012B08D0022B80
S315000050800BD069462000FFF702FF58B902B010BDE9
S3150000509069462000FFF7D1FEF7E769462000FFF7D3
S315000050A0E3FEF2E72000FFF797FD63685A68002ADF
S315000050B0ECD0DB68019363685B6868469847E5E770
S315000050C00368828A1A8000207047036810314900FD
S315000050D0CB5A1380002070474EF20003C4F201033E
S315000050E01A6A072319001140120E134040F6501297
S315000050F0C2F2000212689A40CA4040F2E833B2FB9C
S31500005100F3F241F28833534344F24022C0F20F02D5
S31500005110B3FBF2F30133062B00D807230360704775
S3150000512030B583B005000C000023019301A8FFF7FA
S31500005130D3FF236862681343802189051A000A4059
S315000051400B4209D02868019AD2B2DE214254A268E5
S31500005150920012D440F200125B0012D52868019B1F
S31500005160DBB2DF21435440F200231343A168490018
S3150000517006D540F202231A4303E040F20112EBE7A0
S315000051801A002B6892B25A8203B030BD70B588B04F
S3150000519004000E00C569A5B120222900684601F069
S315000051A017FB20223100280001F012FBA36928001A
S315000051B09847E06918B12022694601F009FB08B05A
S315000051C070BD0D00F2E7F8B5DE4657464E46454639
S315000051D0E0B505004C698B785B0340F2402213432F
S315000051E0A078002858D1413AFF3A1A433F2855D0B3
S315000051F040F2002313436279920702D540F200423F
S3150000520013432279002A4BD0802213439BB2AB82F0
S31500005210A278120243F600771740E0783F22024058
S3150000522017430E79F60362785201164322789446A4
S31500005230EFF3108940F2010B8BF3108846F6FC72EF
S31500005240C4F20402D068804609888A461021504676
S31500005250091A5846884041468143D160D26889F38D
S315000052601088296847F6FF5213400B802A68BFB2A0
S3150000527017822A68B6B2D6812B6862461A7363799A
S315000052809A0713D42A6861798A23D154F0BCBB46A5
S31500005290B246A946A046F8BD0022A6E70023A9E724
S315000052A03F28B3D148F200021343AFE7296803222F
S315000052B01343DBB28A228B540121012000F003FA4A
S315000052C0E0E710B5002800DA10BD00F0BBFAFBE7F6
S315000052D0F8B504000D004E694160CB6883610B6927
S315000052E003620027C7610B885B024CF2000CC4F214
S315000052F0050C63440360FFF766FF06202856697AAB
S315000053002200FFF7DEFF07202856A97A2200FFF7C2
S31500005310D8FF07203056717A2200FFF7D2FF082007
S315000053203056B17A2200FFF7CCFF276144F243439F
S31500005330C5F24123A3600020F8BDFFFFF0B5DE46AD
S3150000534057464E464546E0B583B004000D000E684C
S315000053505A490E4043685B699B466A680A40AB68D7
S315000053600B400168B0B28880216890B288822168BB
S3150000537098B208812168300CC8802168120CCA8254
S3150000538022681B0C538129002000FFF7C9FEEB6839
S31500005390002B00D18EE01A89110552D52068902184
S315000053A04252206859898C469C216746475220689C
S315000053B099898C469E216746475219688A46206815
S315000053C0844688B280469420674641463952514603
S315000053D0080C216889463A498846084040F2960CEE
S315000053E049466746C8535146490F206881460320FF
S315000053F0014040F2920C4F46604639545968206885
S315000054008146019169468888824640F2980C484652
S3150000541067465146C1530199090C8C462168894655
S31500005420474661460F4040F29A08494640460F52A9
S315000054300199490F20688446032008409321674656
S315000054407854198989050FD5997CD87C276801433A
S31500005450A62039542068D9898C46A8216746475228
S315000054602168188AAA23C85221689023CA52226842
S31500005470298A103BD1525B461B797BB127683D8850
S315000054801F239D43C6B1300000F06CFFC0B22D1A39
S315000054901F35ABB23B80A28A1343A38244F2434337
S315000054A0C5F24123E36003B0F0BCBB46B246A94651
S315000054B0A046F0BD0022D7E72020E8E7FFFFFF9FC8
S315000054C0FF9FFFFF70B504000D00FFF737FF2B6845
S315000054D02361002070BD30B589B00400EFF303836B
S315000054E0DB05DB0D103B5BB240F6C402C2F20002E4
S315000054F09B009D58EFF30380C005C00D103840B2E5
S3150000550000F038F96B469C706B681B886A461380FE
S31500005510002313722B6A0193AB691BB169462800FD
S31500005520FFF734FE09B030BD10B50020FFF7D3FFFA
S3150000553010BD4EF20003C4F20103A0229B5CDBB255
S31500005540834223D04EF20003C4F201036A3A9B5C05
S315000055503BB94EF20003C4F201033C229B5CDB071D
S31500005560F7D54EF20003C4F20103A0229B5CDB06D2
S31500005570F7D44EF20003C4F2010398544EF200032E
S31500005580C4F20103A0229B5CDB06F7D470474EF2FF
S315000055900003C4F2010340F280420121995470478E
S315000055A04EF20003C4F201032622995C1A6A120E17
S315000055B00723134040F27C02C2F2000289008A5897
S315000055C0DA4040F65013C2F200031A60704710B575
S315000055D040F27C03C2F2000349F20002C0F2D0326C
S315000055E01A6041F20022C0F27A025A6048F20002C2
S315000055F09A6042F20042C0F2F402DA6000221A61B6
S31500005600FFF7CEFF10BD10B54EF20003C4F2010342
S3150000561040F20012C0F200121A62262200219954AA
S31500005620FFF7BEFF10BDFFFF70B54EF20004C4F2D7
S31500005630010440F2FE331A4AE2524CF20003C4F26D
S315000056407E03002543F6C8729D54FFF7C0FF40F263
S315000056501343E554A2230922E254FFF798FF0020E2
S31500005660FFF767FF3623E5544EF20003C4F2010349
S315000056703C229B5CDB07F7D5FFF7C5FF4EF2000324
S31500005680C4F2010340F2FE32064999524CF200037D
S31500005690C4F27E0343F6C8720121995470BDC04618
S315000056A003A5FFFF00A5FFFF44F20003C4F20403B5
S315000056B02822002199547047704700BEFEE7013842
S315000056C00028FCD1704770B541430D0040F65013D9
S315000056D0C2F200031C684CF60023C3F69A33B3FBF0
S315000056E0F4F440F2E83200230800002100F078FECE
S315000056F031B9B0FBF4F0800808B1FFF7E0FF70BDE8
S31500005700A000B5FBF0F040F2E8320023002100F0E3
S3150000571067FE0029F0D001204042EEE710B540F6C2
S315000057208C03C2F200038200D35803B1984710BD20
S3150000573070B546F20003C4F2000340F220129A5AF2
S3150000574040F240115D5A1540002401E00134E4B2F4
S315000057500C2C07D82B00E340DB07F7D52000FFF71A
S31500005760DDFFF3E746F20003C4F2000340F2301215
S315000057709D5270BD46F20003C4F20003C0308000A3
S31500005780C25802490A40C250C3587047FFFFFEFF85
S3150000579010B50400FFF7EEFFBFF35F8F1F22224014
S315000057A06409012393404EF20012CEF200026034E7
S315000057B0A400A35010BDF0B5C64600B590468308B8
S315000057C04EF20017CEF20007C0339B00DE590325C8
S315000057D00540ED00FF242200AA40964389010C40B3
S315000057E0AC402643DE5140F6C403C2F200038000FB
S315000057F042461A5080BCB846F0BD1F2202404009FE
S31500005800012393404EF20012CEF200028000835034
S31500005810704710B50400FFF7BBFF2000FFF7EDFF50
S3150000582010BD1F2202404009012393404EF2001290
S31500005830CEF20002203080008350BFF34F8FBFF3BB
S315000058406F8F704710B50400FFF7B5FF2000FFF714
