S02200006D696E6965636F5F70617065726F67615F625F726F746F6E64692E7372656351
S3150000000070110020595A0000DD570000555A0000B3
S31500000010555A0000555A0000555A0000555A00001E
S31500000020000000000000000000000000555A00001B
S31500000030555A000000000000555A00005B270000DA
S31500000040D555000000000000B3500000000000007D
S31500000050BD4100002D4100004942000081420000E0
S315000000602F46000000000000000000000000000015
S31500000070000000000000000000000000000000007A
S31500000080000000000000000000000000000000006A
S31500000090000000000000000000000000000000005A
S315000000A0000000000000000000000000000000004A
S31500000400FFFFFFFFDFDEFFFFFCFF0F00FFFF0F0018
S31500000410FCFF0F00FFFF0F00FCFF0F00FFFF0F00A8
S31500000420FCFF0F20FFFF0F20FCFF7F40FFFF7F40F8
S31500000430FCFF0D40FFFF0D40FFFFFFFF10B540F230
S31500000440A804C2F20004237863B940F20003C0F2A4
S3150000045000032BB147F68C20C0F2000000E000BF7D
S315000004600123237010BDC04640F20003C0F2000312
S3150000047010B54BB140F2AC0147F68C20C2F2000138
S31500000480C0F2000000E000BF10BDC04630B5050058
S31500000490100000240CE0030A2A5D5340000280B2DB
S315000004A046F60842C0F200025B009A5A50400134F8
S315000004B08C42F0D330BD10B5F030040002F080F964
S315000004C00100200005F0C1FE10BD70B50400150046
S315000004D005F0ABFE2900200005F0E4FE02F070F9FD
S315000004E00100200005F0A9FE02F06AF901002000D3
S315000004F005F0ABFE70BDF0B5C64600B504000700BA
S31500000500B8370600D43640F2F008804405000D35B1
S31500000510FF3501F038F8200000F0F8FB6C23E35CAF
S3150000052073B902F04DF90100300005F08EFE02F0BD
S3150000053047F90100280005F088FE80BCB846F0BDEA
S3150000054002F03EF90100380005F07FFE7023E25A02
S31500000550002AE6D053019B1A99008918C900022285
S315000005604046FFF7B2FFDCE710B503003A22825C93
S3150000057002B110BD0D30FF306032995A563AFFF77E
S31500000580A4FFF6E770B504000600D43605000D3565
S31500000590FF3500F043FE70B1200000F0B0FB2000F4
S315000005A000F071FE58B1200000F04FFE58B13A231A
S315000005B0E35CD3B170BD200000F0A8FBEFE720009C
S315000005C000F0A7FFEFE77823E25A53019B1A990040
S315000005D08918C90006223000FFF777FF02F0F0F80D
S315000005E00100300005F025FEE1E702F0E9F8010020
S315000005F0280005F01EFEDDE710B5030008000C001C
S31500000600B834022B11D0032B13D013B10120404272
S3150000061010BDCB8B7BB9FFF7B5FF02F0D1F8010017
S31500000620200005F006FE0320F2E701F05DFB002046
S31500000630EEE70120ECE701204042E9E770B50C0047
S315000006400D00D4350A2800D97EE08000464B1B58A1
S315000006509F4601207CE0080001F046FB002077E081
S31500000660CB8B002B00D174E0080000F01CFC0028A6
S3150000067000D171E03A23E35C022B00D16EE0042046
S3150000068066E07A23CA5A53019B1A9E00B618F600F2
S31500000690080000F09FFF98B1082231002800FFF7FC
S315000006A014FF02F08DF80100280005F0C2FD2000BD
S315000006B001F0F9FA30B1200001F016FB002047E006
S315000006C00722EAE740F23012A35A0133A352200070
S315000006D000F059FF012040423AE0080000F019FFFF
S315000006E07823E25A53019B1A99008918C9000622F9
S315000006F02800FFF7EAFE02F063F80100280005F083
S3150000070098FD0120404223E0080000F01FFF7823F7
S31500000710E25A53019B1A99008918C900062228003B
S31500000720FFF7D3FE02F04CF80100280005F081FD2A
S31500000730012040420CE0A023CB58022B10D03423DA
S315000007400122CA54042003E00120404200E00420B4
S3150000075070BD01204042FBE70420F9E70020F7E7DF
S3150000076001204042F4E7C046086E000070B50C0058
S315000007700D00B8350A2874D880003E4B1B589F469A
S31500000780080000F0D9FB50B16C23E35C83B102F0A2
S3150000079017F80100280005F058FD042063E020004A
S315000007A000F0B0FB010003222800FFF78EFEEBE706
S315000007B002F006F80100280005F03BFD042052E097
S315000007C0CB8B002B50D10800FFF7CEFE200000F0A7
S315000007D0B3FBC0B13A23E35C022B23D07623E15A64
S315000007E029B34EF66023594303222800FFF76DFE16
S315000007F001F0E6FF0100280005F01BFD200000F0D7
S31500000800C2FE02202FE0200000F07CFB0100032244
S315000008102800FFF75AFE01F0D3FF0100280005F07B
S3150000082008FDD7E73133FF330122E254D6E7200033
S31500000830FFF7A8FE032016E0080001F055FA002095
S3150000084011E0CB8B0BB104200DE0012040420AE001
S31500000850A023CB58022B0AD034230122CA540420E9
S3150000086001E00120404270BD01204042FBE701202B
S315000008704042F8E7346E000070B50C000D00B83544
S315000008800A283DD88000214B1B589F46042039E09A
S31500000890080001F029FA002034E001F091FF40F24F
S315000008A03413E050200000F047FB50B1200000F068
S315000008B09DFC2000FFF758FE2000FFF763FE032093
S315000008C020E0200000F01EFB010003222800FFF7B5
S315000008D0FCFD01F075FF0100280005F0AAFCE5E724
S315000008E0CB8B0BB104200DE0012040420AE0A0238F
S315000008F0CB58022B07D034230122CA54042001E02E
S315000009000120404270BD01204042FBE7606E0000BE
S31500000910F8B504000600B8360700D43705000D35D3
S31500000920FF3500F030FE01F04BFF0100300005F00E
S3150000093037FC0100200000F063FD01F041FF0100DB
S31500000940300005F07AFC01F03BFF0100300005F0B5
S315000009507CFC01F035FF0100380005F06EFC01F06B
S315000009602FFF0100380005F070FC01F029FF01009F
S31500000970280005F062FC01F023FF0100280005F0C5
S3150000098064FC200000F0C2F940F230130022E2526B
S31500000990F8BD10B5FFF7BCFF10BD70B50C000D001B
S315000009A0B83530B1012845D1080001F05DF90420C1
S315000009B042E0CB8B002B40D1080001F055F940F204
S315000009C032130022E254C43BE25A82B153019B1A0D
S315000009D099008918C90003222800FFF776FD01F067
S315000009E0EFFE0100280005F024FC022024E001F0BF
S315000009F0E7FE40F23413E0502000FFF7B5FD20007B
S31500000A00FFF7C0FD200000F097FA20B1200000F0AB
S31500000A10EDFB032010E0200000F074FA0100032231
S31500000A202800FFF752FD01F0CBFE0100280005F07B
S31500000A3000FCEBE70120404270BD01204042FBE78D
S31500000A4070B504000E001000626853009B189B00EE
S31500000A502268D3589847051E01DA002070BD6268E7
S31500000A6053009B189B002268944663449B680BB115
S31500000A70300098476560236868004519AD005D1928
S31500000A806B680BB1300098470120E7E710B5027D8F
S31500000A9008002930FF30FFF7D3FF10BD70B5040002
S31500000AA046F68C63C0F2000340F22812835040F2EF
S31500000AB02C130022C25040F68D25C0F20005B83036
S31500000AC000232A00002105F09CFB2000D4300023DF
S31500000AD02A00002105F095FB2000F03000232A00B3
S31500000AE0002105F08EFB20000D30FF3000232A0088
S31500000AF0002105F086FB70BD10B5040001F060FE14
S31500000B0001002000B830220005F0A3FB01F058FEDA
S31500000B1001002000D430220005F09BFB01F050FEBE
S31500000B2001002000F030220005F093FB002010BDEC
S31500000B3070B50D00B830040001F042FE010020003F
S31500000B4005F083FB6901491B89004919C90020008A
S31500000B5005F06BFB237B33B101F032FE0100200070
S31500000B6005F06BFB70BD01F02BFE0100200005F0C7
S31500000B7060FBF7E710B50400FFF7DAFF2000293025
S31500000B80FF3001222100FFF75BFF10BD10B5010009
S31500000B902930FF300922FFF753FF10BD70B50D0055
S31500000BA040F22C13C358033B012B00D970BDB8305B
S31500000BB0040005F00CFB6B015B1B99004919C90089
S31500000BC00918200005F031FBF0E770B50C0001288C
S31500000BD010D0022810D1080000F0DBFB0500200031
S31500000BE000F0C2FB8423E35AC31A9D4207DB0120AF
S31500000BF0404203E0002001E00120404270BD012098
S31500000C00FCE770B50C00012812D0022812D10800AA
S31500000C1000F0BFFB0500200000F0A6FB8223E35A8C
S31500000C20C018854201DD022006E00120404203E0B3
S31500000C30002001E00120404270BD70B50C0078B97B
S31500000C40080000F0A6FB0500200000F08DFB8223C3
S31500000C50E35AC018854201DC012070BD0220FCE782
S31500000C6001204042F9E710B5040001F0A9FD9823E0
S31500000C70E05010BD70B504009823C55801F0A0FDE2
S31500000C80411B03D4200000F00CFC70BD291AF9E7C3
S31500000C9070B504000E001000626853009B189B009C
S31500000CA02268D3589847051E01DA002070BD626895
S31500000CB053009B189B002268944663449B680BB1C3
S31500000CC0300098476560236868004519AD005D19D6
S31500000CD06B680BB1300098470120E7E746F6C8631A
S31500000CE0C0F200039C228350A0230022C25070470A
S31500000CF010B501009C300222FFF7CAFF10BD10B5E7
S31500000D0001009C300022FFF7C3FF10BD10B50100A3
S31500000D109C300122FFF7BCFF10BD030040F24132B8
S31500000D2090420CD940F2CB6290420BD896205843A1
S31500000D3040F28B3390FBF3F0933800B270470A20F1
S31500000D404042FBE78C20F9E74E23C35A0120884036
S31500000D501840C0B2012A03D0431E9841C0B2704762
S31500000D6043425841C0B2FAE710B5030040B13C22F5
S31500000D70825CAAB9AC22805CA0B10832985C11E012
S31500000D8046F6EC63C0F2000347F25812C0F20002C6
S31500000D9046F6FC60C0F2000040F2F12104F0E3FCEC
S31500000DA04122805C10BD10B50400AC23C35C03B9BE
S31500000DB010BD01F005FDB023E050F9E710B5C46A97
S31500000DC040F2D07C644401F0FBFC201A431E184319
S31500000DD0C00F10BD10B5040088B140F238120021D2
S31500000DE005F097FD4E234622E2521033143AE252A2
S31500000DF02000FFF773FF2000FFF750FE10BD46F6F8
S31500000E00EC63C0F2000347F2D022C0F2000246F6BD
S31500000E10FC60C0F200001B2104F0A5FC10B528B14F
S31500000E209023C25C0421FFF78FFF10BD46F6EC63EA
S31500000E30C0F2000347F27822C0F2000246F6FC60D8
S31500000E40C0F200008C2104F08EFC10B528B18F236F
S31500000E50C25C0221FFF778FF10BD46F6EC63C0F2D4
S31500000E60000347F25822C0F2000246F6FC60C0F2C8
S31500000E700000922104F077FC10B528B19123C25CE2
S31500000E800621FFF761FF10BD46F6EC63C0F20003D2
S31500000E9047F23822C0F2000246F6FC60C0F20000BB
S31500000EA0982104F060FC10B528B18E23C25C0121A4
S31500000EB0FFF74AFF10BD46F6EC63C0F2000347F2A7
S31500000EC02022C0F2000246F6FC60C0F200009E211D
S31500000ED004F049FC10B501002930FF300022FFF76D
S31500000EE0AFFD10BD10B501002930FF300422FFF719
S31500000EF0A7FD10BD10B501002930FF300222FFF713
S31500000F009FFD10BD10B538B17223C25A53019B1A0A
S31500000F1098008018C00010BD46F6EC63C0F20003CE
S31500000F2047F2E812C0F2000246F6FC60C0F200008A
S31500000F30C92104F018FCFFFF10B540B17223C05A56
S31500000F400A4B9C46604443425841C0B210BD46F627
S31500000F50EC63C0F2000347F2D012C0F2000246F67C
S31500000F60FC60C0F20000CF2104F0FDFB0100FFFF92
S31500000F7010B540F22C13C358012B01D8002010BD28
S31500000F80B830040001F01CFC0100200005F014F943
S31500000F9040F2E833B0FBF3F0F1E710B530B140F2C0
S31500000FA02C13C058431E9841C0B210BD46F6EC63E0
S31500000FB0C0F2000347F2BC12C0F2000246F6FC6023
S31500000FC0C0F20000DF2104F0CEFBF0B5C64600B546
S31500000FD004000E0010001D0006AB00229B5E984622
S31500000FE007AB1F88002C31D04223E35A83423DD001
S31500000FF04223E052FFF791FE4423E052433B462250
S31500001000A25AAA4207D04623E5522800FFF785FEDA
S315000010104823E052473B4E22A25AB24202D04E2308
S31500001020E6524D3B4A22A25E424503D04A2342463F
S31500001030E252493B4C22A25ABA4219D04C23E752FB
S315000010402000FFF7A3FD80BCB846F0BD46F6EC6372
S31500001050C0F2000347F22012C0F2000246F6FC601E
S31500001060C0F2000040F2451104F07DFB0023C6E704
S31500001070002BE8D0E4E7F8B506000F0070B14C7815
S315000010800B781B021C43881C00222B21FFF7FEF95C
S31500001090A04200D0A7E0022200241BE046F6EC6343
S315000010A0C0F2000347F2F002C0F2000246F6FC600E
S315000010B0C0F2000040F2881104F055FBBB185D78C1
S315000010C01B781B021D43230020335B00F3181D828F
S315000010D002320134052CF1D9B9184B780978090286
S315000010E00B433380931CFB1859781B781B020B4368
S315000010F07380111D7918CB788878000203434878ED
S3150000110000040343097809060B4373601100083194
S315000011107918CB78887800020343487800040343A3
S31500001120097809060B43B36011000C317918CB78A6
S3150000113088780002034348780004034309780906C7
S315000011400B43F360110010317918CB7888780002D0
S315000011500343487800040343097809060B433361C7
S31500001160110014317918CB78887800020343487847
S3150000117000040343097809060B437361130018330F
S31500001180FB18587819780902014313001A33FB1823
S3150000119058781B781B020343F38613001C33FB1895
S315000011A058781B781B020343338713001E33FB5CFE
S315000011B01F3214001BB92D2C05D12000F8BD3000BC
S315000011C0FFF7D8FCF7E746F61473C0F2000347F2C0
S315000011D0F002C0F2000246F6FC60C0F2000040F2E7
S315000011E0A71104F0C0FA01204042E7E710B528B184
S315000011F050300C22002105F08CFB10BD46F6EC6346
S31500001200C0F2000347F2DC02C0F2000246F6FC60C0
S31500001210C0F2000040F2AD1104F0A5FA10B520B1FD
S315000012203A23C05C4342584110BD46F6EC63C0F217
S31500001230000347F2AC02C0F2000246F6FC60C0F2C0
S31500001240000040F2C51104F08EFA10B538B17223D1
S31500001250C35AA3B19423C35C9BB1002010E046F6A9
S31500001260EC63C0F2000347F29402C0F2000246F6B5
S31500001270FC60C0F2000040F2D11104F074FA0020C4
S3150000128010BD0120FCE710B520B17223C05A4342BD
S31500001290584110BD46F6EC63C0F2000347F28002E7
S315000012A0C0F2000246F6FC60C0F2000040F2D71120
S315000012B004F059FA10B5040048B1FFF73DFE18BB1B
S315000012C040F22C13E358012B11D8002010BD46F62E
S315000012D0EC63C0F2000347F26402C0F2000246F675
S315000012E0FC60C0F2000040F2DD1104F03CFAB834B4
S315000012F001F066FA0100200004F052FF40F2E833E4
S31500001300B0FBF3F080B2E1E74FF6FF70DEE710B511
S31500001310040048B1FFF710FE18BB40F22C13E35847
S31500001320012B11D8002010BD46F6EC63C0F2000375
S3150000133047F24802C0F2000246F6FC60C0F2000026
S3150000134040F2F31104F00FFAB83401F039FA010053
S31500001350200004F031FF40F2E833B0FBF3F080B236
S31500001360E1E74FF6FF70DEE710B510B17E23C05AF5
S3150000137010BD46F6EC63C0F2000347F23402C0F239
S31500001380000246F6FC60C0F2000040F2092104F0BB
S31500001390EAF910B540B16423C35A012B17D0022BCA
S315000013A018D08BB1002010BD46F6EC63C0F20003E6
S315000013B047F20002C0F2000246F6FC60C0F20000EE
S315000013C040F20F2104F0CFF94433C05EEBE7482327
S315000013D0C05EE8E74A23C35E0A2293FBF2F18A0065
S315000013E0521852009A1A012012B2042A00DC002078
S315000013F0C2B20A2093FBF0F080B2801800B2D2E7A6
S3150000140010B540B140F2E833B1FBF3F183689C4676
S315000014106144816010BD46F6EC63C0F2000346F6F7
S31500001420E872C0F2000246F6FC60C0F2000040F22C
S315000014302B2104F098F910B540B140F2E833B1FB26
S31500001440F3F1C3689C466144C16010BD46F6EC6387
S31500001450C0F2000346F6CC72C0F2000246F6FC600B
S31500001460C0F2000040F2312104F07DF910B540B120
S3150000147040F2E833B1FBF3F103699C466144016134
S3150000148010BD46F6EC63C0F2000346F6AC72C0F23D
S31500001490000246F6FC60C0F2000040F2372104F07C
S315000014A062F910B540B140F2E833B1FBF3F143699C
S315000014B09C466144416110BD46F6EC63C0F20003F0
S315000014C046F69072C0F2000246F6FC60C0F20000DA
S315000014D040F23D2104F047F910B5040048B1FFF78A
S315000014E058FF5E23E25E0123904200DC00231800D1
S315000014F010BD46F6EC63C0F2000346F67072C0F209
S31500001500000246F6FC60C0F2000040F2432104F0FF
S315000015102AF910B5040048B1FFF745FCAC230122B7
S31500001520E254303BE25C3833E25410BD46F6EC63DD
S31500001530C0F2000346F65C72C0F2000246F6FC609A
S31500001540C0F2000040F26C2104F00DF910B5040061
S3150000155048B1FFF728FCAC230222E254303BE25CA0
S315000015603833E25410BD46F6EC63C0F2000347F28E
S315000015700C32C0F2000246F6FC60C0F2000040F2F7
S31500001580742104F0F0F870B5040038B1AC23C35CE4
S31500001590A3B900212000FFF74EFF70BD46F6EC63AD
S315000015A0C0F2000347F2FC22C0F2000246F6FC60DD
S315000015B0C0F2000040F27C2104F0D5F8B023C558F3
S315000015C001F0FEF8411B03D4AC230022E254E1E70C
S315000015D0291AF9E710B530B1AC23C05C0138434293
S315000015E05841C0B210BD46F6EC63C0F2000347F2A4
S315000015F0DC22C0F2000246F6FC60C0F2000040F2B7
S31500001600892104F0B0F810B548B140F22C13C35844
S31500001610032B16D0012B12D00020C0B210BD46F607
S31500001620EC63C0F2000347F2C402C0F2000246F6C1
S31500001630FC60C0F2000040F2CF2104F094F80120D3
S31500001640EBE70120E9E7F0B5C64600B506000D0058
S3150000165010B1022400221AE046F6EC63C0F2000341
S3150000166047F20812C0F2000246F6FC60C0F2000023
S3150000167040F26A1104F077F82919130020335B0051
S31500001680F3181B8A180A08704B7002340132052AB7
S31500001690F2D93000FFF76CFC070083B298463000A1
S315000016A0FFF7B1FF2B193288110A19705A70A31C63
S315000016B0EB187288110A19705A70231DEB1872689C
S315000016C0110E1970110C5970110A9970DA702300F5
S315000016D00833EB18B268110E1970110C5970110A03
S315000016E09970DA7023000C33EB18F268110E19703A
S315000016F0110C5970110A9970DA7023001033EB1827
S315000017003269110E1970110C5970110A9970DA703C
S3150000171023001433EB187269110E1970110C5970ED
S31500001720110A9970DA7023001833EB184246120A30
S315000017301A705F7023001A33EB18F28E110A1970B3
S315000017405A7023001C33EB18328F110A19705A7025
S3150000175023001E33E85426001F36A81C21001D3125
S315000017600022FEF793FE030A2B7068702D2E03D11C
S31500001770300080BCB846F0BD46F61473C0F20003D4
S3150000178047F20812C0F2000246F6FC60C0F2000002
S3150000179040F2821103F0E7FF70B50500FFF733FF53
S315000017A0040070B13A23EB5C012B1ED9022B1FD12A
S315000017B0AA33EB5C013B012B01D9002416E001247E
S315000017C014E02800FFF76FFB80B1296A8C23E85AE2
S315000017D04201121A93001B18DD004D1900F0F0FFAC
S315000017E0281A002802DD012400E00124200070BD33
S315000017F00024FBE770B5040038B16623C35C002BF8
S3150000180065D1037F83B9002070BD46F6EC63C0F254
S31500001810000347F20822C0F2000246F6FC60C0F25E
S315000018200000A42103F09FFFFFF7B6FF70BB002660
S31500001830F6B22000FFF737FB431E98410500200053
S31500001840FFF703FBA8B3022005432000FFF714FBB4
S3150000185088B30420054386B3082005433323E35C9D
S315000018606BB3102005432000FFF736FE002828DD65
S31500001870202005433423E35C2BB34020054320009E
S31500001880FFF7CCFA08B380202843BDE76223E15A6C
S315000018904A01521A93005B18DD00636A9C46654450
S315000018A000F08EFF281A002801DD0026C0E7012679
S315000018B0BEE70020C8E70020CCE70020CDE70020E7
S315000018C0D0E70020D5E70020D8E70020DCE700209D
S315000018D09AE770B50400A8B1FFF7E5FA050066239C
S315000018E0E35CF3B10023E3832000FFF7DCFA18B9C9
S315000018F0E38B01229343E3832000FFF7D4FA00B180
S31500001900B5B170BD46F6EC63C0F2000347F298220B
S31500001910C0F2000246F6FC60C0F20000762103F039
S3150000192022FF2000FFF766FFE38B1843E083DBE727
S3150000193000F046FF2062E4E710B548B10023C383F8
S3150000194000223333C2540133C254FFF7C2FF10BD25
S3150000195046F6EC63C0F2000347F2AC22C0F2000286
S3150000196046F6FC60C0F200006D2103F0FCFE70B587
S31500001970040040B1FFF722FA00285ED13C23E05C68
S3150000198080B1E58F5AE046F6EC63C0F2000347F2F9
S31500001990A812C0F2000246F6FC60C0F20000E52183
S315000019A003F0E1FE5C23E35C012B2FD0022B32D047
S315000019B003B39223E35C13B143425841C0B270BBF8
S315000019C000252000FFF7E8FE10B104231D43ADB249
S315000019D0AC23E35C012B24D0022B26D0A023E358B2
S315000019E0012B26D03223E35C012B27D110231D4384
S315000019F0ADB223E0E38B13B10120C0B2D9E72000DA
S31500001A00FFF7CBFA0028F8D00120F6E7E08B431E5B
S31500001A109841C0B2CDE72000FFF7BFFAC9E72025FD
S31500001A20CFE701231D43ADB2D8E702231D43ADB274
S31500001A30D4E708231D43ADB2D4E70025280070BDC6
S31500001A4010B528B13C23C35C93B14023C05C10BDE4
S31500001A5046F6EC63C0F2000347F27012C0F20002D1
S31500001A6046F6FC60C0F2000040F2FD2103F07BFE6A
S31500001A70FFF792FE0028EAD06420E8E710B50400DC
S31500001A8048B1FFF79BF9D0B99523E35C9BB12000E1
S31500001A90FFF7D6FF14E046F6EC63C0F2000347F208
S31500001AA08812C0F2000246F6FC60C0F2000040F266
S31500001AB02C1103F058FE2000FFF756F900E0002035
S31500001AC010BD10B5040048B1FFF778F9D0B99523D9
S31500001AD0E35C9BB12000FFF747F914E046F6EC63A0
S31500001AE0C0F2000347F23812C0F2000246F6FC606C
S31500001AF0C0F2000040F2381103F035FE2000FFF777
S31500001B009FFF00E0002010BD70B5040000282FD014
S31500001B10FFF7EEF82000FEF7EFFF2000FFF773FD5A
S31500001B20002834D03223E35C012B5FD0022B00D196
S31500001B3078E0002B31D02000FFF72EFE05000200D2
S31500001B40A423E35C13B1002800D17CE013B9002A7A
S31500001B5000D084E0A423E5542000FFF71DFE18B151
S31500001B604E23E35A1B0702D500F02AFE606270BDC1
S31500001B7046F6EC63C0F2000347F2C022C0F2000250
S31500001B8046F6FC60C0F20000282103F0ECFD00F0F0
S31500001B9017FEA06200232386C4E78833E35A012B8D
S31500001BA003D14D33E35A1B0603D400F009FEA062AD
S31500001BB0C1E7A56A40F2D07C654400F001FE2D1A0B
S31500001BC0002DB8DC238E8A22A25A93420BD33323EC
S31500001BD00122E2540023238600F0F2FDA0623223A4
S31500001BE00122E254A7E701332386F5E74E23E35AA1
S31500001BF01B0610D5A56A40F6B83C654400F0E0FD2A
S31500001C002D1A002D00DD96E700F0DAFDA0623223E2
S31500001C100222E2548FE732230022E25400F0D0FD84
S31500001C20A06288E7A56A41F2883C654400F0C8FDD9
S31500001C302D1A002D00DD7EE700F0C2FDA0623223E2
S31500001C400022E25477E7A823E65800F0B9FD811B8D
S31500001C5003D42000FFF70AFC7CE7311AF9E700F00D
S31500001C60AFFDA823E05075E710B5040020B1882326
S31500001C70C35A012B10D010BD46F6EC63C0F2000328
S31500001C8047F22002C0F2000246F6FC60C0F20000F5
S31500001C9040F2D62103F067FD00F092FDA0623223E8
S31500001CA00122E254E7E710B548B17423C35AB3B131
S31500001CB040F23012825A934214D9002010E046F6C0
S31500001CC0EC63C0F2000346F64472C0F2000246F628
S31500001CD0FC60C0F2000040F2DF2103F044FD00206A
S31500001CE0C0B210BD0120FBE770B50400B0B140F2F0
S31500001CF03213C35C13B303880133038040F23413F9
S31500001D00E55800F05DFD431B1CD440F2E832B3FBFE
S31500001D10F2F3A26894466344A36070BD46F6EC6392
S31500001D20C0F2000346F63072C0F2000246F6FC60CE
S31500001D30C0F2000040F2E52103F015FD43880133AF
S31500001D404380DBE72B1AE0E710B582B00400FFF70B
S31500001D5041F800230093019301A9684600F0B0FB07
S31500001D6010B1019B2D2B06D0200000F0D8F801F011
S31500001D7051FA02B010BD00992000FFF77CF9F3E795
S31500001D8070B584B00500FFF7BFFE280001F079FAB0
S31500001D90280000F0A7F800F054FA68B940F2C4032E
S31500001DA0C2F200031C68F534FF3400F009FD241A62
S31500001DB0002C05DD04B070BD2800FFF78AFDEDE7B5
S31500001DC000236A469381D3810E336B44190003A81E
S31500001DD000F00BFD00F092FA0400022000F084F9F6
S31500001DE00600012000F080F903006A46D2890192BC
S31500001DF06A460C21525E0092320021002800FFF74D
S31500001E00E4F800240BE0E0B200F0F2F923002033FE
S31500001E105B00EB181A8A801818820134A4B2052CCC
S31500001E20F1D900F0F3F900F0CBFC40F2C403C2F2A2
S31500001E3000031860BEE710B58CB0040000F0C0FCCB
S31500001E4040F2E833B0FBF3F063689C4660446060A0
S31500001E50002300932922002101A804F05AFD6946B7
S31500001E602000FFF7F0FB2D21684600F00EFB0CB0BA
S31500001E7010BD10B5587F00F054F910BD10B540F2F2
S31500001E80C802C2F20002928802B910BD1800FFF71C
S31500001E9029F8FAE710B540F2C804C2F20004217826
S31500001EA0002000F052FB6178012000F04EFB10BDCF
S31500001EB070B50500002409E00121A14029404942EE
S31500001EC0C90F200000F070FB0134E4B2062CF3D9F0
S31500001ED070BD10B540F2C803C2F200035888FFF780
S31500001EE0E7FF10BD70B50500FFF7EBFD40F2C80433
S31500001EF0C2F2000420702800FFF7C0FD60702800C1
S31500001F00FFF735FD6080EB8BA38000F059FC0100E4
S31500001F1040F2D000C2F2000004F0ABF870BDF0B59C
S31500001F20C64600B582B0060046F6D103C0F20003ED
S31500001F3046F6DD22C0F2000240F2D004C2F20004EE
S31500001F400100200004F013F841F69568C0F200087D
S31500001F5040F2C805C2F20005002700974346012259
S31500001F602900200004F01EF8691C00974346012250
S31500001F70200004F017F841F6D363C0F20003A91C51
S31500001F8000970222200004F00DF841F67D63C0F2AE
S31500001F900003291D00970222200004F003F83100F7
S31500001FA01D3141F67363C0F2000300970122200041
S31500001FB003F0F8FF3000FFF795FF6888FFF778FF1A
S31500001FC002B080BCB846F0BD10B547F20471C0F24D
S31500001FD0000140F28060C2F2000003F0E5F9A0B90A
S31500001FE047F22871C0F2000140F28060C2F20000A0
S31500001FF003F0BEFAC0B9002003F069FC40F280602D
S31500002000C2F2000003F0C8F810BD47F22033C0F258
S31500002010000347F25832C0F2000247F23430C0F2F1
S315000020200000132103F09FFB47F22033C0F20003A8
S3150000203047F25832C0F2000247F23430C0F20000D4
S31500002040162103F090FB10B584B040F24813C2F29B
S3150000205000031C68F534FF3400F0B2FB241A002C90
S3150000206001DD04B010BD47F24833C0F200031A8800
S3150000207069460A809A788A7001AA043313CB13C280
S31500002080002413E0A20001ABD25840F21C13C2F2A6
S3150000209000031B885B00D2186B46195740F280601C
S315000020A0C2F2000003F07DF80134E4B2022CE9D953
S315000020B040F21C11C2F200010B8801330A2293FB85
S315000020C0F2F08200121852009B1A0B8040F28060D8
S315000020D0C2F2000003F060F800F072FB40F2481311
S315000020E0C2F200031860BCE730B585B001AA47F21A
S315000020F04833C0F20003043332CB32C2002300213E
S3150000210006E0820001AC12595C00A25A891801331C
S31500002110092BF6D90A20B1FBF0F080B205B030BD2C
S31500002120704770B5040040F24C10C2F20000002265
S31500002130002104F014F947F2F863C0F200039A682C
S31500002140D56962425441E2B218680A21A84770BDB7
S3150000215010B540F24C10C2F200000022002104F03B
S31500002160FEF80020FFF7DDFF10BD70B584B040F229
S315000021705423C2F200031C68023400F021FB241A27
S31500002180002C01DD04B070BD01AA47F26833C0F22D
S31500002190000313CB13C20024002600E00134052CF3
S315000021A016D800236A46D37047F2F863C0F20003DC
S315000021B09A689569620001A9515A18686B46DA1C3B
S315000021C0A8476B46DB78012BE8D1A3401E43E5E721
S315000021D040F24C10C2F200000522310004F0CEF8A5
S315000021E000F0EEFA40F25423C2F200031860C9E789
S315000021F01F2808D840F24C13C2F200032230800098
S31500002200C05880B2704701204042FAE7002301E03F
S315000022100133DBB2052B0BD81F2BF9D840F24C1239
S31500002220C2F2000219002231890000208850EFE72F
S31500002230704710B540F25820C2F2000004F034F89E
S3150000224010BD40F2E023C2F200031B78042098423E
S3150000225080414042704770B586B040F2E423C2F236
S3150000226000031C68053400F0ABFA241A002C01DDCB
S3150000227006B070BD02AA47F27433C0F2000313CB56
S3150000228013C21B6813600024002500E00134072CEC
S3150000229017D801236A46D37147F2F863C0F20003E8
S315000022A09A689669620002A9515A18686B46DA1D47
S315000022B0B0476B46DB79002BE8D10133A3401D43C1
S315000022C0E4E740F25820C2F200000522290004F09B
S315000022D02CF840F2E023C2F200031B78042B05D849
S315000022E040F2E022C2F200020133137000F068FAF5
S315000022F040F2E423C2F200031860B9E740F2582323
S31500002300C2F200031879704710B540F2E823C2F212
S3150000231000031B7833B340F2EC23C2F200031C68BF
S31500002320323400F04DFA241A002C00DD10BD47F2BD
S31500002330F863C0F200039A68D4691868002240F274
S315000023400041A04740F2E823C2F200031A78514246
S315000023504A411A7000F034FA40F2EC23C2F200034C
S315000023601860E3E740F2EC23C2F200031C6840F277
S31500002370D07C644400F024FA241A002CD6DC47F200
S31500002380F863C0F200039A68D4691868012240F223
S315000023900041A04740F2E823C2F200031A785142F6
S315000023A04A411A7000F00CFA40F2EC23C2F2000324
S315000023B01860BBE710B5C046C046C04640F2F423DD
S315000023C0C2F200031A682AB140F2F823C2F20003EF
S315000023D01868904710BD10B540F2F823C2F200030A
S315000023E0196040F2F423C2F20003186047F2F87154
S315000023F0C0F2000140F22C70C2F2000001F0C6FAF1
S3150000240040F2F413984210D000282FD147F2E4612D
S31500002410C0F2000140F26864C2F20004200002F03B
S31500002420CBF8200002F0FCF810BD40F22C70C2F28E
S31500002430000001F069FB50B947F2F871C0F20001E3
S3150000244040F22C70C2F2000001F0A0FADCE747F27D
S315000024508433C0F2000347F2C432C0F2000247F2EE
S315000024609830C0F20000582103F07DF947F284331A
S31500002470C0F2000347F2C432C0F2000247F29830BD
S31500002480C0F200005B2103F06EF910B502000B00EC
S3150000249040F22C70C2F20000002101F02AFB00B9C4
S315000024A010BD47F28433C0F2000347F2B032C0F2E7
S315000024B0000247F29830C0F20000652103F053F99C
S315000024C010B502000B0040F22C70C2F20000002191
S315000024D000F073FF08B9013010BD0020FCE740F2A0
S315000024E0F023C2F2000301221A70704710B584B0BF
S315000024F047F25C71C0F2000140F2DC60C2F20000FB
S3150000250002F0A8FA90B940F2DC64C2F2000420009E
S3150000251002F0BBF801A9200002F08AF9039A40F202
S31500002520FC23C2F200031A6004B010BD47F28433E4
S31500002530C0F2000347F2FC32C0F2000247F2D83084
S31500002540C0F200000F2103F00EF910B5642900D97E
S31500002550642143425841C4B240F2FC23C2F2000354
S3150000256018686422521AD317002103F0A1FF6422CF
S31500002570002303F07DFF010040F2DC60C2F20000A0
S31500002580220002F0DFF800B910BD47F28433C0F232
S31500002590000347F2EC32C0F2000247F2D830C0F234
S315000025A00000282103F0DFF8F0B585B06C4647F24D
S315000025B00C43C0F200032200E0CBE0C21B8813806C
S315000025C047F2F863C0F200039A68D5694A1E914142
S315000025D0CAB24000015B1868A84705B0F0BD10B547
S315000025E047F2B873C0F200039A681268596818680F
S315000025F0904710BD70B504000A0047F2B873C0F2E8
S31500002600000399688D6818682100A84770BD10B549
S3150000261040F20443C2F200031B680C00994200D941
S315000026201C0040F20431C2F20001220004F068F9F5
S31500002630200010BD40F20443C2F2000300221A60DB
S31500002640704710B504000379012B02D0042B04D087
S3150000265010BDC046C046C046FAE740F20443C2F287
S3150000266000031B68FE2BF3D800F0AAF840F20033F3
S31500002670C2F20003186040F20443C2F200031A6873
S31500002680207A40F20431C2F20001885401321A6005
S31500002690DEE710B540F20033C2F200031C682418CE
S315000026A000F08EF8201A431E1843C00F10BDF0B577
S315000026B0C64600B582B00700002440F200080CE0D0
S315000026C0F369012240F20B112800984701210A20E4
S315000026D003F04FF840F2010CE0444346072B2CD898
S315000026E047F2F863C0F200039E681D68FA0940F2DB
S315000026F009112800F3699847002240F20B112800BF
S31500002700F369984701210A2003F033F801236A464A
S31500002710D371073240F20A112800B36998476B4615
S31500002720DB79013B5A4253411C434346072BC7D032
S315000027306400E4B27F00FFB2C2E747F2F863C0F27A
S3150000274000039A68D5691868002240F20911A84763
S31500002750200002B080BCB846F0BD40F20843C2F289
S3150000276000031A6801321A60704740F67013C2F20D
S3150000277000031B6840F2E832B3FBF2F3013B802210
S315000027805204934213D24EF21002CEF2000253606C
S315000027904EF60051CEF200010B6A1B021B0AC02046
S315000027A0000603430B6200239360073313604EF663
S315000027B00052CEF20002136A1B021B0A1362704714
S315000027C040F20843C2F2000318687047030041183C
S315000027D0002007E01A78424047F21C40C0F2000091
S315000027E0805C01338B42F5D37047F0B5C64600B521
S315000027F082B00600884647F2F863C0F200039D687F
S315000028001F68002240F203313800EB699847012126
S315000028100A2002F0AEFF002409E00020FFF747FF80
S315000028206B46185501210A2002F0A3FF0134042C3F
S31500002830F3DDEB69012240F20331380098470421A9
S315000028406846FFF7C3FF6B461B7998420BD16B4670
S315000028505B7833806B46DB7842461380002002B0FB
S3150000286080BCB846F0BDC046C046C04601204042C6
S31500002870F5E771B140F20013994206D840F23043B1
S31500002880C2F2000343600020704700234360022029
S31500002890FAE7002343600020F6E700207047FFFFB9
S315000028A010B51400006A4B78022B2AD009D8ABB1B8
S315000028B0012B04D10B78012B1AD0012313700020B1
S315000028C010BD032BFBD10B78012BF8D103774B8876
S315000028D01E2BF4D89B00B04AD3589F460B78013B79
S315000028E0012B02D901231370E9E700231370E6E7F1
S315000028F04B881E2B02D800231370E0E702231370C7
S31500002900DDE70B78012B54D0022BD8D14A88162A42
S315000029104CD89300A149CB589F4600236380CEE74D
S3150000292001236380CBE7FFF722F8C00801230340A9
S315000029306380C4E74E23C35A6380C0E74223C35A69
S315000029406380BCE74423C35A6380B8E74623C35A6F
S315000029506380B4E74823C35A6380B0E74A23C35A67
S315000029606380ACE74C23C35A6380A8E700236380E7
S31500002970A5E700236380A2E7143252008218138A67
S3150000298063809CE740F22C13C35A638097E7FEF7F7
S3150000299000FD608093E7FEF78DFC60808FE7FEF711
S315000029A0B6FC60808BE7C38B638088E70023638077
S315000029B085E74B881C2B00D9BAE09B00784AD35890
S315000029C09F463C23C35C638079E7C38F638076E7C9
S315000029D04023C35C4122825C1202134363806EE78C
S315000029E0437F63806BE75C23C35C638067E75E239A
S315000029F0C35A638063E76023C35A63805FE7622339
S31500002A00C35A63805BE76423C35A638057E788230E
S31500002A10C35A638053E78A23C35A63804FE78C23E4
S31500002A20C35A63804BE76E23C35A638047E770231C
S31500002A30C35A638043E76C23C35C5A1E93416622E4
S31500002A40825C6AB3022213438F22825C52B3042251
S31500002A5013439022825C3AB3082213439122825C8C
S31500002A6022B3102213438E22825C0AB32022134320
S31500002A709222825CF2B1402213439522825CDAB143
S31500002A80802213439422825CC2B140F200121343A7
S31500002A909322825CA2B140F20022134363800EE7C8
S31500002AA00022D0E70022D3E70022D6E70022D9E7AA
S31500002AB00022DCE70022DFE70022E2E70022E6E769
S31500002AC00022EAE77223C35A6380F8E68623C35AD4
S31500002AD06380F4E67623C35A6380F0E67423C35A10
S31500002AE06380ECE67E23C35A6380E8E68023C35AFC
S31500002AF06380E4E68423C35A6380E0E68223C35AF4
S31500002B006380DCE6C38E6380D9E6038F6380D6E6F6
S31500002B107823C35A6380D2E67A23C35A6380CEE60B
S31500002B207C23C35A6380CAE63A23C35C6380C6E645
S31500002B3000235380C3E68B88052B00D9BFE69B0094
S31500002B40184AD3589F46FEF7C5F9B8E6FEF7CAF904
S31500002B50B5E6FEF7CFF9B2E6FEF7EEFEAFE6FEF714
S31500002B6045FBACE68988FEF719F8A8E68B885A1E5D
S31500002B7093413C228354A2E68B88C3879FE60A7959
S31500002B804023C2548B881B0A4122835497E68B88C4
S31500002B905A1E9341437792E61C7500009875000013
S31500002BA0F4750000687600000A795C23C25486E654
S31500002BB00423CA5E5E23C25281E68A886023C2521B
S31500002BC07DE68A886223C25279E68A886423C252E5
S31500002BD075E68A888823C25271E68A888A23C25299
S31500002BE06DE68A888C23C25269E68A886E23C252B1
S31500002BF065E68A887023C25261E68A8801231A40F4
S31500002C006C2402558A8852081A40063C02558A8866
S31500002C1092081A40293402558A88D2081A4001348B
S31500002C2002558A8812091A40013402558A885209C7
S31500002C301A40033C02558A8892091A400434025508
S31500002C408A88D2091A40033402558A88120A1A4021
S31500002C50013C02558A88520A1340932283542EE679
S31500002C608A887223C2522AE68A888623C25226E6B8
S31500002C708A887623C25222E68A887423C2521EE6C6
S31500002C808A887E23C2521AE68A888023C25216E6B2
S31500002C908A888423C25212E68A888223C2520EE6AA
S31500002CA08B88C3860BE68B88038708E68A88782399
S31500002CB0C25204E68A887A23C25200E68A887C23B6
S31500002CC0C252FCE50A793A23C254F8E501600023B2
S31500002CD04360836083818373C3730020704770B53C
S31500002CE004000D0011B1817B4D19ADB22900200001
S31500002CF023689847022800D025B900236360A360A3
S31500002D00A38170BDE37B626894466344A360A5819A
S31500002D10F7E710B50A000021FFF7E1FF10BDFFFF3E
S31500002D2030B505000C0000214FF6FF700CE040089E
S31500002D30013BDBB233B1C207F9D54008064A504021
S31500002D4080B2F5E7013189B2A14203D26B5C5840EB
S31500002D500823EFE730BDC04601A0FFFF70B504AC05
S31500002D6020CC2478856004730160426000220262F0
S31500002D7010301900FFF7AAFF70BD70B504000E00F1
S31500002D801500436803B1984720001030226A0221DB
S31500002D90FFF7A5FF40B9802149420E43A3691E7083
S31500002DA0A3695D70002070BD0820FCE7F0B5D6462B
S31500002DB04F464646C0B584B005000E00052B39D1F6
S31500002DC0032949D03FD801294BD0022942D140F2EC
S31500002DD0010940F2D0710820947853781B021C43F5
S31500002DE0A0461779D3781B021F433BB29A46002FA1
S31500002DF03CD0B9423AD380235B02DB1B9C423BDCCE
S31500002E0001AB187000225A705A809A809E71002475
S31500002E10BC4242D24346E31801A94B8003AA2800CC
S31500002E202B68984770BB03AB1A78002A30D101345F
S31500002E30A4B2EDE70322FFF7A0FF04B0E0BCBA4658
S31500002E40B146A846F0BD042904D140F200097D210F
S31500002E500220C1E70C20F0E740F200097D210120A5
S31500002E60BAE7894640F2D0710420B5E70322310063
S31500002E702800FFF782FFE0E7022231002800FFF773
S31500002E807CFFDAE7042231002800FFF776FFD4E75B
S31500002E9031002800FFF771FFCFE74B4673B1FC1DE9
S31500002EA0E410E4B2A11C280010302A6AFFF717FFCD
S31500002EB048B9AB691E70AB695C700EE05346DCB274
S31500002EC06400E4B2EEE70820B7E7831CAA699446DB
S31500002ED0634400221A700130C0B2A042F5D301ABA0
S31500002EE002225A7000240FE0AB69023303AA52880B
S31500002EF012B3E20807202040012181400800995CB6
S31500002F00014399540134A4B2BC421ED24346E3188D
S31500002F1001A94B8003AA28002B6898474B46002B33
S31500002F20E2D163000233AA699446634403AA528835
S31500002F30110A19705A70E5E7E208072121400120BD
S31500002F408840995C81439954DCE7002075E7F0B529
S31500002F50DE4657464E464546E0B587B007008846EA
S31500002F601500052B22D90F2924D040F2010A7B2116
S31500002F70AE786A781202164332B2934600962879E2
S31500002F80EC782402044322B201926A7912B1063B1C
S31500002F909A4214D0032241463800FFF7EEFE07B0EE
S31500002FA0F0BCBB46B246A946A046F0BD0322FFF7D9
S31500002FB0E4FEF4E740F2040A40F2B071D8E73CB10F
S31500002FC0A14205D35346042B08D063009A4208D089
S31500002FD0032241463800FFF7D0FEE0E7E31DDB1091
S31500002FE0F4E780235B021B1B009A9A420BDC03ABBF
S31500002FF052461A7001225A7000225A809A8042461E
S315000030009A7100261AE0022241463800FFF7B5FE03
S31500003010C5E7F308EB189B790722324013411A00E3
S315000030200123134003A98B8005AA38003B68984703
S31500003030A8B905AB1A78C2B90136B6B2A64219D2FA
S31500003040009BF31803AA53805346042BE1D0730068
S315000030500633EB185A781B781B021343E2E7042267
S3150000306041463800FFF789FE99E741463800FFF7E9
S3150000307084FE94E703AB03225A7040F2000914E081
S315000030804B46DB08EB189B79072249460A40134159
S315000030901A000123134003A98B8005AA38003B6858
S315000030A098474B4601339BB29946A1450FD2009BE8
S315000030B04B4403AA53805346042BE1D04B465B0096
S315000030C00633EB185A781B781B021343E3E73800E4
S315000030D010303A6A0521FFF702FE78B9BB6942460D
S315000030E01A70BB69009A160A5E705A469A70BB69D6
S315000030F0240ADC70019A1A71002050E708204EE776
S31500003100F8B50E0013000978002401E00134A4B2DA
S31500003110057BA5420AD9E5008268521987687D5D5C
S315000031208D42F3D154683200A04702E00122FFF736
S3150000313024FEF8BDF0B5DE4657464E46C0B582B011
S315000031400700019114001D00002640F20009191F16
S3150000315089B2FC291DD81678023B9B4699B210000D
S31500003160FFF7DEFD5B46E218E35C5278120213437A
S31500003170984210D1631C9A46033DABB29946002390
S315000031805BB99EB1019BB34210D001202C2318439A
S3150000319006E00123F4E70823F2E79B000120184329
S315000031A002B0E0BCBB46B246A946F0BD3C001034B6
S315000031B00323BB77023BFB774B46DAB25146380016
S315000031C0FFF79EFF830723B903069B0E73B90133EE
S315000031D000E00023002BE3D0B98BC9B146B1786972
S315000031E00B1F9BB2FC2B09D90420D9E70023F1E77A
S315000031F0396A2000FFF78DFD0020D1E7019B03709F
S315000032000239441889B2FFF78BFD2070000A6070FE
S315000032100020C5E710B582B042F67303C0F2000382
S3150000322042F69B02C0F2000242F6A101C0F2000182
S3150000323040F20C40C2F200000324019440F2000464
S31500003240C2F200040094FFF789FD830723B9000644
S31500003250800E28B9013300E000231BB102B010BD77
S315000032600023FAE747F28063C0F2000347F2D06218
S31500003270C0F2000247F2B060C0F20000642102F022
S3150000328072FA30B5C1B0050000230093FB2200217D
S3150000329001A803F03EFBFF216846FFF7B8F90400DA
S315000032A008B941B030BD0A20FFF7F3F90028F8D07D
S315000032B040F20C40C2F200000562E3B26A46012108
S315000032C0FFF738FF830723B90006800E88B901335C
S315000032D000E000237BB140F20C43C2F200035869C0
S315000032E0998BFFF787F9FFF7A5F9FFF769FAE86207
S315000032F0D7E70023EEE7FFF79DF9D2E710B582B0D6
S31500003300FFF733FAFEF795FFFFF7F0F8FEF75CFEDE
S31500003310FFF765F9FEF71CFF40F23054C2F20004D5
S3150000332041F63760C0F200002100FFF754F8200094
S31500003330FEF70AFD03E0C046C046C04630BF40F275
S315000033403050C2F20000FEF71BFDFEF7DDFFFEF770
S3150000335082FFFEF778FEFEF708FF01236A46D37167
S3150000336047F2F863C0F200039A68946918686B46DE
S31500003370DA1D40F20621A0476B46DB79002BDDD132
S31500003380D9E710B530B94CF20003C4F27E0390229F
S3150000339001219954022800D010BD47F62001C0F241
S315000033A0000140F27860C2F2000001F0B7F8F3E7DE
S315000033B010B5FFF7A3FF002010BD10B5846964693E
S315000033C04900095B39B1C4686018615A1960043054
S315000033D01060002010BD2220FCE770B582B004000A
S315000033E040F27413C05898B16B46020060CA60C3BD
S315000033F0030024C924C340F27013E358984740F2EF
S315000034007413E35813B16A4603CA03C302B070BD0E
S315000034100800F0E741B1436813B14368022B03D1BA
S3150000342004234360033B8360704702000AE040F2D6
S3150000343054130020D0504B6940F2541150584100AB
S31500003440CB5A4BB940F2541153580133535091693A
S3150000345008698342EFD9EAE7704710B50A2383600B
S3150000346040F2201283580133835040F26413C3584C
S315000034709A68546801002131FF31C2681868082330
S31500003480A04710BD436843B98368012B02D00123CE
S315000034900B7004E000230B7001E043680B70002002
S315000034A07047F0B583B006001D00002383776533AF
S315000034B0FF33C3589868C46818686B460733A0473B
S315000034C0070048BB040044F23F22C0F20F029442B8
S315000034D007D8B27F2AB90121012002F04AF9013446
S315000034E0F1E740F23813F35C2B7044F24023C0F24C
S315000034F00F039C4213D040F23813F35C022B0BD01F
S3150000350040F23813F35C032B06D040F23813F25C1A
S315000035100133F25440F2F417380003B0F0BD14271B
S31500003520FAE7F0B583B004000E006B460222DA71AA
S31500003530C3681D0008356732FF3282589B18436105
S3150000354000202BE06B460733042229002000FFF7FA
S31500003550A8FF98BB6B4607331B78022B2AD040F294
S315000035606813E258A169CB680A335B00D21A2B882C
S315000035709A421ED35B190733032293435F884BF6A7
S31500003580AD6297421CD149691A885200E768ED1B63
S315000035908D52198840F23C12A1501D1D6369AB4241
S315000035A008D9002ECED140F24813E358AB42D6D10B
S315000035B000E0212040F24813E550256103B0F0BD3C
S315000035C02120F7E770B50500002383776533FF33C5
S315000035D0C358986884681868A0470600C8B90400EC
S315000035E004E00121012002F0C4F8013444F23F2333
S315000035F0C0F20F039C4202D8AB7F002BF1D044F2FD
S315000036004023C0F20F039C420DD040F23813EB5C0E
S315000036100BB9300070BD40F23813EA5C0133EA544E
S3150000362040F2F416F5E71426F3E710B50AB12120A7
S3150000363010BD40F26813C258920AFFF7C3FFF7E7BE
S3150000364070B505000020A8776530FF3028588468DB
S3150000365064680068A047060000BB040044F23F23EC
S31500003660C0F20F039C4207D8AB7F2BB90121012082
S3150000367002F07FF80134F1E744F24023C0F20F0371
S315000036809C420DD040F23813EB5C012B06D040F281
S315000036903813EA5C0133EA5440F2F416300070BD88
S315000036A01426FBE770B582B005000023C360002630
S315000036B0002026E06733FF33EA586B4607332100C4
S315000036C02800FFF7EEFED0B96B4607331B78032BB5
S315000036D015D1002221002800FFF7A7FF0FE040F2D6
S315000036E06813EA58920A21002800FFF76BFF06E0EC
S315000036F0EC6004E0002221002800FFF796FF60BB83
S315000037000136AB695A68B24227D91C6840F2681381
S31500003710EB587343E4186B46073308222100280050
S31500003720FFF7BFFEC8B96B4607331B78022BC1D023
S31500003730E2884BF6AD639A42DCD1E9680029D7D01E
S3150000374023680A689342CAD940F26813EA58920A73
S315000037502800FFF737FFEC60D1E7EB6853B9AC6997
S315000037602368A2689446634440F26812AA589B1ADA
S31500003770EB6008B102B070BD40F220130021E950A1
S3150000378006330749E95229002131FF312368A06831
S315000037901B189A1A08232800FFF752FFEAE7C046CB
S315000037A0ADBEFFFF70B50400836958691A6901321E
S315000037B05200002103F0ADF80023A3773D33FF3319
S315000037C04FF6FF72E2502000FFF76CFF21280FD062
S315000037D068B9002500232377637701212000FFF7CE
S315000037E0A0FE212803D010B925B90123A36070BD1E
S315000037F00125EFE72120FAE710B5040040F2441353
S31500003800C358C360836958691A690132520000219E
S3150000381003F07FF800212000FFF783FE10BD70B58E
S31500003820040040F24413C358806949004269525A61
S315000038309B1840F25C12A3501B880B335A3AFF3A8E
S3150000384093435E32FF32A35040692369E5685B1BF0
S315000038504352A25823699C46624440F26813E358D7
S31500003860E1688C4663449A4201D8002070BD20006E
S31500003870FFF7C2FF03236360023BA360F6E7F0B5E0
S31500003880C64600B504000E004368032B29D040F25B
S315000038906013C558FF2D01D940F2001540F21F08EC
S315000038A0A04440F25C172A00E159404603F028F88C
S315000038B0A66040F26413E3589A68566818682B00AD
S315000038C022694146B04723695B192361E3595B19B5
S315000038D0E35140F26013E258551BE55080BCB846F0
S315000038E0F0BD0020FAE7F0B5C64600B582B0040088
S315000038F00E0011000193022343603F33FF33C6508D
S31500003900022E0AD00021A06903698B4205D34069C3
S315000039104D00285A08B90131F5E7E26840F268130C
S31500003920E05813189846A5692B68AF68DF19474514
S3150000393000D0434640F24417E251E360C01860618C
S31500003940286988421AD3083323614FF6FF730B4068
S3150000395040F25010235004302350022E08D020008D
S31500003960FFF75DFF68B906212000FFF788FF08E032
S31500003970089B019A200000F08DF802E02000FFF776
S315000039806CFD02B080BCB846F0BDFFFF70B582B0DA
S31500003990040081610B6A186840F26413E0508B687A
S315000039A04A68B3FBF2F340F26812A3500023403A90
S315000039B0A3520232A3520232A3500C3AA35004324D
S315000039C0A352334A40F2261562530A35012676423F
S315000039D0665302356253023563530235625340F231
S315000039E070128D69A550C9690832A150043AA350D6
S315000039F083681B68416800689847050010B1280075
S31500003A0002B070BD0023A3602000FFF7CBFE0500C7
S31500003A10212808D07DB340F26413E3589A685269AE
S31500003A2018689047EBE7002300930022002120004E
S31500003A30FFF759FF05000028ECD1060004E001213C
S31500003A40012001F096FE013644F63F33C0F24C03E6
S31500003A509E4202D8A368012BF1D144F64033C0F24E
S31500003A604C039E4205D06368042BD3D140F2F41573
S31500003A70D1E71425CFE7E3681A6840F22013E25035
S31500003A800023636044F24553C5F256232360B6E72C
S31500003A90ADBEFFFF70B582B016000269D4180B34B4
S31500003AA00325AC434569AC421CD840F2301401539F
S31500003AB040F228114352C368D11A40F22A13C15268
S31500003AC0293BFF3B83602B33FF33C6503833C35843
S31500003AD099684C6801002931FF3118680423A04712
S31500003AE002B070BD009333000A000221FFF7FBFE0F
S31500003AF0F6E770B50500FFF7CDFF040001002800CA
S31500003B00FFF788FC200070BD30B583B005000023A8
S31500003B10009300220021FFF7E6FE040001002800C2
S31500003B20FFF778FC200003B030BD10B50400FFF7A6
S31500003B307CFC010040F25013E358834208D0200079
S31500003B40FFF76DFE58B906212000FFF798FE06E044
S31500003B5040F258132269E2502000FFF77EFC10BDA8
S31500003B60F0B5C64600B584B00278446840F2381312
S31500003B70E254A368CBB140F23813E35C012B17D0B3
S31500003B8040F23813E35C002B00D0DCE063600133C5
S31500003B90A36000212000FFF73DFCA368012B00D1A4
S31500003BA0ECE004B080BCB846F0BD0133A377F8E77B
S31500003BB0A3680A2B00D9DFE09B007A4AD3589F46B8
S31500003BC023691D1D256140F22C13E6583100043B84
S31500003BD0E25A13000320A0600700174010420BD1E1
S31500003BE00322A26040F26412A258906846681068E8
S31500003BF02A00B0470100CDE7032A05D903239A43DB
S31500003C0013000422A260EDE723006D33FF33042284
S31500003C1000219846180002F07CFE3A00310040462A
S31500003C2002F06EFE0323A36041460133DAE740F259
S31500003C302813E75A263BFF3B3E009E43A360250020
S31500003C406D35FF3504220021280002F062FE40F2A5
S31500003C502C13E158891903223A40280002F050FE3D
S31500003C602369F218226140F26413E35899684E689A
S31500003C70186804232900B04701008BE740F2281397
S31500003C80E35A9A0712D02369043323610523A360FC
S31500003C906033FF33E3589A68556821003131FF31AC
S31500003CA0186804232269A847010073E7226994462D
S31500003CB063442361EAE740F23013E35A40F23C12D0
S31500003CC0A350226904322261A26952695B0040F264
S31500003CD02A11615AD152616831B90123A360483370
S31500003CE0FF332269E25055E72000FFF71EFF01006F
S31500003CF050E740F26013E3582BB106212000FFF78E
S31500003D00BEFD010046E72000FFF70FFF010041E777
S31500003D1040F26813E258E3689B1863610023237737
S31500003D205933FF33E35823610B23A3605A33FF3320
S31500003D30E35899688D68920A40F2441161581868F0
S31500003D40A847010026E76368022B0BD0002140F24A
S31500003D503813E25C0133E254363BFF3B6360033BBE
S31500003D60A36017E7A3680B2B01D10021EFE7200022
S31500003D70FFF742FD0100EAE700210BE77033FF334E
S31500003D80E358002B00D10CE702A92000FFF77AFBCD
S31500003D9040F27813E3580193039302A92000FFF73A
S31500003DA01CFBFEE6947900004161826100207047A9
S31500003DB010B5036A9B787B242340046AA37083783A
S31500003DC09B079B0FD21A0261CB18C360026A9378D5
S31500003DD0802464422343DBB293708278032313402A
S31500003DE0022B04D0036A0A78DA70002010BD098815
S31500003DF0026A024B0B439BB2D381F6E700FEFFFF3C
S31500003E004162C26283620020704701235B424B60BD
S31500003E100B600020704710B503008A070DD5006AB5
S31500003E2082787B242240827000221A610020CA0711
S31500003E3002D500229A61002010BD0620F7E78369AB
S31500003E400B60002383610020704710B58B784370A8
S31500003E504A7892070378920F0324A343134303700F
S31500003E60CB788374C3795C22934309780A40134361
S31500003E70C37110BD10B50B7813B9234B026A938238
S31500003E808B781B01CA78D20013434A78032A03D0E1
S31500003E90002A2CD0F22202E03D321343B232DBB2CA
S31500003EA0046A2370D2B2036A9A71C9690B7B5B00FC
S31500003EB002221340026A53734A78D201FF23134049
S31500003EC08C7864012022224013430022046A227265
S31500003ED00A78023AD2B2012A0ED8FF22046A627028
S31500003EE00A78022A05D0026ADBB2D37110BDE2223B
S31500003EF0D5E70E321343F6E7DBB2026AD37149689F
S31500003F00006AFFF7A2FFF1E700F8FFFF70B50400B3
S31500003F10026A93787B251D400B2003409370002393
S31500003F20E360206AFFF791FF236A9D70002070BD51
S31500003F30F0B585B004009446806AC8B16B460600A9
S31500003F40A4CEA4C31D0033682B60E3691B7803600D
S31500003F50816063460371E36AC360636A9847A26A35
S31500003F6022B16B4613CB13C21B68136005B0F0BDBC
S31500003F706846EAE710B5040000234360026A9370BE
S31500003F80C3690520185601F0A2FCE3690B201856F8
S31500003F9001F09DFCE3690720185601F098FCE369DF
S31500003FA00920185601F093FCEFF31080012383F3E8
S31500003FB0108846F6FC73C4F204035A68E1690C786B
S31500003FC080210906E1400A435A605B6880F3108845
S31500003FD0002010BD70B506000D001400100001F0A1
S31500003FE076FC200001F01CFC32002900200001F0C4
S31500003FF038FC70BD70B505000C000B228A56897A14
S31500004000FFF7E8FF0522A25621792800FFF7E2FF15
S315000040100722A256A1792800FFF7DCFF0922A25643
S31500004020217A2800FFF7D6FF70BDF8B504000D0011
S315000040300B7843F6000CC0F2002C63445B0103626C
S3150000404000230370C1614A6942628A69C26283625F
S315000040508378032293430122134383704B782BB951
S31500004060837803229343022213438370290020009E
S31500004070FFF7C0FFEFF31086012080F3108846F6A5
S31500004080FC73C4F204035A682F7880210906F940AC
S315000040908A435A605B6886F310880023226A93700D
S315000040A0226A1371226A5372226A9372226AD37247
S315000040B0226A53832A7840F20F23D340184202D053
S315000040C04023226AD3740623226A1377290020002C
S315000040D0FFF7D0FE0023E36023616361A361ED690E
S315000040E02E78E3690520185601F0E9FBE3690B20F9
S315000040F0185601F0E4FBE3690720185601F0DFFBD0
S31500004100E3690920185601F0DAFB032333407022D5
S315000041101343DBB2226A93706B89238144F65513ED
S31500004120C5F2433363600020F8BDFFFF10B5EFF31F
S315000041300384E405E40D103C64B2200001F070FB3A
S3150000414040F6E403C2F20003A400E058C3691B6909
S3150000415093B103697BB9026A93787F210B400421EE
S315000041600B43DBB293700023C360436A1BB180220A
S315000041700021FFF7DDFE10BD0369002BE9D0827830
S3150000418003231340022B0ED0C3681B78026AD37038
S3150000419083789B079B0F0269D21A0261C268944614
S315000041A06344C360D5E7C3681A88034B13439BB2C5
S315000041B0026AD381ECE7C04600FEFFFF10B582B06D
S315000041C0EFF30384E405E40D103C64B2200001F033
S315000041D027FB40F6E403C2F20003A400E458A278E9
S315000041E003231340022B0DD0236A5B790193A36945
S315000041F07BB9636A23B1042201992000FFF798FE78
S3150000420002B010BD236A1B8A40F2FF1213400193CD
S31500004210EDE7A2789207920F01A9606902F070FBA0
S31500004220A3789B079B0F6269D2186261A269D31AB1
S31500004230A361002BE4D1636A002BE1D001220021A7
S315000042402000FFF775FEDBE710B5EFF30384E40506
S31500004250E40D103C64B240F6E403C2F20003A2008F
S31500004260D058026A93787B210B409370436A1BB146
S3150000427002220021FFF75CFE200001F0D1FA10BDFA
S3150000428070B5EFF30384E405E40D103C64B240F628
S31500004290E403C2F20003A200D0588278032313403D
S315000042A0022B1AD0036A5979C9B2036A1D793822DA
S315000042B02A40ED0605D51D7FED0702D440252A4389
S315000042C0D2B21D793826B5431D71436A0BB1FFF78B
S315000042D02FFE200001F0A4FA70BD036A1B8A40F28B
S315000042E0FF111940E1E7002303600020704710B575
S315000042F00B0AFF20084040F60004C4F2040419012A
S31500004300091889000B599B07DB0F1370002010BD9D
S31500004310090A490140F2000CC4F2040C61444B68DE
S31500004320138000207047180010409343090A490182
S3150000433040F2000CC4F2040C61441B0403438B607E
S3150000434000207047FF200840012383409BB26AB9D2
S315000043501A000023090A490140F2000CC4F2040CB9
S315000043606144120413438B60002070470022F1E77A
S3150000437010B51000090A490140F2000CC4F2040C01
S3150000438061440A681C000440834322439A430A603E
S31500004390002010BD090A490140F2000CC4F2040CC9
S315000043A061444B681B0C1380002070470B0A5B01AD
S315000043B040F2000CC4F2040C63445868000CFF235E
S315000043C01940FE3B8B4099B203408B4203D0002339
S315000043D013700020704701231370FAE7180010408D
S315000043E09343090A490140F2000CC4F2040C6144EB
S315000043F01B040343CB6000207047000A400140F2D3
S31500004400000CC4F2040C604401238B40C168012AED
S3150000441004D099431B040B43C36070471A049143AD
S315000044200B43F9E710B5FF23080098431940FFF73F
S31500004430E4FF002010BDFFFF30B5CB030FD5020A05
S31500004440FF25054040F60004C4F2040413015B197D
S315000044509B001D59084A15401D510A401A51030A6E
S31500004460FF22024040F60004C4F20404180180183A
S315000044708000015130BDC046FFFFFEFF70B505004C
S31500004480EFF31081012383F3108840F6E003C2F2B4
S3150000449000031B683BB940F60053C4F20403002234
S315000044A0DA704032DA7040F6E003C2F200031A68AE
S315000044B001321A6081F31088002409E0E3006A687B
S315000044C09446634419689888FFF7B6FF0134A4B28E
S315000044D02B88A342F2D8EFF31082012383F31088CE
S315000044E040F6E003C2F200031B6833B140F6E00376
S315000044F0C2F2000319680139196040F6E003C2F2FE
S3150000450000031B683BB940F60053C4F204030021C4
S31500004510D9708031D97082F3108870BD10B545F21C
S315000045205423C5F24F0303600800FFF7A7FF0020DE
S3150000453010BD10B50800FFF7A1FF002010BD10B593
S3150000454008001100EFF31082012383F3108840F670
S31500004550E003C2F200031B683BB940F60053C4F205
S3150000456004030024DC704034DC7040F6E004C2F240
S31500004570000423680133236082F31088FFF75CFF91
S31500004580EFF31082012383F31088236813B12168A7
S315000045900139216040F6E003C2F200031B683BB913
S315000045A040F60053C4F204030021D9708031D9705B
S315000045B082F31088002010BD70B504000223CB568C
S315000045C0037146F20002C4F20002C0339B009D58FC
S315000045D0002098508B68A360CB68E3600E78667104
S315000045E090550B791B01D8B24B79DB01DBB2034343
S315000045F0C878034393550423E356C0339B009D506C
S3150000460004202056002806DA44F25533C0F2490346
S315000046102360002070BD4978220001F022F9F3E7FB
S3150000462010B5007940B201F04AF9002010BD70B50E
S3150000463082B0EFF30384E405E40D103C64B240F667
S31500004640E403C2F20003A200D5586A7946F20003D9
S31500004650C4F200039B5C9B079B0F032B0CD1012626
S315000046603DB1AB682BB16A790192EA68009268465F
S31500004670984736B902B070BD200001F0D1F8002687
S31500004680EEE7200001F0CCF8F4E78368C2685A60D0
S3150000469000207047416001230374C3681B0701D0E3
S315000046A0002303740B7C40F2807CC0F2400C634410
S315000046B01B0283604B6943618B69C361002383617D
S315000046C07047826880231B06136182685361826883
S315000046D09361826800235362826893627047F0B5E3
S315000046E08668B56E01354F424F410024A9426441A8
S315000046F03C431CB3DB0713D4736BDB06DC0E436849
S315000047001B78032B10D91023234058424341DBB2B8
S3150000471001B913B18D420ED86BB1022353600FE07D
S31500004720736BDB02DC0EEAE70C232340043B5842A2
S315000047304341DBB2ECE70323536001E0013911602A
S31500004740F0BDFFFFF0B5C64600B582B0060088464C
S3150000475014000327174001235B42009300230193B3
S3150000476013006A46FFF7BBFFB068056B019989B96C
S3150000477023072CD40223A2072BD51A00123292004B
S315000047808018009A426013339B00B26894466344D3
S31500004790009A5A60630605D5B268106C8023DB0365
S315000047A003431364012F03D0124B1D400B041D431A
S315000047B0022C15D027B1104B1D40019B1B061D4333
S315000047C0B3681D63002002B080BCB846F0BD042368
S315000047D0D1E7DB1912339B00C318009A5A60D9E758
S315000047E00029E7D001236A4641463000FFF777FFEC
S315000047F0E0E7C046FFFFFCFFFFFFFFFC10B5836844
S31500004800DB6A5B015B0F5B00DBB24EF20002C4F2B7
S315000048100102116A072214000C40090E0A4040F6F4
S315000048207011C2F2000108689040E040D84010BD07
S3150000483010B50C0083685B6E01338B60FFF7DEFFFB
S31500004840606001232370002010BD8B010A01134311
S3150000485040F2001213430278022A04D0032A05D03C
S3150000486031B1092000E00920184370470320FBE717
S315000048700620F9E74368DB6930229A5CD20703D544
S3150000488081689A6A013ACA6430229A5C920703D513
S31500004890DB6A8268013B1365704710B5002800DAB1
S315000048A010BD01F025F8FBE7F0B5C64600B582B0AD
S315000048B004000D00CE69EFF31081012383F3108805
S315000048C046F6FC73C4F20403DB682A7C032A00D98B
S315000048D0A9E0212252421A4046F6FC73C4F20403B0
S315000048E0DA60DB6881F31088A3684AF200521A6026
S315000048F0A2680023D362A268D363A26893642B7A6A
S315000049005B081B066A68571E2A78032A00D18DE0C9
S31500004910A268D3622000FFF7D4FEA368B269DA6109
S31500004920A368F2691A62A3689F66A3685F66B36BA1
S31500004930984601235B420093002301932B781BB911
S315000049406B685B08013B00932B78012B00D971E063
S31500004950A268009B5365A26893652A78032A03D947
S31500004960A268D365A2681366019B1F041B061F433A
S31500004970B36B93B9337833B171782800FFF765FFCD
S31500004980434603439846B3783BB1F1782800FFF7D6
S315000049905CFF00044346034398462000FFF76AFF86
S315000049A0A268002393638822A1688B50B36B4BB92E
S315000049B02033F35C5B03424613432122B25C520769
S315000049C01A4390463023F35C002B3AD1AA22D20335
S315000049D0A3681A642B78012B36D0A36842465A6323
S315000049E0A26803233B431363A368012217431F6393
S315000049F0A368E268DA60697C122028562200FFF775
S31500004A004CFF2223F15C0233F0562200FFF745FFEC
S31500004A102323F15C0233F0562200FFF73EFF02B07B
S31500004A2080BCB846F0BD4122524254E78022520271
S31500004A3013436DE700236A46E9682000FFF74FFE3F
S31500004A4086E7A022D203C3E7A2680023D364A26844
S31500004A501365C2E770B504000D000A7C012393407C
S31500004A60C360FFF717FE29002000FFF71DFF45F280
S31500004A705403C0F247032360002070BD4CF20003CC
S31500004A80C4F27E0343F6B0729A5A81231A4203D1C6
S31500004A9000230B700020704701230B70FAE70620F5
S31500004AA0704706207047062070470620704706208C
S31500004AB0704747F63823C0F200030A0003CB03C24F
S31500004AC047F64023C0F2000303CB03C20020704721
S31500004AD006207047C36844F23F2CC0F20F0C6344B3
S31500004AE044F24022C0F20F02B3FBF2F3C360202B64
S31500004AF003D9DA0701D50133C360836844F23F2C3A
S31500004B00C0F20F0C634444F24022C0F20F02B3FB22
S31500004B10F2F3836040F283525A4340F2060CB2FB32
S31500004B20FCF2026140F276325A43B2FBFCF2426179
S31500004B3058225A43B2FBFCF2826146F6B822C0F212
S31500004B4005025A43B2FBFCF2C2615A01D21A920024
S31500004B50D21891018A1A9201B2FBFCF202624EF659
S31500004B606852C0F222025A43B2FBFCF242624CF295
S31500004B700003C4F27E0343F6C072002199547047C5
S31500004B8010B540F2000CCBF6F05C61440C0C4CF214
S31500004B900003C4F27E0340F210129C5289B2083A16
S31500004BA099520178283299501C3A8121995410BDA6
S31500004BB030B5091801394CF20003C4F27E0340F205
S31500004BC0041400251D55050C0C341D5380B2083CF9
S31500004BD018530C0C40F220101C5089B20838195298
S31500004BE0D2B240F214115A5430BD41438B08032906
S31500004BF002D9013B002BFCD1704710B504004EF2E0
S31500004C000003C4F201031B6A1B0E0721194040F67C
S31500004C107013C2F200031B681A008A40CA40C260C1
S31500004C2040F6FF01C0F23D018A4211D844F240210C
S31500004C30C0F20F018A420BD048F28041C0F21E0139
S31500004C408A4205D04CF2C061C0F22D018A4223D1BE
S31500004C504EF20002C4F20102116A090E07220A404E
S31500004C609340D340A3602000FFF734FF4CF20003CB
S31500004C70C4F27E0390229B5C012B01D1002010BD63
S31500004C804CF20003C4F27E0301219954A168062068
S31500004C90FFF7ABFF0020F2E740F2F610EFE74CF229
S31500004CA00003C4F27E0340F28012A5219950803A97
S31500004CB09854C143C9B2995498549B5CDBB2834261
S31500004CC000D07047C046FCE710B582B0040044F639
S31500004CD0003301930820FFF7E2FFA1681020FFF7D9
S31500004CE084FF4CF20003C4F27E0343F6B0720B4914
S31500004CF0995202E0019B013B01934CF20003C4F27E
S31500004D007E0343F6B0729B5A9BB223B1019B002BE4
S31500004D10F0D1142000E0002002B010BD00AAFFFF71
S31500004D2010B582B0019002E0019B013B01934CF269
S31500004D300003C4F27E0340F22C129B585B0605D496
S31500004D40019B002BF0D1142002B010BD4CF20003E1
S31500004D50C4F27E03183A995C7F24214099540021BD
S31500004D60995401904CF20003C4F27E0340F22C12D7
S31500004D709B585B0605D5019B2BB1019B013B01931B
S31500004D80F0E70020E0E71420DEE7FFFF10B504009F
S31500004D904CF20003C4F27E0343F6B0720A499952FC
S31500004DA081680620FFF721FF1020FFF778FFA16832
S31500004DB00320FFF71AFF63681A7802B910BD1120A5
S31500004DC0185600F07CFDF9E780AAFFFF70B50400D5
S31500004DD0FFF7DCFFE3681F2B13D9203B5B081F336B
S31500004DE03F2213404CF20002C4F27E0240F2D81079
S31500004DF011583F25A9430B4313502000FFF764FFCA
S31500004E0070BD013B1F2213404CF20002C4F27E0229
S31500004E1040F2D81011583F25A9430B431350ECE735
S31500004E2010B504000B0041600A783AB93423002219
S31500004E30E2542000FFF7E1FE38B110BD097C1120D5
S31500004E401856220000F054FDF0E72000FFF7BEFFE1
S31500004E500028F2D144F24E53C4F650732360ECE7B7
S31500004E6010B50400FFF7C9FE00B110BD2000FFF722
S31500004E70ADFFFAE710B5040034230022C2544CF209
S31500004E800003C4F27E0343F6B0729B5A9BB26BB129
S31500004E904CF20003C4F27E0340F224120121995021
S31500004EA0002199502000FFF70FFF10BDFFF76EFF9E
S31500004EB0EEE7F8B50500080017001E00FFF730FF03
S31500004EC0040014280CD04CF20003C4F27E0340F216
S31500004ED0F0129B583C001C401F4205D12000F8BD33
S31500004EE02800FFF7C7FFF9E72800FFF7C3FF3400E4
S31500004EF0F4E710B50400182312224169FFF7D9FF21
S31500004F0048B9A36A0133A362E26A511CE162226BCB
S31500004F10501E206300B910BD1800FFF731FE0820AF
S31500004F20F9E710B5FFF7A6FF002010BD70B5050024
S31500004F30C2628162036343681B7813B13423012282
S31500004F40C2542800FFF722FF4CF20003C4F27E038E
S31500004F5040F2041200219954E96AA86AFFF710FE8C
S31500004F606B681B7853B92800FFF7C3FF04000828B5
S31500004F70F9D020B92800FFF7A7FE00E000242000A2
S31500004F8070BD70B5342400250555FFF7CFFF70BD01
S31500004F90F8B504000D0017001E00FFF7F7FE00230A
S31500004FA0CBF6F053E818A0622763310079438422D8
S31500004FB0FFF7FEFD63681B7813B100252800F8BDD6
S31500004FC0216A7943193311222000FFF772FF050089
S31500004FD00028F3D12000FFF777FEEFE710B5342362
S31500004FE00024C454890A890243681B7813B1342308
S31500004FF00234C45440F20043FFF7CAFF10BDF8B5AF
S3150000500004000D0016001F00FFF7C0FE0023CBF6BC
S31500005010F053E81883223100FFF7CAFD63681B7856
S3150000502023B102233B7000252800F8BDA169714316
S3150000503040F2F81310222000FFF73BFF050000287E
S31500005040F2D14CF20003C4F27E0340F228129B58C0
S315000050501B0705D501233B702000FFF735FEE3E76C
S3150000506000233B70F8E770B5040034200025255472
S315000050706068007810B13420033525542000FFF70E
S31500005080BEFF050008B1082801D1280070BD200028
S31500005090FFF7F0FEF9E710B500230360436811201F
S315000050A018560300213301D1002010BD00F00FFC7B
S315000050B0FAE710B582B0EFF30384E405E40D103C83
S315000050C064B2200000F0ACFB40F6E403C2F2000339
S315000050D0A400E4583423E35C012B1BD0022B2FD011
S315000050E040F2F8131022A1692000FFF7E2FE002823
S315000050F039D14CF20003C4F27E0340F228129B58C9
S315000051001B0737D402236A4613700123002B35D1BF
S3150000511002B010BD2000FFF7ECFE08B1082805D14B
S31500005120236B5BB901336A461370EFE72000FFF784
S31500005130A1FE07236A461370063BE7E70023E5E76F
S3150000514017331122216A2000FFF7B3FE20B900238E
S315000051506A4613700123D9E72000FFF78BFE072369
S315000051606A461370F6E72000FFF784FE07236A46B7
S315000051701370CAE703236A461370C6E72000FFF7D9
S31500005180A3FD63685A68002AC2D0DB68019363688E
S315000051905B6868469847BBE70368828A1A800020E6
S315000051A07047036810314900CB5A138000207047BE
S315000051B04EF20003C4F201031A6A072319001140D4
S315000051C0120E1A4040F67013C2F200031B68934099
S315000051D0CB4040F2E832B3FBF2F241F2883353435C
S315000051E044F24022C0F20F02B3FBF2F30133062B66
S315000051F000D807230360704730B583B005000C0064
S315000052000023019301A8FFF7D3FF236862681343C5
S31500005210802189051A000A400B4209D0019AD2B2B0
S31500005220DE2128684254A268920012D440F200128D
S315000052305B0012D5019BDBB2DF212868435440F2A4
S3150000524000231343A168490006D540F202231A43FE
S3150000525003E040F20112EBE71A002B6892B25A8281
S3150000526003B030BD70B588B004000E00C569A5B1A5
S3150000527020222900684601F043FB20223100280045
S3150000528001F03EFB2800A3699847E06918B1202287
S31500005290694601F035FB08B070BD0D00F2E7F8B5C0
S315000052A0DE4657464E464546E0B505004C698B78C6
S315000052B05B0340F240221343A078002858D1413ABC
S315000052C0FF3A1A433F2855D040F200231343627930
S315000052D0920702D540F2004213432279002A4BD0AE
S315000052E0802213439BB2AB82A278120243F6007768
S315000052F01740E0783F22024017430E79F6036278A2
S315000053005201164322789446EFF3108940F2010BBE
S315000053108BF3108846F6FC72C4F20402D06880460D
S3150000532009888A4610215046091A5846884041463F
S315000053308143D160D26889F3108847F6FF52134043
S315000053402A681380BFB22B681F82B6B22B68DE8133
S315000053502B6862461A7363799A0713D42A686179AF
S315000053608A23D154F0BCBB46B246A946A046F8BD36
S315000053700022A6E70023A9E73F28B3D148F200029E
S315000053801343AFE703221343DBB28A2229688B5407
S315000053900121012000F0EDF9E0E710B5002800DA60
S315000053A010BD00F0A5FAFBE7F8B504000D004E6944
S315000053B04160CB6883610B6903620027C7610B8874
S315000053C05B024CF2000CC4F2050C63440360FFF769
S315000053D066FF697A062028562200FFF7DEFFA97AC3
S315000053E0072028562200FFF7D8FF717A072030568B
S315000053F02200FFF7D2FFB17A082030562200FFF7CD
S31500005400CCFF276144F24343C5F24123A360002049
S31500005410F8BDFFFFF8B5DE4657464E464546E0B5B1
S3150000542004000D00504B0E681E40426852699246B9
S315000054304A681A4089680B40B1B20068818091B20F
S315000054402068818299B220680181310C2068C18070
S31500005450120C2168CA821B0C226853812900200085
S31500005460FFF7CAFEEB68002B00D178E01A89110518
S315000054703FD590212068425258890C3127687852CE
S3150000548098890231276878521968894688B2844615
S3150000549094202768614639524946080C33498846A4
S315000054A0084040F2960C21686746C8534946490FA2
S315000054B00320014040F2920C27686046395459682F
S315000054C08B4688B2814640F2980C2068674649466A
S315000054D0C1535946090C47460F4040F29A082168C5
S315000054E040460F525946490F973801409030276879
S315000054F03954198989050DD5997CD87C0143A62094
S3150000550027683954D889A82127687852198AAA2386
S315000055102068C15290232168CA522A8A103B21680A
S31500005520CA5253461B797BB127683D881F239D438A
S31500005530BEB1300000F07EFFC0B22D1A1F35ABB2EF
S315000055403B80A28A1343A38244F24343C5F241231C
S31500005550E360F0BCBB46B246A946A046F8BD0022B1
S31500005560D8E72020E9E7C046FFFFFF9FFF9FFFFF28
S3150000557070B504000D00FFF74DFF2B682361002076
S3150000558070BD30B589B00400EFF30383DB05DB0D96
S31500005590103B5BB240F6E402C2F200029B009D584B
S315000055A0EFF30380C005C00D103840B200F038F9A3
S315000055B06B469C706B681B886A46138000231372C7
S315000055C02B6A0193AB691BB169462800FFF74AFEB7
S315000055D009B030BD10B50020FFF7D3FF10BD4EF265
S315000055E00003C4F20103A0229B5CDBB2834223D0FA
S315000055F04EF20003C4F201036A3A9B5C3BB94EF2D9
S315000056000003C4F201033C229B5CDB07F7D54EF294
S315000056100003C4F20103A0229B5CDB06F7D44EF222
S315000056200003C4F2010398544EF20003C4F20103CE
S31500005630A0229B5CDB06F7D470474EF20003C4F24F
S31500005640010340F280420121995470474EF2000353
S31500005650C4F201032622995C1A6A120E072313402C
S3150000566040F29002C2F2000289008A58DA4040F6FF
S315000056707013C2F200031A60704710B540F290032F
S31500005680C2F2000349F20002C0F2D0321A6041F2BF
S315000056900022C0F27A025A6048F200029A6042F290
S315000056A00042C0F2F402DA6000221A61FFF7CEFF70
S315000056B010BD10B54EF20003C4F2010340F2001211
S315000056C0C0F200121A62262200219954FFF7BEFF8B
S315000056D010BDFFFF70B54EF20004C4F2010440F2A3
S315000056E0FE331A4AE2524CF20003C4F27E0300254E
S315000056F043F6C8729D54FFF7C0FF40F21343E554CA
S31500005700A2230922E254FFF798FF0020FFF767FF64
S315000057103623E5544EF20003C4F201033C229B5C9F
S31500005720DB07F7D5FFF7C5FF4EF20003C4F201030E
S3150000573040F2FE32064999524CF20003C4F27E034F
S3150000574043F6C8720121995470BDC04603A5FFFFF8
S3150000575000A5FFFF44F20003C4F20403282200213F
S3150000576099547047704700BEFEE701380028FCD107
S31500005770704770B541430D0040F67013C2F2000346
S315000057801C684CF60023C3F69A33B3FBF4F440F2DC
S31500005790E83200230800002100F08AFE31B9B0FB90
S315000057A0F4F0800808B1FFF7E0FF70BDA000B5FB7C
S315000057B0F0F040F2E8320023002100F079FE0029E3
S315000057C0F0D001204042EEE710B540F6AC03C2F23D
S315000057D000038200D35803B1984710BD70B546F256
S315000057E00003C4F2000340F220129A5A40F240111C
S315000057F05D5A1540002401E00134E4B20C2C07D8B0
S315000058002B00E340DB07F7D52000FFF7DDFFF3E7CA
S3150000581046F20003C4F2000340F230129D5270BDFE
S3150000582046F20003C4F20003C0308000C2580249A9
S315000058300A40C250C3587047FFFFFEFF10B5040070
S31500005840FFF7EEFFBFF35F8F1F222240640901239B
