S02200006D696E6965636F5F70617065726F67615F625F726F746F6E64692E7372656351
S3150000000000110020A95200002D500000A55200004A
S31500000010A5520000A5520000A5520000A5520000FE
S31500000020000000000000000000000000A5520000D3
S31500000030A552000000000000A55200000B2B000096
S31500000040254E000000000000000000000000000037
S315000000507D3C0000F13B0000093D0000413D0000F1
S31500000060A1400000000000000000000000000000A9
S31500000070000000000000000000000000000000007A
S31500000080000000000000000000000000000000006A
S31500000090000000000000000000000000000000005A
S315000000A0000000000000000000000000000000004A
S31500000400FFFFFFFFDFDEFFFFFCFF0F00FFFF0F0018
S31500000410FCFF0F00FFFF0F00FCFF0F00FFFF0F00A8
S31500000420FCFF0F20FFFF0F20FCFF7F40FFFF7F40F8
S31500000430FCFF0D40FFFF0D40FFFFFFFF40F27C0079
S3150000044040F27C03C2F20000C2F2000310B5834200
S3150000045005D040F20003C0F2000303B1984710BD77
S3150000046040F27C0040F27C03C2F20000C2F20003BC
S315000004701B1A9A10D90F8918491010B529B140F2E4
S315000004800003C0F2000303B1984710BD10B540F257
S315000004909004C2F20004237873B9FFF7CFFF40F24D
S315000004A00003C0F200032BB147F27020C0F2000037
S315000004B000E000BF0123237010BDC04640F20003D8
S315000004C0C0F2000310B54BB140F2940147F2702020
S315000004D0C2F20001C0F2000000E000BFFFF7C0FF5B
S315000004E010BDC04630B50500100000220CE0030A1E
S315000004F0AC5C6340000280B246F25844C0F200048D
S315000005005B001B5B584001328A42F0D330BD10B508
S31500000510FC30040002F016FB0100200005F0C3FACF
S3150000052010BD70B50400150005F0A4FA656102F06F
S3150000053009FB0100200005F0AEFA02F003FB010002
S31500000540200005F0B0FA70BDF8B504000600C43608
S315000005500500E0350700FC3701F062F9200000F0E5
S3150000056047FC7623E35C33B902F0ECFA010028007D
S3150000057005F099FAF8BD02F0E5FA0100300005F041
S3150000058092FA7A23E35A002BEED05901C91A890050
S31500000590C918C90002223800FFF7C3FF02F0D2FAD9
S315000005A00100380005F073FADEE770B504000500B7
S315000005B0E03500F0A4FF50B1200000F012FC20004E
S315000005C001F0FCF8200000F0B1FF20B170BD200062
S315000005D000F00EFCF3E77E23E35A5901C91A89009D
S315000005E0C918C90007222800FFF79BFF02F0AAFAE4
S315000005F00100280005F04BFAE8E770B5050001F0A8
S3150000060067FC040010B10024200070BD280001F032
S315000006106FFC0028F8D10124F6E770B50C000D0038
S31500000620C43502281ED0032821D010B10120404233
S3150000063070BDCB8BEBB94233CB5CEBB9080001F054
S31500000640F9FB2000FFF7B1FF2000FFF7D6FF08B93E
S315000006500320EDE702F076FA0100280005F017FA0C
S315000006600320E5E7080001F004FC0020E0E7012094
S31500000670DEE701204042DBE701204042D8E770B5C3
S3150000068004000500C4352800FFF74BFF2000FFF7E4
S31500000690B4FF00B970BD02F055FA0100280005F05C
S315000006A0F6F9F7E770B50C000D00E0350E00C4361C
S315000006B00A2800D98CE08000494B1B589F46012030
S315000006C003E0080001F0D5FB002070BD0420FCE724
S315000006D00800FFF792FF20B12000C43005F084F92E
S315000006E088B92000FFF789FFA0B1E38B002B72D0F9
S315000006F0200000F057FC002870D04023E35C022B5A
S3150000070015D00420E1E702F01DFA0100300005F0E3
S31500000710BEF9EAE72000C43005F066F90028E4D106
S3150000072002F010FA0100300005F0BDF9DDE7200007
S3150000073001F09FFB0020C8E78023CB5A5E01F61A22
S31500000740B600F618F600080001F091F880B109220B
S3150000075031002800FFF7E5FE200001F061F802F005
S31500000760F1F90100280005F092F901204042ACE7BA
S315000007700822EDE7080001F021F87E23E35A59012B
S31500000780C91A8900C918C90007222800FFF7C9FE3F
S3150000079002F0D8F90100280005F079F9012040425D
S315000007A093E7080001F023F87E23E35A5901C91A9A
S315000007B08900C918C90007222800FFF7B2FE02F017
S315000007C0C1F90100280005F062F9012040427CE7EA
S315000007D00120404279E70120404276E7042074E791
S315000007E05866000070B50C000D00C435052816D0FB
S315000007F00BD8002839D0022804D1080001F039FBB3
S3150000080000200BE00120404208E00A2804D1CB8BEF
S31500000810002B4AD0042001E00120404270BD0800B0
S3150000082000F034FC40B17623E35C73B92000FFF797
S31500000830E4FE90B90420F1E7200000F00EFC010070
S3150000084003222800FFF76DFEEDE702F07BF90100B9
S31500000850280005F028F90420E0E702F073F901000A
S31500000860280005F014F90420D8E7CB8B03BB4233EC
S31500000870CB5C03BB080000F009FC40B14023E35CFD
S31500000880022B0DD02000FFF790FE0320C6E72000C4
S3150000089000F0E3FB010003222000FFF7F0FEEDE786
S315000008A01F33FF330122E254ECE701204042B5E753
S315000008B001204042B2E701204042AFE710B50C00EC
S315000008C00A2835D880001F4B1B589F46012031E06F
S315000008D0080001F0CEFA00202CE002F033F940F2D5
S315000008E02413E050200000F0D1FB38B1200000F0C6
S315000008F0EEFD2000FFF759FE03201BE0200000F06C
S31500000900ACFB010003222000FFF7B9FEEEE7CB8B1C
S315000009109BB1080000F046FB90B14023E35C022B3C
S3150000092001D0042006E0200001F0A3FA002001E037
S315000009300120404210BD0420FCE701204042F9E7B7
S315000009400420F7E78466000010B50C0030B10128DA
S3150000095038D1080001F06EFA042035E0CB8B002B6D
S3150000096033D14233CB5C002B32D1080001F062FA5E
S3150000097040F220130022E254A83BE35A43B14EF65C
S315000009806021594304322000FFF779FE02201BE064
S3150000099002F0D8F840F22413E0502000FFF705FEDD
S315000009A0200000F073FB20B1200000F090FD032032
S315000009B00AE0200000F051FB010003222000FFF7AF
S315000009C05EFEF1E70120404210BD01204042FBE7F8
S315000009D001204042F8E770B504000500C435060062
S315000009E0E03600F01DFF02F0ADF80100280004F02B
S315000009F0FDFF0100200000F05CFE02F0A3F80100FC
S31500000A00280005F048F802F09DF80100280005F0DE
S31500000A104AF802F097F80100300005F03CF802F0C1
S31500000A2091F80100300005F03EF8200000F0E0F9F2
S31500000A300023B022A354793AA35470BD10B5FFF732
S31500000A40CAFF10BD70B504000E0010002168626870
S31500000A5053009B189B00CB5831009847051E01DABE
S31500000A60002070BD226861684B005B189B00D3189C
S31500000A709B680BB130009847656022686B005B1974
S31500000A809B00D3185B680BB1300098470120E8E75C
S31500000A9010B5027D08001930FF30FFF7D3FF10BDF7
S31500000AA070B5040046F2B063C0F2000340F21812BB
S31500000AB0835040F21C130022C25040F69125C0F22A
S31500000AC00005C43000232A00002104F0BFFF2600E1
S31500000AD0E03600232A000021300004F0B7FF012190
S31500000AE0300004F0CBFF2000FC3000232A00002158
S31500000AF004F0ACFF70BD70B50D00C430040002F008
S31500000B0021F80100200004F0CEFF6901491B89008D
S31500000B104919C900200004F0ADFF237B33B102F070
S31500000B2011F80100200004F0B6FF70BD02F00AF8CB
S31500000B300100200004F0ABFFF7E710B50400FFF753
S31500000B40DAFF20001930FF3001222100FFF77AFF7B
S31500000B5010BD10B501001930FF300A22FFF772FFF1
S31500000B6010BD10B5040001F0EDFF01002000C430F7
S31500000B70220004F09CFF01F0E5FF01002000E030B8
S31500000B80220004F094FF01F0DDFF01002000FC309C
S31500000B90220004F08CFF2000FFF7DBFF002010BDD1
S31500000BA0F8B540F21C13C358033B012B00D9F8BD1E
S31500000BB0C43004004D016D1AAD006D18ED0001F052
S31500000BC0C1FF0100200004F01DFF0600200004F014
S31500000BD024FFB5420DD2731B834205D2AE1B3118DA
S31500000BE0200004F047FFE2E70021200004F042FF66
S31500000BF0DDE7A91B0918200004F03CFFD7E770B514
S31500000C000D0040F21C13C358033B012B00D970BDE5
S31500000C10C430040004F001FF6901491B8900491929
S31500000C20C9000918200004F025FFF0E710B50400FC
S31500000C30B0230122C25401F085FFA023E05010BD6D
S31500000C4070B50C00012819D0022819D1080000F04F
S31500000C50FAFC0500200000F0E1FC8A23E35AC31ADF
S31500000C609D4201DA01200DE0B0230122E25401F099
S31500000C7069FFA423E0500120404203E0002001E088
S31500000C800120404270BD70B50C00022808D0032830
S31500000C9017D0012802D00120404270BD0020FCE799
S31500000CA0080000F0D0FC0500200000F0B7FC882307
S31500000CB0E35AC3189D4201DD0220EEE701204042BF
S31500000CC0EBE739230122CA5401204042E5E770B51B
S31500000CD00C0020B1022812D00120404270BD08004D
S31500000CE000F0B1FC0500200000F098FC8823E35AD0
S31500000CF0C3189D4201DC0120F0E70220EEE701F077
S31500000D0021FFA423E05001204042E7E770B504002C
S31500000D10A023C55801F016FF411B03D4200000F0A4
S31500000D2016FD70BD291AF9E710B5040001F00AFF97
S31500000D30A023E05001F006FFA423E0502000FFF7B7
S31500000D4008FF10BD70B504000E001000216862682F
S31500000D5053009B189B00CB5831009847051E01DABB
S31500000D60002070BD226861684B005B189B00D31899
S31500000D709B680BB130009847656022686B005B1971
S31500000D809B00D3185B680BB1300098470120E8E759
S31500000D9046F2EC63C0F20003A8228350AC23002283
S31500000DA0C250704770B504000600A8360222010042
S31500000DB03000FFF7C7FFA423E5583A3BE25A530138
S31500000DC09B1A9B009B18DB00ED1801F0BBFE2D1A49
S31500000DD0002D00DD70BD032221003000FFF7B2FFB9
S31500000DE0F8E710B50100A8300022FFF7ABFF10BDF1
S31500000DF010B50100A8300122FFF7A4FF10BD0300C3
S31500000E0040F2413290420CD940F2CB6290420BD86C
S31500000E109620584340F28B3390FBF3F0933800B2A0
S31500000E2070470A204042FBE78C20F9E75823C05A56
S31500000E30573B8B4003405842C00F012A00D07047F1
S31500000E40013BD80FFBE70023052B08D81A002832F0
S31500000E5052008218528922B901339BB2F4E700206E
S31500000E6070470120FCE710B5030040B14222825CC6
S31500000E70AAB9BC22805CA0B13A3A985C11E046F26D
S31500000E801073C0F2000346F68822C0F2000246F252
S31500000E902070C0F2000040F2033104F08CF84722C3
S31500000EA0805C10BD10B50400BC23C35C03B910BD43
S31500000EB001F048FEC023E050F9E710B5C46A40F2DD
S31500000EC0D07C644401F03EFE201A431E1843C00F36
S31500000ED010BD10B5040088B140F22812002105F0BB
S31500000EE0FFF958234622E2521033143AE252200008
S31500000EF0FFF74EFF2000FFF7D3FD10BD46F210733B
S31500000F00C0F2000346F6FC32C0F2000246F2207040
S31500000F10C0F20000172104F04EF810B528B1942352
S31500000F20C25C0421FFF782FF10BD46F21073C0F2C7
S31500000F30000346F6A432C0F2000246F22070C0F268
S31500000F4000009C2104F037F810B528B19323C25C49
S31500000F500221FFF76BFF10BD46F21073C0F20003CB
S31500000F6046F68432C0F2000246F22070C0F200005B
S31500000F70A22104F020F810B528B19523C25C062101
S31500000F80FFF754FF10BD46F21073C0F2000346F699
S31500000F906432C0F2000246F22070C0F20000A821BE
S31500000FA004F009F810B528B19223C25C0121FFF7BD
S31500000FB03DFF10BD46F21073C0F2000346F64C32F8
S31500000FC0C0F2000246F22070C0F20000AE2103F02B
S31500000FD0F2FF10B580B15023C35AC28F93421AD97B
S31500000FE09B1A5801C01A8000C018800040F666633C
S31500000FF090FBF3F080B20FE046F21073C0F20003EC
S3150000100046F63832C0F2000246F22070C0F2000006
S31500001010B42103F0D0FF002010BD10B50100193037
S31500001020FF300022FFF70EFD10BD10B5010019308C
S31500001030FF300522FFF706FD10BD10B5010019307F
S31500001040FF300322FFF7FEFC10BD10B5010019307A
S31500001050FF300222FFF7F6FC10BD10B538B17C2335
S31500001060C35A5801C01A8000C018C00010BD46F20D
S315000010701073C0F2000346F60032C0F2000246F2D8
S315000010802070C0F20000EE2103F095FF10B540B1CC
S315000010907C23C05A0A4B9C46604443425841C0B226
S315000010A010BD46F21073C0F2000346F6E822C0F205
S315000010B0000246F22070C0F20000F42103F07BFF2C
S315000010C00100FFFF10B540F21C13C358012B01D8D5
S315000010D0002010BDC430040001F034FD01002000E2
S315000010E004F090FC40F2E833B0FBF3F0F1E710B502
S315000010F030B140F21C13C058431E9841C0B210BD17
S3150000110046F21073C0F2000346F6D422C0F2000283
S3150000111046F22070C0F2000040F2041103F04BFFCB
S3150000112010B5040020B1FFF7C8FE88B1002010BD3D
S3150000113046F21073C0F2000346F6A022C0F2000287
S3150000114046F22070C0F2000040F2571103F033FF60
S315000011502000FFF788FEEAE7F8B5CE46474680B599
S3150000116004000E0010001D0008AB1B88984609AB52
S315000011700027DF5F0AAB1B889946002C37D048232F
S31500001180E35A934243D04823E252FFF738FE4A23FC
S31500001190E052493B4C22A25AAA4207D04C23E552C0
S315000011A02800FFF72CFE4E23E0524D3B5022A25A58
S315000011B0424503D050234246E2524F3B5822A25AA0
S315000011C0B24226D15422A25EBA4202D05423E7523A
S315000011D0533B5622A25A4A452FD056234A46E2523C
S315000011E02000FFF7B6FCC0BCB946B046F8BD46F2D3
S315000011F01073C0F2000346F63822C0F2000246F22F
S315000012002070C0F2000040F26D1103F0D4FE0023FE
S31500001210C0E72000FFF7C6FE05005823E65220006F
S31500001220FFF7C0FE38B10DB10123CBE701F08AFC10
S3150000123020620123C6E70123C4E7002BD3D0CFE702
S31500001240F8B505000E0010B1002400221AE046F29F
S315000012501073C0F2000346F62022C0F2000246F2E6
S315000012602070C0F2000040F29E1103F0A4FE311976
S31500001270130028335B00EB185B89180A08704B7063
S3150000128002340132052AF2D92800FFF71BFF82B289
S31500001290331929880F0A1F705970A31CF31869881F
S315000012A00F0A1F705970231DF31869680F0E1F70FF
S315000012B00F0C5F700F0A9F70D97023000833F31864
S315000012C0A9680F0E1F700F0C5F700F0A9F70D97000
S315000012D023000C33F318E9680F0E1F700F0C5F70B4
S315000012E00F0A9F70D97023001033F31829690F0E67
S315000012F01F700F0C5F700F0A9F70D9702300143394
S31500001300F31869690F0E1F700F0C5F700F0A9F703C
S31500001310D97023001833F318120A1A705870230074
S315000013201A33F3186A8F110A19705A7023001C3386
S31500001330F318AA8F110A19705A7023001E3340F24F
S315000013401C12AA5CF25420001F300C2C00D1F8BDF0
S3150000135046F23873C0F2000346F62022C0F20002BD
S3150000136046F22070C0F2000040F2B31103F023FEF3
S3150000137070B50E0010B1002200241BE046F2107377
S31500001380C0F2000346F60822C0F2000246F22070C0
S31500001390C0F2000040F2B91103F00DFEB3185D78FB
S315000013A01B781B021D43230028335B00C3185D8195
S315000013B002320134052CF1D9B1184B7809780902AB
S315000013C00B430380931CF31859781B781B020B43BD
S315000013D04380111D7118CB788C78240223434C78F6
S315000013E024042343097809060B434360110008319E
S315000013F07118CB788C78240223434C782404234339
S31500001400097809060B43836011000C317118CB78FB
S315000014108C78240223434C78240423430978090654
S315000014200B43C360110010317118CB788C782402FD
S3150000143023434C7824042343097809060B430361AC
S31500001440110014317118CB788C78240223434C7820
S3150000145024042343097809060B4343611300183318
S31500001460F31859781B781B02194313001A33F31823
S315000014705C781B781B022343438713001C33F31845
S315000014805C781B781B022343838713001E33F55CAD
S315000014901F321400052D03D82A23EB40DB0703D4A3
S315000014A02B2C04D1200070BDFFF747FBF8E746F26E
S315000014B03873C0F2000346F60822C0F2000246F274
S315000014C02070C0F2000040F2D91103F074FD10B58F
S315000014D028B15A300C22002104F002FF10BD46F25A
S315000014E01073C0F2000346F6F412C0F2000246F290
S315000014F02070C0F2000040F2DF1103F05CFD10B571
S3150000150020B14023C05C4342584110BD46F21073DF
S31500001510C0F2000346F6DC12C0F2000246F220706A
S31500001520C0F2000040F2E51103F045FD10B538B1F8
S315000015307C23C35AA3B19923C35C9BB1002010E05E
S3150000154046F21073C0F2000346F6C412C0F200025F
S3150000155046F22070C0F2000040F2F11103F02BFDBC
S31500001560002010BD0120FCE710B5040048B1FFF7CC
S315000015708DFD18BB40F21C13E358012B11D8002037
S3150000158010BD46F21073C0F2000346F6A812C0F270
S31500001590000246F22070C0F2000040F2FD1103F096
S315000015A00AFDC43401F0CEFA0100200004F01EFA50
S315000015B040F2E833B0FBF3F080B2E1E74FF6FF709C
S315000015C0DEE710B5040048B1FFF760FD18BB40F236
S315000015D01C13E358012B11D8002010BD46F21073DE
S315000015E0C0F2000346F68C12C0F2000246F22070EA
S315000015F0C0F2000040F2132103F0DDFCC43401F018
S31500001600A1FA0100200004F0FDF940F2E833B0FB36
S31500001610F3F080B2E1E74FF6FF70DEE710B510B1E8
S315000016208423C05A10BD46F21073C0F2000346F67A
S315000016307812C0F2000246F22070C0F2000040F2BA
S31500001640292103F0B8FC10B550B16E23C35A012B03
S3150000165016D0022B17D0002B29D14A33C05E10BDFD
S3150000166046F21073C0F2000346F65812C0F20002AA
S3150000167046F22070C0F2000040F22F2103F09BFCDE
S315000016804E23C05EEBE75423C25E642392FBF3F164
S315000016904B43D31A01201BB2312B00DC0020C0B211
S315000016A0642392FBF3F292B2801800B2D7E70020CF
S315000016B0D5E710B538B1836840F2E832B1FBF2F1F4
S315000016C05B18836010BD46F21073C0F2000346F645
S315000016D04012C0F2000246F22070C0F2000040F252
S315000016E0442103F068FC10B538B1C36840F2E83213
S315000016F0B1FBF2F15B18C36010BD46F21073C0F285
S31500001700000346F62412C0F2000246F22070C0F230
S31500001710000040F24A2103F04EFC10B538B10369CF
S3150000172040F2E832B1FBF2F15B18036110BD46F2FC
S315000017301073C0F2000346F60412C0F2000246F22D
S315000017402070C0F2000040F2502103F034FC10B5C6
S3150000175038B1436940F2E832B1FBF2F15B184361FC
S3150000176010BD46F21073C0F2000346F6E802C0F25E
S31500001770000246F22070C0F2000040F2562103F04B
S315000017801AFC10B5040048B1FFF75DFF6823E25E5E
S315000017900123904200DC0023180010BD46F21073AE
S315000017A0C0F2000346F6C802C0F2000246F22070FC
S315000017B0C0F2000040F25C2103F0FDFB10B504000E
S315000017C028B1FFF76FFBBC230122E25410BD46F29D
S315000017D01073C0F2000346F6B402C0F2000246F2ED
S315000017E02070C0F2000040F2792103F0E4FB10B54E
S315000017F0040028B1FFF756FBBC230222E25410BDB9
S3150000180046F21073C0F2000346F6A002C0F20002D0
S3150000181046F22070C0F2000040F2802103F0CBFBBC
S3150000182070B5040038B1BC23C35CA3B90021200005
S31500001830FFF759FF70BD46F21073C0F2000346F67B
S315000018409002C0F2000246F22070C0F2000040F2A0
S31500001850872103F0B0FBC023C55801F073F9411B83
S3150000186003D4BC230022E254E1E7291AF9E710B5B4
S3150000187030B1BC23C05C013843425841C0B210BDF0
S3150000188046F21073C0F2000346F67002C0F2000280
S3150000189046F22070C0F2000040F2942103F08BFB68
S315000018A010B548B140F21C13C358032B16D0012BB8
S315000018B012D00020C0B210BD46F21073C0F2000371
S315000018C046F65802C0F2000246F22070C0F200004E
S315000018D040F2D32103F06FFB0120EBE70120E9E79B
S315000018E070B50500FFF7DCFF040070B14023EB5C28
S315000018F0012B25D9022B26D1BA33EB5C013B012BF8
S3150000190001D900241DE001241BE02800FFF74AFB53
S3150000191018B9C046C046C04613E02A6A9023E95A61
S315000019204B015B1A9B005B18DB00D51801F00AF926
S315000019302D1A002DEDDDC046C046C046012400E04C
S315000019400124200070BD0024FBE7F0B5C64600B5B3
S31500001950040050B17023C35C002B00D079E0037FF4
S3150000196093B9002080BCB846F0BD46F21073C0F2B1
S31500001970000346F62032C0F2000246F22070C0F2A2
S315000019800000BF2103F017FBFFF7AAFF002843D191
S315000019900027FFB29A23E35C002B4FD10026F6B254
S315000019A02000FFF7FFFA431E9841C3B29846200075
S315000019B0FFF7CAFA431E9841450043461D432000DF
S315000019C0FFF7D9FA431E984180000543FF003D43C7
S315000019D03823E35C5A1E93411B011D432000FFF789
S315000019E0D0FEC3171B1ADB0F5B011D433923E35CD3
S315000019F05A1E93419B011D432000FFF78EFA431E9A
S31500001A009841C0012843360230435223E35C5A1EF4
S31500001A1093415B021843A5E7656A6C23E25A5301BA
S31500001A209B1A9B009B18DB00ED1801F08BF82D1A12
S31500001A30002D01DD0027ACE70127AAE72000FFF70C
S31500001A40C8FA9E23E35A984201D30126A7E7002647
S31500001A50A5E7002086E710B5040080B17023C35CBB
S31500001A60E3B10023C3832000FFF79CFA18B9E38B88
S31500001A7001229343E3832000FFF76BF810BD46F283
S31500001A801073C0F2000346F6C432C0F2000246F2FA
S31500001A902070C0F20000852103F08DFA4223C35C5A
S31500001AA01BB1FFF752FFE083DDE7FFF74EFFE38B45
S31500001AB00343E383D7E710B558B10023C38300215E
S31500001AC0382281540132835419328354FFF7C3FFFD
S31500001AD010BD46F21073C0F2000346F6D832C0F2CB
S31500001AE0000246F22070C0F200007B2103F063FA88
S31500001AF070B5040050B1FFF7E0F9002800D07EE091
S31500001B004223E55C95B10233E55A79E046F210735B
S31500001B10C0F2000346F6C022C0F2000246F2207070
S31500001B20C0F2000040F20A1103F045FA6623E35CB6
S31500001B30012B30D0022B34D033B9E38B01229343EF
S31500001B40002B1ADD0125EDB29623E35C13B96B4237
S31500001B505D41EDB205B120252000FFF7C1FE10B1B1
S31500001B6004231D43ADB2BC23E35C012B34D0022B0E
S31500001B7035D102231D43ADB231E02000FFF7B7FA9D
S31500001B8028B92000FFF75FF918B90025DBE7012522
S31500001B90D9E70125D7E7E58B01239D436D42ED0F7C
S31500001BA0D2E72000FFF7FEF90028CDD1E38B012212
S31500001BB09343002B02DD0125EDB2C5E72000FFF7B8
S31500001BC096FA28B92000FFF73EF918B90025F3E781
S31500001BD00125F1E70125EFE701231D43ADB2AC2353
S31500001BE0E358012B07D03623E35C012B08D11023E1
S31500001BF01D43ADB204E008231D43ADB2F3E7002553
S31500001C00280070BD10B528B14223C35C93B14623AA
S31500001C10C05C10BD46F21073C0F2000346F65022B7
S31500001C20C0F2000246F22070C0F2000040F20F310E
S31500001C3003F0C1F9FFF754FE0028EAD06420E8E774
S31500001C4010B5040020B1FFF738F988B1002010BDA7
S31500001C5046F21073C0F2000346F66822C0F2000294
S31500001C6046F22070C0F2000040F2611103F0A3F9C1
S31500001C702000FFF7C7FFEAE770B50400002849D047
S31500001C80FFF790F82000FEF76CFF6E23E35A022B55
S31500001C904FD02000FFF704FE002864D03623E35C13
S31500001CA0012B00D188E0022B00D1A1E053B98C337F
S31500001CB0E35A012B03D15733E35A1B065CD400F0D9
S31500001CC041FFA0622000FFF70BFE05000200B423CF
S31500001CD0E35C13B1002800D19BE013B9002A00D0C1
S31500001CE0A3E0B423E5542000FFF7FAFD70B19A2370
S31500001CF0E35C1BB95822A25A120707D44BB1200045
S31500001D00FFF767F99C23E35A984202D300F01AFFC3
S31500001D10606270BD46F21073C0F2000346F6EC3204
S31500001D20C0F2000246F22070C0F20000242103F047
S31500001D3042F95433E35A6422B3FBF2F32232A25A35
S31500001D4093420CD8256B42F2107C654400F0FAFEF3
S31500001D502D1A002D9DDC37230122E25499E700F06D
S31500001D60F1FE206395E700F0EDFE206300F0EAFE49
S31500001D70A0620023A38691E7A56A40F2D07C654461
S31500001D8000F0E0FE2D1A002D9CDCA38E8E22A25AB6
S31500001D9093420BD338230122E2540023A386363321
S31500001DA00232E25400F0CEFEA0628BE70133A38636
S31500001DB036230122E254F5E75823E35A1B0610D5D1
S31500001DC0A56A40F6B83C654400F0BCFE2D1A002D0D
S31500001DD000DD77E700F0B6FEA06236230222E25469
S31500001DE070E736230022E25400F0ACFEA06269E7F9
S31500001DF0A56A41F2883C654400F0A4FE2D1A002D28
S31500001E0000DD5FE700F09EFEA06236230022E2546A
S31500001E1058E7B823E65800F095FE811B03D420004E
S31500001E20FFF77BFC5DE7311AF9E700F08BFEB8237C
S31500001E30E05056E710B5040020B18C23C35A012B9D
S31500001E4010D010BD46F21073C0F2000346F64402ED
S31500001E50C0F2000246F22070C0F2000040F2DA2121
S31500001E6003F0A9F800F06EFEA06236230122E254C8
S31500001E70E7E770B50400A8B140F22013C35C0BB3CA
S31500001E8003880133038040F22413E55800F05AFE1C
S31500001E90431B1BD440F2E832B3FBF2F3A268D3181B
S31500001EA0A36070BD46F21073C0F2000346F630021E
S31500001EB0C0F2000246F22070C0F2000040F2E321B8
S31500001EC003F079F8438801334380DCE72B1AE1E716
S31500001ED003006E22825A022A08D19632805C30B103
S31500001EE0613A985C43425841C0B200E00020704716
S31500001EF003009722805C20B11932985C4342584116
S31500001F00C0B2704710B58CB00400FEF7E2FF2B227A
S31500001F10002101A804F0E4F92B2101A800F075FCCA
S31500001F2030B9200000F0E7F801F0DAFB0CB010BD84
S31500001F3001A92000FFF71CFAF3E7F0B587B005000A
S31500001F40FFF79AFE280001F0FAFB280000F0B6F829
S31500001F5000F060FA68B940F2AC03C2F200031C68F4
S31500001F60F534FF3400F0EEFD241A002C05DD07B031
S31500001F70F0BD2800FFF76FFDEDE7002305AA1380EB
S31500001F8016226A4413806E33EB5A022B21D0522359
S31500001F900022EA5400F09BFA0400022000F090F9B7
S31500001FA00600012000F08CF90700002000F088F9F7
S31500001FB016236B441B88029305AB00229B5E01939C
S31500001FC000903B00320021002800FFF7C5F80024EE
S31500001FD014E0110005A800F0CAFD431E98415223E3
S31500001FE0E854D7E7E0B200F0EFF9230028335B00AE
S31500001FF0EB185A8912185A810134A4B2052CF1D96A
S3150000200000F0F0F900F09EFD40F2AC03C2F20003CE
S315000020101860ACE710B58CB0040000F093FD40F2F8
S31500002020E833B0FBF3F36068C01860602B22002130
S3150000203001A804F055F901A92000FFF701F92B21A9
S3150000204001A800F095FB0CB010BD10B5587F00F04C
S3150000205054F910BD10B540F2B002C2F200029288E7
S3150000206002B910BD1800FEF7E0FFFAE710B540F21E
S31500002070B004C2F200042178002000F01CFC617854
S31500002080012000F018FC10BD70B50500002409E021
S315000020900121A14029404942C90F200000F03AFC25
S315000020A00134E4B2062CF3D970BD10B540F2B0038A
S315000020B0C2F200035888FFF7E7FF10BD70B50500B0
S315000020C0FFF7BEFD40F2B004C2F200042070280003
S315000020D0FFF726F860702800FFF70AFD6080EB8B9B
S315000020E0A38000F02FFD010040F2B800C2F200000C
S315000020F003F0E9FB70BDF0B5C64600B582B0060038
S3150000210046F20D13C0F2000346F28522C0F2000229
S3150000211040F2B804C2F200040100200003F051FBB3
S3150000212042F26D08C0F2000840F2B005C2F20005A6
S3150000213000270097434601222900200003F05CFB9C
S31500002140691C009743460122200003F055FB42F22A
S31500002150AB03C0F20003A91C00970222200003F083
S315000021604BFB42F25503C0F20003291D00970222E1
S31500002170200003F041FB31001D3142F24B03C0F257
S31500002180000300970122200003F036FB3000FFF722
S3150000219095FF6888FFF778FF02B080BCB846F0BDAF
S315000021A010B547F20801C0F2000140F28C60C2F29D
S315000021B0000002F00CFDA0B946F6F471C0F2000171
S315000021C040F28C60C2F2000002F0FAFDC0B90020B5
S315000021D002F0A5FF40F28C60C2F2000002F0EFFBB5
S315000021E010BD46F25473C0F2000346F60842C0F230
S315000021F0000246F26870C0F20000132102F0DBFE16
S3150000220046F25473C0F2000346F60842C0F20002DA
S3150000221046F26870C0F20000162102F0CCFE30B51E
S3150000222085B040F2F003C2F200031C68F534FF34B7
S3150000223000F088FC241A002C01DD05B030BD46F6FE
S315000022401843C0F200031A8869460A809A788A7091
S3150000225001AA043331CB31C2002413E06B4619576F
S31500002260A20001ABD25840F23013C2F200031B8821
S315000022705B00D21840F28C60C2F2000002F0A4FBB0
S315000022800134E4B2022CE9D940F23011C2F2000165
S315000022900B8801330A2093FBF0F0820012185200DB
S315000022A09B1A0B8040F28C60C2F2000002F087FBA2
S315000022B000F048FC40F2F003C2F200031860BCE7ED
S315000022C070B584B001AA46F61843C0F20003043381
S315000022D070CB70C20023002106E0820001AC1259C7
S315000022E05C00A25A89180133092BF6D90A23B1FBDF
S315000022F0F3F080B204B070BD704770B5040040F2D0
S315000023003810C2F200000022002103F054FC46F609
S315000023109473C0F200039A68D569186863425C41F9
S31500002320E2B20A21A84770BD10B540F23810C2F2D9
S3150000233000000022002103F03EFC0020FFF7DDFF35
S3150000234010BD70B584B040F23413C2F200031C68AD
S31500002350023400F0F7FB241A002C01DD04B070BD36
S3150000236001AA46F62843C0F2000331CB31C200244D
S31500002370002600E00134052C16D800236A46D370E7
S3150000238046F69473C0F200039A689569186863006C
S3150000239001AA995A6B46DA1CA8476B46DB78012BD3
S315000023A0E8D1A3401E43E5E740F23810C2F2000030
S315000023B00522310003F00EFC00F0C4FB40F234139A
S315000023C0C2F200031860C9E71F2808D840F2381384
S315000023D0C2F2000322308000C05880B2704701204C
S315000023E04042FAE700230AE040F23812C2F2000245
S315000023F0190022318900002088500133DBB2052BF9
S31500002400F2D9704710B540F24820C2F2000003F03E
S3150000241077FB10BD40F24423C2F200031B78042070
S31500002420984280414042704770B586B040F24023E2
S31500002430C2F200031C68053400F084FB241A002C49
S3150000244001DD06B070BD02AA46F63443C0F20003B1
S3150000245031CB31C21B6813600024002500E0013433
S31500002460072C17D801236A46D37146F69473C0F237
S3150000247000039A6896691868630002AA995A6B461F
S31500002480DA1DB0476B46DB79002BE8D10133A34058
S315000024901D43E4E740F24820C2F20000052229006D
S315000024A003F06FFB40F24423C2F200031B78042BB7
S315000024B005D840F24422C2F200020133137000F044
S315000024C041FB40F24023C2F200031860B9E740F234
S315000024D04823C2F200031879704710B540F2D4239E
S315000024E0C2F200031B7833B340F2D023C2F20003DA
S315000024F01C68323400F026FB241A002C00DD10BDC7
S3150000250046F69473C0F200039A68D46918680022EC
S3150000251040F20041A04740F2D423C2F200031A78E9
S3150000252051424A411A7000F00DFB40F2D023C2F22C
S3150000253000031860E3E740F2D023C2F200031C68F0
S3150000254040F2D07C644400F0FDFA241A002CD6DC5C
S3150000255046F69473C0F200039A68D469186801229B
S3150000256040F20041A04740F2D423C2F200031A7899
S3150000257051424A411A7000F0E5FA40F2D023C2F205
S3150000258000031860BBE710B5810240F2000CC4F2EC
S31500002590100C614440F2D060C2F20000012202F049
S315000025A0C4F900B910BD46F27C73C0F2000346F6CA
S315000025B06C42C0F2000246F29070C0F20000872121
S315000025C002F0F9FCF8B5CE46474680B580460024B1
S315000025D001235B42994600250BE000234246136027
S315000025E0023B99464846C0BCB946B046F8BD0134E0
S315000025F0A4B27F2C23D8A00140F2000CC4F2100C28
S315000026006044C3788278120213434278120413435B
S3150000261007783F061F433F23C35C3E22865C360293
S315000026201E4300223E21FDF75DFFB042DFD17B1C39
S31500002630D3D0BD42DBD823B299463D00D7E701355A
S3150000264043461D60CEE710B540F2E423C2F2000314
S315000026501A682AB140F2E023C2F2000318689047D4
S3150000266010BD10B540F2E023C2F20003196040F23B
S31500002670E423C2F20003186047F28801C0F20001A9
S3150000268040F2D060C2F2000002F084F900282CD19A
S3150000269040F2D820C2F20000FFF794FF020040F299
S315000026A0DE23C2F200031880831C2DD001324CD0E9
S315000026B00130C217520E80187F2303409B1A40F246
S315000026C0DC22C2F2000213801A0748D046F6A07137
S315000026D0C0F2000140F24C64C2F20004200001F096
S315000026E0A4FC200001F0D5FC10BD46F27C73C0F2BC
S315000026F0000346F67842C0F2000246F29070C0F23D
S3150000270000002A2102F057FC0021C4F2100140F219
S31500002710D060C2F200000A3202F007F930B940F286
S31500002720DC23C2F2000300221A80CFE746F27C7354
S31500002730C0F2000346F67842C0F2000246F29070FC
S31500002740C0F20000302102F036FC0020FFF71BFF2C
S3150000275040F2DC23C2F2000300221A80B6E7DA1741
S315000027600F201040C018001180B2FFF70CFFADE734
S3150000277030B591B005000C003B2937D800230093F3
S315000027803C22002101A803F0ABFD40F2D823C2F29F
S3150000279000031B681A0E69460A701A0C4A701A0A58
S315000027A08A70CB702200290001A803F0A5FC002244
S315000027B03E216846FDF796FE020A3E236946CA5444
S315000027C00133C85440F2DC23C2F200031A88920196
S315000027D040F2000CC4F2100C624440F2D060C2F227
S315000027E00000402302F074F811B030BD46F2A87321
S315000027F0C0F2000346F65842C0F2000246F290705C
S31500002800C0F20000472102F0D6FB10B50A0040F2E4
S31500002810DE23C2F2000300215B5E002B1ADB9BB2B3
S315000028209B010421C4F2100159183B2A03D803F076
S3150000283063FC012010BD46F2A873C0F2000346F601
S315000028404442C0F2000246F29070C0F200005B21E2
S3150000285002F0B1FB0020EDE710B584B047F22C0181
S31500002860C0F2000140F2B060C2F2000001F02EFE9C
S3150000287090B940F2B064C2F20004200001F040FCBE
S3150000288001A9200001F010FD039A40F2E823C2F2EC
S3150000289000031A6004B010BD46F27C73C0F2000358
S315000028A046F69C42C0F2000246F2C470C0F2000036
S315000028B00F2102F080FB10B5642900D96421434240
S315000028C05841C4B240F2E823C2F2000318686422F9
S315000028D0521AD317002103F017FA6422002303F0DB
S315000028E0F3F9010040F2B060C2F20000220001F0EC
S315000028F063FC00B910BD46F27C73C0F2000346F6D5
S315000029008C42C0F2000246F2C470C0F200002821D8
S3150000291002F051FBF0B585B00A00694646F6AC43B5
S31500002920C0F200030C00E0CBE0C41B88238046F60F
S315000029309473C0F200039C68E4691D684000415A24
S31500002940531E9A41D2B22800A04705B0F0BD10B57B
S3150000295046F6B473C0F200039A681268186859689C
S31500002960904710BD70B504000A0046F6B473C0F275
S31500002970000399688D6818682100A84770BD10B5D6
S3150000298040F2F033C2F200031B680C00994200D9F2
S315000029901C0040F2F021C2F20001220003F0ACFB61
S315000029A0200010BD40F2F033C2F2000300221A608C
S315000029B0704710B504000379012B02D0042B04D014
S315000029C010BDC046C046C046FAE740F2F033C2F238
S315000029D000031B68FE2BF3D800F0B4F840F2EC239A
S315000029E0C2F20003186040F2F033C2F200031A6824
S315000029F0207A40F2F021C2F20001885401321A60B6
S31500002A00DEE710B540F2EC23C2F200031C6824187E
S31500002A1000F098F8201A431E1843C00F10BDF0B5F9
S31500002A20CE46474680B583B00700002440F2000832
S31500002A300CE0F369002240F20B11280098470121AF
S31500002A400A2002F0BEFA40F2010CE0444346072B8E
S31500002A502DD846F69473C0F200039E68F26991463B
S31500002A601D68FA0940F209112800C847F3690122D6
S31500002A7040F20B112800984701210A2002F0A1FA22
S31500002A8001236A46D371B369073240F20A1128005E
S31500002A9098476B46DB79013B5A4253411C434346F8
S31500002AA0072BC6D06400E4B27F00FFB2C1E746F64A
S31500002AB09473C0F200039A68D5691868002240F240
S31500002AC00911A847200003B0C0BCB946B046F0BD06
S31500002AD0013880235B04984215D24EF21002CEF2E2
S31500002AE0000250604EF60051CEF200010B6A1B0246
S31500002AF01B0AC020000603430B62002393600733C2
S31500002B001360002070470120FCE740F2F433C2F264
S31500002B1000031A6801321A60704710B540F2CC7390
S31500002B20C2F20003186840F2E833B0FBF3F0FFF797
S31500002B30CFFF4EF60052CEF20002136A1B021B0AAA
S31500002B40136210BD40F2F433C2F2000318687047F6
S31500002B5003004118002007E01A78424046F6BC40C0
S31500002B60C0F20000805C01338B42F5D37047F0B5AC
S31500002B70C64600B582B00600884646F2D873C0F253
S31500002B8000031A6800921B796A46137146F694731D
S31500002B90C0F200039D68EC691F68002240F2033111
S31500002BA03800A04701210A2002F00BFA002409E0B0
S31500002BB00020FFF734FF6B46185501210A2002F06A
S31500002BC000FA0134042CF3DDEB69012240F20331F3
S31500002BD03800984704216846FFF7BAFF6B461B7911
S31500002BE0984211D16B461A7812025B7813433380F0
S31500002BF06B469A781202DB78134342461380002014
S31500002C0002B080BCB846F0BDC046C046C0460120F2
S31500002C104042F5E730B542B1CC08035D07221140CA
S31500002C20063A8A401343035530BDCC08055D07229A
S31500002C300A4001239340DB435BB22B400355F3E785
S31500002C40830723B90006800E20B9013000E000207A
S31500002C50C0B270470020FBE771B140F20013994201
S31500002C6006D840F2F833C2F20003436000207047F2
S31500002C70002343600220FAE7002343600020F6E7C2
S31500002C8000207047F8B51400056A4B78022B2AD04D
S31500002C9009D8ABB1012B04D10B78012B1AD0012333
S31500002CA013700020F8BD032BFBD10B78012BF8D154
S31500002CB02B774B88202BF4D89B00C04AD3589F46CD
S31500002CC00B78013B012B02D901231370E9E700239E
S31500002CD01370E6E74B88202B02D800231370E0E739
S31500002CE002231370DDE70B78012B00D1C8E0022B1D
S31500002CF0D7D14A88292A00D9BFE09300B049CB58DA
S31500002D009F4600236380CCE785236380C9E741F6AD
S31500002D1006636380C5E740F2E9736380C1E7280074
S31500002D20FEF7BEFDB0B12800FEF7E2FEC70801239C
S31500002D301F402800FFF7DCF8431E984146003E433B
S31500002D402800FFF7C5F803005A1E93419B001E4357
S31500002D506680A6E72800FEF7CBFEC30801221340D3
S31500002D6063809EE75823EB5A63809AE72800FEF7B4
S31500002D70BFFE608095E72800FEF762FF608090E75F
S31500002D802800FEF7CDF960808BE74823EB5A638075
S31500002D9087E74A23EB5A638083E74C23EB5A638029
S31500002DA07FE74E23EB5A63807BE75423EB5A63801D
S31500002DB077E75623EB5A638073E75023EB5A638019
S31500002DC06FE72800FEF705F960806AE713001733FE
S31500002DD05B00EB185B89638063E740F21C13EB5AD8
S31500002DE063805EE72800FEF72EFC608059E7280026
S31500002DF0FEF7BAFB608054E72800FEF7E2FB60802E
S31500002E004FE7EB8B63804CE70023638049E72B8811
S31500002E10638046E70023638043E76B88638040E76F
S31500002E206D68FFF78FFE40F2E833B0FBF3F02D1824
S31500002E302D0C658035E76D68FFF784FE40F2E833B8
S31500002E40B0FBF3F02D1865802BE76B89638028E7CC
S31500002E502B89638025E7EB89638022E7AB89638052
S31500002E601FE76B8A63801CE72B8A638019E7EB8A6E
S31500002E70638016E7AB8A638013E70023638010E75D
S31500002E804B881D2B00D9B9E09B004E4AD3589F466C
S31500002E904223EB5C638004E74423EB5A638000E73C
S31500002EA04623EB5C4722AA5C120213436380F8E6D2
S31500002EB06B7F6380F5E6EB8F6380F2E66623EB5C5F
S31500002EC06380EEE66823EB5A6380EAE66A23EB5AF0
S31500002ED06380E6E66C23EB5A6380E2E66E23EB5AE8
S31500002EE06380DEE68C23EB5A6380DAE68E23EB5AA8
S31500002EF06380D6E69023EB5A6380D2E67823EB5ABA
S31500002F006380CEE67A23EB5A6380CAE69C23EB5AAB
S31500002F106380C6E69E23EB5A6380C2E67623EB5CAB
S31500002F205A1E93417022AA5C511E8A4152001343D5
S31500002F309322AA5C511E8A41920013439422AA5CF2
S31500002F40511E8A41D20013439522AA5C511E8A4122
S31500002F50120113439222AA5C511E8A415201134365
S31500002F609622AA5C511E8A41920113439A22AA5CB8
S31500002F70511E8A41D20113439922AA5C511E8A41ED
S31500002F80120213439722AA5C511E8A41520213432E
S31500002F90638086E67C23EB5A638082E69823EB5CAB
S31500002FA063807EE68423EB5A63807AE68623EB5AB7
S31500002FB0638076E68A23EB5A638072E6BC6D000076
S31500002FC0406E0000E86E00008823EB5A638068E6D6
S31500002FD06B8F638065E6AB8F638062E67E23EB5A78
S31500002FE063805EE68023EB5A63805AE68223EB5ABF
S31500002FF0638056E64023EB5C638052E600235380F1
S315000030004FE68B88072B00D94BE69B006E4AD358B8
S315000030109F462800FEF701F843E62800FEF705F86C
S315000030203FE62800FEF709F83BE62800FEF70DF814
S3150000303037E62800FEF73FFD33E62800FEF747FA9D
S315000030402FE600232B806B802BE689882800FDF76E
S31500003050D6FD26E689882800FDF7A2FD21E68B88A5
S315000030605A1E93414222AB541BE68A884423EA52F5
S3150000307017E60A794623EA548B881B0A4722AB5483
S315000030800FE68B885A1E93416B770AE68B88EB878F
S3150000309007E60A796623EA5403E60423CA5E682330
S315000030A0EA52FEE58A886A23EA52FAE58A886C23A0
S315000030B0EA52F6E58A886E23EA52F2E58A888C237C
S315000030C0EA52EEE58A888E23EA52EAE58A88902358
S315000030D0EA52E6E58A887823EA52E2E58A887A2384
S315000030E0EA52DEE58A889C23EA52DAE58A889E233C
S315000030F0EA52D6E58A8801231A4076202A548A881D
S3150000310052081A4006382A548A8892081A402330F0
S315000031102A548A88D2081A4001302A548A88120909
S315000031201A4001302A548A8852091A4003382A5410
S315000031308A8892091A4004302A548A88D2091A4089
S3150000314004302A548A88120A1A4001382A548A8876
S31500003150520A13409722AB54A3E58A887C23EA528D
S315000031609FE58A889823EA549BE58423EA5A8B884C
S315000031709A4200D195E58422AB52B0230022EA544C
S315000031808FE58A888623EA528BE58A888A23EA5263
S3150000319087E58A888823EA5283E58B886B8780E5F2
S315000031A08B88AB877DE58A887E23EA5279E58A8813
S315000031B08023EA5275E58A888223EA5271E50A7904
S315000031C04023EA546DE5C046606F000001600023AD
S315000031D04360836083818373C3730020704770B537
S315000031E004000D0011B1837B5D18ADB22368290080
S315000031F020009847022800D025B900236360A36009
S31500003200A38170BD6368E27B9B18A360A581F8E784
S3150000321010B50A000021FFF7E2FF10BD30B505002A
S3150000322000244FF6FF700CE04008013BDBB233B1DF
S31500003230C207F9D54008064A504080B2F5E7013486
S31500003240A4B28C4203D22B5D58400823EFE730BD71
S3150000325001A0FFFF70B504AC20CC24788560047310
S31500003260016042600022026210301900FFF7AEFFD3
S3150000327070BD70B504000E001500436803B1984791
S31500003280226A200010300221FFF7A9FF40B9A26987
S3150000329080235B4233431370A3695D70002070BDC9
S315000032A00820FCE7F0B5D6464F464646C0B584B082
S315000032B005000F00052B0CD103291CD012D80129BB
S315000032C049D0022915D140F2010A40F2D0710820F6
S315000032D015E00322FFF7CDFF04B0E0BCBA46B146C5
S315000032E0A846F0BD042904D140F2000A7D2102203F
S315000032F005E00C20F0E740F2000A7D2101209478D9
S3150000330053781B02234398461379D67836021E4318
S3150000331033B2994626B3B14222D380235B029B1B6C
S31500003320984523DC01AB187000225A705A809A80A7
S315000033309F710024B4422AD24346E31801A94B8068
S315000033402B6803AA28009847B0B903AB1A78CAB904
S315000033500134A4B2EEE78A4640F2D0710420CEE7EB
S31500003360032239002800FFF784FFB5E7022239005F
S315000033702800FFF77EFFAFE7042239002800FFF799
S3150000338078FFA9E739002800FFF773FFA4E7534643
S3150000339073B1F41DE410E4B2A11C2A6A28001030AF
S315000033A0FFF71DFF48B9AB691F70AB695C700DE094
S315000033B04B46DCB26400E4B2EEE708208CE7AB696A
S315000033C0821C9B1800221A700130C0B2A042F6D3AC
S315000033D001AB02225A7000240BE0A86903AB5A889D
S315000033E0531E9A41D2B202302100FFF713FC01347A
S315000033F0A4B2B44214D24346E31801A94B802B6809
S3150000340003AA280098475346002BE6D1AB69620011
S3150000341002329B1803AA5288110A19705A70E6E7FD
S31500003420002059E7F0B5DE4657464E464546E0B51C
S3150000343087B0070088461500052B22D90F2924D00E
S3150000344040F201097B21A8786E783602064332B233
S31500003450924600962879EC782402044322B201921F
S31500003460687910B1063B984214D0032241463800D1
S31500003470FFF7FFFE07B0F0BCBB46B246A946A04622
S31500003480F0BD0322FFF7F5FEF4E740F2040940F22F
S31500003490B071D8E73CB1A14205D34B46042B08D006
S315000034A06300984208D0032241463800FFF7E1FE48
S315000034B0E0E7E31DDB10F4E780235B021B1B009AA9
S315000034C09A420FDC03AB4A461A700121597000215B
S315000034D05980998042469A710026AB464D46009B1C
S315000034E0994619E0022241463800FFF7C2FEC1E7BD
S315000034F0F3085B449A79072333401A4101231340AA
S3150000350003A98B803B6805AA38009847A0B905AB8C
S315000035101A78BAB90136B6B2A64218D24B46F31893
S3150000352003AA5380042DE3D0730006335B445A7814
S315000035301B781B021343E3E7042241463800FFF7DA
S3150000354098FE97E741463800FFF793FE92E7A946B3
S315000035505D4603AB0321597040F2000B5E46AB4655
S315000035604D46009B99460FE0F3085B449A79072382
S3150000357033401A410123134003A98B803B6805AAF7
S31500003580380098470136B6B2A6420DD24B46F3181C
S3150000359003AA5380042DE7D0730006335B445A78A0
S315000035A01B781B021343E7E73A6A380010300521FF
S315000035B0FFF715FE78B9BB6942461A70BB69009AD7
S315000035C0160A5E7052469A70BB69240ADC70019A2C
S315000035D01A7100204EE708204CE7F8B50F001300DB
S315000035E00978002401E00134A4B2057BA54209D97B
S315000035F08668E5007219755D8D42F4D154683A000B
S31500003600A04702E00122FFF734FEF8BDF0B5DE4622
S3150000361057464E46C0B582B00700019114001D0002
S31500003620002640F20009043B9BB2FC2B1ED81678FC
S31500003630AB1E9B4699B21000FFF7F0FD5B46E31800
S315000036405A46A25C5B781B021343984210D1631C56
S315000036509A46033DABB2994600235BB99EB1019BE6
S31500003660B34210D001202C23184306E00123F4E7CF
S315000036700823F2E79B000120184302B0E0BCBB46DA
S31500003680B246A946F0BD0323BB77023BFB774B4608
S31500003690DAB251463800FFF7A0FF0400FFF7D0FA70
S315000036A048B1B98BD1B146B178690B1F9BB2FC2BDF
S315000036B00AD90420E1E72000DFE7396A3800103034
S315000036C0FFF7A6FD0020D8E7019B037002394418D6
S315000036D089B2FFF7A3FD2070000A60700020CCE7D6
S315000036E010B582B042F65943C0F2000342F6814259
S315000036F0C0F2000242F68541C0F2000140F2F840F5
S31500003700C2F200000324019440F20004C2F2000455
S315000037100094FFF79FFDFFF793FA08B102B010BDC2
S3150000372046F2E073C0F2000346F68072C0F2000271
S3150000373046F61000C0F20000A02101F03CFC30B5B6
S31500003740C1B00500FF220021684602F0C9FDFF2135
S315000037506846FFF714F9040008B941B030BD0A20E5
S31500003760FFF74FF90028F8D040F2F840C2F2000007
S315000037700562E3B26A460121FFF748FFFFF760FAE8
S3150000378068B140F2F843C2F200035869998BFFF71B
S31500003790E9F8FFF707F9FFF7D5F9E862DDE7FFF784
S315000037A001F9DAE710B582B0FFF7B7F9FEF72AFE9E
S315000037B0FFF752F8FEF7F4FCFFF7C9F8FEF7B4FD81
S315000037C040F21C54C2F2000442F21500C0F200009E
S315000037D02100FEF746FF2000FEF794FB03E0C046FB
S315000037E0C046C04630BF40F21C50C2F20000FEF791
S315000037F0A4FBFEF772FEFEF717FEFEF710FDFEF7BE
S31500003800A0FD01236A46D37146F69473C0F2000305
S315000038109A68946918686B46DA1D40F20621A0473B
S315000038206B46DB79002BDDD1D9E710B538B94CF200
S315000038300003C4F27E0390220121995410BD022890
S31500003840FCD147F29C01C0F2000140F24460C2F292
S31500003850000000F0CCFBF1E710B5FFF7A3FF002056
S3150000386010BD4161826100207047FFFF30B5046AD8
S31500003870A3787B252B40A37083789B079B0FD21AD6
S315000038800261CB18C360026A9378802464422343A2
S31500003890DBB29370827803231340022B04D0036AB1
S315000038A00A78DA70002030BD0988026A024B0B43A1
S315000038B09BB2D381F6E7C04600FEFFFF4162C262BB
S315000038C083620020704701235B424B600B6000203F
S315000038D0704710B503008A070DD5006A82787B24ED
S315000038E02240827000221A610020C90702D50022F8
S315000038F09A61002010BD0620F7E783690B6000235C
S3150000390083610020704710B58B7843704A78920720
S315000039100378920F0324A34313430370CB78837475
S31500003920C3795C22934309780A401343C37110BDDF
S3150000393010B50B7813B9036A224A9A828B781B0159
S31500003940CA78D20013434A78032A03D0002A2CD01F
S31500003950F22202E03D321343B232046ADBB2237034
S31500003960046AD2B2A271C9690B7B5B00026A0224A7
S31500003970234053734A78D201FF2313408C786401A5
S31500003980202222401343026A002414720A78023A63
S31500003990D2B2012A0ED8026AFF3454700A78022A7B
S315000039A005D0026ADBB2D37110BDE222D5E70E3232
S315000039B01343F6E7026ADBB2D3714968006AFFF780
S315000039C0A2FFF1E700F8FFFF70B50400026A9378E2
S315000039D07B251D400B20034093700023E360206A83
S315000039E0FFF791FF236A9D70002070BDF0B5C646B3
S315000039F000B584B004009446806AD8B16B460600D0
S31500003A00A4CEA4C31D0033682B60E3691B78036052
S31500003A10816063460371E36AC360636A9847A26A7A
S31500003A2022B16B4631CB31C21B68136004B080BC37
S31500003A30B846F0BD6846E8E710B5040000234360C9
S31500003A40026A9370C3690520185601F068FBE369A2
S31500003A500B20185601F063FBE3690720185601F0A6
S31500003A605EFBE3690920185601F059FBEFF310805D
S31500003A70012383F3108846F6FC73C4F204035A68E4
S31500003A80E1690C7880210906E1400A435A605B68C7
S31500003A9080F31088002010BD70B506000D001400DC
S31500003AA0100001F03CFB200001F0E2FA3200290090
S31500003AB0200001F0FEFA70BD70B505000C00897A91
S31500003AC00B22A256FFF7E8FF21790522A25628000D
S31500003AD0FFF7E2FFA1790722A2562800FFF7DCFFD5
S31500003AE0217A0922A2562800FFF7D6FF70BDF8B545
S31500003AF004000D000B7843F6000CC0F2002C634462
S31500003B005B01036200230370C1614A6942628A69EC
S31500003B10C262836283780322934301221343837034
S31500003B204B782BB983780322934302221343837085
S31500003B3029002000FFF7C0FFEFF31086012080F375
S31500003B40108846F6FC73C4F204035A682F78802165
S31500003B500906F9408A435A605B6886F31088226A30
S31500003B6000239370226A1371226A5372226A937237
S31500003B70226AD372226A53832A7840F20F23D340F3
S31500003B80184202D0236A4022DA74236A06221A7780
S31500003B9029002000FFF7CCFE0023E3602361636168
S31500003BA0A361ED692E78E3690520185601F0AFFA96
S31500003BB0E3690B20185601F0AAFAE36907201856A4
S31500003BC001F0A5FAE3690920185601F0A0FA0323CB
S31500003BD0334070221343DBB2226A93706B892381D0
S31500003BE044F65513C5F2433363600020F8BDFFFF6A
S31500003BF010B5EFF30384E405E40D103C64B2200035
S31500003C0001F036FA40F24073C2F20003A400E05815
S31500003C10C3691B6993B103697BB9026A93787F21F3
S31500003C200B4004210B43DBB293700023C360436A4D
S31500003C301BB180220021FFF7D9FE10BD0369002BBE
S31500003C40E9D0827803231340022B0DD0C268036AA1
S31500003C501278DA70026983789B079B0FD21A026189
S31500003C60C268D318C360D6E7C3681988026A024BD4
S31500003C700B439BB2D381EDE700FEFFFF10B582B088
S31500003C80EFF30384E405E40D103C64B2200001F078
S31500003C90EFF940F24073C2F20003A400E458A278A0
S31500003CA003231340022B0DD0236A5B790193A3698A
S31500003CB07BB9636A23B1019904222000FFF796FEBF
S31500003CC002B010BD236A1B8A40F2FF121340019313
S31500003CD0EDE76069A2789207920F01A902F00CFA4B
S31500003CE06269A3789B079B0FD2186261A269D31AF7
S31500003CF0A361002BE4D1636A002BE1D001220021ED
S31500003D002000FFF773FEDBE710B5EFF30384E4054D
S31500003D10E40D103C64B240F24073C2F20003A2000C
S31500003D20D058026A93787B210B409370436A1BB18B
S31500003D3002220021FFF75AFE200001F099F910BD7A
S31500003D4070B5EFF30384E405E40D103C64B240F271
S31500003D504073C2F20003A200D058827803231340B6
S31500003D60022B1AD0036A5979C9B2036A1D7938221F
S31500003D702A40ED0605D51D7FED0702D440252A43CE
S31500003D80D2B21D793826B5431D71436A0BB1FFF7D0
S31500003D902DFE200001F06CF970BD036A198A40F20D
S31500003DA0FF131940E1E7EFF31081012383F3108835
S31500003DB040F23C73C2F200031B683BB940F6005365
S31500003DC0C4F204030022DA704032DA7040F23C7327
S31500003DD0C2F200031A6801321A6081F31088704734
S31500003DE0EFF31082012383F3108840F23C73C2F292
S31500003DF000031B6833B140F23C73C2F2000319683A
S31500003E000139196040F23C73C2F200031B683BB9EA
S31500003E1040F60053C4F204030021D9708031D970F2
S31500003E2082F310887047002303600020704710B5A6
S31500003E300B0AFF20084040F60004C4F204041901EE
S31500003E40091889000B599B07DB0F1370002010BD62
S31500003E50090A490140F2000CC4F2040C61444B68A3
S31500003E6013800020704718001040D24312B21A4047
S31500003E70090A490140F2000CC4F2040C6144120420
S31500003E801043886000207047FF20084001238340CC
S31500003E909BB26AB91A000023090A490140F2000CD4
S31500003EA0C4F2040C6144120413438B600020704773
S31500003EB00022F1E710B51000090A490140F2000C92
S31500003EC0C4F2040C61440A681C0004408343224384
S31500003ED09A430A60002010BD090A490140F2000C0D
S31500003EE0C4F2040C61444B681B0C1380002070471D
S31500003EF00B0A5B0140F2000CC4F2040C63445868E0
S31500003F00000CFF231940FE3B8B4099B203408B42C5
S31500003F1003D0002313700020704701231370FAE7C3
S31500003F2018001040D24312B21A40090A490140F261
S31500003F30000CC4F2040C614412041043C860002053
S31500003F407047000A400140F2000CC4F2040C6044C1
S31500003F5001238B40C168012A04D099431B040B43FB
S31500003F60C36070471A0491430B43F9E710B5FF236A
S31500003F70080098431940FFF7E4FF002010BDFFFF3B
S31500003F8030B50300CA030FD5020AFF24044040F6E9
S31500003F900000C4F204001201121992001558084CD0
S31500003FA0254015500C401450180AFF22134040F6C5
S31500003FB00002C4F204020001C0188000815030BD26
S31500003FC0FFFFFEFF70B50500FFF7EDFE002408E0D9
S31500003FD06B68E2009B1898881968FFF7D1FF0134D7
S31500003FE0A4B22B88A342F3D8FFF7FAFE70BD10B532
S31500003FF045F25423C5F24F0303600800FFF7E2FFC2
S31500004000002010BD10B50800FFF7DCFF002010BD32
S3150000401070B50C001500FFF7C6FE29002000FFF75B
S31500004020AFFFFFF7DDFE002070BD70B50400022370
S31500004030CB56037146F20002C4F20002C0339B0065
S315000040409D58002098508B68A360CB68E3600E787B
S315000040506671905508790001C0B24B79DB01DBB27D
S315000040600343C878034393550423E356C0339B00A8
S315000040709D5004202056002806DA44F25533C0F23B
S3150000408049032360002070BD4978220001F011F831
S31500004090F3E710B5007940B201F039F8002010BD01
S315000040A070B582B0EFF30384E405E40D103C64B20E
S315000040B040F24073C2F20003A200D5586A7946F274
S315000040C00003C4F200039B5C9B079B0F032B0BD1E1
S315000040D00126AB682BB16A790192EA6800926846BC
S315000040E098474EB902B070BD200000F0C1FF0DB177
S315000040F00026EEE70026F4E7200000F0B9FFF1E71E
S315000041008368C2685A6000207047416001230374C7
S31500004110C3681B0701D0002303740B7C40F2807C2C
S31500004120C0F2400C63441B0283604B6943618B6998
S31500004130C361002383617047826880231B06136175
S315000041408268536182689361826800235362826841
S3150000415093627047F0B58668B56E01354F424F41A0
S315000041600024A94264413C431CB3DB0713D4746B9F
S31500004170E406E40E43681B78032B10D91023234072
S3150000418058424341DBB201B913B18D420ED86BB12F
S31500004190022353600FE0746BE402E40EEAE70C239B
S315000041A02340043B58424341DBB2ECE70323536010
S315000041B001E001391160F0BDF0B5C64600B582B028
S315000041C00600884614000327174001235B4200932C
S315000041D00023019313006A46FFF7BCFFB068056B26
S315000041E0019989B923072CD40223A2072BD5009A5B
S315000041F094461A0012329200821860465060B268E5
S3150000420013339B00D3185860630605D5B268106C4B
S315000042108023DB0303431364012F03D0134B2B408E
S315000042200D041D43022C17D027B1114B2B40019DC5
S315000042302D061D43B3681D63002002B080BCB8463E
S31500004240F0BD0423D1E7DB19009A944612339A0095
S31500004250821863465360D7E70029E5D001236A46F2
S3150000426041463000FFF776FFDEE7C046FFFFFCFF62
S31500004270FFFFFFFC10B58368DB6A5B015B0F5B0029
S31500004280DBB24EF20002C4F20102116A07221400E8
S315000042900C40090E0A4040F2CC71C2F200010868D7
S315000042A09040E040D84010BD10B50C0083685B6EAE
S315000042B001338B60FFF7DEFF60600123237000206F
S315000042C010BD8B010A01134340F20012134302781A
S315000042D0022A04D0032A05D031B1092000E00920C2
S315000042E0184370470320FBE70620F9E74368DB69BC
S315000042F030229A5CD20703D59A6A8168013ACA6469
S3150000430030229A5C920703D5DB6A8268013B13650B
S31500004310704710B5002800DA10BD00F011FFFBE76A
S31500004320F0B5C64600B582B004000D00CE69EFF3C5
S315000043301081012383F3108846F6FC73C4F204034C
S31500004340DB682A7C032A00D9A9E0212252421A40BE
S3150000435046F6FC73C4F20403DA60DB6881F3108866
S31500004360A3684AF200521A60A2680023D362A268C8
S31500004370D363A26893642B7A5B081B066F68013FC0
S315000043802A78032A00D18DE0A268D3622000FFF7C5
S31500004390D3FEA368B269DA61A368F2691A62A368F8
S315000043A09F66A3685F66B36B984601235B420093E2
S315000043B0002301932B781BB96B685B08013B0093C4
S315000043C02B78012B00D971E0A268009B5365A26887
S315000043D093652A78032A03D9A268D365A26813666F
S315000043E0019B1F041B061F43B36B93B9337833B18C
S315000043F071782800FFF765FF434603439846B37874
S315000044003BB1F1782800FFF75CFF00044346034305
S3150000441098462000FFF76AFFA26800239363A1680D
S3150000442088228B50B36B4BB92033F35C5B03424657
S3150000443013432122B25C52071A4390463023F35CA1
S31500004440002B3AD1AA22D203A3681A642B78012B37
S3150000445036D0A36842465A63A26803233B431363DC
S31500004460A368012217431F63A368E268DA6012207B
S315000044702856697C2200FFF74CFF2223F15C0233A9
S31500004480F0562200FFF745FF2323F15C0233F05676
S315000044902200FFF73EFF02B080BCB846F0BD4122C5
S315000044A0524254E78022520213436DE7E968002323
S315000044B06A462000FFF74EFE86E7A022D203C3E736
S315000044C0A2680023D364A2681365C2E770B504002E
S315000044D00D000A7C01239340C360FFF716FE2900F6
S315000044E02000FFF71DFF45F25403C0F24703236087
S315000044F0002070BDC26844F23F2CC0F20F0C62442B
S3150000450044F24023C0F20F03B2FBF3F3C36048F654
S315000045103F21C0F2F7118A4203D9DA0701D50133E8
S31500004520C360836844F23F2CC0F20F0C634444F22C
S315000045304022C0F20F02B3FBF2F3836040F28352D3
S315000045405A4340F2060CB2FBFCF2026140F27632AC
S315000045505A43B2FBFCF2426158225A43B2FBFCF2C8
S31500004560826146F6B822C0F205025A43B2FBFCF25B
S31500004570C2615A01D21A9200D21891018A1A920186
S31500004580B2FBFCF202624EF66852C0F222025A43B5
S31500004590B2FBFCF242624CF20003C4F27E0343F625
S315000045A0C07200219954704710B540F2000CCBF64A
S315000045B0F05C61440C0C4CF20003C4F27E0340F242
S315000045C010129C5289B2083A9952017828329950B1
S315000045D01C3A8121995410BD30B5091801394CF2A5
S315000045E00003C4F27E0340F2041400251D55050C99
S315000045F00C341D5380B2083C18530C0C40F22010AA
S315000046001C5089B208381952D2B240F214115A54C9
S3150000461030BD41438B08032902D9013B002BFCD155
S31500004620704710B504004EF20003C4F201031B6A82
S315000046301B0E0721194040F2CC73C2F200031B681F
S315000046401A008A40CA40C26040F6FF01C0F23D012E
S315000046508A4211D844F24021C0F20F018A420BD09F
S3150000466048F28041C0F21E018A4205D04CF2C06178
S31500004670C0F22D018A4223D14EF20002C4F2010299
S31500004680116A090E07220A409340D340A360200016
S31500004690FFF730FF4CF20003C4F27E0390229B5CCE
S315000046A0012B01D1002010BD4CF20003C4F27E03A1
S315000046B001219954A1680620FFF7ABFF0020F2E71D
S315000046C040F2F610EFE74CF20003C4F27E0340F22C
S315000046D08012A5219950803A9854C143C9B2995481
S315000046E098549B5CDBB2834200D07047C046FCE71F
S315000046F010B504004CF20003C4F27E0343F6B07218
S315000047000649995281680620FFF783FF1020FFF7BC
S31500004710DAFFA1680320FFF77CFF10BD80AAFFFF28
S3150000472010B582B0040044F6003301930820FFF769
S31500004730CAFFA1681020FFF76CFF4CF20003C4F219
S315000047407E0343F6B0720B49995202E0019B013B8E
S3150000475001934CF20003C4F27E0343F6B0729B5AF7
S315000047609BB223B1019B002BF0D1142000E0002066
S3150000477002B010BD00AAFFFF10B5040034230022CA
S31500004780C2544CF20003C4F27E0343F6B0729B5A45
S315000047909BB26BB14CF20003C4F27E0340F22412CA
S315000047A001219950002199502000FFF7B9FF10BD53
S315000047B0FFF79EFFEEE710B582B0019002E0019B85
S315000047C0013B01934CF20003C4F27E0340F22C122B
S315000047D09B585B0605D4019B002BF0D1142002B038
S315000047E010BD4CF20003C4F27E03183A995C7F2494
S315000047F0214099540021995401904CF20003C4F2CF
S315000048007E0340F22C129B585B0605D5019B2BB10B
S31500004810019B013B0193F0E70020E0E71420DEE76F
S31500004820F8B50500080017001E00FFF7C4FF0400D6
S3150000483014280CD04CF20003C4F27E0340F2F012AE
S315000048409B583C001C401F4205D12000F8BD2800A3
S31500004850FFF792FFF9E72800FFF78EFF3400F4E731
S3150000486010B50400416918231222FFF7D9FF48B991
S31500004870A36A0133A362E16A0131E162206B013868
S31500004880206300B910BD1800FFF78EFE0820F9E777
S3150000489070B50500C26281620363FFF729FF4CF21F
S315000048A00003C4F27E0340F2041200219954E96A1F
S315000048B0A86AFFF779FE2800FFF7D2FF0400082850
S315000048C0F9D008B1200070BD2800FFF729FFF9E7ED
S315000048D070B5342400250555FFF7DAFF70BDF8B52D
S315000048E004000D0017001E00FFF702FF0023CBF6A1
S315000048F0F053E818A0622763310079438422FFF75A
S315000049006BFE63681B7813B100252800F8BD216A89
S315000049107943193311222000FFF782FF0500002892
S31500004920F3D12000FFF7FCFEEFE710B53423002497
S31500004930C454890A890240F20043FFF7D0FF10BD34
S3150000494070B50400FFF7D4FEE3681F2B13D9203B94
S315000049505B081F333F2213404CF20002C4F27E0272
S3150000496040F2D81011583F25A9430B43135020009D
S31500004970FFF7D6FE70BD013B1F2213404CF200022A
S31500004980C4F27E0240F2D81011583F25A9430B43CA
S315000049901350ECE710B50400416034230022C254E2
S315000049A0FFF73FFE00B110BD2000FFF7C9FF00284A
S315000049B0F9D144F24E53C4F650732360F3E703680B
S315000049C0828A1A8000207047036810314900CB5A4A
S315000049D01380002070474EF20003C4F201031A6AE6
S315000049E0072319001140120E134040F2CC72C2F296
S315000049F0000212689A40CA4040F2E833B2FBF3F272
S31500004A0041F28833534344F24022C0F20F02B3FB13
S31500004A10F2F30133062B00D807230360704730B545
S31500004A2083B005000C000023019301A8FFF7D3FF14
S31500004A30236862681343802189051A000A400B42E5
S31500004A4009D02868019AD2B2DE214254A2689200A7
S31500004A5012D440F200125B0012D52868019BDBB22B
S31500004A60DF21435440F200231343A168490006D5D1
S31500004A7040F202231A4303E040F20112EBE71A0068
S31500004A802B6892B25A8203B030BD70B588B004006C
S31500004A900E00C569A5B120222900684601F02CFB4D
S31500004AA020223100280001F027FBA369280098473F
S31500004AB0E06918B12022694601F01EFB08B070BDFE
S31500004AC00D00F2E7F8B5DE4657464E464546E0B5D8
S31500004AD005004C698B785B0340F240221343A078B3
S31500004AE0002858D1413AFF3A1A433F2855D040F2A0
S31500004AF0002313436279920702D540F20042134322
S31500004B002279002A4BD0802213439BB2AB82A27833
S31500004B10120243F600771740E0783F22024017431F
S31500004B200E79F60362785201164322789446EFF323
S31500004B30108940F2010B8BF3108846F6FC72C4F222
S31500004B400402D068804609888A4610215046091A10
S31500004B505846884041468143D160D26889F310881F
S31500004B60296847F6FF5213400B802A68BFB21782A6
S31500004B702A68B6B2D6812B6862461A7363799A0799
S31500004B8013D42A6861798A23D154F0BCBB46B24655
S31500004B90A946A046F8BD0022A6E70023A9E73F28BC
S31500004BA0B3D148F200021343AFE729680322134347
S31500004BB0DBB28A228B540121012000F002FAE0E7E1
S31500004BC010B5002800DA10BD00F0BAFAFBE7F8B518
S31500004BD004000D004E694160CB6883610B69036276
S31500004BE00027C7610B885B024CF2000CC4F2050C6F
S31500004BF063440360FFF766FF06202856697A2200A1
S31500004C00FFF7DEFF07202856A97A2200FFF7D8FF14
S31500004C1007203056717A2200FFF7D2FF082030565F
S31500004C20B17A2200FFF7CCFF276144F24343C5F275
S31500004C304123A3600020F8BDF0B5DE4657464E4638
S31500004C404546E0B583B004000D000E685A490E4093
S31500004C5043685B699B466A680A40AB680B4001681B
S31500004C60B0B28880216890B28882216898B20881A3
S31500004C702168300CC8802168120CCA8222681B0C7D
S31500004C80538129002000FFF7CAFEEB68002B00D1F4
S31500004C908EE01A89110552D520689021425220686B
S31500004CA059898C469C2167464752206899898C46CB
S31500004CB09E216746475219688A462068844688B20C
S31500004CC0804694206746414639525146080C216871
S31500004CD089463A498846084040F2960C4946674656
S31500004CE0C8535146490F206881460320014040F2CF
S31500004CF0920C4F46604639545968206881460191A6
S31500004D0069468888824640F2980C4846674651466E
S31500004D10C1530199090C8C4621688946474661466C
S31500004D200F4040F29A08494640460F520199490FF2
S31500004D3020688446032008409321674678541989E1
S31500004D4089050FD5997CD87C27680143A62039545C
S31500004D502068D9898C46A821674647522168188A57
S31500004D60AA23C85221689023CA522268298A103B76
S31500004D70D1525B461B797BB127683D881F239D4333
S31500004D80C6B1300000F082FFC0B22D1A1F35ABB29B
S31500004D903B80A28A1343A38244F24343C5F24123D4
S31500004DA0E36003B0F0BCBB46B246A946A046F0BDE0
S31500004DB00022D7E72020E8E7FFFFFF9FFF9FFFFFC6
S31500004DC070B504000D00FFF737FF2B682361002044
S31500004DD070BD30B589B00400EFF30383DB05DB0D4E
S31500004DE0103B5BB240F24072C2F200029B009D583B
S31500004DF0EFF30380C005C00D103840B200F038F95B
S31500004E006B469C706B681B886A461380002313727E
S31500004E102B6A0193AB691BB169462800FFF735FE83
S31500004E2009B030BD10B50020FFF7D3FF10BD4EF21C
S31500004E300003C4F20103A0229B5CDBB2834223D0B1
S31500004E404EF20003C4F201036A3A9B5C3BB94EF290
S31500004E500003C4F201033C229B5CDB07F7D54EF24C
S31500004E600003C4F20103A0229B5CDB06F7D44EF2DA
S31500004E700003C4F2010398544EF20003C4F2010386
S31500004E80A0229B5CDB06F7D470474EF20003C4F207
S31500004E90010340F280420121995470474EF200030B
S31500004EA0C4F201032622995C1A6A120E07231340E4
S31500004EB040F27C02C2F2000289008A58DA4040F2CF
S31500004EC0CC73C2F200031A60704710B540F27C033F
S31500004ED0C2F2000349F20002C0F2D0321A6041F277
S31500004EE00022C0F27A025A6048F200029A6042F248
S31500004EF00042C0F2F402DA6000221A61FFF7CEFF28
S31500004F0010BD10B54EF20003C4F2010340F20012C8
S31500004F10C0F200121A62262200219954FFF7BEFF42
S31500004F2010BDFFFF70B54EF20004C4F2010440F25A
S31500004F30FE331A4AE2524CF20003C4F27E03002505
S31500004F4043F6C8729D54FFF7C0FF40F21343E55481
S31500004F50A2230922E254FFF798FF0020FFF767FF1C
S31500004F603623E5544EF20003C4F201033C229B5C57
S31500004F70DB07F7D5FFF7C5FF4EF20003C4F20103C6
S31500004F8040F2FE32064999524CF20003C4F27E0307
S31500004F9043F6C8720121995470BDC04603A5FFFFB0
S31500004FA000A5FFFF44F20003C4F2040328220021F7
S31500004FB099547047704700BEFEE701380028FCD1BF
S31500004FC0704770B541430D0040F2CC73C2F2000346
S31500004FD01C684CF60023C3F69A33B3FBF4F440F294
S31500004FE0E83200230800002100F08EFE31B9B0FB44
S31500004FF0F4F0800808B1FFF7E0FF70BDA000B5FB34
S31500005000F0F040F2E8320023002100F07DFE002996
S31500005010F0D001204042EEE710B540F20873C2F22C
S3150000502000038200D35803B1984710BD70B546F20D
S315000050300003C4F2000340F220129A5A40F24011D3
S315000050405D5A1540002401E00134E4B20C2C07D867
S315000050502B00E340DB07F7D52000FFF7DDFFF3E782
S3150000506046F20003C4F2000340F230129D5270BDB6
S3150000507046F20003C4F20003C0308000C258024961
S315000050800A40C250C3587047FFFFFEFF10B5040028
S31500005090FFF7EEFFBFF35F8F1F2222406409012353
S315000050A093404EF20012CEF200026034A400A350E8
S315000050B010BDF0B5C64600B5904683084EF20017FF
S315000050C0CEF20007C0339B00DE5903250540ED00F4
S315000050D0FF242200AA40964389010C40AC40264397
S315000050E0DE5140F24073C2F20003800042461A507D
S315000050F080BCB846F0BD1F22024040090123934000
S315000051004EF20012CEF2000280008350704710B5B6
S315000051100400FFF7BBFF2000FFF7EDFF10BD1F22C5
S3150000512002404009012393404EF20012CEF20002E3
S31500005130203080008350BFF34F8FBFF36F8F7047CF
S3150000514010B50400FFF7B5FF2000FFF7E0FF10BD24
S31500005150002300E001331F2B0FD847F2F012C0F2F4
S315000051600002D25C002AF5D046F20001C4F200012A
S315000051701800C03080004250ECE7704730B5EFF3BE
S315000051801081012383F3108840F2C073C2F200033A
S315000051904200D35A9BB243B140F2C072C2F200023F
S315000051A04400A35A013B9BB2A35240F2C073C2F221
S315000051B000034200D35A9BB293B94EF20004C4F2E4
S315000051C0010440F2FE35635B47F26822C0F200023A
S315000051D04000825AD24392B20348034313406353BA
S315000051E081F3108830BDC04600A5FFFF70B5EFF310
S315000051F01081012383F3108840F2C073C2F20003CA
S315000052004200D35A9BB28BB94EF20002C4F201029D
S3150000521040F2FE35545B47F26823C0F200034600B5
S31500005220F35A1C43074B23439BB2535340F2C072BD
S31500005230C2F200024000835A01339BB2835281F3CB
S31500005240108870BD00A5FFFF10B5030040F2C872BC
S31500005250C2F200021268A2B140F2C872C2F20002A3
S315000052601068033303229343C31840F60052C2F278
S31500005270000293420FD840F2C872C2F200021360D5
S3150000528010BD40F2C872C2F2000240F61811C2F216
S3150000529000011160E0E701F00FF80C230360012024
S315000052A04042EDE700BE704710B500F041F8FEF74A
S315000052B0D3FAFEE730B583B06B46DC1D00232370BE
S315000052C023780120FFF792FFEFF31081012080F38E
S315000052D0108846F6FC73C4F204039A68134D2A40FC
S315000052E09A609A6881F3108840F60002C4F20402BC
S315000052F01168C907C90F21701168C907C90F217044
S315000053001268D207D20F2270EFF3108180F3108853
S3150000531098688022520502439A609B6881F3108840
S315000053200120FFF72BFF03B030BDC046FFFFFFEFA4
S3150000533070B540F20004C0F200044EF60053CEF2FF
S3150000534000039C600020FEF770FAFFF7EBFDFFF705
S31500005350B1FF0120FEF769FA40F60053C4F20003DC
S3150000536000229A80274A1A80226827495118996094
S31500005370DA6046F20002C4F2000240F2201141F265
S315000053800000505201229A8040F61812C2F2000222
S3150000539040F29000C2F20000121A002100F0A0FFB5
S315000053A040F27C02C2F2000240F20000C2F20000AB
S315000053B0121A47F27421C0F2000100F09DFE40F27D
S315000053C07805C2F2000540F27403C2F20003ED1A3A
S315000053D0AD10002407E040F27403C2F20003A200FD
S315000053E0D35898470134AC42F5DBFFF757FDFFF77A
S315000053F0D9FD0220FEF719FAFFF7AAFE0020FFF7F3
S31500005400D9FD70BD00A5FFFF00FCFFFF70B50400CD
S315000054100D001600002301E001339BB2A08A9842DA
S3150000542007D920699A001058A842F5D13380002088
S3150000543070BDE18A88420CD0A38A3380E28A934207
S315000054401DD022699B00D550A38A0133A382002078
S31500005450EEE7E36A6BB14FF6FF7291420BD020691B
S3150000546001318900984740B12061E38A0133E38224
S31500005470E2E70320DCE70320DAE70220D8E7002092
S31500005480D6E770B504000D001600002301E00133D5
S315000054909BB2A08B984207D9A0699A001058A842DF
S315000054A0F5D13380002070BDE18B88420CD0A38BF0
S315000054B03380E28B93421DD0A2699B00D550A38B0B
S315000054C00133A3830020EEE7E36A6BB14FF6FF7268
S315000054D091420BD0A06901318900984740B1A06183
S315000054E0E38B0133E383E2E70320DCE70320DAE71B
S315000054F00220D8E70020D6E700991A6A4B005B180D
S315000055009B00D31802229A72704702690368090148
S315000055105B185B899B00985845F2F943C0F200037B
S31500005520C01A43425841C0B27047F0B583B0030079
S315000055301400026809015118806922899200865870
S315000055400A89032A0CD8081D1F69E588AD00ED59A4
S315000055509B6A09680096A8470023A37203B0F0BDB2
S315000055604868F1E7F0B5C64600B58CB00400019175
S3150000557017001D008388C688B34213D1C36A002B67
S3150000558000D110E14FF6FF72964200D10DE100689E
S31500005590013631019847002800D108E12060E388F0
S315000055A00133E380262202AB9C466244002313802B
S315000055B029002000FFF72AFF18B10CB080BCB846BE
S315000055C0F0BD0BAA0023138012992000FFF759FFA4
S315000055D00028F2D107AB019A0792139A08921F810D
S315000055E0262202A98C46624412885A810BAA128886
S315000055F09A81032F37D9139B002B00D1D9E03A00AB
S315000056000199139800F078FDA388E1888B422DD08C
S31500005610A5880423E15EE3889D420AD022682B0117
S31500005620D21807ABC1CBC1C21B681360A388013374
S31500005630A380149B002B00D183E02668090176180D
S3150000564029002000FFF761FF28BB0023A2899A42A8
S3150000565000D87BE0A26899008A5814998A421CD027
S3150000566001339BB2F2E708AB1393C8E7E36A002B5A
S3150000567000D1A0E04FF6FF72914200D19DE0206874
S31500005680013109019847002800D198E02060E3889D
S315000056900133E380BCE7E8B28FE71FB2A28CE38C4C
S315000056A09A4214D1E26A002A00D176E04FF6FF71E1
S315000056B08B4200D173E0206A01335900C918890072
S315000056C0904700286DD02062E38C0133E3842422C6
S315000056D0A35E984603AA0023138045F2F941C0F25F
S315000056E000012000FFF792FE002800D065E702AB1C
S315000056F09A1D0023138041462000FFF7C2FE0028B2
S3150000570000D05AE704AB002204929F807189D980A9
S31500005710B18919819A7203AB1B88738102AB063378
S315000057201B88B381A18CE38C99420AD0236A4A0074
S31500005730521892009B1804AAC1CAC1C3A38C013394
S31500005740A38434230122E254E8B236E7E1898A428F
S315000057500DD0A3890C22A75EE28993429ED0A2684F
S315000057609B001499D150A3890133A38196E7E36A7C
S315000057706BB14FF6FF7291420BD0A06801318900E0
S31500005780984740B1A060E3890133E381E1E7032054
S3150000579013E7032011E702200FE703200DE703209C
S315000057A00BE7022009E7032007E7032005E70220AD
S315000057B003E7022001E70320FFE60320FDE60220BF
S315000057C0FBE6AAB1B3B1C262036300230360838020
S315000057D0C38003618382C38283618383C3838360BF
S315000057E08381C38103628384C384816200207047FE
S315000057F00120FCE70120FAE7F0B585B006000F00AE
S3150000580014001D00032A11D9C36A1100002098470D
S3150000581070B10023029301900A9B00932B00220093
S3150000582039003000FFF79EFE05B0F0BD0020F0E71E
S315000058300220F9E7F0B5DE4657464646C0B584B0C5
S31500005840040003918388994231DA00292FDB056829
